{
  "contractName": "AirdropMDX",
  "abi": [
    {
      "inputs": [
        {
          "internalType": "address",
          "name": "_mdx",
          "type": "address"
        },
        {
          "internalType": "uint256",
          "name": "_cycle",
          "type": "uint256"
        }
      ],
      "stateMutability": "nonpayable",
      "type": "constructor"
    },
    {
      "anonymous": false,
      "inputs": [
        {
          "indexed": true,
          "internalType": "address",
          "name": "user",
          "type": "address"
        },
        {
          "indexed": true,
          "internalType": "uint256",
          "name": "pid",
          "type": "uint256"
        },
        {
          "indexed": false,
          "internalType": "uint256",
          "name": "amount",
          "type": "uint256"
        }
      ],
      "name": "Deposit",
      "type": "event"
    },
    {
      "anonymous": false,
      "inputs": [
        {
          "indexed": true,
          "internalType": "address",
          "name": "user",
          "type": "address"
        },
        {
          "indexed": true,
          "internalType": "uint256",
          "name": "pid",
          "type": "uint256"
        },
        {
          "indexed": false,
          "internalType": "uint256",
          "name": "amount",
          "type": "uint256"
        }
      ],
      "name": "EmergencyWithdraw",
      "type": "event"
    },
    {
      "anonymous": false,
      "inputs": [
        {
          "indexed": true,
          "internalType": "address",
          "name": "previousOwner",
          "type": "address"
        },
        {
          "indexed": true,
          "internalType": "address",
          "name": "newOwner",
          "type": "address"
        }
      ],
      "name": "OwnershipTransferred",
      "type": "event"
    },
    {
      "anonymous": false,
      "inputs": [
        {
          "indexed": true,
          "internalType": "address",
          "name": "user",
          "type": "address"
        },
        {
          "indexed": true,
          "internalType": "uint256",
          "name": "pid",
          "type": "uint256"
        },
        {
          "indexed": false,
          "internalType": "uint256",
          "name": "amount",
          "type": "uint256"
        }
      ],
      "name": "Withdraw",
      "type": "event"
    },
    {
      "inputs": [],
      "name": "cycle",
      "outputs": [
        {
          "internalType": "uint256",
          "name": "",
          "type": "uint256"
        }
      ],
      "stateMutability": "view",
      "type": "function"
    },
    {
      "inputs": [],
      "name": "endBlock",
      "outputs": [
        {
          "internalType": "uint256",
          "name": "",
          "type": "uint256"
        }
      ],
      "stateMutability": "view",
      "type": "function"
    },
    {
      "inputs": [],
      "name": "mdx",
      "outputs": [
        {
          "internalType": "address",
          "name": "",
          "type": "address"
        }
      ],
      "stateMutability": "view",
      "type": "function"
    },
    {
      "inputs": [],
      "name": "mdxPerBlock",
      "outputs": [
        {
          "internalType": "uint256",
          "name": "",
          "type": "uint256"
        }
      ],
      "stateMutability": "view",
      "type": "function"
    },
    {
      "inputs": [],
      "name": "owner",
      "outputs": [
        {
          "internalType": "address",
          "name": "",
          "type": "address"
        }
      ],
      "stateMutability": "view",
      "type": "function"
    },
    {
      "inputs": [
        {
          "internalType": "uint256",
          "name": "",
          "type": "uint256"
        }
      ],
      "name": "poolInfo",
      "outputs": [
        {
          "internalType": "contract IERC20",
          "name": "lpToken",
          "type": "address"
        },
        {
          "internalType": "uint256",
          "name": "allocPoint",
          "type": "uint256"
        },
        {
          "internalType": "uint256",
          "name": "lastRewardBlock",
          "type": "uint256"
        },
        {
          "internalType": "uint256",
          "name": "accMDXPerShare",
          "type": "uint256"
        },
        {
          "internalType": "uint256",
          "name": "mdxAmount",
          "type": "uint256"
        }
      ],
      "stateMutability": "view",
      "type": "function"
    },
    {
      "inputs": [],
      "name": "renounceOwnership",
      "outputs": [],
      "stateMutability": "nonpayable",
      "type": "function"
    },
    {
      "inputs": [],
      "name": "startBlock",
      "outputs": [
        {
          "internalType": "uint256",
          "name": "",
          "type": "uint256"
        }
      ],
      "stateMutability": "view",
      "type": "function"
    },
    {
      "inputs": [],
      "name": "totalAllocPoint",
      "outputs": [
        {
          "internalType": "uint256",
          "name": "",
          "type": "uint256"
        }
      ],
      "stateMutability": "view",
      "type": "function"
    },
    {
      "inputs": [
        {
          "internalType": "address",
          "name": "newOwner",
          "type": "address"
        }
      ],
      "name": "transferOwnership",
      "outputs": [],
      "stateMutability": "nonpayable",
      "type": "function"
    },
    {
      "inputs": [
        {
          "internalType": "uint256",
          "name": "",
          "type": "uint256"
        },
        {
          "internalType": "address",
          "name": "",
          "type": "address"
        }
      ],
      "name": "userInfo",
      "outputs": [
        {
          "internalType": "uint256",
          "name": "amount",
          "type": "uint256"
        },
        {
          "internalType": "uint256",
          "name": "rewardDebt",
          "type": "uint256"
        }
      ],
      "stateMutability": "view",
      "type": "function"
    },
    {
      "inputs": [],
      "name": "poolLength",
      "outputs": [
        {
          "internalType": "uint256",
          "name": "",
          "type": "uint256"
        }
      ],
      "stateMutability": "view",
      "type": "function"
    },
    {
      "inputs": [
        {
          "internalType": "uint256",
          "name": "_mdxAmount",
          "type": "uint256"
        },
        {
          "internalType": "uint256",
          "name": "_newPerBlock",
          "type": "uint256"
        },
        {
          "internalType": "uint256",
          "name": "_startBlock",
          "type": "uint256"
        }
      ],
      "name": "newAirdrop",
      "outputs": [],
      "stateMutability": "nonpayable",
      "type": "function"
    },
    {
      "inputs": [
        {
          "internalType": "uint256",
          "name": "_newCycle",
          "type": "uint256"
        }
      ],
      "name": "setCycle",
      "outputs": [],
      "stateMutability": "nonpayable",
      "type": "function"
    },
    {
      "inputs": [
        {
          "internalType": "uint256",
          "name": "_allocPoint",
          "type": "uint256"
        },
        {
          "internalType": "contract IERC20",
          "name": "_lpToken",
          "type": "address"
        },
        {
          "internalType": "bool",
          "name": "_withUpdate",
          "type": "bool"
        }
      ],
      "name": "add",
      "outputs": [],
      "stateMutability": "nonpayable",
      "type": "function"
    },
    {
      "inputs": [
        {
          "internalType": "uint256",
          "name": "_pid",
          "type": "uint256"
        },
        {
          "internalType": "uint256",
          "name": "_allocPoint",
          "type": "uint256"
        },
        {
          "internalType": "bool",
          "name": "_withUpdate",
          "type": "bool"
        }
      ],
      "name": "set",
      "outputs": [],
      "stateMutability": "nonpayable",
      "type": "function"
    },
    {
      "inputs": [],
      "name": "massUpdatePools",
      "outputs": [],
      "stateMutability": "nonpayable",
      "type": "function"
    },
    {
      "inputs": [
        {
          "internalType": "uint256",
          "name": "_pid",
          "type": "uint256"
        }
      ],
      "name": "updatePool",
      "outputs": [],
      "stateMutability": "nonpayable",
      "type": "function"
    },
    {
      "inputs": [
        {
          "internalType": "uint256",
          "name": "_pid",
          "type": "uint256"
        },
        {
          "internalType": "address",
          "name": "_user",
          "type": "address"
        }
      ],
      "name": "pending",
      "outputs": [
        {
          "internalType": "uint256",
          "name": "",
          "type": "uint256"
        }
      ],
      "stateMutability": "view",
      "type": "function"
    },
    {
      "inputs": [
        {
          "internalType": "uint256",
          "name": "_pid",
          "type": "uint256"
        },
        {
          "internalType": "uint256",
          "name": "_amount",
          "type": "uint256"
        }
      ],
      "name": "deposit",
      "outputs": [],
      "stateMutability": "nonpayable",
      "type": "function"
    },
    {
      "inputs": [
        {
          "internalType": "uint256",
          "name": "_pid",
          "type": "uint256"
        },
        {
          "internalType": "uint256",
          "name": "_amount",
          "type": "uint256"
        }
      ],
      "name": "withdraw",
      "outputs": [],
      "stateMutability": "nonpayable",
      "type": "function"
    },
    {
      "inputs": [
        {
          "internalType": "uint256",
          "name": "_pid",
          "type": "uint256"
        }
      ],
      "name": "emergencyWithdraw",
      "outputs": [],
      "stateMutability": "nonpayable",
      "type": "function"
    }
  ],
  "bytecode": "0x6080604052600060055534801561001557600080fd5b50604051611d51380380611d518339818101604052604081101561003857600080fd5b508051602090910151600061004b6100be565b600080546001600160a01b0319166001600160a01b0383169081178255604051929350917f8be0079c531659141344cd1fd0a4f28419497f9722a3daafe3b4186f6b6457e0908290a350600180546001600160a01b0319166001600160a01b0393909316929092179091556008556100c2565b3390565b611c80806100d16000396000f3fe608060405234801561001057600080fd5b50600436106101425760003560e01c80636190c9d5116100b85780638da5cb5b1161007c5780638da5cb5b1461030b5780638fa39a881461031357806393f1a40b1461031b578063e2bbb15814610360578063e4c75c2714610383578063f2fde38b146103af57610142565b80636190c9d5146102ab578063630b5ba1146102b357806364482f79146102bb5780636d93c3ba146102e6578063715018a61461030357610142565b8063441a3e701161010a578063441a3e70146101f957806348cd4cb11461021c5780634ebe495c1461022457806351eb05a61461024d5780635312ea8e1461026a5780635672ab551461028757610142565b8063081e3eda14610147578063083c6323146101615780631526fe271461016957806317caf6f1146101bb5780631eaaa045146101c3575b600080fd5b61014f6103d5565b60408051918252519081900360200190f35b61014f6103db565b6101866004803603602081101561017f57600080fd5b50356103e1565b604080516001600160a01b03909616865260208601949094528484019290925260608401526080830152519081900360a00190f35b61014f610429565b6101f7600480360360608110156101d957600080fd5b508035906001600160a01b036020820135169060400135151561042f565b005b6101f76004803603604081101561020f57600080fd5b5080359060200135610636565b61014f6107c7565b6101f76004803603606081101561023a57600080fd5b50803590602081013590604001356107cd565b6101f76004803603602081101561026357600080fd5b5035610a63565b6101f76004803603602081101561028057600080fd5b5035610bd6565b61028f610c9f565b604080516001600160a01b039092168252519081900360200190f35b61014f610cae565b6101f7610cb4565b6101f7600480360360608110156102d157600080fd5b50803590602081013590604001351515610cd7565b6101f7600480360360208110156102fc57600080fd5b5035610da8565b6101f7610e05565b61028f610ea7565b61014f610eb6565b6103476004803603604081101561033157600080fd5b50803590602001356001600160a01b0316610ebc565b6040805192835260208301919091528051918290030190f35b6101f76004803603604081101561037657600080fd5b5080359060200135610ee0565b61014f6004803603604081101561039957600080fd5b50803590602001356001600160a01b0316611023565b6101f7600480360360208110156103c557600080fd5b50356001600160a01b03166111cb565b60035490565b60075481565b600381815481106103ee57fe5b6000918252602090912060059091020180546001820154600283015460038401546004909401546001600160a01b0390931694509092909185565b60055481565b6104376112c3565b6000546001600160a01b03908116911614610487576040805162461bcd60e51b81526020600482018190526024820152600080516020611bdd833981519152604482015290519081900360640190fd5b6001600160a01b0382166104e2576040805162461bcd60e51b815260206004820152601b60248201527f6c70546f6b656e20697320746865207a65726f20616464726573730000000000604482015290519081900360640190fd5b80156104f0576104f0610cb4565b6000600654431161050357600654610505565b435b60055490915061051590856112c7565b60059081556040805160a0810182526001600160a01b039586168152602081019687529081019283526000606082018181526080830182815260038054600181018255935292517fc2575a0e9e593c00f959f8c92f12db2869c3395a3b0502d05e2516446f71f85b9290940291820180546001600160a01b031916949097169390931790955594517fc2575a0e9e593c00f959f8c92f12db2869c3395a3b0502d05e2516446f71f85c85015590517fc2575a0e9e593c00f959f8c92f12db2869c3395a3b0502d05e2516446f71f85d840155517fc2575a0e9e593c00f959f8c92f12db2869c3395a3b0502d05e2516446f71f85e8301555090517fc2575a0e9e593c00f959f8c92f12db2869c3395a3b0502d05e2516446f71f85f90910155565b60006003838154811061064557fe5b6000918252602080832086845260048252604080852033865290925292208054600590920290920192508311156106b8576040805162461bcd60e51b81526020600482015260126024820152711dda5d1a191c985dce881b9bdd0819dbdbd960721b604482015290519081900360640190fd5b6106c184610a63565b60006106fb82600101546106f564e8d4a510006106ef8760030154876000015461132890919063ffffffff16565b90611381565b906113c3565b905080156107125761071233828560040154611405565b831561076957815461072490856113c3565b825560015483546001600160a01b039081169116141561075357600483015461074d90856113c3565b60048401555b8254610769906001600160a01b031633866115a0565b600383015482546107849164e8d4a51000916106ef91611328565b6001830155604080518581529051869133917ff279e6a1f5e320cca91135676d9cb6e44ca8a08c0b88342bcdb1144f6511b5689181900360200190a35050505050565b60065481565b6107d56112c3565b6000546001600160a01b03908116911614610825576040805162461bcd60e51b81526020600482018190526024820152600080516020611bdd833981519152604482015290519081900360640190fd5b6007544311801561083857506007548110155b610878576040805162461bcd60e51b815260206004820152600c60248201526b139bdd08199a5b9a5cda195960a21b604482015290519081900360640190fd5b610880610cb4565b600154604080516370a0823160e01b815230600482015290516000926001600160a01b0316916370a08231916024808301926020929190829003018186803b1580156108cb57600080fd5b505afa1580156108df573d6000803e3d6000fd5b505050506040513d60208110156108f557600080fd5b5051600154909150610912906001600160a01b03163330876115f7565b600154604080516370a0823160e01b815230600482015290516000926001600160a01b0316916370a08231916024808301926020929190829003018186803b15801561095d57600080fd5b505afa158015610971573d6000803e3d6000fd5b505050506040513d602081101561098757600080fd5b50519050600061099782846113c3565b90508581146109dd576040805162461bcd60e51b815260206004820152600d60248201526c4572726f722062616c616e636560981b604482015290519081900360640190fd5b6000811180156109f1575080856008540211155b610a37576040805162461bcd60e51b8152602060048201526012602482015271084c2d8c2dcc6ca40dcdee840cadcdeeaced60731b604482015290519081900360640190fd5b60028590556006849055600854610a4f9085906112c7565b600755610a5b8461174c565b505050505050565b600060038281548110610a7257fe5b9060005260206000209060050201905060006007544311610a935743610a97565b6007545b905081600201548111610aab575050610bd3565b60015482546000916001600160a01b0391821691161415610ad157506004820154610b4a565b8254604080516370a0823160e01b815230600482015290516001600160a01b03909216916370a0823191602480820192602092909190829003018186803b158015610b1b57600080fd5b505afa158015610b2f573d6000803e3d6000fd5b505050506040513d6020811015610b4557600080fd5b505190505b80610b5b5750600290910155610bd3565b6000610b748460020154846113c390919063ffffffff16565b90506000610ba16005546106ef8760010154610b9b6002548761132890919063ffffffff16565b90611328565b9050610bc4610bb9846106ef8464e8d4a51000611328565b6003870154906112c7565b60038601555050506002909101555b50565b600060038281548110610be557fe5b6000918252602080832085845260048252604080852033865290925290832080548482556001808301959095559354600590930290910180549094509092916001600160a01b0391821691161415610c4c576004830154610c4690826113c3565b60048401555b8254610c62906001600160a01b031633836115a0565b604080518281529051859133917fbb757047c2b5f3974fe26b7c10f732e7bce710b0952a71082702781e62ae05959181900360200190a350505050565b6001546001600160a01b031681565b60085481565b60035460005b81811015610cd357610ccb81610a63565b600101610cba565b5050565b610cdf6112c3565b6000546001600160a01b03908116911614610d2f576040805162461bcd60e51b81526020600482018190526024820152600080516020611bdd833981519152604482015290519081900360640190fd5b8015610d3d57610d3d610cb4565b610d7a82610d7460038681548110610d5157fe5b9060005260206000209060050201600101546005546113c390919063ffffffff16565b906112c7565b6005819055508160038481548110610d8e57fe5b906000526020600020906005020160010181905550505050565b610db06112c3565b6000546001600160a01b03908116911614610e00576040805162461bcd60e51b81526020600482018190526024820152600080516020611bdd833981519152604482015290519081900360640190fd5b600855565b610e0d6112c3565b6000546001600160a01b03908116911614610e5d576040805162461bcd60e51b81526020600482018190526024820152600080516020611bdd833981519152604482015290519081900360640190fd5b600080546040516001600160a01b03909116907f8be0079c531659141344cd1fd0a4f28419497f9722a3daafe3b4186f6b6457e0908390a3600080546001600160a01b0319169055565b6000546001600160a01b031690565b60025481565b60046020908152600092835260408084209091529082529020805460019091015482565b600060038381548110610eef57fe5b60009182526020808320868452600482526040808520338652909252922060059091029091019150610f2084610a63565b805415610f6e576000610f5582600101546106f564e8d4a510006106ef8760030154876000015461132890919063ffffffff16565b90508015610f6c57610f6c33828560040154611405565b505b8215610fc6578154610f8b906001600160a01b0316333086611788565b8054610f9790846112c7565b815560015482546001600160a01b0390811691161415610fc6576004820154610fc090846112c7565b60048301555b60038201548154610fe19164e8d4a51000916106ef91611328565b6001820155604080518481529051859133917f90890809c654f11d6e72a28fa60149770a0d11ec6c92319d6ceb2bb0a4ea1a159181900360200190a350505050565b6000806003848154811061103357fe5b600091825260208083208784526004825260408085206001600160a01b0389811687529352842060059390930201600381015460015482549296509394909390929081169116141561108a57506004830154611103565b8354604080516370a0823160e01b815230600482015290516001600160a01b03909216916370a0823191602480820192602092909190829003018186803b1580156110d457600080fd5b505afa1580156110e8573d6000803e3d6000fd5b505050506040513d60208110156110fe57600080fd5b505190505b600060075443116111145743611118565b6007545b905084600201548111801561112c57508115155b1561119557600061114a8660020154836113c390919063ffffffff16565b905060006111716005546106ef8960010154610b9b6002548761132890919063ffffffff16565b9050611190611189856106ef8464e8d4a51000611328565b86906112c7565b945050505b6111bd84600101546106f564e8d4a510006106ef87896000015461132890919063ffffffff16565b955050505050505b92915050565b6111d36112c3565b6000546001600160a01b03908116911614611223576040805162461bcd60e51b81526020600482018190526024820152600080516020611bdd833981519152604482015290519081900360640190fd5b6001600160a01b0381166112685760405162461bcd60e51b8152600401808060200182810382526026815260200180611b706026913960400191505060405180910390fd5b600080546040516001600160a01b03808516939216917f8be0079c531659141344cd1fd0a4f28419497f9722a3daafe3b4186f6b6457e091a3600080546001600160a01b0319166001600160a01b0392909216919091179055565b3390565b600082820183811015611321576040805162461bcd60e51b815260206004820152601b60248201527f536166654d6174683a206164646974696f6e206f766572666c6f770000000000604482015290519081900360640190fd5b9392505050565b600082611337575060006111c5565b8282028284828161134457fe5b04146113215760405162461bcd60e51b8152600401808060200182810382526021815260200180611bbc6021913960400191505060405180910390fd5b600061132183836040518060400160405280601a81526020017f536166654d6174683a206469766973696f6e206279207a65726f0000000000008152506117e2565b600061132183836040518060400160405280601e81526020017f536166654d6174683a207375627472616374696f6e206f766572666c6f770000815250611884565b600154604080516370a0823160e01b815230600482015290516000926001600160a01b0316916370a08231916024808301926020929190829003018186803b15801561145057600080fd5b505afa158015611464573d6000803e3d6000fd5b505050506040513d602081101561147a57600080fd5b5051905061148881836113c3565b90508083111561151a576001546040805163a9059cbb60e01b81526001600160a01b038781166004830152602482018590529151919092169163a9059cbb9160448083019260209291908290030181600087803b1580156114e857600080fd5b505af11580156114fc573d6000803e3d6000fd5b505050506040513d602081101561151257600080fd5b5061159a9050565b6001546040805163a9059cbb60e01b81526001600160a01b038781166004830152602482018790529151919092169163a9059cbb9160448083019260209291908290030181600087803b15801561157057600080fd5b505af1158015611584573d6000803e3d6000fd5b505050506040513d6020811015610a5b57600080fd5b50505050565b604080516001600160a01b038416602482015260448082018490528251808303909101815260649091019091526020810180516001600160e01b031663a9059cbb60e01b1790526115f29084906118de565b505050565b604080516001600160a01b0385811660248301528481166044830152606480830185905283518084039091018152608490920183526020820180516001600160e01b03166323b872dd60e01b17815292518251600094606094938a169392918291908083835b6020831061167c5780518252601f19909201916020918201910161165d565b6001836020036101000a0380198251168184511680821785525050505050509050019150506000604051808303816000865af19150503d80600081146116de576040519150601f19603f3d011682016040523d82523d6000602084013e6116e3565b606091505b5091509150818015611711575080511580611711575080806020019051602081101561170e57600080fd5b50515b610a5b5760405162461bcd60e51b8152600401808060200182810382526024815260200180611c276024913960400191505060405180910390fd5b60035460005b818110156115f25760006003828154811061176957fe5b6000918252602090912060026005909202010184905550600101611752565b604080516001600160a01b0380861660248301528416604482015260648082018490528251808303909101815260849091019091526020810180516001600160e01b03166323b872dd60e01b17905261159a9085906118de565b6000818361186e5760405162461bcd60e51b81526004018080602001828103825283818151815260200191508051906020019080838360005b8381101561183357818101518382015260200161181b565b50505050905090810190601f1680156118605780820380516001836020036101000a031916815260200191505b509250505060405180910390fd5b50600083858161187a57fe5b0495945050505050565b600081848411156118d65760405162461bcd60e51b815260206004820181815283516024840152835190928392604490910191908501908083836000831561183357818101518382015260200161181b565b505050900390565b6060611933826040518060400160405280602081526020017f5361666545524332303a206c6f772d6c6576656c2063616c6c206661696c6564815250856001600160a01b031661198f9092919063ffffffff16565b8051909150156115f25780806020019051602081101561195257600080fd5b50516115f25760405162461bcd60e51b815260040180806020018281038252602a815260200180611bfd602a913960400191505060405180910390fd5b606061199e84846000856119a6565b949350505050565b606030318311156119e85760405162461bcd60e51b8152600401808060200182810382526026815260200180611b966026913960400191505060405180910390fd5b6119f185611b03565b611a42576040805162461bcd60e51b815260206004820152601d60248201527f416464726573733a2063616c6c20746f206e6f6e2d636f6e7472616374000000604482015290519081900360640190fd5b60006060866001600160a01b031685876040518082805190602001908083835b60208310611a815780518252601f199092019160209182019101611a62565b6001836020036101000a03801982511681845116808217855250505050505090500191505060006040518083038185875af1925050503d8060008114611ae3576040519150601f19603f3d011682016040523d82523d6000602084013e611ae8565b606091505b5091509150611af8828286611b09565b979650505050505050565b3b151590565b60608315611b18575081611321565b825115611b285782518084602001fd5b60405162461bcd60e51b815260206004820181815284516024840152845185939192839260440191908501908083836000831561183357818101518382015260200161181b56fe4f776e61626c653a206e6577206f776e657220697320746865207a65726f2061646472657373416464726573733a20696e73756666696369656e742062616c616e636520666f722063616c6c536166654d6174683a206d756c7469706c69636174696f6e206f766572666c6f774f776e61626c653a2063616c6c6572206973206e6f7420746865206f776e65725361666545524332303a204552433230206f7065726174696f6e20646964206e6f7420737563636565645472616e7366657248656c7065723a205452414e534645525f46524f4d5f4641494c4544a264697066735822122047877726103fb9a39935effd9eb2f4c97bd8be4f8aff0bdd4823f0d8f0bda01f64736f6c634300060c0033",
  "immutableReferences": {},
  "source": "// SPDX-License-Identifier: MIT\r\npragma solidity >=0.4.22 <0.8.0;\r\n\r\nimport \"@openzeppelin/contracts/access/Ownable.sol\";\r\nimport \"@openzeppelin/contracts/token/ERC20/IERC20.sol\";\r\nimport \"@openzeppelin/contracts/token/ERC20/SafeERC20.sol\";\r\nimport \"@openzeppelin/contracts/math/SafeMath.sol\";\r\n\r\n\r\nlibrary TransferHelper {\r\n    function safeApprove(address token, address to, uint value) internal {\r\n        // bytes4(keccak256(bytes('approve(address,uint256)')));\r\n        (bool success, bytes memory data) = token.call(abi.encodeWithSelector(0x095ea7b3, to, value));\r\n        require(success && (data.length == 0 || abi.decode(data, (bool))), 'TransferHelper: APPROVE_FAILED');\r\n    }\r\n\r\n    function safeTransfer(address token, address to, uint value) internal {\r\n        // bytes4(keccak256(bytes('transfer(address,uint256)')));\r\n        (bool success, bytes memory data) = token.call(abi.encodeWithSelector(0xa9059cbb, to, value));\r\n        require(success && (data.length == 0 || abi.decode(data, (bool))), 'TransferHelper: TRANSFER_FAILED');\r\n    }\r\n\r\n    function safeTransferFrom(address token, address from, address to, uint value) internal {\r\n        // bytes4(keccak256(bytes('transferFrom(address,address,uint256)')));\r\n        (bool success, bytes memory data) = token.call(abi.encodeWithSelector(0x23b872dd, from, to, value));\r\n        require(success && (data.length == 0 || abi.decode(data, (bool))), 'TransferHelper: TRANSFER_FROM_FAILED');\r\n    }\r\n}\r\n\r\ncontract AirdropMDX is Ownable {\r\n    using SafeMath for uint256;\r\n    using SafeERC20 for IERC20;\r\n\r\n    struct UserInfo {\r\n        uint256 amount;\r\n        uint256 rewardDebt;\r\n    }\r\n\r\n    struct PoolInfo {\r\n        IERC20 lpToken;\r\n        uint256 allocPoint;\r\n        uint256 lastRewardBlock;\r\n        uint256 accMDXPerShare;\r\n        uint256 mdxAmount;\r\n    }\r\n\r\n    address public mdx;\r\n    // Airdrop tokens for per block.\r\n    uint256 public mdxPerBlock;\r\n    // Info of each pool.\r\n    PoolInfo[] public poolInfo;\r\n    // Info of each user that stakes LP tokens.\r\n    mapping(uint256 => mapping(address => UserInfo)) public userInfo;\r\n    // Total allocation points. Must be the sum of all allocation points in all pools.\r\n    uint256 public totalAllocPoint = 0;\r\n    // The block number when mdx mining starts.\r\n    uint256 public startBlock;\r\n    // The block number when mdx mining end;\r\n    uint256 public endBlock;\r\n    // Airdrop cycle default 1day\r\n    uint256 public cycle;\r\n\r\n    event Deposit(address indexed user, uint256 indexed pid, uint256 amount);\r\n    event Withdraw(address indexed user, uint256 indexed pid, uint256 amount);\r\n    event EmergencyWithdraw(address indexed user, uint256 indexed pid, uint256 amount);\r\n\r\n    constructor(\r\n        address _mdx,\r\n        uint256 _cycle\r\n    ) public {\r\n        mdx = _mdx;\r\n        cycle = _cycle;\r\n    }\r\n\r\n    function poolLength() external view returns (uint256) {\r\n        return poolInfo.length;\r\n    }\r\n\r\n    function newAirdrop(uint256 _mdxAmount, uint256 _newPerBlock, uint256 _startBlock) public onlyOwner {\r\n        require(block.number > endBlock && _startBlock >= endBlock, \"Not finished\");\r\n        massUpdatePools();\r\n        uint256 beforeAmount = IERC20(mdx).balanceOf(address(this));\r\n        TransferHelper.safeTransferFrom(mdx, msg.sender, address(this), _mdxAmount);\r\n        uint256 afterAmount = IERC20(mdx).balanceOf(address(this));\r\n        uint256 balance = afterAmount.sub(beforeAmount);\r\n        require(balance == _mdxAmount, \"Error balance\");\r\n        require(balance > 0 && (cycle * _newPerBlock) <= balance, \"Balance not enough\");\r\n        mdxPerBlock = _newPerBlock;\r\n        startBlock = _startBlock;\r\n        endBlock = _startBlock.add(cycle);\r\n        updatePoolLastRewardBlock(_startBlock);\r\n    }\r\n\r\n    function updatePoolLastRewardBlock(uint256 _lastRewardBlock) private {\r\n        uint256 length = poolInfo.length;\r\n        for (uint256 pid = 0; pid < length; ++pid) {\r\n            PoolInfo storage pool = poolInfo[pid];\r\n            pool.lastRewardBlock = _lastRewardBlock;\r\n        }\r\n    }\r\n\r\n    function setCycle(uint256 _newCycle) public onlyOwner {\r\n        cycle = _newCycle;\r\n    }\r\n\r\n    // Add a new lp to the pool. Can only be called by the owner.\r\n    // XXX DO NOT add the same LP token more than once. Rewards will be messed up if you do.\r\n    function add(uint256 _allocPoint, IERC20 _lpToken, bool _withUpdate) public onlyOwner {\r\n        require(address(_lpToken) != address(0), \"lpToken is the zero address\");\r\n        if (_withUpdate) {\r\n            massUpdatePools();\r\n        }\r\n        uint256 lastRewardBlock = block.number > startBlock ? block.number : startBlock;\r\n        totalAllocPoint = totalAllocPoint.add(_allocPoint);\r\n        poolInfo.push(PoolInfo({\r\n        lpToken : _lpToken,\r\n        allocPoint : _allocPoint,\r\n        lastRewardBlock : lastRewardBlock,\r\n        accMDXPerShare : 0,\r\n        mdxAmount : 0\r\n        }));\r\n    }\r\n\r\n    // Update the given pool's wht allocation point. Can only be called by the owner.\r\n    function set(uint256 _pid, uint256 _allocPoint, bool _withUpdate) public onlyOwner {\r\n        if (_withUpdate) {\r\n            massUpdatePools();\r\n        }\r\n        totalAllocPoint = totalAllocPoint.sub(poolInfo[_pid].allocPoint).add(_allocPoint);\r\n        poolInfo[_pid].allocPoint = _allocPoint;\r\n    }\r\n\r\n    // Update reward variables for all pools. Be careful of gas spending!\r\n    function massUpdatePools() public {\r\n        uint256 length = poolInfo.length;\r\n        for (uint256 pid = 0; pid < length; ++pid) {\r\n            updatePool(pid);\r\n        }\r\n    }\r\n\r\n    // Update reward variables of the given pool to be up-to-date.\r\n    function updatePool(uint256 _pid) public {\r\n        PoolInfo storage pool = poolInfo[_pid];\r\n        uint256 number = block.number > endBlock ? endBlock : block.number;\r\n        if (number <= pool.lastRewardBlock) {\r\n            return;\r\n        }\r\n        uint256 lpSupply;\r\n        if (address(pool.lpToken) == mdx) {\r\n            lpSupply = pool.mdxAmount;\r\n        } else {\r\n            lpSupply = pool.lpToken.balanceOf(address(this));\r\n        }\r\n        if (lpSupply == 0) {\r\n            pool.lastRewardBlock = number;\r\n            return;\r\n        }\r\n        uint256 multiplier = number.sub(pool.lastRewardBlock);\r\n        uint256 mdxReward = multiplier.mul(mdxPerBlock).mul(pool.allocPoint).div(totalAllocPoint);\r\n        pool.accMDXPerShare = pool.accMDXPerShare.add(mdxReward.mul(1e12).div(lpSupply));\r\n        pool.lastRewardBlock = number;\r\n    }\r\n\r\n\r\n    function pending(uint256 _pid, address _user) external view returns (uint256) {\r\n        PoolInfo storage pool = poolInfo[_pid];\r\n        UserInfo storage user = userInfo[_pid][_user];\r\n        uint256 accMDXPerShare = pool.accMDXPerShare;\r\n        uint256 lpSupply;\r\n        if (address(pool.lpToken) == mdx) {\r\n            lpSupply = pool.mdxAmount;\r\n        } else {\r\n            lpSupply = pool.lpToken.balanceOf(address(this));\r\n        }\r\n        uint256 number = block.number > endBlock ? endBlock : block.number;\r\n        if (number > pool.lastRewardBlock && lpSupply != 0) {\r\n            uint256 multiplier = number.sub(pool.lastRewardBlock);\r\n            uint256 mdxReward = multiplier.mul(mdxPerBlock).mul(pool.allocPoint).div(totalAllocPoint);\r\n            accMDXPerShare = accMDXPerShare.add(mdxReward.mul(1e12).div(lpSupply));\r\n        }\r\n        return user.amount.mul(accMDXPerShare).div(1e12).sub(user.rewardDebt);\r\n    }\r\n\r\n\r\n    // Deposit LP tokens dividends WHT;\r\n    function deposit(uint256 _pid, uint256 _amount) public {\r\n        PoolInfo storage pool = poolInfo[_pid];\r\n        UserInfo storage user = userInfo[_pid][msg.sender];\r\n        updatePool(_pid);\r\n        if (user.amount > 0) {\r\n            uint256 pendingAmount = user.amount.mul(pool.accMDXPerShare).div(1e12).sub(user.rewardDebt);\r\n            if (pendingAmount > 0) {\r\n                safeMDXTransfer(msg.sender, pendingAmount, pool.mdxAmount);\r\n            }\r\n        }\r\n        if (_amount > 0) {\r\n            pool.lpToken.safeTransferFrom(address(msg.sender), address(this), _amount);\r\n            user.amount = user.amount.add(_amount);\r\n            if (address(pool.lpToken) == mdx) {\r\n                pool.mdxAmount = pool.mdxAmount.add(_amount);\r\n            }\r\n        }\r\n        user.rewardDebt = user.amount.mul(pool.accMDXPerShare).div(1e12);\r\n        emit Deposit(msg.sender, _pid, _amount);\r\n    }\r\n\r\n    // Withdraw LP tokens.\r\n    function withdraw(uint256 _pid, uint256 _amount) public {\r\n        PoolInfo storage pool = poolInfo[_pid];\r\n        UserInfo storage user = userInfo[_pid][msg.sender];\r\n        require(user.amount >= _amount, \"withdraw: not good\");\r\n        updatePool(_pid);\r\n        uint256 pendingAmount = user.amount.mul(pool.accMDXPerShare).div(1e12).sub(user.rewardDebt);\r\n        if (pendingAmount > 0) {\r\n            safeMDXTransfer(msg.sender, pendingAmount, pool.mdxAmount);\r\n        }\r\n        if (_amount > 0) {\r\n            user.amount = user.amount.sub(_amount);\r\n            if (address(pool.lpToken) == mdx) {\r\n                pool.mdxAmount = pool.mdxAmount.sub(_amount);\r\n            }\r\n            pool.lpToken.safeTransfer(address(msg.sender), _amount);\r\n        }\r\n        user.rewardDebt = user.amount.mul(pool.accMDXPerShare).div(1e12);\r\n        emit Withdraw(msg.sender, _pid, _amount);\r\n    }\r\n\r\n    // Withdraw without caring about rewards. EMERGENCY ONLY.\r\n    function emergencyWithdraw(uint256 _pid) public {\r\n        PoolInfo storage pool = poolInfo[_pid];\r\n        UserInfo storage user = userInfo[_pid][msg.sender];\r\n        uint256 amount = user.amount;\r\n        user.amount = 0;\r\n        user.rewardDebt = 0;\r\n        if (address(pool.lpToken) == mdx) {\r\n            pool.mdxAmount = pool.mdxAmount.sub(amount);\r\n        }\r\n        pool.lpToken.safeTransfer(address(msg.sender), amount);\r\n        emit EmergencyWithdraw(msg.sender, _pid, amount);\r\n    }\r\n\r\n    // Safe mdx transfer function, just in case if rounding error causes pool to not have enough mdxs.\r\n    function safeMDXTransfer(address _to, uint256 _amount, uint256 _poolMDXAmount) internal {\r\n        uint256 mdxBalance = IERC20(mdx).balanceOf(address(this));\r\n        mdxBalance = mdxBalance.sub(_poolMDXAmount);\r\n        if (_amount > mdxBalance) {\r\n            IERC20(mdx).transfer(_to, mdxBalance);\r\n        } else {\r\n            IERC20(mdx).transfer(_to, _amount);\r\n        }\r\n    }\r\n}\r\n",
  "sourcePath": "D:/Posao - Stefan/Stefan - razno/Blockchain/ElavateFinance/elavate-core/contracts/mdexSwap/assets/AirdropMDX.sol",
  "compiler": {
    "name": "solc",
    "version": "0.6.12+commit.27d51765.Emscripten.clang"
  },
  "schemaVersion": "3.4.1",
  "updatedAt": "2021-07-16T22:16:57.343Z",
  "devdoc": {
    "kind": "dev",
    "methods": {
      "owner()": {
        "details": "Returns the address of the current owner."
      },
      "renounceOwnership()": {
        "details": "Leaves the contract without owner. It will not be possible to call `onlyOwner` functions anymore. Can only be called by the current owner. NOTE: Renouncing ownership will leave the contract without an owner, thereby removing any functionality that is only available to the owner."
      },
      "transferOwnership(address)": {
        "details": "Transfers ownership of the contract to a new account (`newOwner`). Can only be called by the current owner."
      }
    },
    "version": 1
  },
  "userdoc": {
    "kind": "user",
    "methods": {},
    "version": 1
  }
}