{
  "contractName": "Airdrop",
  "abi": [
    {
      "inputs": [
        {
          "internalType": "contract IWHT",
          "name": "_wht",
          "type": "address"
        },
        {
          "internalType": "uint256",
          "name": "_cycle",
          "type": "uint256"
        }
      ],
      "stateMutability": "nonpayable",
      "type": "constructor"
    },
    {
      "anonymous": false,
      "inputs": [
        {
          "indexed": true,
          "internalType": "address",
          "name": "user",
          "type": "address"
        },
        {
          "indexed": true,
          "internalType": "uint256",
          "name": "pid",
          "type": "uint256"
        },
        {
          "indexed": false,
          "internalType": "uint256",
          "name": "amount",
          "type": "uint256"
        }
      ],
      "name": "Deposit",
      "type": "event"
    },
    {
      "anonymous": false,
      "inputs": [
        {
          "indexed": true,
          "internalType": "address",
          "name": "user",
          "type": "address"
        },
        {
          "indexed": true,
          "internalType": "uint256",
          "name": "pid",
          "type": "uint256"
        },
        {
          "indexed": false,
          "internalType": "uint256",
          "name": "amount",
          "type": "uint256"
        }
      ],
      "name": "EmergencyWithdraw",
      "type": "event"
    },
    {
      "anonymous": false,
      "inputs": [
        {
          "indexed": true,
          "internalType": "address",
          "name": "previousOwner",
          "type": "address"
        },
        {
          "indexed": true,
          "internalType": "address",
          "name": "newOwner",
          "type": "address"
        }
      ],
      "name": "OwnershipTransferred",
      "type": "event"
    },
    {
      "anonymous": false,
      "inputs": [
        {
          "indexed": true,
          "internalType": "address",
          "name": "user",
          "type": "address"
        },
        {
          "indexed": true,
          "internalType": "uint256",
          "name": "pid",
          "type": "uint256"
        },
        {
          "indexed": false,
          "internalType": "uint256",
          "name": "amount",
          "type": "uint256"
        }
      ],
      "name": "Withdraw",
      "type": "event"
    },
    {
      "inputs": [],
      "name": "cycle",
      "outputs": [
        {
          "internalType": "uint256",
          "name": "",
          "type": "uint256"
        }
      ],
      "stateMutability": "view",
      "type": "function"
    },
    {
      "inputs": [],
      "name": "endBlock",
      "outputs": [
        {
          "internalType": "uint256",
          "name": "",
          "type": "uint256"
        }
      ],
      "stateMutability": "view",
      "type": "function"
    },
    {
      "inputs": [],
      "name": "owner",
      "outputs": [
        {
          "internalType": "address",
          "name": "",
          "type": "address"
        }
      ],
      "stateMutability": "view",
      "type": "function"
    },
    {
      "inputs": [
        {
          "internalType": "uint256",
          "name": "",
          "type": "uint256"
        }
      ],
      "name": "poolInfo",
      "outputs": [
        {
          "internalType": "contract IERC20",
          "name": "lpToken",
          "type": "address"
        },
        {
          "internalType": "uint256",
          "name": "allocPoint",
          "type": "uint256"
        },
        {
          "internalType": "uint256",
          "name": "lastRewardBlock",
          "type": "uint256"
        },
        {
          "internalType": "uint256",
          "name": "accWhtPerShare",
          "type": "uint256"
        }
      ],
      "stateMutability": "view",
      "type": "function"
    },
    {
      "inputs": [],
      "name": "renounceOwnership",
      "outputs": [],
      "stateMutability": "nonpayable",
      "type": "function"
    },
    {
      "inputs": [],
      "name": "startBlock",
      "outputs": [
        {
          "internalType": "uint256",
          "name": "",
          "type": "uint256"
        }
      ],
      "stateMutability": "view",
      "type": "function"
    },
    {
      "inputs": [],
      "name": "totalAllocPoint",
      "outputs": [
        {
          "internalType": "uint256",
          "name": "",
          "type": "uint256"
        }
      ],
      "stateMutability": "view",
      "type": "function"
    },
    {
      "inputs": [
        {
          "internalType": "address",
          "name": "newOwner",
          "type": "address"
        }
      ],
      "name": "transferOwnership",
      "outputs": [],
      "stateMutability": "nonpayable",
      "type": "function"
    },
    {
      "inputs": [
        {
          "internalType": "uint256",
          "name": "",
          "type": "uint256"
        },
        {
          "internalType": "address",
          "name": "",
          "type": "address"
        }
      ],
      "name": "userInfo",
      "outputs": [
        {
          "internalType": "uint256",
          "name": "amount",
          "type": "uint256"
        },
        {
          "internalType": "uint256",
          "name": "rewardDebt",
          "type": "uint256"
        }
      ],
      "stateMutability": "view",
      "type": "function"
    },
    {
      "inputs": [],
      "name": "wht",
      "outputs": [
        {
          "internalType": "contract IWHT",
          "name": "",
          "type": "address"
        }
      ],
      "stateMutability": "view",
      "type": "function"
    },
    {
      "inputs": [],
      "name": "whtPerBlock",
      "outputs": [
        {
          "internalType": "uint256",
          "name": "",
          "type": "uint256"
        }
      ],
      "stateMutability": "view",
      "type": "function"
    },
    {
      "inputs": [],
      "name": "poolLength",
      "outputs": [
        {
          "internalType": "uint256",
          "name": "",
          "type": "uint256"
        }
      ],
      "stateMutability": "view",
      "type": "function"
    },
    {
      "inputs": [
        {
          "internalType": "uint256",
          "name": "_whtAmount",
          "type": "uint256"
        },
        {
          "internalType": "uint256",
          "name": "_newPerBlock",
          "type": "uint256"
        },
        {
          "internalType": "uint256",
          "name": "_startBlock",
          "type": "uint256"
        }
      ],
      "name": "newAirdrop",
      "outputs": [],
      "stateMutability": "nonpayable",
      "type": "function"
    },
    {
      "inputs": [
        {
          "internalType": "uint256",
          "name": "_newCycle",
          "type": "uint256"
        }
      ],
      "name": "setCycle",
      "outputs": [],
      "stateMutability": "nonpayable",
      "type": "function"
    },
    {
      "inputs": [
        {
          "internalType": "uint256",
          "name": "_allocPoint",
          "type": "uint256"
        },
        {
          "internalType": "contract IERC20",
          "name": "_lpToken",
          "type": "address"
        },
        {
          "internalType": "bool",
          "name": "_withUpdate",
          "type": "bool"
        }
      ],
      "name": "add",
      "outputs": [],
      "stateMutability": "nonpayable",
      "type": "function"
    },
    {
      "inputs": [
        {
          "internalType": "uint256",
          "name": "_pid",
          "type": "uint256"
        },
        {
          "internalType": "uint256",
          "name": "_allocPoint",
          "type": "uint256"
        },
        {
          "internalType": "bool",
          "name": "_withUpdate",
          "type": "bool"
        }
      ],
      "name": "set",
      "outputs": [],
      "stateMutability": "nonpayable",
      "type": "function"
    },
    {
      "inputs": [],
      "name": "massUpdatePools",
      "outputs": [],
      "stateMutability": "nonpayable",
      "type": "function"
    },
    {
      "inputs": [
        {
          "internalType": "uint256",
          "name": "_pid",
          "type": "uint256"
        }
      ],
      "name": "updatePool",
      "outputs": [],
      "stateMutability": "nonpayable",
      "type": "function"
    },
    {
      "inputs": [
        {
          "internalType": "uint256",
          "name": "_pid",
          "type": "uint256"
        },
        {
          "internalType": "address",
          "name": "_user",
          "type": "address"
        }
      ],
      "name": "pending",
      "outputs": [
        {
          "internalType": "uint256",
          "name": "",
          "type": "uint256"
        }
      ],
      "stateMutability": "view",
      "type": "function"
    },
    {
      "inputs": [
        {
          "internalType": "uint256",
          "name": "_pid",
          "type": "uint256"
        },
        {
          "internalType": "uint256",
          "name": "_amount",
          "type": "uint256"
        }
      ],
      "name": "deposit",
      "outputs": [],
      "stateMutability": "nonpayable",
      "type": "function"
    },
    {
      "inputs": [
        {
          "internalType": "uint256",
          "name": "_pid",
          "type": "uint256"
        },
        {
          "internalType": "uint256",
          "name": "_amount",
          "type": "uint256"
        }
      ],
      "name": "withdraw",
      "outputs": [],
      "stateMutability": "nonpayable",
      "type": "function"
    },
    {
      "inputs": [
        {
          "internalType": "uint256",
          "name": "_pid",
          "type": "uint256"
        }
      ],
      "name": "emergencyWithdraw",
      "outputs": [],
      "stateMutability": "nonpayable",
      "type": "function"
    }
  ],
  "bytecode": "0x6080604052600060055534801561001557600080fd5b50604051611c2d380380611c2d8339818101604052604081101561003857600080fd5b508051602090910151600061004b6100be565b600080546001600160a01b0319166001600160a01b0383169081178255604051929350917f8be0079c531659141344cd1fd0a4f28419497f9722a3daafe3b4186f6b6457e0908290a350600180546001600160a01b0319166001600160a01b0393909316929092179091556008556100c2565b3390565b611b5c806100d16000396000f3fe608060405234801561001057600080fd5b50600436106101425760003560e01c80636190c9d5116100b8578063785f34991161007c578063785f3499146102ea5780638da5cb5b1461030e57806393f1a40b14610316578063e2bbb1581461035b578063e4c75c271461037e578063f2fde38b146103aa57610142565b80636190c9d51461028a578063630b5ba11461029257806364482f791461029a5780636d93c3ba146102c5578063715018a6146102e257610142565b80631eaaa0451161010a5780631eaaa045146101c6578063441a3e70146101fc57806348cd4cb11461021f5780634ebe495c1461022757806351eb05a6146102505780635312ea8e1461026d57610142565b8063081e3eda14610147578063083c6323146101615780630cef9396146101695780631526fe271461017157806317caf6f1146101be575b600080fd5b61014f6103d0565b60408051918252519081900360200190f35b61014f6103d6565b61014f6103dc565b61018e6004803603602081101561018757600080fd5b50356103e2565b604080516001600160a01b0390951685526020850193909352838301919091526060830152519081900360800190f35b61014f610423565b6101fa600480360360608110156101dc57600080fd5b508035906001600160a01b0360208201351690604001351515610429565b005b6101fa6004803603604081101561021257600080fd5b50803590602001356105ff565b61014f610760565b6101fa6004803603606081101561023d57600080fd5b5080359060208101359060400135610766565b6101fa6004803603602081101561026657600080fd5b50356109fc565b6101fa6004803603602081101561028357600080fd5b5035610b48565b61014f610be1565b6101fa610be7565b6101fa600480360360608110156102b057600080fd5b50803590602081013590604001351515610c0a565b6101fa600480360360208110156102db57600080fd5b5035610cdb565b6101fa610d38565b6102f2610dda565b604080516001600160a01b039092168252519081900360200190f35b6102f2610de9565b6103426004803603604081101561032c57600080fd5b50803590602001356001600160a01b0316610df8565b6040805192835260208301919091528051918290030190f35b6101fa6004803603604081101561037157600080fd5b5080359060200135610e1c565b61014f6004803603604081101561039457600080fd5b50803590602001356001600160a01b0316610f2e565b6101fa600480360360208110156103c057600080fd5b50356001600160a01b03166110b0565b60035490565b60075481565b60025481565b600381815481106103ef57fe5b600091825260209091206004909102018054600182015460028301546003909301546001600160a01b039092169350919084565b60055481565b6104316111a8565b6000546001600160a01b03908116911614610481576040805162461bcd60e51b81526020600482018190526024820152600080516020611ab9833981519152604482015290519081900360640190fd5b6001600160a01b0382166104dc576040805162461bcd60e51b815260206004820152601b60248201527f6c70546f6b656e20697320746865207a65726f20616464726573730000000000604482015290519081900360640190fd5b80156104ea576104ea610be7565b600060065443116104fd576006546104ff565b435b60055490915061050f90856111ac565b600555604080516080810182526001600160a01b0394851681526020810195865290810191825260006060820181815260038054600181018255925291517fc2575a0e9e593c00f959f8c92f12db2869c3395a3b0502d05e2516446f71f85b600490920291820180546001600160a01b031916919096161790945593517fc2575a0e9e593c00f959f8c92f12db2869c3395a3b0502d05e2516446f71f85c840155517fc2575a0e9e593c00f959f8c92f12db2869c3395a3b0502d05e2516446f71f85d8301555090517fc2575a0e9e593c00f959f8c92f12db2869c3395a3b0502d05e2516446f71f85e90910155565b60006003838154811061060e57fe5b6000918252602080832086845260048083526040808620338752909352919093208054929091029092019250831115610683576040805162461bcd60e51b81526020600482015260126024820152711dda5d1a191c985dce881b9bdd0819dbdbd960721b604482015290519081900360640190fd5b61068c846109fc565b60006106c682600101546106c064e8d4a510006106ba8760030154876000015461120d90919063ffffffff16565b90611266565b906112a8565b905080156106d8576106d833826112ea565b83156107025781546106ea90856112a8565b82558254610702906001600160a01b0316338661147b565b6003830154825461071d9164e8d4a51000916106ba9161120d565b6001830155604080518581529051869133917ff279e6a1f5e320cca91135676d9cb6e44ca8a08c0b88342bcdb1144f6511b5689181900360200190a35050505050565b60065481565b61076e6111a8565b6000546001600160a01b039081169116146107be576040805162461bcd60e51b81526020600482018190526024820152600080516020611ab9833981519152604482015290519081900360640190fd5b600754431180156107d157506007548110155b610811576040805162461bcd60e51b815260206004820152600c60248201526b139bdd08199a5b9a5cda195960a21b604482015290519081900360640190fd5b610819610be7565b600154604080516370a0823160e01b815230600482015290516000926001600160a01b0316916370a08231916024808301926020929190829003018186803b15801561086457600080fd5b505afa158015610878573d6000803e3d6000fd5b505050506040513d602081101561088e57600080fd5b50516001549091506108ab906001600160a01b03163330876114cd565b600154604080516370a0823160e01b815230600482015290516000926001600160a01b0316916370a08231916024808301926020929190829003018186803b1580156108f657600080fd5b505afa15801561090a573d6000803e3d6000fd5b505050506040513d602081101561092057600080fd5b50519050600061093082846112a8565b9050858114610976576040805162461bcd60e51b815260206004820152600d60248201526c4572726f722062616c616e636560981b604482015290519081900360640190fd5b60008111801561098a575080856008540211155b6109d0576040805162461bcd60e51b8152602060048201526012602482015271084c2d8c2dcc6ca40dcdee840cadcdeeaced60731b604482015290519081900360640190fd5b600285905560068490556008546109e89085906111ac565b6007556109f484611622565b505050505050565b600060038281548110610a0b57fe5b9060005260206000209060040201905060006007544311610a2c5743610a30565b6007545b905081600201548111610a44575050610b45565b8154604080516370a0823160e01b815230600482015290516000926001600160a01b0316916370a08231916024808301926020929190829003018186803b158015610a8e57600080fd5b505afa158015610aa2573d6000803e3d6000fd5b505050506040513d6020811015610ab857600080fd5b5051905080610acd5750600290910155610b45565b6000610ae68460020154846112a890919063ffffffff16565b90506000610b136005546106ba8760010154610b0d6002548761120d90919063ffffffff16565b9061120d565b9050610b36610b2b846106ba8464e8d4a5100061120d565b6003870154906111ac565b60038601555050506002909101555b50565b600060038281548110610b5757fe5b60009182526020808320858452600480835260408086203380885294528520805486825560018201969096559302018054909450919291610ba4916001600160a01b03909116908361147b565b604080518281529051859133917fbb757047c2b5f3974fe26b7c10f732e7bce710b0952a71082702781e62ae05959181900360200190a350505050565b60085481565b60035460005b81811015610c0657610bfe816109fc565b600101610bed565b5050565b610c126111a8565b6000546001600160a01b03908116911614610c62576040805162461bcd60e51b81526020600482018190526024820152600080516020611ab9833981519152604482015290519081900360640190fd5b8015610c7057610c70610be7565b610cad82610ca760038681548110610c8457fe5b9060005260206000209060040201600101546005546112a890919063ffffffff16565b906111ac565b6005819055508160038481548110610cc157fe5b906000526020600020906004020160010181905550505050565b610ce36111a8565b6000546001600160a01b03908116911614610d33576040805162461bcd60e51b81526020600482018190526024820152600080516020611ab9833981519152604482015290519081900360640190fd5b600855565b610d406111a8565b6000546001600160a01b03908116911614610d90576040805162461bcd60e51b81526020600482018190526024820152600080516020611ab9833981519152604482015290519081900360640190fd5b600080546040516001600160a01b03909116907f8be0079c531659141344cd1fd0a4f28419497f9722a3daafe3b4186f6b6457e0908390a3600080546001600160a01b0319169055565b6001546001600160a01b031681565b6000546001600160a01b031690565b60046020908152600092835260408084209091529082529020805460019091015482565b600060038381548110610e2b57fe5b60009182526020808320868452600480835260408086203387529093529190932091029091019150610e5c846109fc565b805415610ea5576000610e9182600101546106c064e8d4a510006106ba8760030154876000015461120d90919063ffffffff16565b90508015610ea357610ea333826112ea565b505b8215610ed1578154610ec2906001600160a01b031633308661165e565b8054610ece90846111ac565b81555b60038201548154610eec9164e8d4a51000916106ba9161120d565b6001820155604080518481529051859133917f90890809c654f11d6e72a28fa60149770a0d11ec6c92319d6ceb2bb0a4ea1a159181900360200190a350505050565b60008060038481548110610f3e57fe5b60009182526020808320878452600480835260408086206001600160a01b038a811688529085528187209583029093016003810154815483516370a0823160e01b81523095810195909552925191985095969491909316926370a08231926024808201939291829003018186803b158015610fb857600080fd5b505afa158015610fcc573d6000803e3d6000fd5b505050506040513d6020811015610fe257600080fd5b50516007549091506000904311610ff95743610ffd565b6007545b905084600201548111801561101157508115155b1561107a57600061102f8660020154836112a890919063ffffffff16565b905060006110566005546106ba8960010154610b0d6002548761120d90919063ffffffff16565b905061107561106e856106ba8464e8d4a5100061120d565b86906111ac565b945050505b6110a284600101546106c064e8d4a510006106ba87896000015461120d90919063ffffffff16565b955050505050505b92915050565b6110b86111a8565b6000546001600160a01b03908116911614611108576040805162461bcd60e51b81526020600482018190526024820152600080516020611ab9833981519152604482015290519081900360640190fd5b6001600160a01b03811661114d5760405162461bcd60e51b8152600401808060200182810382526026815260200180611a4c6026913960400191505060405180910390fd5b600080546040516001600160a01b03808516939216917f8be0079c531659141344cd1fd0a4f28419497f9722a3daafe3b4186f6b6457e091a3600080546001600160a01b0319166001600160a01b0392909216919091179055565b3390565b600082820183811015611206576040805162461bcd60e51b815260206004820152601b60248201527f536166654d6174683a206164646974696f6e206f766572666c6f770000000000604482015290519081900360640190fd5b9392505050565b60008261121c575060006110aa565b8282028284828161122957fe5b04146112065760405162461bcd60e51b8152600401808060200182810382526021815260200180611a986021913960400191505060405180910390fd5b600061120683836040518060400160405280601a81526020017f536166654d6174683a206469766973696f6e206279207a65726f0000000000008152506116be565b600061120683836040518060400160405280601e81526020017f536166654d6174683a207375627472616374696f6e206f766572666c6f770000815250611760565b600154604080516370a0823160e01b815230600482015290516000926001600160a01b0316916370a08231916024808301926020929190829003018186803b15801561133557600080fd5b505afa158015611349573d6000803e3d6000fd5b505050506040513d602081101561135f57600080fd5b50519050808211156113f3576001546040805163a9059cbb60e01b81526001600160a01b038681166004830152602482018590529151919092169163a9059cbb9160448083019260209291908290030181600087803b1580156113c157600080fd5b505af11580156113d5573d6000803e3d6000fd5b505050506040513d60208110156113eb57600080fd5b506114769050565b6001546040805163a9059cbb60e01b81526001600160a01b038681166004830152602482018690529151919092169163a9059cbb9160448083019260209291908290030181600087803b15801561144957600080fd5b505af115801561145d573d6000803e3d6000fd5b505050506040513d602081101561147357600080fd5b50505b505050565b604080516001600160a01b038416602482015260448082018490528251808303909101815260649091019091526020810180516001600160e01b031663a9059cbb60e01b1790526114769084906117ba565b604080516001600160a01b0385811660248301528481166044830152606480830185905283518084039091018152608490920183526020820180516001600160e01b03166323b872dd60e01b17815292518251600094606094938a169392918291908083835b602083106115525780518252601f199092019160209182019101611533565b6001836020036101000a0380198251168184511680821785525050505050509050019150506000604051808303816000865af19150503d80600081146115b4576040519150601f19603f3d011682016040523d82523d6000602084013e6115b9565b606091505b50915091508180156115e75750805115806115e757508080602001905160208110156115e457600080fd5b50515b6109f45760405162461bcd60e51b8152600401808060200182810382526024815260200180611b036024913960400191505060405180910390fd5b60035460005b818110156114765760006003828154811061163f57fe5b6000918252602090912060026004909202010184905550600101611628565b604080516001600160a01b0380861660248301528416604482015260648082018490528251808303909101815260849091019091526020810180516001600160e01b03166323b872dd60e01b1790526116b89085906117ba565b50505050565b6000818361174a5760405162461bcd60e51b81526004018080602001828103825283818151815260200191508051906020019080838360005b8381101561170f5781810151838201526020016116f7565b50505050905090810190601f16801561173c5780820380516001836020036101000a031916815260200191505b509250505060405180910390fd5b50600083858161175657fe5b0495945050505050565b600081848411156117b25760405162461bcd60e51b815260206004820181815283516024840152835190928392604490910191908501908083836000831561170f5781810151838201526020016116f7565b505050900390565b606061180f826040518060400160405280602081526020017f5361666545524332303a206c6f772d6c6576656c2063616c6c206661696c6564815250856001600160a01b031661186b9092919063ffffffff16565b8051909150156114765780806020019051602081101561182e57600080fd5b50516114765760405162461bcd60e51b815260040180806020018281038252602a815260200180611ad9602a913960400191505060405180910390fd5b606061187a8484600085611882565b949350505050565b606030318311156118c45760405162461bcd60e51b8152600401808060200182810382526026815260200180611a726026913960400191505060405180910390fd5b6118cd856119df565b61191e576040805162461bcd60e51b815260206004820152601d60248201527f416464726573733a2063616c6c20746f206e6f6e2d636f6e7472616374000000604482015290519081900360640190fd5b60006060866001600160a01b031685876040518082805190602001908083835b6020831061195d5780518252601f19909201916020918201910161193e565b6001836020036101000a03801982511681845116808217855250505050505090500191505060006040518083038185875af1925050503d80600081146119bf576040519150601f19603f3d011682016040523d82523d6000602084013e6119c4565b606091505b50915091506119d48282866119e5565b979650505050505050565b3b151590565b606083156119f4575081611206565b825115611a045782518084602001fd5b60405162461bcd60e51b815260206004820181815284516024840152845185939192839260440191908501908083836000831561170f5781810151838201526020016116f756fe4f776e61626c653a206e6577206f776e657220697320746865207a65726f2061646472657373416464726573733a20696e73756666696369656e742062616c616e636520666f722063616c6c536166654d6174683a206d756c7469706c69636174696f6e206f766572666c6f774f776e61626c653a2063616c6c6572206973206e6f7420746865206f776e65725361666545524332303a204552433230206f7065726174696f6e20646964206e6f7420737563636565645472616e7366657248656c7065723a205452414e534645525f46524f4d5f4641494c4544a2646970667358221220c3e21c36a18175c3d02d5939fb8086cc7adaf81e1ea5c7f8d27c70411a6673bc64736f6c634300060c0033",
  "immutableReferences": {},
  "source": "// SPDX-License-Identifier: MIT\npragma solidity >=0.4.22 <0.8.0;\n\nimport \"@openzeppelin/contracts/access/Ownable.sol\";\nimport \"@openzeppelin/contracts/token/ERC20/IERC20.sol\";\nimport \"@openzeppelin/contracts/token/ERC20/SafeERC20.sol\";\nimport \"@openzeppelin/contracts/math/SafeMath.sol\";\n\nlibrary TransferHelper {\n    function safeApprove(address token, address to, uint value) internal {\n        // bytes4(keccak256(bytes('approve(address,uint256)')));\n        (bool success, bytes memory data) = token.call(abi.encodeWithSelector(0x095ea7b3, to, value));\n        require(success && (data.length == 0 || abi.decode(data, (bool))), 'TransferHelper: APPROVE_FAILED');\n    }\n\n    function safeTransfer(address token, address to, uint value) internal {\n        // bytes4(keccak256(bytes('transfer(address,uint256)')));\n        (bool success, bytes memory data) = token.call(abi.encodeWithSelector(0xa9059cbb, to, value));\n        require(success && (data.length == 0 || abi.decode(data, (bool))), 'TransferHelper: TRANSFER_FAILED');\n    }\n\n    function safeTransferFrom(address token, address from, address to, uint value) internal {\n        // bytes4(keccak256(bytes('transferFrom(address,address,uint256)')));\n        (bool success, bytes memory data) = token.call(abi.encodeWithSelector(0x23b872dd, from, to, value));\n        require(success && (data.length == 0 || abi.decode(data, (bool))), 'TransferHelper: TRANSFER_FROM_FAILED');\n    }\n}\n\ninterface IWHT {\n    function balanceOf(address owner) external view returns (uint);\n\n    function transfer(address to, uint value) external returns (bool);\n}\n\ncontract Airdrop is Ownable {\n    using SafeMath for uint256;\n    using SafeERC20 for IERC20;\n\n    struct UserInfo {\n        uint256 amount;\n        uint256 rewardDebt;\n    }\n\n    struct PoolInfo {\n        IERC20 lpToken;\n        uint256 allocPoint;\n        uint256 lastRewardBlock;\n        uint256 accWhtPerShare;\n    }\n\n    IWHT public wht;\n    // Airdrop tokens for per block.\n    uint256 public whtPerBlock;\n    // Info of each pool.\n    PoolInfo[] public poolInfo;\n    // Info of each user that stakes LP tokens.\n    mapping(uint256 => mapping(address => UserInfo)) public userInfo;\n    // Total allocation points. Must be the sum of all allocation points in all pools.\n    uint256 public totalAllocPoint = 0;\n    // The block number when wht mining starts.\n    uint256 public startBlock;\n    // The block number when wht mining end;\n    uint256 public endBlock;\n    // Airdrop cycle default 1day\n    uint256 public cycle;\n\n    event Deposit(address indexed user, uint256 indexed pid, uint256 amount);\n    event Withdraw(address indexed user, uint256 indexed pid, uint256 amount);\n    event EmergencyWithdraw(address indexed user, uint256 indexed pid, uint256 amount);\n\n    constructor(\n        IWHT _wht,\n        uint256 _cycle\n    ) public {\n        wht = _wht;\n        cycle = _cycle;\n    }\n\n    function poolLength() external view returns (uint256) {\n        return poolInfo.length;\n    }\n\n    function newAirdrop(uint256 _whtAmount, uint256 _newPerBlock, uint256 _startBlock) public onlyOwner {\n        require(block.number > endBlock && _startBlock >= endBlock, \"Not finished\");\n        massUpdatePools();\n        uint256 beforeAmount = IWHT(wht).balanceOf(address(this));\n        TransferHelper.safeTransferFrom(address(wht), msg.sender, address(this), _whtAmount);\n        uint256 afterAmount = IWHT(wht).balanceOf(address(this));\n        uint256 balance = afterAmount.sub(beforeAmount);\n        require(balance == _whtAmount, \"Error balance\");\n        require(balance > 0 && (cycle * _newPerBlock) <= balance, \"Balance not enough\");\n        whtPerBlock = _newPerBlock;\n        startBlock = _startBlock;\n        endBlock = _startBlock.add(cycle);\n        updatePoolLastRewardBlock(_startBlock);\n    }\n\n    function updatePoolLastRewardBlock(uint256 _lastRewardBlock) private {\n        uint256 length = poolInfo.length;\n        for (uint256 pid = 0; pid < length; ++pid) {\n            PoolInfo storage pool = poolInfo[pid];\n            pool.lastRewardBlock = _lastRewardBlock;\n        }\n    }\n\n    function setCycle(uint256 _newCycle) public onlyOwner {\n        cycle = _newCycle;\n    }\n\n    // Add a new lp to the pool. Can only be called by the owner.\n    // XXX DO NOT add the same LP token more than once. Rewards will be messed up if you do.\n    function add(uint256 _allocPoint, IERC20 _lpToken, bool _withUpdate) public onlyOwner {\n        require(address(_lpToken) != address(0), \"lpToken is the zero address\");\n        if (_withUpdate) {\n            massUpdatePools();\n        }\n        uint256 lastRewardBlock = block.number > startBlock ? block.number : startBlock;\n        totalAllocPoint = totalAllocPoint.add(_allocPoint);\n        poolInfo.push(PoolInfo({\n        lpToken : _lpToken,\n        allocPoint : _allocPoint,\n        lastRewardBlock : lastRewardBlock,\n        accWhtPerShare : 0\n        }));\n    }\n\n    // Update the given pool's wht allocation point. Can only be called by the owner.\n    function set(uint256 _pid, uint256 _allocPoint, bool _withUpdate) public onlyOwner {\n        if (_withUpdate) {\n            massUpdatePools();\n        }\n        totalAllocPoint = totalAllocPoint.sub(poolInfo[_pid].allocPoint).add(_allocPoint);\n        poolInfo[_pid].allocPoint = _allocPoint;\n    }\n\n    // Update reward variables for all pools. Be careful of gas spending!\n    function massUpdatePools() public {\n        uint256 length = poolInfo.length;\n        for (uint256 pid = 0; pid < length; ++pid) {\n            updatePool(pid);\n        }\n    }\n\n    // Update reward variables of the given pool to be up-to-date.\n    function updatePool(uint256 _pid) public {\n        PoolInfo storage pool = poolInfo[_pid];\n        uint256 number = block.number > endBlock ? endBlock : block.number;\n        if (number <= pool.lastRewardBlock) {\n            return;\n        }\n        uint256 lpSupply = pool.lpToken.balanceOf(address(this));\n        if (lpSupply == 0) {\n            pool.lastRewardBlock = number;\n            return;\n        }\n        uint256 multiplier = number.sub(pool.lastRewardBlock);\n        uint256 whtReward = multiplier.mul(whtPerBlock).mul(pool.allocPoint).div(totalAllocPoint);\n        pool.accWhtPerShare = pool.accWhtPerShare.add(whtReward.mul(1e12).div(lpSupply));\n        pool.lastRewardBlock = number;\n    }\n\n\n    function pending(uint256 _pid, address _user) external view returns (uint256) {\n        PoolInfo storage pool = poolInfo[_pid];\n        UserInfo storage user = userInfo[_pid][_user];\n        uint256 accWhtPerShare = pool.accWhtPerShare;\n        uint256 lpSupply = pool.lpToken.balanceOf(address(this));\n        uint256 number = block.number > endBlock ? endBlock : block.number;\n        if (number > pool.lastRewardBlock && lpSupply != 0) {\n            uint256 multiplier = number.sub(pool.lastRewardBlock);\n            uint256 whtReward = multiplier.mul(whtPerBlock).mul(pool.allocPoint).div(totalAllocPoint);\n            accWhtPerShare = accWhtPerShare.add(whtReward.mul(1e12).div(lpSupply));\n        }\n        return user.amount.mul(accWhtPerShare).div(1e12).sub(user.rewardDebt);\n    }\n\n\n    // Deposit LP tokens dividends WHT;\n    function deposit(uint256 _pid, uint256 _amount) public {\n        PoolInfo storage pool = poolInfo[_pid];\n        UserInfo storage user = userInfo[_pid][msg.sender];\n        updatePool(_pid);\n        if (user.amount > 0) {\n            uint256 pendingAmount = user.amount.mul(pool.accWhtPerShare).div(1e12).sub(user.rewardDebt);\n            if (pendingAmount > 0) {\n                safeWhtTransfer(msg.sender, pendingAmount);\n            }\n        }\n        if (_amount > 0) {\n            pool.lpToken.safeTransferFrom(address(msg.sender), address(this), _amount);\n            user.amount = user.amount.add(_amount);\n        }\n        user.rewardDebt = user.amount.mul(pool.accWhtPerShare).div(1e12);\n        emit Deposit(msg.sender, _pid, _amount);\n    }\n\n    // Withdraw LP tokens.\n    function withdraw(uint256 _pid, uint256 _amount) public {\n        PoolInfo storage pool = poolInfo[_pid];\n        UserInfo storage user = userInfo[_pid][msg.sender];\n        require(user.amount >= _amount, \"withdraw: not good\");\n        updatePool(_pid);\n        uint256 pendingAmount = user.amount.mul(pool.accWhtPerShare).div(1e12).sub(user.rewardDebt);\n        if (pendingAmount > 0) {\n            safeWhtTransfer(msg.sender, pendingAmount);\n        }\n        if (_amount > 0) {\n            user.amount = user.amount.sub(_amount);\n            pool.lpToken.safeTransfer(address(msg.sender), _amount);\n        }\n        user.rewardDebt = user.amount.mul(pool.accWhtPerShare).div(1e12);\n        emit Withdraw(msg.sender, _pid, _amount);\n    }\n\n    // Withdraw without caring about rewards. EMERGENCY ONLY.\n    function emergencyWithdraw(uint256 _pid) public {\n        PoolInfo storage pool = poolInfo[_pid];\n        UserInfo storage user = userInfo[_pid][msg.sender];\n        uint256 amount = user.amount;\n        user.amount = 0;\n        user.rewardDebt = 0;\n        pool.lpToken.safeTransfer(address(msg.sender), amount);\n        emit EmergencyWithdraw(msg.sender, _pid, amount);\n    }\n\n    // Safe wht transfer function, just in case if rounding error causes pool to not have enough whts.\n    function safeWhtTransfer(address _to, uint256 _amount) internal {\n        uint256 whtBal = IWHT(wht).balanceOf(address(this));\n        if (_amount > whtBal) {\n            wht.transfer(_to, whtBal);\n        } else {\n            wht.transfer(_to, _amount);\n        }\n    }\n}\n",
  "sourcePath": "D:/Posao - Stefan/Stefan - razno/Blockchain/ElavateFinance/elavate-core-v1/contracts/mdexSwap/assets/Airdrop.sol",
  "compiler": {
    "name": "solc",
    "version": "0.6.12+commit.27d51765.Emscripten.clang"
  },
  "schemaVersion": "3.4.1",
  "updatedAt": "2021-07-16T11:08:46.865Z",
  "devdoc": {
    "kind": "dev",
    "methods": {
      "owner()": {
        "details": "Returns the address of the current owner."
      },
      "renounceOwnership()": {
        "details": "Leaves the contract without owner. It will not be possible to call `onlyOwner` functions anymore. Can only be called by the current owner. NOTE: Renouncing ownership will leave the contract without an owner, thereby removing any functionality that is only available to the owner."
      },
      "transferOwnership(address)": {
        "details": "Transfers ownership of the contract to a new account (`newOwner`). Can only be called by the current owner."
      }
    },
    "version": 1
  },
  "userdoc": {
    "kind": "user",
    "methods": {},
    "version": 1
  }
}