{
  "contractName": "CoinChef",
  "abi": [
    {
      "inputs": [
        {
          "internalType": "contract IMdx",
          "name": "_mdx",
          "type": "address"
        },
        {
          "internalType": "uint256",
          "name": "_startBlock",
          "type": "uint256"
        }
      ],
      "stateMutability": "nonpayable",
      "type": "constructor"
    },
    {
      "anonymous": false,
      "inputs": [
        {
          "indexed": true,
          "internalType": "address",
          "name": "user",
          "type": "address"
        },
        {
          "indexed": true,
          "internalType": "uint256",
          "name": "pid",
          "type": "uint256"
        },
        {
          "indexed": false,
          "internalType": "uint256",
          "name": "amount",
          "type": "uint256"
        }
      ],
      "name": "Deposit",
      "type": "event"
    },
    {
      "anonymous": false,
      "inputs": [
        {
          "indexed": true,
          "internalType": "address",
          "name": "user",
          "type": "address"
        },
        {
          "indexed": true,
          "internalType": "uint256",
          "name": "pid",
          "type": "uint256"
        },
        {
          "indexed": false,
          "internalType": "uint256",
          "name": "amount",
          "type": "uint256"
        }
      ],
      "name": "EmergencyWithdraw",
      "type": "event"
    },
    {
      "anonymous": false,
      "inputs": [
        {
          "indexed": true,
          "internalType": "address",
          "name": "previousOwner",
          "type": "address"
        },
        {
          "indexed": true,
          "internalType": "address",
          "name": "newOwner",
          "type": "address"
        }
      ],
      "name": "OwnershipTransferred",
      "type": "event"
    },
    {
      "anonymous": false,
      "inputs": [
        {
          "indexed": true,
          "internalType": "address",
          "name": "user",
          "type": "address"
        },
        {
          "indexed": true,
          "internalType": "uint256",
          "name": "pid",
          "type": "uint256"
        },
        {
          "indexed": false,
          "internalType": "uint256",
          "name": "amount",
          "type": "uint256"
        }
      ],
      "name": "Withdraw",
      "type": "event"
    },
    {
      "inputs": [],
      "name": "endBlock",
      "outputs": [
        {
          "internalType": "uint256",
          "name": "",
          "type": "uint256"
        }
      ],
      "stateMutability": "view",
      "type": "function"
    },
    {
      "inputs": [],
      "name": "mdx",
      "outputs": [
        {
          "internalType": "contract IMdx",
          "name": "",
          "type": "address"
        }
      ],
      "stateMutability": "view",
      "type": "function"
    },
    {
      "inputs": [],
      "name": "mdxPerBlock",
      "outputs": [
        {
          "internalType": "uint256",
          "name": "",
          "type": "uint256"
        }
      ],
      "stateMutability": "view",
      "type": "function"
    },
    {
      "inputs": [],
      "name": "owner",
      "outputs": [
        {
          "internalType": "address",
          "name": "",
          "type": "address"
        }
      ],
      "stateMutability": "view",
      "type": "function"
    },
    {
      "inputs": [
        {
          "internalType": "uint256",
          "name": "",
          "type": "uint256"
        }
      ],
      "name": "poolCorrespond",
      "outputs": [
        {
          "internalType": "uint256",
          "name": "",
          "type": "uint256"
        }
      ],
      "stateMutability": "view",
      "type": "function"
    },
    {
      "inputs": [
        {
          "internalType": "uint256",
          "name": "",
          "type": "uint256"
        }
      ],
      "name": "poolInfo",
      "outputs": [
        {
          "internalType": "contract IERC20",
          "name": "lpToken",
          "type": "address"
        },
        {
          "internalType": "uint256",
          "name": "allocPoint",
          "type": "uint256"
        },
        {
          "internalType": "uint256",
          "name": "lastRewardBlock",
          "type": "uint256"
        },
        {
          "internalType": "uint256",
          "name": "accMdxPerShare",
          "type": "uint256"
        },
        {
          "internalType": "uint256",
          "name": "totalAmount",
          "type": "uint256"
        },
        {
          "internalType": "uint256",
          "name": "accSushiPerShare",
          "type": "uint256"
        }
      ],
      "stateMutability": "view",
      "type": "function"
    },
    {
      "inputs": [],
      "name": "renounceOwnership",
      "outputs": [],
      "stateMutability": "nonpayable",
      "type": "function"
    },
    {
      "inputs": [],
      "name": "startBlock",
      "outputs": [
        {
          "internalType": "uint256",
          "name": "",
          "type": "uint256"
        }
      ],
      "stateMutability": "view",
      "type": "function"
    },
    {
      "inputs": [],
      "name": "sushiChef",
      "outputs": [
        {
          "internalType": "address",
          "name": "",
          "type": "address"
        }
      ],
      "stateMutability": "view",
      "type": "function"
    },
    {
      "inputs": [],
      "name": "sushiToken",
      "outputs": [
        {
          "internalType": "address",
          "name": "",
          "type": "address"
        }
      ],
      "stateMutability": "view",
      "type": "function"
    },
    {
      "inputs": [],
      "name": "totalAllocPoint",
      "outputs": [
        {
          "internalType": "uint256",
          "name": "",
          "type": "uint256"
        }
      ],
      "stateMutability": "view",
      "type": "function"
    },
    {
      "inputs": [
        {
          "internalType": "address",
          "name": "newOwner",
          "type": "address"
        }
      ],
      "name": "transferOwnership",
      "outputs": [],
      "stateMutability": "nonpayable",
      "type": "function"
    },
    {
      "inputs": [
        {
          "internalType": "uint256",
          "name": "",
          "type": "uint256"
        },
        {
          "internalType": "address",
          "name": "",
          "type": "address"
        }
      ],
      "name": "userInfo",
      "outputs": [
        {
          "internalType": "uint256",
          "name": "amount",
          "type": "uint256"
        },
        {
          "internalType": "uint256",
          "name": "rewardDebt",
          "type": "uint256"
        },
        {
          "internalType": "uint256",
          "name": "sushiRewardDebt",
          "type": "uint256"
        }
      ],
      "stateMutability": "view",
      "type": "function"
    },
    {
      "inputs": [],
      "name": "poolLength",
      "outputs": [
        {
          "internalType": "uint256",
          "name": "",
          "type": "uint256"
        }
      ],
      "stateMutability": "view",
      "type": "function"
    },
    {
      "inputs": [
        {
          "internalType": "address",
          "name": "_addLP",
          "type": "address"
        }
      ],
      "name": "addSushiLP",
      "outputs": [
        {
          "internalType": "bool",
          "name": "",
          "type": "bool"
        }
      ],
      "stateMutability": "nonpayable",
      "type": "function"
    },
    {
      "inputs": [
        {
          "internalType": "address",
          "name": "_LP",
          "type": "address"
        }
      ],
      "name": "isSushiLP",
      "outputs": [
        {
          "internalType": "bool",
          "name": "",
          "type": "bool"
        }
      ],
      "stateMutability": "view",
      "type": "function"
    },
    {
      "inputs": [],
      "name": "getSushiLPLength",
      "outputs": [
        {
          "internalType": "uint256",
          "name": "",
          "type": "uint256"
        }
      ],
      "stateMutability": "view",
      "type": "function"
    },
    {
      "inputs": [
        {
          "internalType": "uint256",
          "name": "_pid",
          "type": "uint256"
        }
      ],
      "name": "getSushiLPAddress",
      "outputs": [
        {
          "internalType": "address",
          "name": "",
          "type": "address"
        }
      ],
      "stateMutability": "view",
      "type": "function"
    },
    {
      "inputs": [
        {
          "internalType": "uint256",
          "name": "_allocPoint",
          "type": "uint256"
        },
        {
          "internalType": "contract IERC20",
          "name": "_lpToken",
          "type": "address"
        },
        {
          "internalType": "bool",
          "name": "_withUpdate",
          "type": "bool"
        }
      ],
      "name": "add",
      "outputs": [],
      "stateMutability": "nonpayable",
      "type": "function"
    },
    {
      "inputs": [
        {
          "internalType": "uint256",
          "name": "_pid",
          "type": "uint256"
        },
        {
          "internalType": "uint256",
          "name": "_allocPoint",
          "type": "uint256"
        },
        {
          "internalType": "bool",
          "name": "_withUpdate",
          "type": "bool"
        }
      ],
      "name": "set",
      "outputs": [],
      "stateMutability": "nonpayable",
      "type": "function"
    },
    {
      "inputs": [
        {
          "internalType": "uint256",
          "name": "_pid",
          "type": "uint256"
        },
        {
          "internalType": "uint256",
          "name": "_sid",
          "type": "uint256"
        }
      ],
      "name": "setPoolCorr",
      "outputs": [],
      "stateMutability": "nonpayable",
      "type": "function"
    },
    {
      "inputs": [],
      "name": "massUpdatePools",
      "outputs": [],
      "stateMutability": "nonpayable",
      "type": "function"
    },
    {
      "inputs": [
        {
          "internalType": "uint256",
          "name": "_pid",
          "type": "uint256"
        }
      ],
      "name": "updatePool",
      "outputs": [],
      "stateMutability": "nonpayable",
      "type": "function"
    },
    {
      "inputs": [
        {
          "internalType": "uint256",
          "name": "_pid",
          "type": "uint256"
        },
        {
          "internalType": "address",
          "name": "_user",
          "type": "address"
        }
      ],
      "name": "pending",
      "outputs": [
        {
          "internalType": "uint256",
          "name": "",
          "type": "uint256"
        },
        {
          "internalType": "uint256",
          "name": "",
          "type": "uint256"
        }
      ],
      "stateMutability": "view",
      "type": "function"
    },
    {
      "inputs": [
        {
          "internalType": "uint256",
          "name": "_pid",
          "type": "uint256"
        },
        {
          "internalType": "uint256",
          "name": "_amount",
          "type": "uint256"
        }
      ],
      "name": "deposit",
      "outputs": [],
      "stateMutability": "nonpayable",
      "type": "function"
    },
    {
      "inputs": [
        {
          "internalType": "uint256",
          "name": "_pid",
          "type": "uint256"
        },
        {
          "internalType": "uint256",
          "name": "_amount",
          "type": "uint256"
        }
      ],
      "name": "withdraw",
      "outputs": [],
      "stateMutability": "nonpayable",
      "type": "function"
    },
    {
      "inputs": [
        {
          "internalType": "uint256",
          "name": "_pid",
          "type": "uint256"
        }
      ],
      "name": "emergencyWithdraw",
      "outputs": [],
      "stateMutability": "nonpayable",
      "type": "function"
    }
  ],
  "bytecode": "0x608060405260006007553480156200001657600080fd5b5060405162002f3f38038062002f3f833981810160405260408110156200003c57600080fd5b508051602090910151600062000051620000e2565b600080546001600160a01b0319166001600160a01b0383169081178255604051929350917f8be0079c531659141344cd1fd0a4f28419497f9722a3daafe3b4186f6b6457e0908290a350600380546001600160a01b0319166001600160a01b0384161790556008819055620000d68162030d40620000e6602090811b6200112217901c565b60095550620001629050565b3390565b6000828201838110156200015b57604080517f08c379a000000000000000000000000000000000000000000000000000000000815260206004820152601b60248201527f536166654d6174683a206164646974696f6e206f766572666c6f770000000000604482015290519081900360640190fd5b9392505050565b612dcd80620001726000396000f3fe608060405234801561001057600080fd5b50600436106101a95760003560e01c8063630b5ba1116100f9578063cb4502c411610097578063e4c75c2711610071578063e4c75c2714610450578063e8b21b5414610495578063f2fde38b1461049d578063f5dc173f146104c3576101a9565b8063cb4502c414610408578063d4614c6314610425578063e2bbb1581461042d576101a9565b80638da5cb5b116100d35780638da5cb5b1461038b5780638fa39a881461039357806393f1a40b1461039b578063b337d32c146103e5576101a9565b8063630b5ba11461035057806364482f7914610358578063715018a614610383576101a9565b806338ff6b781161016657806348cd4cb11161014057806348cd4cb11461030657806351eb05a61461030e5780635312ea8e1461032b5780635672ab5514610348576101a9565b806338ff6b78146102a15780633eea1a18146102a9578063441a3e70146102e3576101a9565b8063081e3eda146101ae578063083c6323146101c85780631526fe27146101d057806317caf6f11461022a5780631eaaa04514610232578063284e124d14610268575b600080fd5b6101b66104e9565b60408051918252519081900360200190f35b6101b66104ef565b6101ed600480360360208110156101e657600080fd5b50356104f5565b604080516001600160a01b0390971687526020870195909552858501939093526060850191909152608084015260a0830152519081900360c00190f35b6101b6610542565b6102666004803603606081101561024857600080fd5b508035906001600160a01b0360208201351690604001351515610548565b005b6102856004803603602081101561027e57600080fd5b50356107cf565b604080516001600160a01b039092168252519081900360200190f35b6101b6610839565b6102cf600480360360208110156102bf57600080fd5b50356001600160a01b031661084a565b604080519115158252519081900360200190f35b610266600480360360408110156102f957600080fd5b5080359060200135610857565b6101b66108b2565b6102666004803603602081101561032457600080fd5b50356108b8565b6102666004803603602081101561034157600080fd5b5035610adc565b610285610b34565b610266610b43565b6102666004803603606081101561036e57600080fd5b50803590602081013590604001351515610b62565b610266610c33565b610285610cd5565b6101b6610ce4565b6103c7600480360360408110156103b157600080fd5b50803590602001356001600160a01b0316610ce9565b60408051938452602084019290925282820152519081900360600190f35b610266600480360360408110156103fb57600080fd5b5080359060200135610d15565b6101b66004803603602081101561041e57600080fd5b5035610dd3565b610285610de5565b6102666004803603604081101561044357600080fd5b5080359060200135610dfd565b61047c6004803603604081101561046657600080fd5b50803590602001356001600160a01b0316610e4e565b6040805192835260208301919091528051918290030190f35b610285610ec8565b610266600480360360208110156104b357600080fd5b50356001600160a01b0316610ee0565b6102cf600480360360208110156104d957600080fd5b50356001600160a01b0316610fd8565b60045490565b60095481565b6004818154811061050257fe5b60009182526020909120600690910201805460018201546002830154600384015460048501546005909501546001600160a01b0390941695509193909286565b60075481565b610550611183565b6000546001600160a01b039081169116146105a0576040805162461bcd60e51b81526020600482018190526024820152600080516020612d4e833981519152604482015290519081900360640190fd5b6001600160a01b0382166105fb576040805162461bcd60e51b815260206004820152601b60248201527f6c70546f6b656e20697320746865207a65726f20616464726573730000000000604482015290519081900360640190fd5b6009544310610651576040805162461bcd60e51b815260206004820152601a60248201527f416c6c20746f6b656e206d696e696e6720636f6d706c65746564000000000000604482015290519081900360640190fd5b801561065f5761065f610b43565b6000600854431161067257600854610674565b435b6007549091506106849085611122565b6007556040805160c0810182526001600160a01b039485168152602081019586529081019182526000606082018181526080830182815260a0840183815260048054600181018255945293517f8a35acfbc15ff81a39ae7d344fd709f28e8600b4aa8c65c6b64bfe7fe36bd19b600690940293840180546001600160a01b031916919098161790965595517f8a35acfbc15ff81a39ae7d344fd709f28e8600b4aa8c65c6b64bfe7fe36bd19c82015591517f8a35acfbc15ff81a39ae7d344fd709f28e8600b4aa8c65c6b64bfe7fe36bd19d83015593517f8a35acfbc15ff81a39ae7d344fd709f28e8600b4aa8c65c6b64bfe7fe36bd19e82015591517f8a35acfbc15ff81a39ae7d344fd709f28e8600b4aa8c65c6b64bfe7fe36bd19f8301555090517f8a35acfbc15ff81a39ae7d344fd709f28e8600b4aa8c65c6b64bfe7fe36bd1a090910155565b600060016107db610839565b03821115610828576040805162461bcd60e51b815260206004820152601560248201527406e6f742066696e6420746869732053757368694c5605c1b604482015290519081900360640190fd5b610833600183611187565b92915050565b60006108456001611193565b905090565b600061083360018361119e565b60006004838154811061086657fe5b60009182526020909120600690910201805490915061088d906001600160a01b031661084a565b156108a25761089d8383336111b3565b6108ad565b6108ad838333611565565b505050565b60085481565b6000600482815481106108c757fe5b90600052602060002090600602019050600060095443116108e857436108ec565b6009545b905081600201548111610900575050610ad9565b8154600090610917906001600160a01b031661084a565b1561093c5760048301546109315750600290910155610ad9565b5060048201546109c5565b8254604080516370a0823160e01b815230600482015290516001600160a01b03909216916370a0823191602480820192602092909190829003018186803b15801561098657600080fd5b505afa15801561099a573d6000803e3d6000fd5b505050506040513d60208110156109b057600080fd5b50519050806109c55750600290910155610ad9565b60006109de8460020154846116e290919063ffffffff16565b90506000610a1a600754610a148760010154610a0e670de0b6b3a764000060640a8761172490919063ffffffff16565b90611724565b9061177d565b600354604080516340c10f1960e01b81523060048201526024810184905290519293506000926001600160a01b03909216916340c10f199160448082019260209290919082900301818787803b158015610a7357600080fd5b505af1158015610a87573d6000803e3d6000fd5b505050506040513d6020811015610a9d57600080fd5b505190508015610ace57610ac8610abd85610a148564e8d4a51000611724565b600388015490611122565b60038701555b505050506002909101555b50565b600060048281548110610aeb57fe5b600091825260209091206006909102018054909150610b12906001600160a01b031661084a565b15610b2657610b2182336117bf565b610b30565b610b308233611a26565b5050565b6003546001600160a01b031681565b60045460005b81811015610b3057610b5a816108b8565b600101610b49565b610b6a611183565b6000546001600160a01b03908116911614610bba576040805162461bcd60e51b81526020600482018190526024820152600080516020612d4e833981519152604482015290519081900360640190fd5b8015610bc857610bc8610b43565b610c0582610bff60048681548110610bdc57fe5b9060005260206000209060060201600101546007546116e290919063ffffffff16565b90611122565b6007819055508160048481548110610c1957fe5b906000526020600020906006020160010181905550505050565b610c3b611183565b6000546001600160a01b03908116911614610c8b576040805162461bcd60e51b81526020600482018190526024820152600080516020612d4e833981519152604482015290519081900360640190fd5b600080546040516001600160a01b03909116907f8be0079c531659141344cd1fd0a4f28419497f9722a3daafe3b4186f6b6457e0908390a3600080546001600160a01b0319169055565b6000546001600160a01b031690565b600081565b600560209081526000928352604080842090915290825290208054600182015460029092015490919083565b610d1d611183565b6000546001600160a01b03908116911614610d6d576040805162461bcd60e51b81526020600482018190526024820152600080516020612d4e833981519152604482015290519081900360640190fd5b6001610d776104e9565b03821115610dc1576040805162461bcd60e51b81526020600482015260126024820152711b9bdd08199a5b99081d1a1a5cc81c1bdbdb60721b604482015290519081900360640190fd5b60009182526006602052604090912055565b60066020526000908152604090205481565b736b3595068778dd592e39a122f4f5a5cf09c90fe281565b600060048381548110610e0c57fe5b600091825260209091206006909102018054909150610e33906001600160a01b031661084a565b15610e435761089d838333611ade565b6108ad838333612098565b600080600060048581548110610e6057fe5b600091825260209091206006909102018054909150610e87906001600160a01b031661084a565b15610ea757600080610e9987876121d1565b9095509350610ec192505050565b6000610eb3868661243d565b935060009250610ec1915050565b9250929050565b73c2edad668740f1aa35e4d8f227fb8e17dca888cd81565b610ee8611183565b6000546001600160a01b03908116911614610f38576040805162461bcd60e51b81526020600482018190526024820152600080516020612d4e833981519152604482015290519081900360640190fd5b6001600160a01b038116610f7d5760405162461bcd60e51b8152600401808060200182810382526026815260200180612ce16026913960400191505060405180910390fd5b600080546040516001600160a01b03808516939216917f8be0079c531659141344cd1fd0a4f28419497f9722a3daafe3b4186f6b6457e091a3600080546001600160a01b0319166001600160a01b0392909216919091179055565b6000610fe2611183565b6000546001600160a01b03908116911614611032576040805162461bcd60e51b81526020600482018190526024820152600080516020612d4e833981519152604482015290519081900360640190fd5b6001600160a01b038216611086576040805162461bcd60e51b81526020600482015260166024820152754c5020697320746865207a65726f206164647265737360501b604482015290519081900360640190fd5b6040805163095ea7b360e01b815273c2edad668740f1aa35e4d8f227fb8e17dca888cd6004820152600019602482015290516001600160a01b0384169163095ea7b39160448083019260209291908290030181600087803b1580156110ea57600080fd5b505af11580156110fe573d6000803e3d6000fd5b505050506040513d602081101561111457600080fd5b506108339050600183612610565b60008282018381101561117c576040805162461bcd60e51b815260206004820152601b60248201527f536166654d6174683a206164646974696f6e206f766572666c6f770000000000604482015290519081900360640190fd5b9392505050565b3390565b600061117c8383612625565b600061083382612689565b600061117c836001600160a01b03841661268d565b6000600484815481106111c257fe5b600091825260208083208784526005825260408085206001600160a01b03881686529092529220805460069092029092019250841115611249576040805162461bcd60e51b815260206004820152601d60248201527f77697468647261774d6478416e6453757368693a206e6f7420676f6f64000000604482015290519081900360640190fd5b611252856108b8565b6000611286826001015461128064e8d4a51000610a148760030154876000015461172490919063ffffffff16565b906116e2565b905080156112985761129884826126a5565b84156114dd57604080516370a0823160e01b81523060048201529051600091736b3595068778dd592e39a122f4f5a5cf09c90fe2916370a0823191602480820192602092909190829003018186803b1580156112f357600080fd5b505afa158015611307573d6000803e3d6000fd5b505050506040513d602081101561131d57600080fd5b5051600088815260066020526040808220548151630441a3e760e41b81526004810191909152602481018a9052905192935073c2edad668740f1aa35e4d8f227fb8e17dca888cd9263441a3e709260448084019391929182900301818387803b15801561138957600080fd5b505af115801561139d573d6000803e3d6000fd5b5050604080516370a0823160e01b8152306004820152905160009350736b3595068778dd592e39a122f4f5a5cf09c90fe292506370a0823191602480820192602092909190829003018186803b1580156113f657600080fd5b505afa15801561140a573d6000803e3d6000fd5b505050506040513d602081101561142057600080fd5b505160048601549091506114509061144590610a1464e8d4a51000610a0e86886116e2565b600587015490611122565b600586018190556002850154855460009261147a92916112809164e8d4a5100091610a1491611724565b905080156114a1576114a1736b3595068778dd592e39a122f4f5a5cf09c90fe28883612835565b84546114ad90896116e2565b855560048601546114be90896116e2565b600487015585546114d9906001600160a01b0316888a612835565b5050505b600383015482546114f89164e8d4a5100091610a1491611724565b6001830155600583015482546115189164e8d4a5100091610a1491611724565b600283015560408051868152905187916001600160a01b038716917ff279e6a1f5e320cca91135676d9cb6e44ca8a08c0b88342bcdb1144f6511b5689181900360200190a3505050505050565b60006004848154811061157457fe5b600091825260208083208784526005825260408085206001600160a01b038816865290925292208054600690920290920192508411156115f3576040805162461bcd60e51b81526020600482015260156024820152741dda5d1a191c985dd3591e0e881b9bdd0819dbdbd9605a1b604482015290519081900360640190fd5b6115fc856108b8565b600061162a826001015461128064e8d4a51000610a148760030154876000015461172490919063ffffffff16565b9050801561163c5761163c84826126a5565b841561167a57815461164e90866116e2565b8255600483015461165f90866116e2565b6004840155825461167a906001600160a01b03168587612835565b600383015482546116959164e8d4a5100091610a1491611724565b600183015560408051868152905187916001600160a01b038716917ff279e6a1f5e320cca91135676d9cb6e44ca8a08c0b88342bcdb1144f6511b5689181900360200190a3505050505050565b600061117c83836040518060400160405280601e81526020017f536166654d6174683a207375627472616374696f6e206f766572666c6f770000815250612887565b60008261173357506000610833565b8282028284828161174057fe5b041461117c5760405162461bcd60e51b8152600401808060200182810382526021815260200180612d2d6021913960400191505060405180910390fd5b600061117c83836040518060400160405280601a81526020017f536166654d6174683a206469766973696f6e206279207a65726f00000000000081525061291e565b6000600483815481106117ce57fe5b600091825260208083208684526005825260408085206001600160a01b03881686528352808520805482516370a0823160e01b81523060048201529251600690960290930196509491939192736b3595068778dd592e39a122f4f5a5cf09c90fe2926370a08231926024808201939291829003018186803b15801561185257600080fd5b505afa158015611866573d6000803e3d6000fd5b505050506040513d602081101561187c57600080fd5b5051600087815260066020526040808220548151630441a3e760e41b8152600481019190915260248101869052905192935073c2edad668740f1aa35e4d8f227fb8e17dca888cd9263441a3e709260448084019391929182900301818387803b1580156118e857600080fd5b505af11580156118fc573d6000803e3d6000fd5b5050604080516370a0823160e01b8152306004820152905160009350736b3595068778dd592e39a122f4f5a5cf09c90fe292506370a0823191602480820192602092909190829003018186803b15801561195557600080fd5b505afa158015611969573d6000803e3d6000fd5b505050506040513d602081101561197f57600080fd5b505160048601549091506119a49061144590610a1464e8d4a51000610a0e86886116e2565b60058601556000808555600185015584546119c9906001600160a01b03168785612835565b60048501546119d890846116e2565b600486015560408051848152905188916001600160a01b038916917fbb757047c2b5f3974fe26b7c10f732e7bce710b0952a71082702781e62ae05959181900360200190a350505050505050565b600060048381548110611a3557fe5b600091825260208083208684526005825260408085206001600160a01b03808916875293528420805485825560018201959095556006909302018054909450919291611a8391168583612835565b6004830154611a9290826116e2565b600484015560408051828152905186916001600160a01b038716917fbb757047c2b5f3974fe26b7c10f732e7bce710b0952a71082702781e62ae05959181900360200190a35050505050565b600060048481548110611aed57fe5b600091825260208083208784526005825260408085206001600160a01b0388168652909252922060069091029091019150611b27856108b8565b805415611d6b576000611b5c826001015461128064e8d4a51000610a148760030154876000015461172490919063ffffffff16565b90508015611b6e57611b6e84826126a5565b604080516370a0823160e01b81523060048201529051600091736b3595068778dd592e39a122f4f5a5cf09c90fe2916370a0823191602480820192602092909190829003018186803b158015611bc357600080fd5b505afa158015611bd7573d6000803e3d6000fd5b505050506040513d6020811015611bed57600080fd5b5051600088815260066020526040808220548151631c57762b60e31b8152600481019190915260248101839052905192935073c2edad668740f1aa35e4d8f227fb8e17dca888cd9263e2bbb1589260448084019391929182900301818387803b158015611c5957600080fd5b505af1158015611c6d573d6000803e3d6000fd5b5050604080516370a0823160e01b8152306004820152905160009350736b3595068778dd592e39a122f4f5a5cf09c90fe292506370a0823191602480820192602092909190829003018186803b158015611cc657600080fd5b505afa158015611cda573d6000803e3d6000fd5b505050506040513d6020811015611cf057600080fd5b50516004860154909150611d159061144590610a1464e8d4a51000610a0e86886116e2565b6005860181905560028501548554600092611d3f92916112809164e8d4a5100091610a1491611724565b90508015611d6657611d66736b3595068778dd592e39a122f4f5a5cf09c90fe28883612835565b505050505b8315612011578154611d88906001600160a01b0316843087612983565b6004820154611e3557600085815260066020526040808220548151631c57762b60e31b8152600481019190915260248101879052905173c2edad668740f1aa35e4d8f227fb8e17dca888cd9263e2bbb158926044808201939182900301818387803b158015611df657600080fd5b505af1158015611e0a573d6000803e3d6000fd5b5050506004830154611e1d915085611122565b60048301558054611e2e9085611122565b8155612011565b604080516370a0823160e01b81523060048201529051600091736b3595068778dd592e39a122f4f5a5cf09c90fe2916370a0823191602480820192602092909190829003018186803b158015611e8a57600080fd5b505afa158015611e9e573d6000803e3d6000fd5b505050506040513d6020811015611eb457600080fd5b5051600087815260066020526040808220548151631c57762b60e31b8152600481019190915260248101899052905192935073c2edad668740f1aa35e4d8f227fb8e17dca888cd9263e2bbb1589260448084019391929182900301818387803b158015611f2057600080fd5b505af1158015611f34573d6000803e3d6000fd5b5050604080516370a0823160e01b8152306004820152905160009350736b3595068778dd592e39a122f4f5a5cf09c90fe292506370a0823191602480820192602092909190829003018186803b158015611f8d57600080fd5b505afa158015611fa1573d6000803e3d6000fd5b505050506040513d6020811015611fb757600080fd5b50516004850154909150611fe790611fdc90610a1464e8d4a51000610a0e86886116e2565b600586015490611122565b60058501556004840154611ffb9087611122565b6004850155825461200c9087611122565b835550505b6003820154815461202c9164e8d4a5100091610a1491611724565b60018201556005820154815461204c9164e8d4a5100091610a1491611724565b600282015560408051858152905186916001600160a01b038616917f90890809c654f11d6e72a28fa60149770a0d11ec6c92319d6ceb2bb0a4ea1a159181900360200190a35050505050565b6000600484815481106120a757fe5b600091825260208083208784526005825260408085206001600160a01b03881686529092529220600690910290910191506120e1856108b8565b80541561212a576000612116826001015461128064e8d4a51000610a148760030154876000015461172490919063ffffffff16565b905080156121285761212884826126a5565b505b831561216a578154612147906001600160a01b0316843087612983565b80546121539085611122565b815560048201546121649085611122565b60048301555b600382015481546121859164e8d4a5100091610a1491611724565b600182015560408051858152905186916001600160a01b038616917f90890809c654f11d6e72a28fa60149770a0d11ec6c92319d6ceb2bb0a4ea1a159181900360200190a35050505050565b6000806000600485815481106121e357fe5b60009182526020808320888452600580835260408086206001600160a01b038b1687529093529184206006939093020160038101549181015460095491955092939192919043116122345743612238565b6009545b84549091501561242c57600089815260066020908152604080832054815163065509bb60e21b81526004810191909152306024820152905173c2edad668740f1aa35e4d8f227fb8e17dca888cd9263195426ec9260448082019391829003018186803b1580156122a757600080fd5b505afa1580156122bb573d6000803e3d6000fd5b505050506040513d60208110156122d157600080fd5b505160048701549091506122f9906122f290610a148464e8d4a51000611724565b8490611122565b92506000612325866002015461128064e8d4a51000610a14888b6000015461172490919063ffffffff16565b905086600201548311156123e557600061234c8860020154856116e290919063ffffffff16565b9050600061237c600754610a148b60010154610a0e670de0b6b3a764000060640a8761172490919063ffffffff16565b90506123a86123a18a60040154610a1464e8d4a510008561172490919063ffffffff16565b8890611122565b96506123d2886001015461128064e8d4a51000610a148b8d6000015461172490919063ffffffff16565b839a509a50505050505050505050610ec1565b866002015483141561242957612419866001015461128064e8d4a51000610a14898b6000015461172490919063ffffffff16565b98509650610ec195505050505050565b50505b506000988998509650505050505050565b6000806004848154811061244d57fe5b600091825260208083208784526005825260408085206001600160a01b0389811687529084528186206006959095029092016003810154815483516370a0823160e01b815230600482015293519298509596909590949316926370a082319260248082019391829003018186803b1580156124c757600080fd5b505afa1580156124db573d6000803e3d6000fd5b505050506040513d60208110156124f157600080fd5b50516009549091506000904311612508574361250c565b6009545b8454909150156126025784600201548111156125c257600061253b8660020154436116e290919063ffffffff16565b9050600061256b600754610a148960010154610a0e670de0b6b3a764000060640a8761172490919063ffffffff16565b905061258a61258385610a148464e8d4a51000611724565b8690611122565b94506125b4866001015461128064e8d4a51000610a14898b6000015461172490919063ffffffff16565b975050505050505050610833565b8460020154811415612602576125f6846001015461128064e8d4a51000610a1487896000015461172490919063ffffffff16565b95505050505050610833565b506000979650505050505050565b600061117c836001600160a01b0384166129e3565b815460009082106126675760405162461bcd60e51b8152600401808060200182810382526022815260200180612cbf6022913960400191505060405180910390fd5b82600001828154811061267657fe5b9060005260206000200154905092915050565b5490565b60009081526001919091016020526040902054151590565b600354604080516370a0823160e01b815230600482015290516000926001600160a01b0316916370a08231916024808301926020929190829003018186803b1580156126f057600080fd5b505afa158015612704573d6000803e3d6000fd5b505050506040513d602081101561271a57600080fd5b50519050808211156127ae576003546040805163a9059cbb60e01b81526001600160a01b038681166004830152602482018590529151919092169163a9059cbb9160448083019260209291908290030181600087803b15801561277c57600080fd5b505af1158015612790573d6000803e3d6000fd5b505050506040513d60208110156127a657600080fd5b506108ad9050565b6003546040805163a9059cbb60e01b81526001600160a01b038681166004830152602482018690529151919092169163a9059cbb9160448083019260209291908290030181600087803b15801561280457600080fd5b505af1158015612818573d6000803e3d6000fd5b505050506040513d602081101561282e57600080fd5b5050505050565b604080516001600160a01b038416602482015260448082018490528251808303909101815260649091019091526020810180516001600160e01b031663a9059cbb60e01b1790526108ad908490612a2d565b600081848411156129165760405162461bcd60e51b81526004018080602001828103825283818151815260200191508051906020019080838360005b838110156128db5781810151838201526020016128c3565b50505050905090810190601f1680156129085780820380516001836020036101000a031916815260200191505b509250505060405180910390fd5b505050900390565b6000818361296d5760405162461bcd60e51b81526020600482018181528351602484015283519092839260449091019190850190808383600083156128db5781810151838201526020016128c3565b50600083858161297957fe5b0495945050505050565b604080516001600160a01b0380861660248301528416604482015260648082018490528251808303909101815260849091019091526020810180516001600160e01b03166323b872dd60e01b1790526129dd908590612a2d565b50505050565b60006129ef838361268d565b612a2557508154600181810184556000848152602080822090930184905584548482528286019093526040902091909155610833565b506000610833565b6060612a82826040518060400160405280602081526020017f5361666545524332303a206c6f772d6c6576656c2063616c6c206661696c6564815250856001600160a01b0316612ade9092919063ffffffff16565b8051909150156108ad57808060200190516020811015612aa157600080fd5b50516108ad5760405162461bcd60e51b815260040180806020018281038252602a815260200180612d6e602a913960400191505060405180910390fd5b6060612aed8484600085612af5565b949350505050565b60603031831115612b375760405162461bcd60e51b8152600401808060200182810382526026815260200180612d076026913960400191505060405180910390fd5b612b4085612c52565b612b91576040805162461bcd60e51b815260206004820152601d60248201527f416464726573733a2063616c6c20746f206e6f6e2d636f6e7472616374000000604482015290519081900360640190fd5b60006060866001600160a01b031685876040518082805190602001908083835b60208310612bd05780518252601f199092019160209182019101612bb1565b6001836020036101000a03801982511681845116808217855250505050505090500191505060006040518083038185875af1925050503d8060008114612c32576040519150601f19603f3d011682016040523d82523d6000602084013e612c37565b606091505b5091509150612c47828286612c58565b979650505050505050565b3b151590565b60608315612c6757508161117c565b825115612c775782518084602001fd5b60405162461bcd60e51b81526020600482018181528451602484015284518593919283926044019190850190808383600083156128db5781810151838201526020016128c356fe456e756d657261626c655365743a20696e646578206f7574206f6620626f756e64734f776e61626c653a206e6577206f776e657220697320746865207a65726f2061646472657373416464726573733a20696e73756666696369656e742062616c616e636520666f722063616c6c536166654d6174683a206d756c7469706c69636174696f6e206f766572666c6f774f776e61626c653a2063616c6c6572206973206e6f7420746865206f776e65725361666545524332303a204552433230206f7065726174696f6e20646964206e6f742073756363656564a264697066735822122081e83f613ed565acc33621367ada08dd5733f60283736d175733ddb156d708b464736f6c634300060c0033",
  "immutableReferences": {},
  "source": "// SPDX-License-Identifier: MIT\npragma solidity >=0.4.22 <0.8.0;\n\nimport \"@openzeppelin/contracts/access/Ownable.sol\";\nimport \"@openzeppelin/contracts/utils/EnumerableSet.sol\";\nimport \"@openzeppelin/contracts/token/ERC20/IERC20.sol\";\nimport \"@openzeppelin/contracts/token/ERC20/SafeERC20.sol\";\nimport \"@openzeppelin/contracts/math/SafeMath.sol\";\nimport \"../interface/IMdx.sol\";\n\ninterface IMasterChef {\n    function pendingSushi(uint256 pid, address user) external view returns (uint256);\n\n    function deposit(uint256 pid, uint256 amount) external;\n\n    function withdraw(uint256 pid, uint256 amount) external;\n\n    function emergencyWithdraw(uint256 pid) external;\n}\n\ncontract CoinChef is Ownable {\n    using SafeMath for uint256;\n    using SafeERC20 for IERC20;\n\n    using EnumerableSet for EnumerableSet.AddressSet;\n    EnumerableSet.AddressSet private _sushiLP;\n\n    // Info of each user.\n    struct UserInfo {\n        uint256 amount;     // How many LP tokens the user has provided.\n        uint256 rewardDebt; // Reward debt.\n        uint256 sushiRewardDebt; //sushi Reward debt.\n    }\n\n    // Info of each pool.\n    struct PoolInfo {\n        IERC20 lpToken;           // Address of LP token contract.\n        uint256 allocPoint;       // How many allocation points assigned to this pool. MDXs to distribute per block.\n        uint256 lastRewardBlock;  // Last block number that MDXs distribution occurs.\n        uint256 accMdxPerShare; // Accumulated MDXs per share, times 1e12.\n        uint256 totalAmount;    // Total amount of current pool deposit.\n        uint256 accSushiPerShare; //Accumulated SuSHIs per share\n    }\n\n    // The MDX TOKEN!\n    IMdx public mdx;\n    // MDX tokens created per block.\n    uint256 public constant mdxPerBlock = uint256(100) ** uint256(1e18);\n    // Info of each pool.\n    PoolInfo[] public poolInfo;\n    // Info of each user that stakes LP tokens.\n    mapping(uint256 => mapping(address => UserInfo)) public userInfo;\n    // Corresponding to the pid of the sushi pool\n    mapping(uint256 => uint256) public poolCorrespond;\n    // Total allocation points. Must be the sum of all allocation points in all pools.\n    uint256 public totalAllocPoint = 0;\n    // The block number when MDX mining starts.\n    uint256 public startBlock;\n    // The block number when MDX mining end;\n    uint256 public endBlock;\n    // SUSHI MasterChef 0xc2EdaD668740f1aA35E4D8f227fB8E17dcA888Cd\n    address public constant sushiChef = 0xc2EdaD668740f1aA35E4D8f227fB8E17dcA888Cd;\n    // SUSHI Token 0x6B3595068778DD592e39A122f4f5a5cF09C90fE2\n    address public constant sushiToken = 0x6B3595068778DD592e39A122f4f5a5cF09C90fE2;\n\n    event Deposit(address indexed user, uint256 indexed pid, uint256 amount);\n    event Withdraw(address indexed user, uint256 indexed pid, uint256 amount);\n    event EmergencyWithdraw(address indexed user, uint256 indexed pid, uint256 amount);\n\n    constructor(\n        IMdx _mdx,\n        uint256 _startBlock\n    ) public {\n        mdx = _mdx;\n        startBlock = _startBlock;\n        endBlock = _startBlock.add(200000);\n    }\n\n    function poolLength() public view returns (uint256) {\n        return poolInfo.length;\n    }\n\n    function addSushiLP(address _addLP) public onlyOwner returns (bool) {\n        require(_addLP != address(0), \"LP is the zero address\");\n        IERC20(_addLP).approve(sushiChef, uint256(- 1));\n        return EnumerableSet.add(_sushiLP, _addLP);\n    }\n\n    function isSushiLP(address _LP) public view returns (bool) {\n        return EnumerableSet.contains(_sushiLP, _LP);\n    }\n\n    function getSushiLPLength() public view returns (uint256) {\n        return EnumerableSet.length(_sushiLP);\n    }\n\n    function getSushiLPAddress(uint256 _pid) public view returns (address){\n        require(_pid <= getSushiLPLength() - 1, \"not find this SushiLP\");\n        return EnumerableSet.at(_sushiLP, _pid);\n    }\n\n    // Add a new lp to the pool. Can only be called by the owner.\n    // XXX DO NOT add the same LP token more than once. Rewards will be messed up if you do.\n    function add(uint256 _allocPoint, IERC20 _lpToken, bool _withUpdate) public onlyOwner {\n        require(address(_lpToken) != address(0), \"lpToken is the zero address\");\n        require(block.number < endBlock, \"All token mining completed\");\n        if (_withUpdate) {\n            massUpdatePools();\n        }\n        uint256 lastRewardBlock = block.number > startBlock ? block.number : startBlock;\n        totalAllocPoint = totalAllocPoint.add(_allocPoint);\n        poolInfo.push(PoolInfo({\n        lpToken : _lpToken,\n        allocPoint : _allocPoint,\n        lastRewardBlock : lastRewardBlock,\n        accMdxPerShare : 0,\n        totalAmount : 0,\n        accSushiPerShare : 0\n        }));\n    }\n\n    // Update the given pool's MDX allocation point. Can only be called by the owner.\n    function set(uint256 _pid, uint256 _allocPoint, bool _withUpdate) public onlyOwner {\n        if (_withUpdate) {\n            massUpdatePools();\n        }\n        totalAllocPoint = totalAllocPoint.sub(poolInfo[_pid].allocPoint).add(_allocPoint);\n        poolInfo[_pid].allocPoint = _allocPoint;\n    }\n\n    // The current pool corresponds to the pid of the sushi pool\n    function setPoolCorr(uint256 _pid, uint256 _sid) public onlyOwner {\n        require(_pid <= poolLength() - 1, \"not find this pool\");\n        poolCorrespond[_pid] = _sid;\n    }\n\n    // Update reward variables for all pools. Be careful of gas spending!\n    function massUpdatePools() public {\n        uint256 length = poolInfo.length;\n        for (uint256 pid = 0; pid < length; ++pid) {\n            updatePool(pid);\n        }\n    }\n\n    // Update reward variables of the given pool to be up-to-date.\n    function updatePool(uint256 _pid) public {\n        PoolInfo storage pool = poolInfo[_pid];\n        uint256 number = block.number > endBlock ? endBlock : block.number;\n        if (number <= pool.lastRewardBlock) {\n            return;\n        }\n        uint256 lpSupply;\n        if (isSushiLP(address(pool.lpToken))) {\n            if (pool.totalAmount == 0) {\n                pool.lastRewardBlock = number;\n                return;\n            }\n            lpSupply = pool.totalAmount;\n        } else {\n            lpSupply = pool.lpToken.balanceOf(address(this));\n            if (lpSupply == 0) {\n                pool.lastRewardBlock = number;\n                return;\n            }\n        }\n\n        uint256 multiplier = number.sub(pool.lastRewardBlock);\n        uint256 mdxReward = multiplier.mul(mdxPerBlock).mul(pool.allocPoint).div(totalAllocPoint);\n        bool minRet = mdx.mint(address(this), mdxReward);\n        if (minRet) {\n            pool.accMdxPerShare = pool.accMdxPerShare.add(mdxReward.mul(1e12).div(lpSupply));\n        }\n        pool.lastRewardBlock = number;\n    }\n\n    // View function to see pending MDXs on frontend.\n    function pending(uint256 _pid, address _user) external view returns (uint256, uint256){\n        PoolInfo storage pool = poolInfo[_pid];\n        if (isSushiLP(address(pool.lpToken))) {\n            (uint256 mdxAmount, uint256 sushiAmount) = pendingMdxAndSushi(_pid, _user);\n            return (mdxAmount, sushiAmount);\n        } else {\n            uint256 mdxAmount = pendingMdx(_pid, _user);\n            return (mdxAmount, 0);\n        }\n    }\n\n    function pendingMdxAndSushi(uint256 _pid, address _user) private view returns (uint256, uint256){\n        PoolInfo storage pool = poolInfo[_pid];\n        UserInfo storage user = userInfo[_pid][_user];\n        uint256 accMdxPerShare = pool.accMdxPerShare;\n        uint256 accSushiPerShare = pool.accSushiPerShare;\n        uint256 number = block.number > endBlock ? endBlock : block.number;\n        if (user.amount > 0) {\n            uint256 sushiPending = IMasterChef(sushiChef).pendingSushi(poolCorrespond[_pid], address(this));\n            accSushiPerShare = accSushiPerShare.add(sushiPending.mul(1e12).div(pool.totalAmount));\n            uint256 userPending = user.amount.mul(accSushiPerShare).div(1e12).sub(user.sushiRewardDebt);\n            if (number > pool.lastRewardBlock) {\n                uint256 multiplier = number.sub(pool.lastRewardBlock);\n                uint256 mdxReward = multiplier.mul(mdxPerBlock).mul(pool.allocPoint).div(totalAllocPoint);\n                accMdxPerShare = accMdxPerShare.add(mdxReward.mul(1e12).div(pool.totalAmount));\n                return (user.amount.mul(accMdxPerShare).div(1e12).sub(user.rewardDebt), userPending);\n            }\n            if (number == pool.lastRewardBlock) {\n                return (user.amount.mul(accMdxPerShare).div(1e12).sub(user.rewardDebt), userPending);\n            }\n        }\n        return (0, 0);\n    }\n\n    function pendingMdx(uint256 _pid, address _user) private view returns (uint256){\n        PoolInfo storage pool = poolInfo[_pid];\n        UserInfo storage user = userInfo[_pid][_user];\n        uint256 accMdxPerShare = pool.accMdxPerShare;\n        uint256 lpSupply = pool.lpToken.balanceOf(address(this));\n        uint256 number = block.number > endBlock ? endBlock : block.number;\n        if (user.amount > 0) {\n            if (number > pool.lastRewardBlock) {\n                uint256 multiplier = block.number.sub(pool.lastRewardBlock);\n                uint256 mdxReward = multiplier.mul(mdxPerBlock).mul(pool.allocPoint).div(totalAllocPoint);\n                accMdxPerShare = accMdxPerShare.add(mdxReward.mul(1e12).div(lpSupply));\n                return user.amount.mul(accMdxPerShare).div(1e12).sub(user.rewardDebt);\n            }\n            if (number == pool.lastRewardBlock) {\n                return user.amount.mul(accMdxPerShare).div(1e12).sub(user.rewardDebt);\n            }\n        }\n        return 0;\n    }\n\n    // Deposit LP tokens to CoinChef for MDX allocation.\n    function deposit(uint256 _pid, uint256 _amount) public {\n        PoolInfo storage pool = poolInfo[_pid];\n        if (isSushiLP(address(pool.lpToken))) {\n            depositMdxAndSushi(_pid, _amount, msg.sender);\n        } else {\n            depositMdx(_pid, _amount, msg.sender);\n        }\n    }\n\n    function depositMdxAndSushi(uint256 _pid, uint256 _amount, address _user) private {\n        PoolInfo storage pool = poolInfo[_pid];\n        UserInfo storage user = userInfo[_pid][_user];\n        updatePool(_pid);\n        if (user.amount > 0) {\n            uint256 pendingAmount = user.amount.mul(pool.accMdxPerShare).div(1e12).sub(user.rewardDebt);\n            if (pendingAmount > 0) {\n                safeMdxTransfer(_user, pendingAmount);\n            }\n            uint256 beforeSushi = IERC20(sushiToken).balanceOf(address(this));\n            IMasterChef(sushiChef).deposit(poolCorrespond[_pid], 0);\n            uint256 afterSushi = IERC20(sushiToken).balanceOf(address(this));\n            pool.accSushiPerShare = pool.accSushiPerShare.add(afterSushi.sub(beforeSushi).mul(1e12).div(pool.totalAmount));\n            uint256 sushiPending = user.amount.mul(pool.accSushiPerShare).div(1e12).sub(user.sushiRewardDebt);\n            if (sushiPending > 0) {\n                IERC20(sushiToken).safeTransfer(_user, sushiPending);\n            }\n        }\n        if (_amount > 0) {\n            pool.lpToken.safeTransferFrom(_user, address(this), _amount);\n            if (pool.totalAmount == 0) {\n                IMasterChef(sushiChef).deposit(poolCorrespond[_pid], _amount);\n                pool.totalAmount = pool.totalAmount.add(_amount);\n                user.amount = user.amount.add(_amount);\n            } else {\n                uint256 beforeSushi = IERC20(sushiToken).balanceOf(address(this));\n                IMasterChef(sushiChef).deposit(poolCorrespond[_pid], _amount);\n                uint256 afterSushi = IERC20(sushiToken).balanceOf(address(this));\n                pool.accSushiPerShare = pool.accSushiPerShare.add(afterSushi.sub(beforeSushi).mul(1e12).div(pool.totalAmount));\n                pool.totalAmount = pool.totalAmount.add(_amount);\n                user.amount = user.amount.add(_amount);\n            }\n        }\n        user.rewardDebt = user.amount.mul(pool.accMdxPerShare).div(1e12);\n        user.sushiRewardDebt = user.amount.mul(pool.accSushiPerShare).div(1e12);\n        emit Deposit(_user, _pid, _amount);\n    }\n\n    function depositMdx(uint256 _pid, uint256 _amount, address _user) private {\n        PoolInfo storage pool = poolInfo[_pid];\n        UserInfo storage user = userInfo[_pid][_user];\n        updatePool(_pid);\n        if (user.amount > 0) {\n            uint256 pendingAmount = user.amount.mul(pool.accMdxPerShare).div(1e12).sub(user.rewardDebt);\n            if (pendingAmount > 0) {\n                safeMdxTransfer(_user, pendingAmount);\n            }\n        }\n        if (_amount > 0) {\n            pool.lpToken.safeTransferFrom(_user, address(this), _amount);\n            user.amount = user.amount.add(_amount);\n            pool.totalAmount = pool.totalAmount.add(_amount);\n        }\n        user.rewardDebt = user.amount.mul(pool.accMdxPerShare).div(1e12);\n        emit Deposit(_user, _pid, _amount);\n    }\n\n    // Withdraw LP tokens from CoinChef.\n    function withdraw(uint256 _pid, uint256 _amount) public {\n        PoolInfo storage pool = poolInfo[_pid];\n        if (isSushiLP(address(pool.lpToken))) {\n            withdrawMdxAndSushi(_pid, _amount, msg.sender);\n        } else {\n            withdrawMdx(_pid, _amount, msg.sender);\n        }\n    }\n\n    function withdrawMdxAndSushi(uint256 _pid, uint256 _amount, address _user) private {\n        PoolInfo storage pool = poolInfo[_pid];\n        UserInfo storage user = userInfo[_pid][_user];\n        require(user.amount >= _amount, \"withdrawMdxAndSushi: not good\");\n        updatePool(_pid);\n        uint256 pendingAmount = user.amount.mul(pool.accMdxPerShare).div(1e12).sub(user.rewardDebt);\n        if (pendingAmount > 0) {\n            safeMdxTransfer(_user, pendingAmount);\n        }\n        if (_amount > 0) {\n            uint256 beforeSushi = IERC20(sushiToken).balanceOf(address(this));\n            IMasterChef(sushiChef).withdraw(poolCorrespond[_pid], _amount);\n            uint256 afterSushi = IERC20(sushiToken).balanceOf(address(this));\n            pool.accSushiPerShare = pool.accSushiPerShare.add(afterSushi.sub(beforeSushi).mul(1e12).div(pool.totalAmount));\n            uint256 sushiPending = user.amount.mul(pool.accSushiPerShare).div(1e12).sub(user.sushiRewardDebt);\n            if (sushiPending > 0) {\n                IERC20(sushiToken).safeTransfer(_user, sushiPending);\n            }\n            user.amount = user.amount.sub(_amount);\n            pool.totalAmount = pool.totalAmount.sub(_amount);\n            pool.lpToken.safeTransfer(_user, _amount);\n        }\n        user.rewardDebt = user.amount.mul(pool.accMdxPerShare).div(1e12);\n        user.sushiRewardDebt = user.amount.mul(pool.accSushiPerShare).div(1e12);\n        emit Withdraw(_user, _pid, _amount);\n    }\n\n    function withdrawMdx(uint256 _pid, uint256 _amount, address _user) private {\n        PoolInfo storage pool = poolInfo[_pid];\n        UserInfo storage user = userInfo[_pid][_user];\n        require(user.amount >= _amount, \"withdrawMdx: not good\");\n        updatePool(_pid);\n        uint256 pendingAmount = user.amount.mul(pool.accMdxPerShare).div(1e12).sub(user.rewardDebt);\n        if (pendingAmount > 0) {\n            safeMdxTransfer(_user, pendingAmount);\n        }\n        if (_amount > 0) {\n            user.amount = user.amount.sub(_amount);\n            pool.totalAmount = pool.totalAmount.sub(_amount);\n            pool.lpToken.safeTransfer(_user, _amount);\n        }\n        user.rewardDebt = user.amount.mul(pool.accMdxPerShare).div(1e12);\n        emit Withdraw(_user, _pid, _amount);\n    }\n\n    // Withdraw without caring about rewards. EMERGENCY ONLY.\n    function emergencyWithdraw(uint256 _pid) public {\n        PoolInfo storage pool = poolInfo[_pid];\n        if (isSushiLP(address(pool.lpToken))) {\n            emergencyWithdrawMdxAndSushi(_pid, msg.sender);\n        } else {\n            emergencyWithdrawMdx(_pid, msg.sender);\n        }\n    }\n\n    function emergencyWithdrawMdxAndSushi(uint256 _pid, address _user) private {\n        PoolInfo storage pool = poolInfo[_pid];\n        UserInfo storage user = userInfo[_pid][_user];\n        uint256 amount = user.amount;\n        uint256 beforeSushi = IERC20(sushiToken).balanceOf(address(this));\n        IMasterChef(sushiChef).withdraw(poolCorrespond[_pid], amount);\n        uint256 afterSushi = IERC20(sushiToken).balanceOf(address(this));\n        pool.accSushiPerShare = pool.accSushiPerShare.add(afterSushi.sub(beforeSushi).mul(1e12).div(pool.totalAmount));\n        user.amount = 0;\n        user.rewardDebt = 0;\n        pool.lpToken.safeTransfer(_user, amount);\n        pool.totalAmount = pool.totalAmount.sub(amount);\n        emit EmergencyWithdraw(_user, _pid, amount);\n    }\n\n    function emergencyWithdrawMdx(uint256 _pid, address _user) private {\n        PoolInfo storage pool = poolInfo[_pid];\n        UserInfo storage user = userInfo[_pid][_user];\n        uint256 amount = user.amount;\n        user.amount = 0;\n        user.rewardDebt = 0;\n        pool.lpToken.safeTransfer(_user, amount);\n        pool.totalAmount = pool.totalAmount.sub(amount);\n        emit EmergencyWithdraw(_user, _pid, amount);\n    }\n\n    // Safe MDX transfer function, just in case if rounding error causes pool to not have enough MDXs.\n    function safeMdxTransfer(address _to, uint256 _amount) internal {\n        uint256 mdxBal = mdx.balanceOf(address(this));\n        if (_amount > mdxBal) {\n            mdx.transfer(_to, mdxBal);\n        } else {\n            mdx.transfer(_to, _amount);\n        }\n    }\n\n}\n",
  "sourcePath": "D:/Posao - Stefan/Stefan - razno/Blockchain/ElavateFinance/elavate-core-v1/contracts/mdexSwap/mainnet/CoinChef.sol",
  "compiler": {
    "name": "solc",
    "version": "0.6.12+commit.27d51765.Emscripten.clang"
  },
  "schemaVersion": "3.4.1",
  "updatedAt": "2021-07-16T11:08:48.337Z",
  "devdoc": {
    "kind": "dev",
    "methods": {
      "owner()": {
        "details": "Returns the address of the current owner."
      },
      "renounceOwnership()": {
        "details": "Leaves the contract without owner. It will not be possible to call `onlyOwner` functions anymore. Can only be called by the current owner. NOTE: Renouncing ownership will leave the contract without an owner, thereby removing any functionality that is only available to the owner."
      },
      "transferOwnership(address)": {
        "details": "Transfers ownership of the contract to a new account (`newOwner`). Can only be called by the current owner."
      }
    },
    "version": 1
  },
  "userdoc": {
    "kind": "user",
    "methods": {},
    "version": 1
  }
}