{
  "contractName": "GovernorAlpha",
  "abi": [
    {
      "inputs": [
        {
          "internalType": "address",
          "name": "timelock_",
          "type": "address"
        },
        {
          "internalType": "address",
          "name": "mdx_",
          "type": "address"
        },
        {
          "internalType": "address",
          "name": "guardian_",
          "type": "address"
        }
      ],
      "stateMutability": "nonpayable",
      "type": "constructor"
    },
    {
      "anonymous": false,
      "inputs": [
        {
          "indexed": false,
          "internalType": "uint256",
          "name": "id",
          "type": "uint256"
        }
      ],
      "name": "ProposalCanceled",
      "type": "event"
    },
    {
      "anonymous": false,
      "inputs": [
        {
          "indexed": false,
          "internalType": "uint256",
          "name": "id",
          "type": "uint256"
        },
        {
          "indexed": false,
          "internalType": "address",
          "name": "proposer",
          "type": "address"
        },
        {
          "indexed": false,
          "internalType": "address[]",
          "name": "targets",
          "type": "address[]"
        },
        {
          "indexed": false,
          "internalType": "uint256[]",
          "name": "values",
          "type": "uint256[]"
        },
        {
          "indexed": false,
          "internalType": "string[]",
          "name": "signatures",
          "type": "string[]"
        },
        {
          "indexed": false,
          "internalType": "bytes[]",
          "name": "calldatas",
          "type": "bytes[]"
        },
        {
          "indexed": false,
          "internalType": "uint256",
          "name": "startBlock",
          "type": "uint256"
        },
        {
          "indexed": false,
          "internalType": "uint256",
          "name": "endBlock",
          "type": "uint256"
        },
        {
          "indexed": false,
          "internalType": "string",
          "name": "description",
          "type": "string"
        }
      ],
      "name": "ProposalCreated",
      "type": "event"
    },
    {
      "anonymous": false,
      "inputs": [
        {
          "indexed": false,
          "internalType": "uint256",
          "name": "id",
          "type": "uint256"
        }
      ],
      "name": "ProposalExecuted",
      "type": "event"
    },
    {
      "anonymous": false,
      "inputs": [
        {
          "indexed": false,
          "internalType": "uint256",
          "name": "id",
          "type": "uint256"
        },
        {
          "indexed": false,
          "internalType": "uint256",
          "name": "eta",
          "type": "uint256"
        }
      ],
      "name": "ProposalQueued",
      "type": "event"
    },
    {
      "anonymous": false,
      "inputs": [
        {
          "indexed": false,
          "internalType": "address",
          "name": "voter",
          "type": "address"
        },
        {
          "indexed": false,
          "internalType": "uint256",
          "name": "proposalId",
          "type": "uint256"
        },
        {
          "indexed": false,
          "internalType": "bool",
          "name": "support",
          "type": "bool"
        },
        {
          "indexed": false,
          "internalType": "uint256",
          "name": "votes",
          "type": "uint256"
        }
      ],
      "name": "VoteCast",
      "type": "event"
    },
    {
      "inputs": [],
      "name": "BALLOT_TYPEHASH",
      "outputs": [
        {
          "internalType": "bytes32",
          "name": "",
          "type": "bytes32"
        }
      ],
      "stateMutability": "view",
      "type": "function"
    },
    {
      "inputs": [],
      "name": "DOMAIN_TYPEHASH",
      "outputs": [
        {
          "internalType": "bytes32",
          "name": "",
          "type": "bytes32"
        }
      ],
      "stateMutability": "view",
      "type": "function"
    },
    {
      "inputs": [],
      "name": "guardian",
      "outputs": [
        {
          "internalType": "address",
          "name": "",
          "type": "address"
        }
      ],
      "stateMutability": "view",
      "type": "function"
    },
    {
      "inputs": [
        {
          "internalType": "address",
          "name": "",
          "type": "address"
        }
      ],
      "name": "latestProposalIds",
      "outputs": [
        {
          "internalType": "uint256",
          "name": "",
          "type": "uint256"
        }
      ],
      "stateMutability": "view",
      "type": "function"
    },
    {
      "inputs": [],
      "name": "mdx",
      "outputs": [
        {
          "internalType": "contract MdxToken",
          "name": "",
          "type": "address"
        }
      ],
      "stateMutability": "view",
      "type": "function"
    },
    {
      "inputs": [],
      "name": "name",
      "outputs": [
        {
          "internalType": "string",
          "name": "",
          "type": "string"
        }
      ],
      "stateMutability": "view",
      "type": "function"
    },
    {
      "inputs": [],
      "name": "proposalCount",
      "outputs": [
        {
          "internalType": "uint256",
          "name": "",
          "type": "uint256"
        }
      ],
      "stateMutability": "view",
      "type": "function"
    },
    {
      "inputs": [
        {
          "internalType": "uint256",
          "name": "",
          "type": "uint256"
        }
      ],
      "name": "proposals",
      "outputs": [
        {
          "internalType": "uint256",
          "name": "id",
          "type": "uint256"
        },
        {
          "internalType": "address",
          "name": "proposer",
          "type": "address"
        },
        {
          "internalType": "uint256",
          "name": "eta",
          "type": "uint256"
        },
        {
          "internalType": "uint256",
          "name": "startBlock",
          "type": "uint256"
        },
        {
          "internalType": "uint256",
          "name": "endBlock",
          "type": "uint256"
        },
        {
          "internalType": "uint256",
          "name": "forVotes",
          "type": "uint256"
        },
        {
          "internalType": "uint256",
          "name": "againstVotes",
          "type": "uint256"
        },
        {
          "internalType": "bool",
          "name": "canceled",
          "type": "bool"
        },
        {
          "internalType": "bool",
          "name": "executed",
          "type": "bool"
        }
      ],
      "stateMutability": "view",
      "type": "function"
    },
    {
      "inputs": [],
      "name": "timelock",
      "outputs": [
        {
          "internalType": "contract TimelockInterface",
          "name": "",
          "type": "address"
        }
      ],
      "stateMutability": "view",
      "type": "function"
    },
    {
      "inputs": [],
      "name": "quorumVotes",
      "outputs": [
        {
          "internalType": "uint256",
          "name": "",
          "type": "uint256"
        }
      ],
      "stateMutability": "view",
      "type": "function"
    },
    {
      "inputs": [],
      "name": "proposalThreshold",
      "outputs": [
        {
          "internalType": "uint256",
          "name": "",
          "type": "uint256"
        }
      ],
      "stateMutability": "view",
      "type": "function"
    },
    {
      "inputs": [],
      "name": "proposalMaxOperations",
      "outputs": [
        {
          "internalType": "uint256",
          "name": "",
          "type": "uint256"
        }
      ],
      "stateMutability": "pure",
      "type": "function"
    },
    {
      "inputs": [],
      "name": "votingDelay",
      "outputs": [
        {
          "internalType": "uint256",
          "name": "",
          "type": "uint256"
        }
      ],
      "stateMutability": "pure",
      "type": "function"
    },
    {
      "inputs": [],
      "name": "votingPeriod",
      "outputs": [
        {
          "internalType": "uint256",
          "name": "",
          "type": "uint256"
        }
      ],
      "stateMutability": "pure",
      "type": "function"
    },
    {
      "inputs": [
        {
          "internalType": "address[]",
          "name": "targets",
          "type": "address[]"
        },
        {
          "internalType": "uint256[]",
          "name": "values",
          "type": "uint256[]"
        },
        {
          "internalType": "string[]",
          "name": "signatures",
          "type": "string[]"
        },
        {
          "internalType": "bytes[]",
          "name": "calldatas",
          "type": "bytes[]"
        },
        {
          "internalType": "string",
          "name": "description",
          "type": "string"
        }
      ],
      "name": "propose",
      "outputs": [
        {
          "internalType": "uint256",
          "name": "",
          "type": "uint256"
        }
      ],
      "stateMutability": "nonpayable",
      "type": "function"
    },
    {
      "inputs": [
        {
          "internalType": "uint256",
          "name": "proposalId",
          "type": "uint256"
        }
      ],
      "name": "queue",
      "outputs": [],
      "stateMutability": "nonpayable",
      "type": "function"
    },
    {
      "inputs": [
        {
          "internalType": "uint256",
          "name": "proposalId",
          "type": "uint256"
        }
      ],
      "name": "execute",
      "outputs": [],
      "stateMutability": "payable",
      "type": "function"
    },
    {
      "inputs": [
        {
          "internalType": "uint256",
          "name": "proposalId",
          "type": "uint256"
        }
      ],
      "name": "cancel",
      "outputs": [],
      "stateMutability": "nonpayable",
      "type": "function"
    },
    {
      "inputs": [
        {
          "internalType": "uint256",
          "name": "proposalId",
          "type": "uint256"
        }
      ],
      "name": "getActions",
      "outputs": [
        {
          "internalType": "address[]",
          "name": "targets",
          "type": "address[]"
        },
        {
          "internalType": "uint256[]",
          "name": "values",
          "type": "uint256[]"
        },
        {
          "internalType": "string[]",
          "name": "signatures",
          "type": "string[]"
        },
        {
          "internalType": "bytes[]",
          "name": "calldatas",
          "type": "bytes[]"
        }
      ],
      "stateMutability": "view",
      "type": "function"
    },
    {
      "inputs": [
        {
          "internalType": "uint256",
          "name": "proposalId",
          "type": "uint256"
        },
        {
          "internalType": "address",
          "name": "voter",
          "type": "address"
        }
      ],
      "name": "getReceipt",
      "outputs": [
        {
          "components": [
            {
              "internalType": "bool",
              "name": "hasVoted",
              "type": "bool"
            },
            {
              "internalType": "bool",
              "name": "support",
              "type": "bool"
            },
            {
              "internalType": "uint256",
              "name": "votes",
              "type": "uint256"
            }
          ],
          "internalType": "struct GovernorAlpha.Receipt",
          "name": "",
          "type": "tuple"
        }
      ],
      "stateMutability": "view",
      "type": "function"
    },
    {
      "inputs": [
        {
          "internalType": "uint256",
          "name": "proposalId",
          "type": "uint256"
        }
      ],
      "name": "state",
      "outputs": [
        {
          "internalType": "enum GovernorAlpha.ProposalState",
          "name": "",
          "type": "uint8"
        }
      ],
      "stateMutability": "view",
      "type": "function"
    },
    {
      "inputs": [
        {
          "internalType": "uint256",
          "name": "proposalId",
          "type": "uint256"
        },
        {
          "internalType": "bool",
          "name": "support",
          "type": "bool"
        }
      ],
      "name": "castVote",
      "outputs": [],
      "stateMutability": "nonpayable",
      "type": "function"
    },
    {
      "inputs": [
        {
          "internalType": "uint256",
          "name": "proposalId",
          "type": "uint256"
        },
        {
          "internalType": "bool",
          "name": "support",
          "type": "bool"
        },
        {
          "internalType": "uint8",
          "name": "v",
          "type": "uint8"
        },
        {
          "internalType": "bytes32",
          "name": "r",
          "type": "bytes32"
        },
        {
          "internalType": "bytes32",
          "name": "s",
          "type": "bytes32"
        }
      ],
      "name": "castVoteBySig",
      "outputs": [],
      "stateMutability": "nonpayable",
      "type": "function"
    },
    {
      "inputs": [],
      "name": "__acceptAdmin",
      "outputs": [],
      "stateMutability": "nonpayable",
      "type": "function"
    },
    {
      "inputs": [],
      "name": "__abdicate",
      "outputs": [],
      "stateMutability": "nonpayable",
      "type": "function"
    },
    {
      "inputs": [
        {
          "internalType": "address",
          "name": "newPendingAdmin",
          "type": "address"
        },
        {
          "internalType": "uint256",
          "name": "eta",
          "type": "uint256"
        }
      ],
      "name": "__queueSetTimelockPendingAdmin",
      "outputs": [],
      "stateMutability": "nonpayable",
      "type": "function"
    },
    {
      "inputs": [
        {
          "internalType": "address",
          "name": "newPendingAdmin",
          "type": "address"
        },
        {
          "internalType": "uint256",
          "name": "eta",
          "type": "uint256"
        }
      ],
      "name": "__executeSetTimelockPendingAdmin",
      "outputs": [],
      "stateMutability": "nonpayable",
      "type": "function"
    }
  ],
  "bytecode": "0x60806040523480156200001157600080fd5b506040516200525438038062005254833981810160405281019062000037919062000119565b826000806101000a81548173ffffffffffffffffffffffffffffffffffffffff021916908373ffffffffffffffffffffffffffffffffffffffff16021790555081600160006101000a81548173ffffffffffffffffffffffffffffffffffffffff021916908373ffffffffffffffffffffffffffffffffffffffff16021790555080600260006101000a81548173ffffffffffffffffffffffffffffffffffffffff021916908373ffffffffffffffffffffffffffffffffffffffff160217905550505050620001bd565b6000815190506200011381620001a3565b92915050565b6000806000606084860312156200012f57600080fd5b60006200013f8682870162000102565b9350506020620001528682870162000102565b9250506040620001658682870162000102565b9150509250925092565b60006200017c8262000183565b9050919050565b600073ffffffffffffffffffffffffffffffffffffffff82169050919050565b620001ae816200016f565b8114620001ba57600080fd5b50565b61508780620001cd6000396000f3fe6080604052600436106101ac5760003560e01c80634634c61f116100ec578063d33219b41161008a578063ddf0b00911610064578063ddf0b009146105c1578063deaaa7cc146105ea578063e23a9a5214610615578063fe0d94c114610652576101ac565b8063d33219b41461052e578063da35c66414610559578063da95691a14610584576101ac565b80637bdbe4d0116100c65780637bdbe4d01461049857806391500671146104c3578063b58131b0146104ec578063b9a6196114610517576101ac565b80634634c61f1461042d5780635672ab5514610456578063760fbc1314610481576101ac565b806321f43e42116101595780633932abb1116101335780633932abb1146103715780633e4f49e61461039c57806340e58ee5146103d9578063452a932014610402576101ac565b806321f43e42146102dd57806324bc1a6414610306578063328dd98214610331576101ac565b806315373e3d1161018a57806315373e3d1461024c57806317977c611461027557806320606b70146102b2576101ac565b8063013cf08b146101b157806302a251a3146101f657806306fdde0314610221575b600080fd5b3480156101bd57600080fd5b506101d860048036038101906101d391906133b3565b61066e565b6040516101ed99989796959493929190614b12565b60405180910390f35b34801561020257600080fd5b5061020b6106f6565b6040516102189190614a47565b60405180910390f35b34801561022d57600080fd5b50610236610701565b604051610243919061476a565b60405180910390f35b34801561025857600080fd5b50610273600480360381019061026e9190613441565b61073a565b005b34801561028157600080fd5b5061029c600480360381019061029791906131cc565b610749565b6040516102a99190614a47565b60405180910390f35b3480156102be57600080fd5b506102c7610761565b6040516102d4919061463d565b60405180910390f35b3480156102e957600080fd5b5061030460048036038101906102ff91906131f5565b610785565b005b34801561031257600080fd5b5061031b610910565b6040516103289190614a47565b60405180910390f35b34801561033d57600080fd5b50610358600480360381019061035391906133b3565b6109c1565b60405161036894939291906145dc565b60405180910390f35b34801561037d57600080fd5b50610386610c9e565b6040516103939190614a47565b60405180910390f35b3480156103a857600080fd5b506103c360048036038101906103be91906133b3565b610ca7565b6040516103d0919061474f565b60405180910390f35b3480156103e557600080fd5b5061040060048036038101906103fb91906133b3565b610e8a565b005b34801561040e57600080fd5b50610417611214565b6040516104249190614409565b60405180910390f35b34801561043957600080fd5b50610454600480360381019061044f919061347d565b61123a565b005b34801561046257600080fd5b5061046b611423565b6040516104789190614719565b60405180910390f35b34801561048d57600080fd5b50610496611449565b005b3480156104a457600080fd5b506104ad61151d565b6040516104ba9190614a47565b60405180910390f35b3480156104cf57600080fd5b506104ea60048036038101906104e591906131f5565b611526565b005b3480156104f857600080fd5b506105016116ac565b60405161050e9190614a47565b60405180910390f35b34801561052357600080fd5b5061052c61175d565b005b34801561053a57600080fd5b5061054361186f565b6040516105509190614734565b60405180910390f35b34801561056557600080fd5b5061056e611893565b60405161057b9190614a47565b60405180910390f35b34801561059057600080fd5b506105ab60048036038101906105a69190613231565b611899565b6040516105b89190614a47565b60405180910390f35b3480156105cd57600080fd5b506105e860048036038101906105e391906133b3565b611e58565b005b3480156105f657600080fd5b506105ff6121a3565b60405161060c919061463d565b60405180910390f35b34801561062157600080fd5b5061063c60048036038101906106379190613405565b6121c7565b6040516106499190614a2c565b60405180910390f35b61066c600480360381019061066791906133b3565b612275565b005b60046020528060005260406000206000915090508060000154908060010160009054906101000a900473ffffffffffffffffffffffffffffffffffffffff169080600201549080600701549080600801549080600901549080600a01549080600b0160009054906101000a900460ff169080600b0160019054906101000a900460ff16905089565b600062015180905090565b6040518060400160405280601281526020017f4d445820476f7665726e6f7220416c706861000000000000000000000000000081525081565b6107453383836124be565b5050565b60056020528060005260406000206000915090505481565b7f8cad95687ba82c2ce50e74f7b754645e5117c3a5bec8151c0726d5857980a86681565b600260009054906101000a900473ffffffffffffffffffffffffffffffffffffffff1673ffffffffffffffffffffffffffffffffffffffff163373ffffffffffffffffffffffffffffffffffffffff1614610815576040517f08c379a000000000000000000000000000000000000000000000000000000000815260040161080c906147ec565b60405180910390fd5b60008054906101000a900473ffffffffffffffffffffffffffffffffffffffff1673ffffffffffffffffffffffffffffffffffffffff16630825f38f60008054906101000a900473ffffffffffffffffffffffffffffffffffffffff166000856040516020016108859190614409565b604051602081830303815290604052856040518563ffffffff1660e01b81526004016108b4949392919061444d565b600060405180830381600087803b1580156108ce57600080fd5b505af11580156108e2573d6000803e3d6000fd5b505050506040513d6000823e3d601f19601f8201168201806040525081019061090b9190613372565b505050565b60006019600160009054906101000a900473ffffffffffffffffffffffffffffffffffffffff1673ffffffffffffffffffffffffffffffffffffffff166318160ddd6040518163ffffffff1660e01b815260040160206040518083038186803b15801561097c57600080fd5b505afa158015610990573d6000803e3d6000fd5b505050506040513d601f19601f820116820180604052508101906109b491906133dc565b816109bb57fe5b04905090565b60608060608060006004600087815260200190815260200160002090508060030181600401826005018360060183805480602002602001604051908101604052809291908181526020018280548015610a6f57602002820191906000526020600020905b8160009054906101000a900473ffffffffffffffffffffffffffffffffffffffff1673ffffffffffffffffffffffffffffffffffffffff1681526020019060010190808311610a25575b5050505050935082805480602002602001604051908101604052809291908181526020018280548015610ac157602002820191906000526020600020905b815481526020019060010190808311610aad575b5050505050925081805480602002602001604051908101604052809291908181526020016000905b82821015610ba5578382906000526020600020018054600181600116156101000203166002900480601f016020809104026020016040519081016040528092919081815260200182805460018160011615610100020316600290048015610b915780601f10610b6657610100808354040283529160200191610b91565b820191906000526020600020905b815481529060010190602001808311610b7457829003601f168201915b505050505081526020019060010190610ae9565b50505050915080805480602002602001604051908101604052809291908181526020016000905b82821015610c88578382906000526020600020018054600181600116156101000203166002900480601f016020809104026020016040519081016040528092919081815260200182805460018160011615610100020316600290048015610c745780601f10610c4957610100808354040283529160200191610c74565b820191906000526020600020905b815481529060010190602001808311610c5757829003601f168201915b505050505081526020019060010190610bcc565b5050505090509450945094509450509193509193565b60006001905090565b60008160035410158015610cbb5750600082115b610cfa576040517f08c379a0000000000000000000000000000000000000000000000000000000008152600401610cf19061480c565b60405180910390fd5b600060046000848152602001908152602001600020905080600b0160009054906101000a900460ff1615610d32576002915050610e85565b80600701544311610d47576000915050610e85565b80600801544311610d5c576001915050610e85565b80600a01548160090154111580610d7d5750610d76610910565b8160090154105b15610d8c576003915050610e85565b600081600201541415610da3576004915050610e85565b80600b0160019054906101000a900460ff1615610dc4576007915050610e85565b610e6f816002015460008054906101000a900473ffffffffffffffffffffffffffffffffffffffff1673ffffffffffffffffffffffffffffffffffffffff1663c1a287e26040518163ffffffff1660e01b815260040160206040518083038186803b158015610e3257600080fd5b505afa158015610e46573d6000803e3d6000fd5b505050506040513d601f19601f82011682018060405250810190610e6a91906133dc565b612747565b4210610e7f576006915050610e85565b60059150505b919050565b6000610e9582610ca7565b9050600780811115610ea357fe5b816007811115610eaf57fe5b1415610ef0576040517f08c379a0000000000000000000000000000000000000000000000000000000008152600401610ee7906149ac565b60405180910390fd5b6000600460008481526020019081526020016000209050600260009054906101000a900473ffffffffffffffffffffffffffffffffffffffff1673ffffffffffffffffffffffffffffffffffffffff163373ffffffffffffffffffffffffffffffffffffffff1614806110435750610f666116ac565b600160009054906101000a900473ffffffffffffffffffffffffffffffffffffffff1673ffffffffffffffffffffffffffffffffffffffff1663782d6fe18360010160009054906101000a900473ffffffffffffffffffffffffffffffffffffffff16610fd443600161279c565b6040518363ffffffff1660e01b8152600401610ff19291906144ac565b60206040518083038186803b15801561100957600080fd5b505afa15801561101d573d6000803e3d6000fd5b505050506040513d601f19601f8201168201806040525081019061104191906133dc565b105b611082576040517f08c379a0000000000000000000000000000000000000000000000000000000008152600401611079906148ec565b60405180910390fd5b600181600b0160006101000a81548160ff02191690831515021790555060005b81600301805490508110156111d75760008054906101000a900473ffffffffffffffffffffffffffffffffffffffff1673ffffffffffffffffffffffffffffffffffffffff1663591fcdfe8360030183815481106110fc57fe5b9060005260206000200160009054906101000a900473ffffffffffffffffffffffffffffffffffffffff1684600401848154811061113657fe5b906000526020600020015485600501858154811061115057fe5b9060005260206000200186600601868154811061116957fe5b9060005260206000200187600201546040518663ffffffff1660e01b815260040161119895949392919061457b565b600060405180830381600087803b1580156111b257600080fd5b505af11580156111c6573d6000803e3d6000fd5b5050505080806001019150506110a2565b507f789cf55be980739dad1d0699b93b58e806b51c9d96619bfa8fe0a28abaa7b30c836040516112079190614a47565b60405180910390a1505050565b600260009054906101000a900473ffffffffffffffffffffffffffffffffffffffff1681565b60007f8cad95687ba82c2ce50e74f7b754645e5117c3a5bec8151c0726d5857980a8666040518060400160405280601281526020017f4d445820476f7665726e6f7220416c7068610000000000000000000000000000815250805190602001206112a26127ec565b306040516020016112b69493929190614658565b60405160208183030381529060405280519060200120905060007f8e25870c07e0b0b3884c78da52790939a455c275406c44ae8b434b692fb916ee87876040516020016113059392919061469d565b604051602081830303815290604052805190602001209050600082826040516020016113329291906143d2565b60405160208183030381529060405280519060200120905060006001828888886040516000815260200160405260405161136f94939291906146d4565b6020604051602081039080840390855afa158015611391573d6000803e3d6000fd5b505050602060405103519050600073ffffffffffffffffffffffffffffffffffffffff168173ffffffffffffffffffffffffffffffffffffffff16141561140d576040517f08c379a00000000000000000000000000000000000000000000000000000000081526004016114049061496c565b60405180910390fd5b611418818a8a6124be565b505050505050505050565b600160009054906101000a900473ffffffffffffffffffffffffffffffffffffffff1681565b600260009054906101000a900473ffffffffffffffffffffffffffffffffffffffff1673ffffffffffffffffffffffffffffffffffffffff163373ffffffffffffffffffffffffffffffffffffffff16146114d9576040517f08c379a00000000000000000000000000000000000000000000000000000000081526004016114d090614a0c565b60405180910390fd5b6000600260006101000a81548173ffffffffffffffffffffffffffffffffffffffff021916908373ffffffffffffffffffffffffffffffffffffffff160217905550565b6000600a905090565b600260009054906101000a900473ffffffffffffffffffffffffffffffffffffffff1673ffffffffffffffffffffffffffffffffffffffff163373ffffffffffffffffffffffffffffffffffffffff16146115b6576040517f08c379a00000000000000000000000000000000000000000000000000000000081526004016115ad9061486c565b60405180910390fd5b60008054906101000a900473ffffffffffffffffffffffffffffffffffffffff1673ffffffffffffffffffffffffffffffffffffffff16633a66f90160008054906101000a900473ffffffffffffffffffffffffffffffffffffffff166000856040516020016116269190614409565b604051602081830303815290604052856040518563ffffffff1660e01b8152600401611655949392919061444d565b602060405180830381600087803b15801561166f57600080fd5b505af1158015611683573d6000803e3d6000fd5b505050506040513d601f19601f820116820180604052508101906116a79190613349565b505050565b60006064600160009054906101000a900473ffffffffffffffffffffffffffffffffffffffff1673ffffffffffffffffffffffffffffffffffffffff166318160ddd6040518163ffffffff1660e01b815260040160206040518083038186803b15801561171857600080fd5b505afa15801561172c573d6000803e3d6000fd5b505050506040513d601f19601f8201168201806040525081019061175091906133dc565b8161175757fe5b04905090565b600260009054906101000a900473ffffffffffffffffffffffffffffffffffffffff1673ffffffffffffffffffffffffffffffffffffffff163373ffffffffffffffffffffffffffffffffffffffff16146117ed576040517f08c379a00000000000000000000000000000000000000000000000000000000081526004016117e49061478c565b60405180910390fd5b60008054906101000a900473ffffffffffffffffffffffffffffffffffffffff1673ffffffffffffffffffffffffffffffffffffffff16630e18b6816040518163ffffffff1660e01b8152600401600060405180830381600087803b15801561185557600080fd5b505af1158015611869573d6000803e3d6000fd5b50505050565b60008054906101000a900473ffffffffffffffffffffffffffffffffffffffff1681565b60035481565b60006118a36116ac565b600160009054906101000a900473ffffffffffffffffffffffffffffffffffffffff1673ffffffffffffffffffffffffffffffffffffffff1663782d6fe1336118ed43600161279c565b6040518363ffffffff1660e01b815260040161190a929190614424565b60206040518083038186803b15801561192257600080fd5b505afa158015611936573d6000803e3d6000fd5b505050506040513d601f19601f8201168201806040525081019061195a91906133dc565b1161199a576040517f08c379a00000000000000000000000000000000000000000000000000000000081526004016119919061494c565b60405180910390fd5b845186511480156119ac575083518651145b80156119b9575082518651145b6119f8576040517f08c379a00000000000000000000000000000000000000000000000000000000081526004016119ef906148cc565b60405180910390fd5b600086511415611a3d576040517f08c379a0000000000000000000000000000000000000000000000000000000008152600401611a349061492c565b60405180910390fd5b611a4561151d565b86511115611a88576040517f08c379a0000000000000000000000000000000000000000000000000000000008152600401611a7f9061488c565b60405180910390fd5b6000600560003373ffffffffffffffffffffffffffffffffffffffff1673ffffffffffffffffffffffffffffffffffffffff16815260200190815260200160002054905060008114611b97576000611adf82610ca7565b905060016007811115611aee57fe5b816007811115611afa57fe5b1415611b3b576040517f08c379a0000000000000000000000000000000000000000000000000000000008152600401611b329061498c565b60405180910390fd5b60006007811115611b4857fe5b816007811115611b5457fe5b1415611b95576040517f08c379a0000000000000000000000000000000000000000000000000000000008152600401611b8c9061484c565b60405180910390fd5b505b6000611baa43611ba5610c9e565b612747565b90506000611bbf82611bba6106f6565b612747565b9050600360008154809291906001019190505550611bdb6129cc565b604051806101a0016040528060035481526020013373ffffffffffffffffffffffffffffffffffffffff168152602001600081526020018b81526020018a815260200189815260200188815260200184815260200183815260200160008152602001600081526020016000151581526020016000151581525090508060046000836000015181526020019081526020016000206000820151816000015560208201518160010160006101000a81548173ffffffffffffffffffffffffffffffffffffffff021916908373ffffffffffffffffffffffffffffffffffffffff160217905550604082015181600201556060820151816003019080519060200190611ce5929190612a4e565b506080820151816004019080519060200190611d02929190612ad8565b5060a0820151816005019080519060200190611d1f929190612b25565b5060c0820151816006019080519060200190611d3c929190612b85565b5060e082015181600701556101008201518160080155610120820151816009015561014082015181600a015561016082015181600b0160006101000a81548160ff02191690831515021790555061018082015181600b0160016101000a81548160ff021916908315150217905550905050806000015160056000836020015173ffffffffffffffffffffffffffffffffffffffff1673ffffffffffffffffffffffffffffffffffffffff168152602001908152602001600020819055507f7d84a6263ae0d98d3329bd7b46bb4e8d6f98cd35a7adb45c274c8b7fd5ebd5e08160000151338c8c8c8c89898e604051611e3c99989796959493929190614a62565b60405180910390a1806000015194505050505095945050505050565b60046007811115611e6557fe5b611e6e82610ca7565b6007811115611e7957fe5b14611eb9576040517f08c379a0000000000000000000000000000000000000000000000000000000008152600401611eb0906147ac565b60405180910390fd5b60006004600083815260200190815260200160002090506000611f794260008054906101000a900473ffffffffffffffffffffffffffffffffffffffff1673ffffffffffffffffffffffffffffffffffffffff16636a42b8f86040518163ffffffff1660e01b815260040160206040518083038186803b158015611f3c57600080fd5b505afa158015611f50573d6000803e3d6000fd5b505050506040513d601f19601f82011682018060405250810190611f7491906133dc565b612747565b905060005b826003018054905081101561215b5761214e836003018281548110611f9f57fe5b9060005260206000200160009054906101000a900473ffffffffffffffffffffffffffffffffffffffff16846004018381548110611fd957fe5b9060005260206000200154856005018481548110611ff357fe5b906000526020600020018054600181600116156101000203166002900480601f0160208091040260200160405190810160405280929190818152602001828054600181600116156101000203166002900480156120915780601f1061206657610100808354040283529160200191612091565b820191906000526020600020905b81548152906001019060200180831161207457829003601f168201915b50505050508660060185815481106120a557fe5b906000526020600020018054600181600116156101000203166002900480601f0160208091040260200160405190810160405280929190818152602001828054600181600116156101000203166002900480156121435780601f1061211857610100808354040283529160200191612143565b820191906000526020600020905b81548152906001019060200180831161212657829003601f168201915b5050505050866127fa565b8080600101915050611f7e565b508082600201819055507f9a2e42fd6722813d69113e7d0079d3d940171428df7373df9c7f7617cfda28928382604051612196929190614b9f565b60405180910390a1505050565b7f8e25870c07e0b0b3884c78da52790939a455c275406c44ae8b434b692fb916ee81565b6121cf612be5565b60046000848152602001908152602001600020600c0160008373ffffffffffffffffffffffffffffffffffffffff1673ffffffffffffffffffffffffffffffffffffffff1681526020019081526020016000206040518060600160405290816000820160009054906101000a900460ff161515151581526020016000820160019054906101000a900460ff16151515158152602001600182015481525050905092915050565b6005600781111561228257fe5b61228b82610ca7565b600781111561229657fe5b146122d6576040517f08c379a00000000000000000000000000000000000000000000000000000000081526004016122cd906147cc565b60405180910390fd5b6000600460008381526020019081526020016000209050600181600b0160016101000a81548160ff02191690831515021790555060005b81600301805490508110156124825760008054906101000a900473ffffffffffffffffffffffffffffffffffffffff1673ffffffffffffffffffffffffffffffffffffffff16630825f38f83600401838154811061236757fe5b906000526020600020015484600301848154811061238157fe5b9060005260206000200160009054906101000a900473ffffffffffffffffffffffffffffffffffffffff168560040185815481106123bb57fe5b90600052602060002001548660050186815481106123d557fe5b906000526020600020018760060187815481106123ee57fe5b9060005260206000200188600201546040518763ffffffff1660e01b815260040161241d95949392919061457b565b6000604051808303818588803b15801561243657600080fd5b505af115801561244a573d6000803e3d6000fd5b50505050506040513d6000823e3d601f19601f820116820180604052508101906124749190613372565b50808060010191505061230d565b507f712ae1383f79ac853f8d882153778e0260ef8f03b504e2866e0593e04d2b291f826040516124b29190614a47565b60405180910390a15050565b600160078111156124cb57fe5b6124d483610ca7565b60078111156124df57fe5b1461251f576040517f08c379a0000000000000000000000000000000000000000000000000000000008152600401612516906149cc565b60405180910390fd5b6000600460008481526020019081526020016000209050600081600c0160008673ffffffffffffffffffffffffffffffffffffffff1673ffffffffffffffffffffffffffffffffffffffff1681526020019081526020016000209050600015158160000160009054906101000a900460ff161515146125d3576040517f08c379a00000000000000000000000000000000000000000000000000000000081526004016125ca9061482c565b60405180910390fd5b6000600160009054906101000a900473ffffffffffffffffffffffffffffffffffffffff1673ffffffffffffffffffffffffffffffffffffffff1663782d6fe18785600701546040518363ffffffff1660e01b81526004016126369291906144ac565b60206040518083038186803b15801561264e57600080fd5b505afa158015612662573d6000803e3d6000fd5b505050506040513d601f19601f8201168201806040525081019061268691906133dc565b905083156126a95761269c836009015482612747565b83600901819055506126c0565b6126b783600a015482612747565b83600a01819055505b60018260000160006101000a81548160ff021916908315150217905550838260000160016101000a81548160ff0219169083151502179055508082600101819055507f877856338e13f63d0c36822ff0ef736b80934cd90574a3a5bc9262c39d217c468686868460405161273794939291906144d5565b60405180910390a1505050505050565b600080828401905083811015612792576040517f08c379a0000000000000000000000000000000000000000000000000000000008152600401612789906148ac565b60405180910390fd5b8091505092915050565b6000828211156127e1576040517f08c379a00000000000000000000000000000000000000000000000000000000081526004016127d8906149ec565b60405180910390fd5b818303905092915050565b600080601490508091505090565b60008054906101000a900473ffffffffffffffffffffffffffffffffffffffff1673ffffffffffffffffffffffffffffffffffffffff1663f2b06537868686868660405160200161284f95949392919061451a565b604051602081830303815290604052805190602001206040518263ffffffff1660e01b8152600401612881919061463d565b60206040518083038186803b15801561289957600080fd5b505afa1580156128ad573d6000803e3d6000fd5b505050506040513d601f19601f820116820180604052508101906128d19190613320565b15612911576040517f08c379a00000000000000000000000000000000000000000000000000000000081526004016129089061490c565b60405180910390fd5b60008054906101000a900473ffffffffffffffffffffffffffffffffffffffff1673ffffffffffffffffffffffffffffffffffffffff16633a66f90186868686866040518663ffffffff1660e01b815260040161297295949392919061451a565b602060405180830381600087803b15801561298c57600080fd5b505af11580156129a0573d6000803e3d6000fd5b505050506040513d601f19601f820116820180604052508101906129c49190613349565b505050505050565b604051806101a0016040528060008152602001600073ffffffffffffffffffffffffffffffffffffffff1681526020016000815260200160608152602001606081526020016060815260200160608152602001600081526020016000815260200160008152602001600081526020016000151581526020016000151581525090565b828054828255906000526020600020908101928215612ac7579160200282015b82811115612ac65782518260006101000a81548173ffffffffffffffffffffffffffffffffffffffff021916908373ffffffffffffffffffffffffffffffffffffffff16021790555091602001919060010190612a6e565b5b509050612ad49190612c0a565b5090565b828054828255906000526020600020908101928215612b14579160200282015b82811115612b13578251825591602001919060010190612af8565b5b509050612b219190612c45565b5090565b828054828255906000526020600020908101928215612b74579160200282015b82811115612b73578251829080519060200190612b63929190612c62565b5091602001919060010190612b45565b5b509050612b819190612ce2565b5090565b828054828255906000526020600020908101928215612bd4579160200282015b82811115612bd3578251829080519060200190612bc3929190612d06565b5091602001919060010190612ba5565b5b509050612be19190612d86565b5090565b6040518060600160405280600015158152602001600015158152602001600081525090565b5b80821115612c4157600081816101000a81549073ffffffffffffffffffffffffffffffffffffffff021916905550600101612c0b565b5090565b5b80821115612c5e576000816000905550600101612c46565b5090565b828054600181600116156101000203166002900490600052602060002090601f016020900481019282601f10612ca357805160ff1916838001178555612cd1565b82800160010185558215612cd1579182015b82811115612cd0578251825591602001919060010190612cb5565b5b509050612cde9190612c45565b5090565b5b80821115612d025760008181612cf99190612daa565b50600101612ce3565b5090565b828054600181600116156101000203166002900490600052602060002090601f016020900481019282601f10612d4757805160ff1916838001178555612d75565b82800160010185558215612d75579182015b82811115612d74578251825591602001919060010190612d59565b5b509050612d829190612c45565b5090565b5b80821115612da65760008181612d9d9190612df2565b50600101612d87565b5090565b50805460018160011615610100020316600290046000825580601f10612dd05750612def565b601f016020900490600052602060002090810190612dee9190612c45565b5b50565b50805460018160011615610100020316600290046000825580601f10612e185750612e37565b601f016020900490600052602060002090810190612e369190612c45565b5b50565b600081359050612e4981614fde565b92915050565b600082601f830112612e6057600080fd5b8135612e73612e6e82614bf5565b614bc8565b91508181835260208401935060208101905083856020840282011115612e9857600080fd5b60005b83811015612ec85781612eae8882612e3a565b845260208401935060208301925050600181019050612e9b565b5050505092915050565b600082601f830112612ee357600080fd5b8135612ef6612ef182614c1d565b614bc8565b9150818183526020840193506020810190508360005b83811015612f3c5781358601612f228882613091565b845260208401935060208301925050600181019050612f0c565b5050505092915050565b600082601f830112612f5757600080fd5b8135612f6a612f6582614c45565b614bc8565b9150818183526020840193506020810190508360005b83811015612fb05781358601612f968882613139565b845260208401935060208301925050600181019050612f80565b5050505092915050565b600082601f830112612fcb57600080fd5b8135612fde612fd982614c6d565b614bc8565b9150818183526020840193506020810190508385602084028201111561300357600080fd5b60005b838110156130335781613019888261318d565b845260208401935060208301925050600181019050613006565b5050505092915050565b60008135905061304c81614ff5565b92915050565b60008151905061306181614ff5565b92915050565b6000813590506130768161500c565b92915050565b60008151905061308b8161500c565b92915050565b600082601f8301126130a257600080fd5b81356130b56130b082614c95565b614bc8565b915080825260208301602083018583830111156130d157600080fd5b6130dc838284614f74565b50505092915050565b600082601f8301126130f657600080fd5b815161310961310482614c95565b614bc8565b9150808252602083016020830185838301111561312557600080fd5b613130838284614f83565b50505092915050565b600082601f83011261314a57600080fd5b813561315d61315882614cc1565b614bc8565b9150808252602083016020830185838301111561317957600080fd5b613184838284614f74565b50505092915050565b60008135905061319c81615023565b92915050565b6000815190506131b181615023565b92915050565b6000813590506131c68161503a565b92915050565b6000602082840312156131de57600080fd5b60006131ec84828501612e3a565b91505092915050565b6000806040838503121561320857600080fd5b600061321685828601612e3a565b92505060206132278582860161318d565b9150509250929050565b600080600080600060a0868803121561324957600080fd5b600086013567ffffffffffffffff81111561326357600080fd5b61326f88828901612e4f565b955050602086013567ffffffffffffffff81111561328c57600080fd5b61329888828901612fba565b945050604086013567ffffffffffffffff8111156132b557600080fd5b6132c188828901612f46565b935050606086013567ffffffffffffffff8111156132de57600080fd5b6132ea88828901612ed2565b925050608086013567ffffffffffffffff81111561330757600080fd5b61331388828901613139565b9150509295509295909350565b60006020828403121561333257600080fd5b600061334084828501613052565b91505092915050565b60006020828403121561335b57600080fd5b60006133698482850161307c565b91505092915050565b60006020828403121561338457600080fd5b600082015167ffffffffffffffff81111561339e57600080fd5b6133aa848285016130e5565b91505092915050565b6000602082840312156133c557600080fd5b60006133d38482850161318d565b91505092915050565b6000602082840312156133ee57600080fd5b60006133fc848285016131a2565b91505092915050565b6000806040838503121561341857600080fd5b60006134268582860161318d565b925050602061343785828601612e3a565b9150509250929050565b6000806040838503121561345457600080fd5b60006134628582860161318d565b92505060206134738582860161303d565b9150509250929050565b600080600080600060a0868803121561349557600080fd5b60006134a38882890161318d565b95505060206134b48882890161303d565b94505060406134c5888289016131b7565b93505060606134d688828901613067565b92505060806134e788828901613067565b9150509295509295909350565b6000613500838361355b565b60208301905092915050565b60006135188383613763565b905092915050565b600061352c83836138a0565b905092915050565b600061354083836143a5565b60208301905092915050565b61355581614ed2565b82525050565b61356481614e60565b82525050565b61357381614e60565b82525050565b600061358482614d57565b61358e8185614dcd565b935061359983614ced565b8060005b838110156135ca5781516135b188826134f4565b97506135bc83614d99565b92505060018101905061359d565b5085935050505092915050565b60006135e282614d62565b6135ec8185614dde565b9350836020820285016135fe85614cfd565b8060005b8581101561363a578484038952815161361b858261350c565b945061362683614da6565b925060208a01995050600181019050613602565b50829750879550505050505092915050565b600061365782614d6d565b6136618185614def565b93508360208202850161367385614d0d565b8060005b858110156136af57848403895281516136908582613520565b945061369b83614db3565b925060208a01995050600181019050613677565b50829750879550505050505092915050565b60006136cc82614d78565b6136d68185614e00565b93506136e183614d1d565b8060005b838110156137125781516136f98882613534565b975061370483614dc0565b9250506001810190506136e5565b5085935050505092915050565b61372881614e72565b82525050565b61373781614e72565b82525050565b61374681614e7e565b82525050565b61375d61375882614e7e565b614fb6565b82525050565b600061376e82614d83565b6137788185614e11565b9350613788818560208601614f83565b61379181614fc0565b840191505092915050565b60006137a782614d83565b6137b18185614e22565b93506137c1818560208601614f83565b6137ca81614fc0565b840191505092915050565b6000815460018116600081146137f257600181146138185761385c565b607f60028304166138038187614e22565b955060ff19831686526020860193505061385c565b600282046138268187614e22565b955061383185614d2d565b60005b8281101561385357815481890152600182019150602081019050613834565b80880195505050505b505092915050565b61386d81614ee4565b82525050565b61387c81614f08565b82525050565b61388b81614f2c565b82525050565b61389a81614f3e565b82525050565b60006138ab82614d8e565b6138b58185614e33565b93506138c5818560208601614f83565b6138ce81614fc0565b840191505092915050565b60006138e482614d8e565b6138ee8185614e44565b93506138fe818560208601614f83565b61390781614fc0565b840191505092915050565b60008154600181166000811461392f576001811461395557613999565b607f60028304166139408187614e44565b955060ff198316865260208601935050613999565b600282046139638187614e44565b955061396e85614d42565b60005b8281101561399057815481890152600182019150602081019050613971565b80880195505050505b505092915050565b60006139ae603983614e44565b91507f476f7665726e6f72416c7068613a3a5f5f61636365707441646d696e3a20736560008301527f6e646572206d75737420626520676f7620677561726469616e000000000000006020830152604082019050919050565b6000613a14604483614e44565b91507f476f7665726e6f72416c7068613a3a71756575653a2070726f706f73616c206360008301527f616e206f6e6c792062652071756575656420696620697420697320737563636560208301527f65646564000000000000000000000000000000000000000000000000000000006040830152606082019050919050565b6000613aa0604583614e44565b91507f476f7665726e6f72416c7068613a3a657865637574653a2070726f706f73616c60008301527f2063616e206f6e6c79206265206578656375746564206966206974206973207160208301527f75657565640000000000000000000000000000000000000000000000000000006040830152606082019050919050565b6000613b2c600283614e55565b91507f19010000000000000000000000000000000000000000000000000000000000006000830152600282019050919050565b6000613b6c604c83614e44565b91507f476f7665726e6f72416c7068613a3a5f5f6578656375746553657454696d656c60008301527f6f636b50656e64696e6741646d696e3a2073656e646572206d7573742062652060208301527f676f7620677561726469616e00000000000000000000000000000000000000006040830152606082019050919050565b6000613bf8601883614e44565b91507f73657450656e64696e6741646d696e28616464726573732900000000000000006000830152602082019050919050565b6000613c38602983614e44565b91507f476f7665726e6f72416c7068613a3a73746174653a20696e76616c696420707260008301527f6f706f73616c20696400000000000000000000000000000000000000000000006020830152604082019050919050565b6000613c9e602d83614e44565b91507f476f7665726e6f72416c7068613a3a5f63617374566f74653a20766f7465722060008301527f616c726561647920766f746564000000000000000000000000000000000000006020830152604082019050919050565b6000613d04605983614e44565b91507f476f7665726e6f72416c7068613a3a70726f706f73653a206f6e65206c69766560008301527f2070726f706f73616c207065722070726f706f7365722c20666f756e6420616e60208301527f20616c72656164792070656e64696e672070726f706f73616c000000000000006040830152606082019050919050565b6000613d90604a83614e44565b91507f476f7665726e6f72416c7068613a3a5f5f717565756553657454696d656c6f6360008301527f6b50656e64696e6741646d696e3a2073656e646572206d75737420626520676f60208301527f7620677561726469616e000000000000000000000000000000000000000000006040830152606082019050919050565b6000613e1c602883614e44565b91507f476f7665726e6f72416c7068613a3a70726f706f73653a20746f6f206d616e7960008301527f20616374696f6e730000000000000000000000000000000000000000000000006020830152604082019050919050565b6000613e82601183614e44565b91507f6164646974696f6e206f766572666c6f770000000000000000000000000000006000830152602082019050919050565b6000613ec2604483614e44565b91507f476f7665726e6f72416c7068613a3a70726f706f73653a2070726f706f73616c60008301527f2066756e6374696f6e20696e666f726d6174696f6e206172697479206d69736d60208301527f61746368000000000000000000000000000000000000000000000000000000006040830152606082019050919050565b6000613f4e602f83614e44565b91507f476f7665726e6f72416c7068613a3a63616e63656c3a2070726f706f7365722060008301527f61626f7665207468726573686f6c6400000000000000000000000000000000006020830152604082019050919050565b6000613fb4604483614e44565b91507f476f7665726e6f72416c7068613a3a5f71756575654f725265766572743a207060008301527f726f706f73616c20616374696f6e20616c72656164792071756575656420617460208301527f20657461000000000000000000000000000000000000000000000000000000006040830152606082019050919050565b6000614040602c83614e44565b91507f476f7665726e6f72416c7068613a3a70726f706f73653a206d7573742070726f60008301527f7669646520616374696f6e7300000000000000000000000000000000000000006020830152604082019050919050565b60006140a6603f83614e44565b91507f476f7665726e6f72416c7068613a3a70726f706f73653a2070726f706f73657260008301527f20766f7465732062656c6f772070726f706f73616c207468726573686f6c64006020830152604082019050919050565b600061410c602f83614e44565b91507f476f7665726e6f72416c7068613a3a63617374566f746542795369673a20696e60008301527f76616c6964207369676e617475726500000000000000000000000000000000006020830152604082019050919050565b6000614172605883614e44565b91507f476f7665726e6f72416c7068613a3a70726f706f73653a206f6e65206c69766560008301527f2070726f706f73616c207065722070726f706f7365722c20666f756e6420616e60208301527f20616c7265616479206163746976652070726f706f73616c00000000000000006040830152606082019050919050565b60006141fe603683614e44565b91507f476f7665726e6f72416c7068613a3a63616e63656c3a2063616e6e6f7420636160008301527f6e63656c2065786563757465642070726f706f73616c000000000000000000006020830152604082019050919050565b6000614264602a83614e44565b91507f476f7665726e6f72416c7068613a3a5f63617374566f74653a20766f74696e6760008301527f20697320636c6f736564000000000000000000000000000000000000000000006020830152604082019050919050565b60006142ca601583614e44565b91507f7375627472616374696f6e20756e646572666c6f7700000000000000000000006000830152602082019050919050565b600061430a603683614e44565b91507f476f7665726e6f72416c7068613a3a5f5f61626469636174653a2073656e646560008301527f72206d75737420626520676f7620677561726469616e000000000000000000006020830152604082019050919050565b606082016000820151614379600085018261371f565b50602082015161438c602085018261371f565b50604082015161439f60408501826143a5565b50505050565b6143ae81614ebb565b82525050565b6143bd81614ebb565b82525050565b6143cc81614ec5565b82525050565b60006143dd82613b1f565b91506143e9828561374c565b6020820191506143f9828461374c565b6020820191508190509392505050565b600060208201905061441e600083018461356a565b92915050565b6000604082019050614439600083018561354c565b61444660208301846143b4565b9392505050565b600060a082019050614462600083018761356a565b61446f6020830186613891565b818103604083015261448081613beb565b90508181036060830152614494818561379c565b90506144a360808301846143b4565b95945050505050565b60006040820190506144c1600083018561356a565b6144ce60208301846143b4565b9392505050565b60006080820190506144ea600083018761356a565b6144f760208301866143b4565b614504604083018561372e565b61451160608301846143b4565b95945050505050565b600060a08201905061452f600083018861356a565b61453c60208301876143b4565b818103604083015261454e81866138d9565b90508181036060830152614562818561379c565b905061457160808301846143b4565b9695505050505050565b600060a082019050614590600083018861356a565b61459d60208301876143b4565b81810360408301526145af8186613912565b905081810360608301526145c381856137d5565b90506145d260808301846143b4565b9695505050505050565b600060808201905081810360008301526145f68187613579565b9050818103602083015261460a81866136c1565b9050818103604083015261461e818561364c565b9050818103606083015261463281846135d7565b905095945050505050565b6000602082019050614652600083018461373d565b92915050565b600060808201905061466d600083018761373d565b61467a602083018661373d565b61468760408301856143b4565b614694606083018461356a565b95945050505050565b60006060820190506146b2600083018661373d565b6146bf60208301856143b4565b6146cc604083018461372e565b949350505050565b60006080820190506146e9600083018761373d565b6146f660208301866143c3565b614703604083018561373d565b614710606083018461373d565b95945050505050565b600060208201905061472e6000830184613864565b92915050565b60006020820190506147496000830184613873565b92915050565b60006020820190506147646000830184613882565b92915050565b6000602082019050818103600083015261478481846138d9565b905092915050565b600060208201905081810360008301526147a5816139a1565b9050919050565b600060208201905081810360008301526147c581613a07565b9050919050565b600060208201905081810360008301526147e581613a93565b9050919050565b6000602082019050818103600083015261480581613b5f565b9050919050565b6000602082019050818103600083015261482581613c2b565b9050919050565b6000602082019050818103600083015261484581613c91565b9050919050565b6000602082019050818103600083015261486581613cf7565b9050919050565b6000602082019050818103600083015261488581613d83565b9050919050565b600060208201905081810360008301526148a581613e0f565b9050919050565b600060208201905081810360008301526148c581613e75565b9050919050565b600060208201905081810360008301526148e581613eb5565b9050919050565b6000602082019050818103600083015261490581613f41565b9050919050565b6000602082019050818103600083015261492581613fa7565b9050919050565b6000602082019050818103600083015261494581614033565b9050919050565b6000602082019050818103600083015261496581614099565b9050919050565b60006020820190508181036000830152614985816140ff565b9050919050565b600060208201905081810360008301526149a581614165565b9050919050565b600060208201905081810360008301526149c5816141f1565b9050919050565b600060208201905081810360008301526149e581614257565b9050919050565b60006020820190508181036000830152614a05816142bd565b9050919050565b60006020820190508181036000830152614a25816142fd565b9050919050565b6000606082019050614a416000830184614363565b92915050565b6000602082019050614a5c60008301846143b4565b92915050565b600061012082019050614a78600083018c6143b4565b614a85602083018b61354c565b8181036040830152614a97818a613579565b90508181036060830152614aab81896136c1565b90508181036080830152614abf818861364c565b905081810360a0830152614ad381876135d7565b9050614ae260c08301866143b4565b614aef60e08301856143b4565b818103610100830152614b0281846138d9565b90509a9950505050505050505050565b600061012082019050614b28600083018c6143b4565b614b35602083018b61356a565b614b42604083018a6143b4565b614b4f60608301896143b4565b614b5c60808301886143b4565b614b6960a08301876143b4565b614b7660c08301866143b4565b614b8360e083018561372e565b614b9161010083018461372e565b9a9950505050505050505050565b6000604082019050614bb460008301856143b4565b614bc160208301846143b4565b9392505050565b6000604051905081810181811067ffffffffffffffff82111715614beb57600080fd5b8060405250919050565b600067ffffffffffffffff821115614c0c57600080fd5b602082029050602081019050919050565b600067ffffffffffffffff821115614c3457600080fd5b602082029050602081019050919050565b600067ffffffffffffffff821115614c5c57600080fd5b602082029050602081019050919050565b600067ffffffffffffffff821115614c8457600080fd5b602082029050602081019050919050565b600067ffffffffffffffff821115614cac57600080fd5b601f19601f8301169050602081019050919050565b600067ffffffffffffffff821115614cd857600080fd5b601f19601f8301169050602081019050919050565b6000819050602082019050919050565b6000819050602082019050919050565b6000819050602082019050919050565b6000819050602082019050919050565b60008190508160005260206000209050919050565b60008190508160005260206000209050919050565b600081519050919050565b600081519050919050565b600081519050919050565b600081519050919050565b600081519050919050565b600081519050919050565b6000602082019050919050565b6000602082019050919050565b6000602082019050919050565b6000602082019050919050565b600082825260208201905092915050565b600082825260208201905092915050565b600082825260208201905092915050565b600082825260208201905092915050565b600082825260208201905092915050565b600082825260208201905092915050565b600082825260208201905092915050565b600082825260208201905092915050565b600081905092915050565b6000614e6b82614e9b565b9050919050565b60008115159050919050565b6000819050919050565b6000819050614e9682614fd1565b919050565b600073ffffffffffffffffffffffffffffffffffffffff82169050919050565b6000819050919050565b600060ff82169050919050565b6000614edd82614f50565b9050919050565b6000614eef82614ef6565b9050919050565b6000614f0182614e9b565b9050919050565b6000614f1382614f1a565b9050919050565b6000614f2582614e9b565b9050919050565b6000614f3782614e88565b9050919050565b6000614f4982614ebb565b9050919050565b6000614f5b82614f62565b9050919050565b6000614f6d82614e9b565b9050919050565b82818337600083830152505050565b60005b83811015614fa1578082015181840152602081019050614f86565b83811115614fb0576000848401525b50505050565b6000819050919050565b6000601f19601f8301169050919050565b60088110614fdb57fe5b50565b614fe781614e60565b8114614ff257600080fd5b50565b614ffe81614e72565b811461500957600080fd5b50565b61501581614e7e565b811461502057600080fd5b50565b61502c81614ebb565b811461503757600080fd5b50565b61504381614ec5565b811461504e57600080fd5b5056fea26469706673582212205536e0abf3d4ae0f239e7893118e70c3c10b594e4725241f08d43c6ef4f85d7a64736f6c634300060c0033",
  "immutableReferences": {},
  "source": "\r\n// SPDX-License-Identifier: MIT\r\npragma solidity >=0.4.22 <0.8.0;\r\n\r\npragma experimental ABIEncoderV2;\r\n\r\nimport \"../heco/MdxTokenHeco.sol\";\r\n\r\ncontract GovernorAlpha {\r\n    /// @notice The name of this contract\r\n    string public constant name = \"MDX Governor Alpha\";\r\n\r\n    /// @notice The number of votes in support of a proposal required in order for a quorum to be reached and for a vote to succeed\r\n    function quorumVotes() public view returns (uint) {return mdx.totalSupply() / 25;} // 400,000 = 4% of MDX\r\n\r\n    /// @notice The number of votes required in order for a voter to become a proposer\r\n    function proposalThreshold() public view returns (uint) {return mdx.totalSupply() / 100;} // 100,000 = 1% of MDX\r\n\r\n    /// @notice The maximum number of actions that can be included in a proposal\r\n    function proposalMaxOperations() public pure returns (uint) {return 10;} // 10 actions\r\n\r\n    /// @notice The delay before voting on a proposal may take place, once proposed\r\n    function votingDelay() public pure returns (uint) {return 1;} // 1 block\r\n\r\n    /// @notice The duration of voting on a proposal, in blocks\r\n    function votingPeriod() public pure returns (uint) {return 86400;} // ~3 days in blocks (assuming 3s blocks)\r\n\r\n    /// @notice The address of the MDX Protocol Timelock\r\n    TimelockInterface public timelock;\r\n\r\n    /// @notice The address of the MDX governance token\r\n    MdxToken public mdx;\r\n\r\n    /// @notice The address of the Governor Guardian\r\n    address public guardian;\r\n\r\n    /// @notice The total number of proposals\r\n    uint public proposalCount;\r\n\r\n    struct Proposal {\r\n        uint id;\r\n\r\n        address proposer;\r\n\r\n        uint eta;\r\n\r\n        address[] targets;\r\n\r\n        uint[] values;\r\n\r\n        string[] signatures;\r\n\r\n        bytes[] calldatas;\r\n\r\n        uint startBlock;\r\n\r\n        uint endBlock;\r\n\r\n        uint forVotes;\r\n\r\n        uint againstVotes;\r\n\r\n        bool canceled;\r\n\r\n        bool executed;\r\n\r\n        mapping(address => Receipt) receipts;\r\n    }\r\n\r\n    /// @notice Ballot receipt record for a voter\r\n    struct Receipt {\r\n        bool hasVoted;\r\n\r\n        bool support;\r\n\r\n        uint256 votes;\r\n    }\r\n\r\n    /// @notice Possible states that a proposal may be in\r\n    enum ProposalState {\r\n        Pending,\r\n        Active,\r\n        Canceled,\r\n        Defeated,\r\n        Succeeded,\r\n        Queued,\r\n        Expired,\r\n        Executed\r\n    }\r\n\r\n    /// @notice The official record of all proposals ever proposed\r\n    mapping(uint => Proposal) public proposals;\r\n\r\n    /// @notice The latest proposal for each proposer\r\n    mapping(address => uint) public latestProposalIds;\r\n\r\n    /// @notice The EIP-712 typehash for the contract's domain\r\n    bytes32 public constant DOMAIN_TYPEHASH = keccak256(\"EIP712Domain(string name,uint256 chainId,address verifyingContract)\");\r\n\r\n    /// @notice The EIP-712 typehash for the ballot struct used by the contract\r\n    bytes32 public constant BALLOT_TYPEHASH = keccak256(\"Ballot(uint256 proposalId,bool support)\");\r\n\r\n    /// @notice An event emitted when a new proposal is created\r\n    event ProposalCreated(uint id, address proposer, address[] targets, uint[] values, string[] signatures, bytes[] calldatas, uint startBlock, uint endBlock, string description);\r\n\r\n    /// @notice An event emitted when a vote has been cast on a proposal\r\n    event VoteCast(address voter, uint proposalId, bool support, uint votes);\r\n\r\n    /// @notice An event emitted when a proposal has been canceled\r\n    event ProposalCanceled(uint id);\r\n\r\n    /// @notice An event emitted when a proposal has been queued in the Timelock\r\n    event ProposalQueued(uint id, uint eta);\r\n\r\n    /// @notice An event emitted when a proposal has been executed in the Timelock\r\n    event ProposalExecuted(uint id);\r\n\r\n    constructor(address timelock_, address mdx_, address guardian_) public {\r\n        timelock = TimelockInterface(timelock_);\r\n        mdx = MdxToken(mdx_);\r\n        guardian = guardian_;\r\n    }\r\n\r\n    function propose(address[] memory targets, uint[] memory values, string[] memory signatures, bytes[] memory calldatas, string memory description) public returns (uint) {\r\n        require(mdx.getPriorVotes(msg.sender, sub256(block.number, 1)) > proposalThreshold(), \"GovernorAlpha::propose: proposer votes below proposal threshold\");\r\n        require(targets.length == values.length && targets.length == signatures.length && targets.length == calldatas.length, \"GovernorAlpha::propose: proposal function information arity mismatch\");\r\n        require(targets.length != 0, \"GovernorAlpha::propose: must provide actions\");\r\n        require(targets.length <= proposalMaxOperations(), \"GovernorAlpha::propose: too many actions\");\r\n\r\n        uint latestProposalId = latestProposalIds[msg.sender];\r\n        if (latestProposalId != 0) {\r\n            ProposalState proposersLatestProposalState = state(latestProposalId);\r\n            require(proposersLatestProposalState != ProposalState.Active, \"GovernorAlpha::propose: one live proposal per proposer, found an already active proposal\");\r\n            require(proposersLatestProposalState != ProposalState.Pending, \"GovernorAlpha::propose: one live proposal per proposer, found an already pending proposal\");\r\n        }\r\n\r\n        uint startBlock = add256(block.number, votingDelay());\r\n        uint endBlock = add256(startBlock, votingPeriod());\r\n\r\n        proposalCount++;\r\n        Proposal memory newProposal = Proposal({\r\n        id : proposalCount,\r\n        proposer : msg.sender,\r\n        eta : 0,\r\n        targets : targets,\r\n        values : values,\r\n        signatures : signatures,\r\n        calldatas : calldatas,\r\n        startBlock : startBlock,\r\n        endBlock : endBlock,\r\n        forVotes : 0,\r\n        againstVotes : 0,\r\n        canceled : false,\r\n        executed : false\r\n        });\r\n\r\n        proposals[newProposal.id] = newProposal;\r\n        latestProposalIds[newProposal.proposer] = newProposal.id;\r\n\r\n        emit ProposalCreated(newProposal.id, msg.sender, targets, values, signatures, calldatas, startBlock, endBlock, description);\r\n        return newProposal.id;\r\n    }\r\n\r\n    function queue(uint proposalId) public {\r\n        require(state(proposalId) == ProposalState.Succeeded, \"GovernorAlpha::queue: proposal can only be queued if it is succeeded\");\r\n        Proposal storage proposal = proposals[proposalId];\r\n        uint eta = add256(block.timestamp, timelock.delay());\r\n        for (uint i = 0; i < proposal.targets.length; i++) {\r\n            _queueOrRevert(proposal.targets[i], proposal.values[i], proposal.signatures[i], proposal.calldatas[i], eta);\r\n        }\r\n        proposal.eta = eta;\r\n        emit ProposalQueued(proposalId, eta);\r\n    }\r\n\r\n    function _queueOrRevert(address target, uint value, string memory signature, bytes memory data, uint eta) internal {\r\n        require(!timelock.queuedTransactions(keccak256(abi.encode(target, value, signature, data, eta))), \"GovernorAlpha::_queueOrRevert: proposal action already queued at eta\");\r\n        timelock.queueTransaction(target, value, signature, data, eta);\r\n    }\r\n\r\n    function execute(uint proposalId) public payable {\r\n        require(state(proposalId) == ProposalState.Queued, \"GovernorAlpha::execute: proposal can only be executed if it is queued\");\r\n        Proposal storage proposal = proposals[proposalId];\r\n        proposal.executed = true;\r\n        for (uint i = 0; i < proposal.targets.length; i++) {\r\n            timelock.executeTransaction{value : proposal.values[i]}(proposal.targets[i], proposal.values[i], proposal.signatures[i], proposal.calldatas[i], proposal.eta);\r\n        }\r\n        emit ProposalExecuted(proposalId);\r\n    }\r\n\r\n    function cancel(uint proposalId) public {\r\n        ProposalState state = state(proposalId);\r\n        require(state != ProposalState.Executed, \"GovernorAlpha::cancel: cannot cancel executed proposal\");\r\n\r\n        Proposal storage proposal = proposals[proposalId];\r\n        require(msg.sender == guardian || mdx.getPriorVotes(proposal.proposer, sub256(block.number, 1)) < proposalThreshold(), \"GovernorAlpha::cancel: proposer above threshold\");\r\n\r\n        proposal.canceled = true;\r\n        for (uint i = 0; i < proposal.targets.length; i++) {\r\n            timelock.cancelTransaction(proposal.targets[i], proposal.values[i], proposal.signatures[i], proposal.calldatas[i], proposal.eta);\r\n        }\r\n\r\n        emit ProposalCanceled(proposalId);\r\n    }\r\n\r\n    function getActions(uint proposalId) public view returns (address[] memory targets, uint[] memory values, string[] memory signatures, bytes[] memory calldatas) {\r\n        Proposal storage p = proposals[proposalId];\r\n        return (p.targets, p.values, p.signatures, p.calldatas);\r\n    }\r\n\r\n    function getReceipt(uint proposalId, address voter) public view returns (Receipt memory) {\r\n        return proposals[proposalId].receipts[voter];\r\n    }\r\n\r\n    function state(uint proposalId) public view returns (ProposalState) {\r\n        require(proposalCount >= proposalId && proposalId > 0, \"GovernorAlpha::state: invalid proposal id\");\r\n        Proposal storage proposal = proposals[proposalId];\r\n        if (proposal.canceled) {\r\n            return ProposalState.Canceled;\r\n        } else if (block.number <= proposal.startBlock) {\r\n            return ProposalState.Pending;\r\n        } else if (block.number <= proposal.endBlock) {\r\n            return ProposalState.Active;\r\n        } else if (proposal.forVotes <= proposal.againstVotes || proposal.forVotes < quorumVotes()) {\r\n            return ProposalState.Defeated;\r\n        } else if (proposal.eta == 0) {\r\n            return ProposalState.Succeeded;\r\n        } else if (proposal.executed) {\r\n            return ProposalState.Executed;\r\n        } else if (block.timestamp >= add256(proposal.eta, timelock.GRACE_PERIOD())) {\r\n            return ProposalState.Expired;\r\n        } else {\r\n            return ProposalState.Queued;\r\n        }\r\n    }\r\n\r\n    function castVote(uint proposalId, bool support) public {\r\n        return _castVote(msg.sender, proposalId, support);\r\n    }\r\n\r\n    function castVoteBySig(uint proposalId, bool support, uint8 v, bytes32 r, bytes32 s) public {\r\n        bytes32 domainSeparator = keccak256(abi.encode(DOMAIN_TYPEHASH, keccak256(bytes(name)), getChainId(), address(this)));\r\n        bytes32 structHash = keccak256(abi.encode(BALLOT_TYPEHASH, proposalId, support));\r\n        bytes32 digest = keccak256(abi.encodePacked(\"\\x19\\x01\", domainSeparator, structHash));\r\n        address signatory = ecrecover(digest, v, r, s);\r\n        require(signatory != address(0), \"GovernorAlpha::castVoteBySig: invalid signature\");\r\n        return _castVote(signatory, proposalId, support);\r\n    }\r\n\r\n    function _castVote(address voter, uint proposalId, bool support) internal {\r\n        require(state(proposalId) == ProposalState.Active, \"GovernorAlpha::_castVote: voting is closed\");\r\n        Proposal storage proposal = proposals[proposalId];\r\n        Receipt storage receipt = proposal.receipts[voter];\r\n        require(receipt.hasVoted == false, \"GovernorAlpha::_castVote: voter already voted\");\r\n        uint256 votes = mdx.getPriorVotes(voter, proposal.startBlock);\r\n\r\n        if (support) {\r\n            proposal.forVotes = add256(proposal.forVotes, votes);\r\n        } else {\r\n            proposal.againstVotes = add256(proposal.againstVotes, votes);\r\n        }\r\n\r\n        receipt.hasVoted = true;\r\n        receipt.support = support;\r\n        receipt.votes = votes;\r\n\r\n        emit VoteCast(voter, proposalId, support, votes);\r\n    }\r\n\r\n    function __acceptAdmin() public {\r\n        require(msg.sender == guardian, \"GovernorAlpha::__acceptAdmin: sender must be gov guardian\");\r\n        timelock.acceptAdmin();\r\n    }\r\n\r\n    function __abdicate() public {\r\n        require(msg.sender == guardian, \"GovernorAlpha::__abdicate: sender must be gov guardian\");\r\n        guardian = address(0);\r\n    }\r\n\r\n    function __queueSetTimelockPendingAdmin(address newPendingAdmin, uint eta) public {\r\n        require(msg.sender == guardian, \"GovernorAlpha::__queueSetTimelockPendingAdmin: sender must be gov guardian\");\r\n        timelock.queueTransaction(address(timelock), 0, \"setPendingAdmin(address)\", abi.encode(newPendingAdmin), eta);\r\n    }\r\n\r\n    function __executeSetTimelockPendingAdmin(address newPendingAdmin, uint eta) public {\r\n        require(msg.sender == guardian, \"GovernorAlpha::__executeSetTimelockPendingAdmin: sender must be gov guardian\");\r\n        timelock.executeTransaction(address(timelock), 0, \"setPendingAdmin(address)\", abi.encode(newPendingAdmin), eta);\r\n    }\r\n\r\n    function add256(uint256 a, uint256 b) internal pure returns (uint) {\r\n        uint c = a + b;\r\n        require(c >= a, \"addition overflow\");\r\n        return c;\r\n    }\r\n\r\n    function sub256(uint256 a, uint256 b) internal pure returns (uint) {\r\n        require(b <= a, \"subtraction underflow\");\r\n        return a - b;\r\n    }\r\n\r\n    function getChainId() internal pure returns (uint) {\r\n        uint chainId;\r\n        assembly {chainId := 20} // Fixed to 20\r\n        return chainId;\r\n    }\r\n}\r\n\r\ninterface TimelockInterface {\r\n    function delay() external view returns (uint);\r\n\r\n    function GRACE_PERIOD() external view returns (uint);\r\n\r\n    function acceptAdmin() external;\r\n\r\n    function queuedTransactions(bytes32 hash) external view returns (bool);\r\n\r\n    function queueTransaction(address target, uint value, string calldata signature, bytes calldata data, uint eta) external returns (bytes32);\r\n\r\n    function cancelTransaction(address target, uint value, string calldata signature, bytes calldata data, uint eta) external;\r\n\r\n    function executeTransaction(address target, uint value, string calldata signature, bytes calldata data, uint eta) external payable returns (bytes memory);\r\n}\r\n",
  "sourcePath": "D:/Posao - Stefan/Stefan - razno/Blockchain/ElavateFinance/elavate-core/contracts/mdexSwap/governance/GovernorAlpha.sol",
  "compiler": {
    "name": "solc",
    "version": "0.6.12+commit.27d51765.Emscripten.clang"
  },
  "schemaVersion": "3.4.1",
  "updatedAt": "2021-07-30T14:38:38.567Z",
  "devdoc": {
    "kind": "dev",
    "methods": {},
    "version": 1
  },
  "userdoc": {
    "events": {
      "ProposalCanceled(uint256)": {
        "notice": "An event emitted when a proposal has been canceled"
      },
      "ProposalCreated(uint256,address,address[],uint256[],string[],bytes[],uint256,uint256,string)": {
        "notice": "An event emitted when a new proposal is created"
      },
      "ProposalExecuted(uint256)": {
        "notice": "An event emitted when a proposal has been executed in the Timelock"
      },
      "ProposalQueued(uint256,uint256)": {
        "notice": "An event emitted when a proposal has been queued in the Timelock"
      },
      "VoteCast(address,uint256,bool,uint256)": {
        "notice": "An event emitted when a vote has been cast on a proposal"
      }
    },
    "kind": "user",
    "methods": {
      "BALLOT_TYPEHASH()": {
        "notice": "The EIP-712 typehash for the ballot struct used by the contract"
      },
      "DOMAIN_TYPEHASH()": {
        "notice": "The EIP-712 typehash for the contract's domain"
      },
      "guardian()": {
        "notice": "The address of the Governor Guardian"
      },
      "latestProposalIds(address)": {
        "notice": "The latest proposal for each proposer"
      },
      "mdx()": {
        "notice": "The address of the MDX governance token"
      },
      "name()": {
        "notice": "The name of this contract"
      },
      "proposalCount()": {
        "notice": "The total number of proposals"
      },
      "proposalMaxOperations()": {
        "notice": "The maximum number of actions that can be included in a proposal"
      },
      "proposalThreshold()": {
        "notice": "The number of votes required in order for a voter to become a proposer"
      },
      "proposals(uint256)": {
        "notice": "The official record of all proposals ever proposed"
      },
      "quorumVotes()": {
        "notice": "The number of votes in support of a proposal required in order for a quorum to be reached and for a vote to succeed"
      },
      "timelock()": {
        "notice": "The address of the MDX Protocol Timelock"
      },
      "votingDelay()": {
        "notice": "The delay before voting on a proposal may take place, once proposed"
      },
      "votingPeriod()": {
        "notice": "The duration of voting on a proposal, in blocks"
      }
    },
    "version": 1
  }
}