{
  "contractName": "HecoPool",
  "abi": [
    {
      "inputs": [
        {
          "internalType": "contract IMdx",
          "name": "_mdx",
          "type": "address"
        },
        {
          "internalType": "uint256",
          "name": "_mdxPerBlock",
          "type": "uint256"
        },
        {
          "internalType": "uint256",
          "name": "_startBlock",
          "type": "uint256"
        }
      ],
      "stateMutability": "nonpayable",
      "type": "constructor"
    },
    {
      "anonymous": false,
      "inputs": [
        {
          "indexed": true,
          "internalType": "address",
          "name": "user",
          "type": "address"
        },
        {
          "indexed": true,
          "internalType": "uint256",
          "name": "pid",
          "type": "uint256"
        },
        {
          "indexed": false,
          "internalType": "uint256",
          "name": "amount",
          "type": "uint256"
        }
      ],
      "name": "Deposit",
      "type": "event"
    },
    {
      "anonymous": false,
      "inputs": [
        {
          "indexed": true,
          "internalType": "address",
          "name": "user",
          "type": "address"
        },
        {
          "indexed": true,
          "internalType": "uint256",
          "name": "pid",
          "type": "uint256"
        },
        {
          "indexed": false,
          "internalType": "uint256",
          "name": "amount",
          "type": "uint256"
        }
      ],
      "name": "EmergencyWithdraw",
      "type": "event"
    },
    {
      "anonymous": false,
      "inputs": [
        {
          "indexed": true,
          "internalType": "address",
          "name": "previousOwner",
          "type": "address"
        },
        {
          "indexed": true,
          "internalType": "address",
          "name": "newOwner",
          "type": "address"
        }
      ],
      "name": "OwnershipTransferred",
      "type": "event"
    },
    {
      "anonymous": false,
      "inputs": [
        {
          "indexed": true,
          "internalType": "address",
          "name": "user",
          "type": "address"
        },
        {
          "indexed": true,
          "internalType": "uint256",
          "name": "pid",
          "type": "uint256"
        },
        {
          "indexed": false,
          "internalType": "uint256",
          "name": "amount",
          "type": "uint256"
        }
      ],
      "name": "Withdraw",
      "type": "event"
    },
    {
      "inputs": [
        {
          "internalType": "address",
          "name": "",
          "type": "address"
        }
      ],
      "name": "LpOfPid",
      "outputs": [
        {
          "internalType": "uint256",
          "name": "",
          "type": "uint256"
        }
      ],
      "stateMutability": "view",
      "type": "function",
      "constant": true
    },
    {
      "inputs": [],
      "name": "halvingPeriod",
      "outputs": [
        {
          "internalType": "uint256",
          "name": "",
          "type": "uint256"
        }
      ],
      "stateMutability": "view",
      "type": "function",
      "constant": true
    },
    {
      "inputs": [],
      "name": "mdx",
      "outputs": [
        {
          "internalType": "contract IMdx",
          "name": "",
          "type": "address"
        }
      ],
      "stateMutability": "view",
      "type": "function",
      "constant": true
    },
    {
      "inputs": [],
      "name": "mdxPerBlock",
      "outputs": [
        {
          "internalType": "uint256",
          "name": "",
          "type": "uint256"
        }
      ],
      "stateMutability": "view",
      "type": "function",
      "constant": true
    },
    {
      "inputs": [],
      "name": "multLpChef",
      "outputs": [
        {
          "internalType": "address",
          "name": "",
          "type": "address"
        }
      ],
      "stateMutability": "view",
      "type": "function",
      "constant": true
    },
    {
      "inputs": [],
      "name": "multLpToken",
      "outputs": [
        {
          "internalType": "address",
          "name": "",
          "type": "address"
        }
      ],
      "stateMutability": "view",
      "type": "function",
      "constant": true
    },
    {
      "inputs": [],
      "name": "owner",
      "outputs": [
        {
          "internalType": "address",
          "name": "",
          "type": "address"
        }
      ],
      "stateMutability": "view",
      "type": "function",
      "constant": true
    },
    {
      "inputs": [],
      "name": "paused",
      "outputs": [
        {
          "internalType": "bool",
          "name": "",
          "type": "bool"
        }
      ],
      "stateMutability": "view",
      "type": "function",
      "constant": true
    },
    {
      "inputs": [
        {
          "internalType": "uint256",
          "name": "",
          "type": "uint256"
        }
      ],
      "name": "poolCorrespond",
      "outputs": [
        {
          "internalType": "uint256",
          "name": "",
          "type": "uint256"
        }
      ],
      "stateMutability": "view",
      "type": "function",
      "constant": true
    },
    {
      "inputs": [
        {
          "internalType": "uint256",
          "name": "",
          "type": "uint256"
        }
      ],
      "name": "poolInfo",
      "outputs": [
        {
          "internalType": "contract IERC20",
          "name": "lpToken",
          "type": "address"
        },
        {
          "internalType": "uint256",
          "name": "allocPoint",
          "type": "uint256"
        },
        {
          "internalType": "uint256",
          "name": "lastRewardBlock",
          "type": "uint256"
        },
        {
          "internalType": "uint256",
          "name": "accMdxPerShare",
          "type": "uint256"
        },
        {
          "internalType": "uint256",
          "name": "accMultLpPerShare",
          "type": "uint256"
        },
        {
          "internalType": "uint256",
          "name": "totalAmount",
          "type": "uint256"
        }
      ],
      "stateMutability": "view",
      "type": "function",
      "constant": true
    },
    {
      "inputs": [],
      "name": "renounceOwnership",
      "outputs": [],
      "stateMutability": "nonpayable",
      "type": "function"
    },
    {
      "inputs": [],
      "name": "startBlock",
      "outputs": [
        {
          "internalType": "uint256",
          "name": "",
          "type": "uint256"
        }
      ],
      "stateMutability": "view",
      "type": "function",
      "constant": true
    },
    {
      "inputs": [],
      "name": "totalAllocPoint",
      "outputs": [
        {
          "internalType": "uint256",
          "name": "",
          "type": "uint256"
        }
      ],
      "stateMutability": "view",
      "type": "function",
      "constant": true
    },
    {
      "inputs": [
        {
          "internalType": "address",
          "name": "newOwner",
          "type": "address"
        }
      ],
      "name": "transferOwnership",
      "outputs": [],
      "stateMutability": "nonpayable",
      "type": "function"
    },
    {
      "inputs": [
        {
          "internalType": "uint256",
          "name": "",
          "type": "uint256"
        },
        {
          "internalType": "address",
          "name": "",
          "type": "address"
        }
      ],
      "name": "userInfo",
      "outputs": [
        {
          "internalType": "uint256",
          "name": "amount",
          "type": "uint256"
        },
        {
          "internalType": "uint256",
          "name": "rewardDebt",
          "type": "uint256"
        },
        {
          "internalType": "uint256",
          "name": "multLpRewardDebt",
          "type": "uint256"
        }
      ],
      "stateMutability": "view",
      "type": "function",
      "constant": true
    },
    {
      "inputs": [
        {
          "internalType": "uint256",
          "name": "_block",
          "type": "uint256"
        }
      ],
      "name": "setHalvingPeriod",
      "outputs": [],
      "stateMutability": "nonpayable",
      "type": "function"
    },
    {
      "inputs": [
        {
          "internalType": "uint256",
          "name": "_newPerBlock",
          "type": "uint256"
        }
      ],
      "name": "setMdxPerBlock",
      "outputs": [],
      "stateMutability": "nonpayable",
      "type": "function"
    },
    {
      "inputs": [],
      "name": "poolLength",
      "outputs": [
        {
          "internalType": "uint256",
          "name": "",
          "type": "uint256"
        }
      ],
      "stateMutability": "view",
      "type": "function",
      "constant": true
    },
    {
      "inputs": [
        {
          "internalType": "address",
          "name": "_addLP",
          "type": "address"
        }
      ],
      "name": "addMultLP",
      "outputs": [
        {
          "internalType": "bool",
          "name": "",
          "type": "bool"
        }
      ],
      "stateMutability": "nonpayable",
      "type": "function"
    },
    {
      "inputs": [
        {
          "internalType": "address",
          "name": "_LP",
          "type": "address"
        }
      ],
      "name": "isMultLP",
      "outputs": [
        {
          "internalType": "bool",
          "name": "",
          "type": "bool"
        }
      ],
      "stateMutability": "view",
      "type": "function",
      "constant": true
    },
    {
      "inputs": [],
      "name": "getMultLPLength",
      "outputs": [
        {
          "internalType": "uint256",
          "name": "",
          "type": "uint256"
        }
      ],
      "stateMutability": "view",
      "type": "function",
      "constant": true
    },
    {
      "inputs": [
        {
          "internalType": "uint256",
          "name": "_pid",
          "type": "uint256"
        }
      ],
      "name": "getMultLPAddress",
      "outputs": [
        {
          "internalType": "address",
          "name": "",
          "type": "address"
        }
      ],
      "stateMutability": "view",
      "type": "function",
      "constant": true
    },
    {
      "inputs": [],
      "name": "setPause",
      "outputs": [],
      "stateMutability": "nonpayable",
      "type": "function"
    },
    {
      "inputs": [
        {
          "internalType": "address",
          "name": "_multLpToken",
          "type": "address"
        },
        {
          "internalType": "address",
          "name": "_multLpChef",
          "type": "address"
        }
      ],
      "name": "setMultLP",
      "outputs": [],
      "stateMutability": "nonpayable",
      "type": "function"
    },
    {
      "inputs": [
        {
          "internalType": "address",
          "name": "_multLpToken",
          "type": "address"
        },
        {
          "internalType": "address",
          "name": "_multLpChef",
          "type": "address"
        }
      ],
      "name": "replaceMultLP",
      "outputs": [],
      "stateMutability": "nonpayable",
      "type": "function"
    },
    {
      "inputs": [
        {
          "internalType": "uint256",
          "name": "_allocPoint",
          "type": "uint256"
        },
        {
          "internalType": "contract IERC20",
          "name": "_lpToken",
          "type": "address"
        },
        {
          "internalType": "bool",
          "name": "_withUpdate",
          "type": "bool"
        }
      ],
      "name": "add",
      "outputs": [],
      "stateMutability": "nonpayable",
      "type": "function"
    },
    {
      "inputs": [
        {
          "internalType": "uint256",
          "name": "_pid",
          "type": "uint256"
        },
        {
          "internalType": "uint256",
          "name": "_allocPoint",
          "type": "uint256"
        },
        {
          "internalType": "bool",
          "name": "_withUpdate",
          "type": "bool"
        }
      ],
      "name": "set",
      "outputs": [],
      "stateMutability": "nonpayable",
      "type": "function"
    },
    {
      "inputs": [
        {
          "internalType": "uint256",
          "name": "_pid",
          "type": "uint256"
        },
        {
          "internalType": "uint256",
          "name": "_sid",
          "type": "uint256"
        }
      ],
      "name": "setPoolCorr",
      "outputs": [],
      "stateMutability": "nonpayable",
      "type": "function"
    },
    {
      "inputs": [
        {
          "internalType": "uint256",
          "name": "blockNumber",
          "type": "uint256"
        }
      ],
      "name": "phase",
      "outputs": [
        {
          "internalType": "uint256",
          "name": "",
          "type": "uint256"
        }
      ],
      "stateMutability": "view",
      "type": "function",
      "constant": true
    },
    {
      "inputs": [
        {
          "internalType": "uint256",
          "name": "blockNumber",
          "type": "uint256"
        }
      ],
      "name": "reward",
      "outputs": [
        {
          "internalType": "uint256",
          "name": "",
          "type": "uint256"
        }
      ],
      "stateMutability": "view",
      "type": "function",
      "constant": true
    },
    {
      "inputs": [
        {
          "internalType": "uint256",
          "name": "_lastRewardBlock",
          "type": "uint256"
        }
      ],
      "name": "getMdxBlockReward",
      "outputs": [
        {
          "internalType": "uint256",
          "name": "",
          "type": "uint256"
        }
      ],
      "stateMutability": "view",
      "type": "function",
      "constant": true
    },
    {
      "inputs": [],
      "name": "massUpdatePools",
      "outputs": [],
      "stateMutability": "nonpayable",
      "type": "function"
    },
    {
      "inputs": [
        {
          "internalType": "uint256",
          "name": "_pid",
          "type": "uint256"
        }
      ],
      "name": "updatePool",
      "outputs": [],
      "stateMutability": "nonpayable",
      "type": "function"
    },
    {
      "inputs": [
        {
          "internalType": "uint256",
          "name": "_pid",
          "type": "uint256"
        },
        {
          "internalType": "address",
          "name": "_user",
          "type": "address"
        }
      ],
      "name": "pending",
      "outputs": [
        {
          "internalType": "uint256",
          "name": "",
          "type": "uint256"
        },
        {
          "internalType": "uint256",
          "name": "",
          "type": "uint256"
        }
      ],
      "stateMutability": "view",
      "type": "function",
      "constant": true
    },
    {
      "inputs": [
        {
          "internalType": "uint256",
          "name": "_pid",
          "type": "uint256"
        },
        {
          "internalType": "uint256",
          "name": "_amount",
          "type": "uint256"
        }
      ],
      "name": "deposit",
      "outputs": [],
      "stateMutability": "nonpayable",
      "type": "function"
    },
    {
      "inputs": [
        {
          "internalType": "uint256",
          "name": "_pid",
          "type": "uint256"
        },
        {
          "internalType": "uint256",
          "name": "_amount",
          "type": "uint256"
        }
      ],
      "name": "withdraw",
      "outputs": [],
      "stateMutability": "nonpayable",
      "type": "function"
    },
    {
      "inputs": [
        {
          "internalType": "uint256",
          "name": "_pid",
          "type": "uint256"
        }
      ],
      "name": "emergencyWithdraw",
      "outputs": [],
      "stateMutability": "nonpayable",
      "type": "function"
    }
  ],
  "bytecode": "0x60806040526000600960006101000a81548160ff0219169083151502179055506000600a5562503340600e553480156200003857600080fd5b50604051620058b9380380620058b9833981810160405260608110156200005e57600080fd5b810190808051906020019092919080519060200190929190805190602001909291905050506000620000956200018b60201b60201c565b9050806000806101000a81548173ffffffffffffffffffffffffffffffffffffffff021916908373ffffffffffffffffffffffffffffffffffffffff1602179055508073ffffffffffffffffffffffffffffffffffffffff16600073ffffffffffffffffffffffffffffffffffffffff167f8be0079c531659141344cd1fd0a4f28419497f9722a3daafe3b4186f6b6457e060405160405180910390a35082600360006101000a81548173ffffffffffffffffffffffffffffffffffffffff021916908373ffffffffffffffffffffffffffffffffffffffff1602179055508160048190555080600b8190555050505062000193565b600033905090565b61571680620001a36000396000f3fe608060405234801561001057600080fd5b50600436106102775760003560e01c8063715018a611610160578063b337d32c116100d8578063e2bbb1581161008c578063e6ab8d4811610071578063e6ab8d4814610a42578063e715e23414610a60578063f2fde38b14610ac457610277565b8063e2bbb158146109a1578063e4c75c27146109d957610277565b8063cb4502c4116100bd578063cb4502c414610921578063d431b1ac14610963578063dfc7b95b1461096d57610277565b8063b337d32c146108bb578063b5ec5c99146108f357610277565b80638fa39a881161012f578063a9fb763c11610114578063a9fb763c146107bd578063aaae43cc146107ff578063b0c7044b1461086357610277565b80638fa39a881461072f57806393f1a40b1461074d57610277565b8063715018a614610669578063791ba374146106735780637fe6f5ac146106a15780638da5cb5b146106fb57610277565b806351eb05a6116101f35780635a3e251f116101c2578063630b5ba1116101a7578063630b5ba1146105e757806364482f79146105f1578063705bbc011461063557610277565b80635a3e251f146105a95780635c975abb146105c757610277565b806351eb05a6146104bf5780635312ea8e146104ed5780635672ab551461051b57806356c5867d1461054f57610277565b80631b15b5791161024a578063431549071161022f5780634315490714610411578063441a3e701461046957806348cd4cb1146104a157610277565b80631b15b579146103755780631eaaa045146103b757610277565b8063081e3eda1461027c578063135f8aa71461029a5780631526fe27146102dc57806317caf6f114610357575b600080fd5b610284610b08565b6040518082815260200191505060405180910390f35b6102c6600480360360208110156102b057600080fd5b8101908080359060200190929190505050610b15565b6040518082815260200191505060405180910390f35b610308600480360360208110156102f257600080fd5b8101908080359060200190929190505050610b81565b604051808773ffffffffffffffffffffffffffffffffffffffff168152602001868152602001858152602001848152602001838152602001828152602001965050505050505060405180910390f35b61035f610bea565b6040518082815260200191505060405180910390f35b6103a16004803603602081101561038b57600080fd5b8101908080359060200190929190505050610bf0565b6040518082815260200191505060405180910390f35b61040f600480360360608110156103cd57600080fd5b8101908080359060200190929190803573ffffffffffffffffffffffffffffffffffffffff169060200190929190803515159060200190929190505050610ce5565b005b61043d6004803603602081101561042757600080fd5b8101908080359060200190929190505050610fd1565b604051808273ffffffffffffffffffffffffffffffffffffffff16815260200191505060405180910390f35b61049f6004803603604081101561047f57600080fd5b810190808035906020019092919080359060200190929190505050611065565b005b6104a9611160565b6040518082815260200191505060405180910390f35b6104eb600480360360208110156104d557600080fd5b8101908080359060200190929190505050611166565b005b6105196004803603602081101561050357600080fd5b8101908080359060200190929190505050611458565b005b610523611550565b604051808273ffffffffffffffffffffffffffffffffffffffff16815260200191505060405180910390f35b6105916004803603602081101561056557600080fd5b81019080803573ffffffffffffffffffffffffffffffffffffffff169060200190929190505050611576565b60405180821515815260200191505060405180910390f35b6105b16117e4565b6040518082815260200191505060405180910390f35b6105cf6117ea565b60405180821515815260200191505060405180910390f35b6105ef6117fd565b005b6106336004803603606081101561060757600080fd5b81019080803590602001909291908035906020019092919080351515906020019092919050505061182a565b005b61063d611974565b604051808273ffffffffffffffffffffffffffffffffffffffff16815260200191505060405180910390f35b61067161199a565b005b61069f6004803603602081101561068957600080fd5b8101908080359060200190929190505050611b20565b005b6106e3600480360360208110156106b757600080fd5b81019080803573ffffffffffffffffffffffffffffffffffffffff169060200190929190505050611bfa565b60405180821515815260200191505060405180910390f35b610703611c0e565b604051808273ffffffffffffffffffffffffffffffffffffffff16815260200191505060405180910390f35b610737611c37565b6040518082815260200191505060405180910390f35b6107996004803603604081101561076357600080fd5b8101908080359060200190929190803573ffffffffffffffffffffffffffffffffffffffff169060200190929190505050611c3d565b60405180848152602001838152602001828152602001935050505060405180910390f35b6107e9600480360360208110156107d357600080fd5b8101908080359060200190929190505050611c74565b6040518082815260200191505060405180910390f35b6108616004803603604081101561081557600080fd5b81019080803573ffffffffffffffffffffffffffffffffffffffff169060200190929190803573ffffffffffffffffffffffffffffffffffffffff169060200190929190505050611ca2565b005b6108a56004803603602081101561087957600080fd5b81019080803573ffffffffffffffffffffffffffffffffffffffff16906020019092919050505061207c565b6040518082815260200191505060405180910390f35b6108f1600480360360408110156108d157600080fd5b810190808035906020019092919080359060200190929190505050612094565b005b61091f6004803603602081101561090957600080fd5b81019080803590602001909291905050506121f8565b005b61094d6004803603602081101561093757600080fd5b81019080803590602001909291905050506122ca565b6040518082815260200191505060405180910390f35b61096b6122e2565b005b6109756123d6565b604051808273ffffffffffffffffffffffffffffffffffffffff16815260200191505060405180910390f35b6109d7600480360360408110156109b757600080fd5b8101908080359060200190929190803590602001909291905050506123fc565b005b610a25600480360360408110156109ef57600080fd5b8101908080359060200190929190803573ffffffffffffffffffffffffffffffffffffffff1690602001909291905050506124f7565b604051808381526020018281526020019250505060405180910390f35b610a4a612589565b6040518082815260200191505060405180910390f35b610ac260048036036040811015610a7657600080fd5b81019080803573ffffffffffffffffffffffffffffffffffffffff169060200190929190803573ffffffffffffffffffffffffffffffffffffffff16906020019092919050505061259a565b005b610b0660048036036020811015610ada57600080fd5b81019080803573ffffffffffffffffffffffffffffffffffffffff1690602001909291905050506127c4565b005b6000600580549050905090565b600080600e541415610b2a5760009050610b7c565b600b54821115610b7757610b70600e54610b626001610b54600b54876129cf90919063ffffffff16565b6129cf90919063ffffffff16565b612a1990919063ffffffff16565b9050610b7c565b600090505b919050565b60058181548110610b8e57fe5b90600052602060002090600602016000915090508060000160009054906101000a900473ffffffffffffffffffffffffffffffffffffffff16908060010154908060020154908060030154908060040154908060050154905086565b600a5481565b600080600090506000610c0284610b15565b90506000610c0f43610b15565b90505b80821015610c995781806001019250506000610c4d600b54610c3f600e5486612a6390919063ffffffff16565b612ae990919063ffffffff16565b9050610c8e610c7f610c5e83611c74565b610c7189856129cf90919063ffffffff16565b612a6390919063ffffffff16565b85612ae990919063ffffffff16565b935080955050610c12565b610cd8610cc9610ca843611c74565b610cbb88436129cf90919063ffffffff16565b612a6390919063ffffffff16565b84612ae990919063ffffffff16565b9250829350505050919050565b610ced612b71565b73ffffffffffffffffffffffffffffffffffffffff1660008054906101000a900473ffffffffffffffffffffffffffffffffffffffff1673ffffffffffffffffffffffffffffffffffffffff1614610dad576040517f08c379a00000000000000000000000000000000000000000000000000000000081526004018080602001828103825260208152602001807f4f776e61626c653a2063616c6c6572206973206e6f7420746865206f776e657281525060200191505060405180910390fd5b600073ffffffffffffffffffffffffffffffffffffffff168273ffffffffffffffffffffffffffffffffffffffff161415610e50576040517f08c379a000000000000000000000000000000000000000000000000000000000815260040180806020018281038252601c8152602001807f5f6c70546f6b656e20697320746865207a65726f20616464726573730000000081525060200191505060405180910390fd5b8015610e5f57610e5e6117fd565b5b6000600b544311610e7257600b54610e74565b435b9050610e8b84600a54612ae990919063ffffffff16565b600a8190555060056040518060c001604052808573ffffffffffffffffffffffffffffffffffffffff16815260200186815260200183815260200160008152602001600081526020016000815250908060018154018082558091505060019003906000526020600020906006020160009091909190915060008201518160000160006101000a81548173ffffffffffffffffffffffffffffffffffffffff021916908373ffffffffffffffffffffffffffffffffffffffff1602179055506020820151816001015560408201518160020155606082015181600301556080820151816004015560a0820151816005015550506001610f87610b08565b03600860008573ffffffffffffffffffffffffffffffffffffffff1673ffffffffffffffffffffffffffffffffffffffff1681526020019081526020016000208190555050505050565b60006001610fdd612589565b03821115611053576040517f08c379a00000000000000000000000000000000000000000000000000000000081526004018080602001828103825260148152602001807f6e6f742066696e642074686973206d756c744c5000000000000000000000000081525060200191505060405180910390fd5b61105e600183612b79565b9050919050565b60001515600960009054906101000a900460ff161515146110ee576040517f08c379a00000000000000000000000000000000000000000000000000000000081526004018080602001828103825260198152602001807f4d696e696e6720686173206265656e2073757370656e6465640000000000000081525060200191505060405180910390fd5b6000600583815481106110fd57fe5b9060005260206000209060060201905061113a8160000160009054906101000a900473ffffffffffffffffffffffffffffffffffffffff16611bfa565b1561114f5761114a838333612b93565b61115b565b61115a838333613187565b5b505050565b600b5481565b60006005828154811061117557fe5b90600052602060002090600602019050806002015443116111965750611455565b60006111c58260000160009054906101000a900473ffffffffffffffffffffffffffffffffffffffff16611bfa565b156111f3576000826005015414156111e7574382600201819055505050611455565b816005015490506112d5565b8160000160009054906101000a900473ffffffffffffffffffffffffffffffffffffffff1673ffffffffffffffffffffffffffffffffffffffff166370a08231306040518263ffffffff1660e01b8152600401808273ffffffffffffffffffffffffffffffffffffffff16815260200191505060206040518083038186803b15801561127e57600080fd5b505afa158015611292573d6000803e3d6000fd5b505050506040513d60208110156112a857600080fd5b8101908080519060200190929190505050905060008114156112d4574382600201819055505050611455565b5b60006112e48360020154610bf0565b9050600081116112f657505050611455565b6000611323600a54611315866001015485612a6390919063ffffffff16565b612a1990919063ffffffff16565b90506000600360009054906101000a900473ffffffffffffffffffffffffffffffffffffffff1673ffffffffffffffffffffffffffffffffffffffff166340c10f1930846040518363ffffffff1660e01b8152600401808373ffffffffffffffffffffffffffffffffffffffff16815260200182815260200192505050602060405180830381600087803b1580156113ba57600080fd5b505af11580156113ce573d6000803e3d6000fd5b505050506040513d60208110156113e457600080fd5b8101908080519060200190929190505050905080156114465761143d61142a8561141c64e8d4a5100086612a6390919063ffffffff16565b612a1990919063ffffffff16565b8660030154612ae990919063ffffffff16565b85600301819055505b43856002018190555050505050505b50565b60001515600960009054906101000a900460ff161515146114e1576040517f08c379a00000000000000000000000000000000000000000000000000000000081526004018080602001828103825260198152602001807f4d696e696e6720686173206265656e2073757370656e6465640000000000000081525060200191505060405180910390fd5b6000600582815481106114f057fe5b9060005260206000209060060201905061152d8160000160009054906101000a900473ffffffffffffffffffffffffffffffffffffffff16611bfa565b156115415761153c8233613405565b61154c565b61154b82336137f1565b5b5050565b600360009054906101000a900473ffffffffffffffffffffffffffffffffffffffff1681565b6000611580612b71565b73ffffffffffffffffffffffffffffffffffffffff1660008054906101000a900473ffffffffffffffffffffffffffffffffffffffff1673ffffffffffffffffffffffffffffffffffffffff1614611640576040517f08c379a00000000000000000000000000000000000000000000000000000000081526004018080602001828103825260208152602001807f4f776e61626c653a2063616c6c6572206973206e6f7420746865206f776e657281525060200191505060405180910390fd5b600073ffffffffffffffffffffffffffffffffffffffff168273ffffffffffffffffffffffffffffffffffffffff1614156116e3576040517f08c379a00000000000000000000000000000000000000000000000000000000081526004018080602001828103825260168152602001807f4c5020697320746865207a65726f20616464726573730000000000000000000081525060200191505060405180910390fd5b8173ffffffffffffffffffffffffffffffffffffffff1663095ea7b3600c60009054906101000a900473ffffffffffffffffffffffffffffffffffffffff167fffffffffffffffffffffffffffffffffffffffffffffffffffffffffffffffff6040518363ffffffff1660e01b8152600401808373ffffffffffffffffffffffffffffffffffffffff16815260200182815260200192505050602060405180830381600087803b15801561179657600080fd5b505af11580156117aa573d6000803e3d6000fd5b505050506040513d60208110156117c057600080fd5b8101908080519060200190929190505050506117dd600183613945565b9050919050565b600e5481565b600960009054906101000a900460ff1681565b6000600580549050905060005b818110156118265761181b81611166565b80600101905061180a565b5050565b611832612b71565b73ffffffffffffffffffffffffffffffffffffffff1660008054906101000a900473ffffffffffffffffffffffffffffffffffffffff1673ffffffffffffffffffffffffffffffffffffffff16146118f2576040517f08c379a00000000000000000000000000000000000000000000000000000000081526004018080602001828103825260208152602001807f4f776e61626c653a2063616c6c6572206973206e6f7420746865206f776e657281525060200191505060405180910390fd5b8015611901576119006117fd565b5b611946826119386005868154811061191557fe5b906000526020600020906006020160010154600a546129cf90919063ffffffff16565b612ae990919063ffffffff16565b600a81905550816005848154811061195a57fe5b906000526020600020906006020160010181905550505050565b600d60009054906101000a900473ffffffffffffffffffffffffffffffffffffffff1681565b6119a2612b71565b73ffffffffffffffffffffffffffffffffffffffff1660008054906101000a900473ffffffffffffffffffffffffffffffffffffffff1673ffffffffffffffffffffffffffffffffffffffff1614611a62576040517f08c379a00000000000000000000000000000000000000000000000000000000081526004018080602001828103825260208152602001807f4f776e61626c653a2063616c6c6572206973206e6f7420746865206f776e657281525060200191505060405180910390fd5b600073ffffffffffffffffffffffffffffffffffffffff1660008054906101000a900473ffffffffffffffffffffffffffffffffffffffff1673ffffffffffffffffffffffffffffffffffffffff167f8be0079c531659141344cd1fd0a4f28419497f9722a3daafe3b4186f6b6457e060405160405180910390a360008060006101000a81548173ffffffffffffffffffffffffffffffffffffffff021916908373ffffffffffffffffffffffffffffffffffffffff160217905550565b611b28612b71565b73ffffffffffffffffffffffffffffffffffffffff1660008054906101000a900473ffffffffffffffffffffffffffffffffffffffff1673ffffffffffffffffffffffffffffffffffffffff1614611be8576040517f08c379a00000000000000000000000000000000000000000000000000000000081526004018080602001828103825260208152602001807f4f776e61626c653a2063616c6c6572206973206e6f7420746865206f776e657281525060200191505060405180910390fd5b611bf06117fd565b8060048190555050565b6000611c07600183613975565b9050919050565b60008060009054906101000a900473ffffffffffffffffffffffffffffffffffffffff16905090565b60045481565b6006602052816000526040600020602052806000526040600020600091509150508060000154908060010154908060020154905083565b600080611c8083610b15565b9050611c9a8160020a600454612a1990919063ffffffff16565b915050919050565b611caa612b71565b73ffffffffffffffffffffffffffffffffffffffff1660008054906101000a900473ffffffffffffffffffffffffffffffffffffffff1673ffffffffffffffffffffffffffffffffffffffff1614611d6a576040517f08c379a00000000000000000000000000000000000000000000000000000000081526004018080602001828103825260208152602001807f4f776e61626c653a2063616c6c6572206973206e6f7420746865206f776e657281525060200191505060405180910390fd5b600073ffffffffffffffffffffffffffffffffffffffff168273ffffffffffffffffffffffffffffffffffffffff1614158015611dd45750600073ffffffffffffffffffffffffffffffffffffffff168173ffffffffffffffffffffffffffffffffffffffff1614155b611e46576040517f08c379a00000000000000000000000000000000000000000000000000000000081526004018080602001828103825260138152602001807f697320746865207a65726f20616464726573730000000000000000000000000081525060200191505060405180910390fd5b60011515600960009054906101000a900460ff16151514611ecf576040517f08c379a00000000000000000000000000000000000000000000000000000000081526004018080602001828103825260148152602001807f4e6f206d696e696e672073757370656e73696f6e00000000000000000000000081525060200191505060405180910390fd5b81600d60006101000a81548173ffffffffffffffffffffffffffffffffffffffff021916908373ffffffffffffffffffffffffffffffffffffffff16021790555080600c60006101000a81548173ffffffffffffffffffffffffffffffffffffffff021916908373ffffffffffffffffffffffffffffffffffffffff1602179055506000611f5b612589565b90505b6000811115612077576000611f7560016000612b79565b90506000600860008373ffffffffffffffffffffffffffffffffffffffff1673ffffffffffffffffffffffffffffffffffffffff168152602001908152602001600020549050600c60009054906101000a900473ffffffffffffffffffffffffffffffffffffffff1673ffffffffffffffffffffffffffffffffffffffff16635312ea8e60076000848152602001908152602001600020546040518263ffffffff1660e01b815260040180828152602001915050600060405180830381600087803b15801561204357600080fd5b505af1158015612057573d6000803e3d6000fd5b505050506120666001836139a5565b508280600190039350505050611f5e565b505050565b60086020528060005260406000206000915090505481565b61209c612b71565b73ffffffffffffffffffffffffffffffffffffffff1660008054906101000a900473ffffffffffffffffffffffffffffffffffffffff1673ffffffffffffffffffffffffffffffffffffffff161461215c576040517f08c379a00000000000000000000000000000000000000000000000000000000081526004018080602001828103825260208152602001807f4f776e61626c653a2063616c6c6572206973206e6f7420746865206f776e657281525060200191505060405180910390fd5b6001612166610b08565b038211156121dc576040517f08c379a00000000000000000000000000000000000000000000000000000000081526004018080602001828103825260128152602001807f6e6f742066696e64207468697320706f6f6c000000000000000000000000000081525060200191505060405180910390fd5b8060076000848152602001908152602001600020819055505050565b612200612b71565b73ffffffffffffffffffffffffffffffffffffffff1660008054906101000a900473ffffffffffffffffffffffffffffffffffffffff1673ffffffffffffffffffffffffffffffffffffffff16146122c0576040517f08c379a00000000000000000000000000000000000000000000000000000000081526004018080602001828103825260208152602001807f4f776e61626c653a2063616c6c6572206973206e6f7420746865206f776e657281525060200191505060405180910390fd5b80600e8190555050565b60076020528060005260406000206000915090505481565b6122ea612b71565b73ffffffffffffffffffffffffffffffffffffffff1660008054906101000a900473ffffffffffffffffffffffffffffffffffffffff1673ffffffffffffffffffffffffffffffffffffffff16146123aa576040517f08c379a00000000000000000000000000000000000000000000000000000000081526004018080602001828103825260208152602001807f4f776e61626c653a2063616c6c6572206973206e6f7420746865206f776e657281525060200191505060405180910390fd5b600960009054906101000a900460ff1615600960006101000a81548160ff021916908315150217905550565b600c60009054906101000a900473ffffffffffffffffffffffffffffffffffffffff1681565b60001515600960009054906101000a900460ff16151514612485576040517f08c379a00000000000000000000000000000000000000000000000000000000081526004018080602001828103825260198152602001807f4d696e696e6720686173206265656e2073757370656e6465640000000000000081525060200191505060405180910390fd5b60006005838154811061249457fe5b906000526020600020906006020190506124d18160000160009054906101000a900473ffffffffffffffffffffffffffffffffffffffff16611bfa565b156124e6576124e18383336139d5565b6124f2565b6124f18383336142f1565b5b505050565b60008060006005858154811061250957fe5b906000526020600020906006020190506125468160000160009054906101000a900473ffffffffffffffffffffffffffffffffffffffff16611bfa565b1561256a576000806125588787614505565b91509150818194509450505050612582565b60006125768686614861565b90508060009350935050505b9250929050565b60006125956001614afb565b905090565b6125a2612b71565b73ffffffffffffffffffffffffffffffffffffffff1660008054906101000a900473ffffffffffffffffffffffffffffffffffffffff1673ffffffffffffffffffffffffffffffffffffffff1614612662576040517f08c379a00000000000000000000000000000000000000000000000000000000081526004018080602001828103825260208152602001807f4f776e61626c653a2063616c6c6572206973206e6f7420746865206f776e657281525060200191505060405180910390fd5b600073ffffffffffffffffffffffffffffffffffffffff168273ffffffffffffffffffffffffffffffffffffffff16141580156126cc5750600073ffffffffffffffffffffffffffffffffffffffff168173ffffffffffffffffffffffffffffffffffffffff1614155b61273e576040517f08c379a00000000000000000000000000000000000000000000000000000000081526004018080602001828103825260138152602001807f697320746865207a65726f20616464726573730000000000000000000000000081525060200191505060405180910390fd5b81600d60006101000a81548173ffffffffffffffffffffffffffffffffffffffff021916908373ffffffffffffffffffffffffffffffffffffffff16021790555080600c60006101000a81548173ffffffffffffffffffffffffffffffffffffffff021916908373ffffffffffffffffffffffffffffffffffffffff1602179055505050565b6127cc612b71565b73ffffffffffffffffffffffffffffffffffffffff1660008054906101000a900473ffffffffffffffffffffffffffffffffffffffff1673ffffffffffffffffffffffffffffffffffffffff161461288c576040517f08c379a00000000000000000000000000000000000000000000000000000000081526004018080602001828103825260208152602001807f4f776e61626c653a2063616c6c6572206973206e6f7420746865206f776e657281525060200191505060405180910390fd5b600073ffffffffffffffffffffffffffffffffffffffff168173ffffffffffffffffffffffffffffffffffffffff161415612912576040517f08c379a000000000000000000000000000000000000000000000000000000000815260040180806020018281038252602681526020018061564a6026913960400191505060405180910390fd5b8073ffffffffffffffffffffffffffffffffffffffff1660008054906101000a900473ffffffffffffffffffffffffffffffffffffffff1673ffffffffffffffffffffffffffffffffffffffff167f8be0079c531659141344cd1fd0a4f28419497f9722a3daafe3b4186f6b6457e060405160405180910390a3806000806101000a81548173ffffffffffffffffffffffffffffffffffffffff021916908373ffffffffffffffffffffffffffffffffffffffff16021790555050565b6000612a1183836040518060400160405280601e81526020017f536166654d6174683a207375627472616374696f6e206f766572666c6f770000815250614b10565b905092915050565b6000612a5b83836040518060400160405280601a81526020017f536166654d6174683a206469766973696f6e206279207a65726f000000000000815250614bd0565b905092915050565b600080831415612a765760009050612ae3565b6000828402905082848281612a8757fe5b0414612ade576040517f08c379a00000000000000000000000000000000000000000000000000000000081526004018080602001828103825260218152602001806156966021913960400191505060405180910390fd5b809150505b92915050565b600080828401905083811015612b67576040517f08c379a000000000000000000000000000000000000000000000000000000000815260040180806020018281038252601b8152602001807f536166654d6174683a206164646974696f6e206f766572666c6f77000000000081525060200191505060405180910390fd5b8091505092915050565b600033905090565b6000612b888360000183614c96565b60001c905092915050565b600060058481548110612ba257fe5b9060005260206000209060060201905060006006600086815260200190815260200160002060008473ffffffffffffffffffffffffffffffffffffffff1673ffffffffffffffffffffffffffffffffffffffff16815260200190815260200160002090508381600001541015612c80576040517f08c379a000000000000000000000000000000000000000000000000000000000815260040180806020018281038252601d8152602001807f77697468647261774d6478416e64546f6b656e3a206e6f7420676f6f6400000081525060200191505060405180910390fd5b612c8985611166565b6000612cd38260010154612cc564e8d4a51000612cb787600301548760000154612a6390919063ffffffff16565b612a1990919063ffffffff16565b6129cf90919063ffffffff16565b90506000811115612ce957612ce88482614d19565b5b60008511156130bc576000600d60009054906101000a900473ffffffffffffffffffffffffffffffffffffffff1673ffffffffffffffffffffffffffffffffffffffff166370a08231306040518263ffffffff1660e01b8152600401808273ffffffffffffffffffffffffffffffffffffffff16815260200191505060206040518083038186803b158015612d7d57600080fd5b505afa158015612d91573d6000803e3d6000fd5b505050506040513d6020811015612da757600080fd5b81019080805190602001909291905050509050600c60009054906101000a900473ffffffffffffffffffffffffffffffffffffffff1673ffffffffffffffffffffffffffffffffffffffff1663441a3e70600760008a815260200190815260200160002054886040518363ffffffff1660e01b81526004018083815260200182815260200192505050600060405180830381600087803b158015612e4a57600080fd5b505af1158015612e5e573d6000803e3d6000fd5b505050506000600d60009054906101000a900473ffffffffffffffffffffffffffffffffffffffff1673ffffffffffffffffffffffffffffffffffffffff166370a08231306040518263ffffffff1660e01b8152600401808273ffffffffffffffffffffffffffffffffffffffff16815260200191505060206040518083038186803b158015612eed57600080fd5b505afa158015612f01573d6000803e3d6000fd5b505050506040513d6020811015612f1757600080fd5b81019080805190602001909291905050509050612f80612f6d8660050154612f5f64e8d4a51000612f5187876129cf90919063ffffffff16565b612a6390919063ffffffff16565b612a1990919063ffffffff16565b8660040154612ae990919063ffffffff16565b85600401819055506000612fd28560020154612fc464e8d4a51000612fb68a600401548a60000154612a6390919063ffffffff16565b612a1990919063ffffffff16565b6129cf90919063ffffffff16565b9050600081111561302b5761302a8782600d60009054906101000a900473ffffffffffffffffffffffffffffffffffffffff1673ffffffffffffffffffffffffffffffffffffffff16614f929092919063ffffffff16565b5b6130428886600001546129cf90919063ffffffff16565b85600001819055506130618887600501546129cf90919063ffffffff16565b86600501819055506130b887898860000160009054906101000a900473ffffffffffffffffffffffffffffffffffffffff1673ffffffffffffffffffffffffffffffffffffffff16614f929092919063ffffffff16565b5050505b6130ee64e8d4a510006130e085600301548560000154612a6390919063ffffffff16565b612a1990919063ffffffff16565b826001018190555061312864e8d4a5100061311a85600401548560000154612a6390919063ffffffff16565b612a1990919063ffffffff16565b8260020181905550858473ffffffffffffffffffffffffffffffffffffffff167ff279e6a1f5e320cca91135676d9cb6e44ca8a08c0b88342bcdb1144f6511b568876040518082815260200191505060405180910390a3505050505050565b60006005848154811061319657fe5b9060005260206000209060060201905060006006600086815260200190815260200160002060008473ffffffffffffffffffffffffffffffffffffffff1673ffffffffffffffffffffffffffffffffffffffff16815260200190815260200160002090508381600001541015613274576040517f08c379a00000000000000000000000000000000000000000000000000000000081526004018080602001828103825260158152602001807f77697468647261774d64783a206e6f7420676f6f64000000000000000000000081525060200191505060405180910390fd5b61327d85611166565b60006132c782600101546132b964e8d4a510006132ab87600301548760000154612a6390919063ffffffff16565b612a1990919063ffffffff16565b6129cf90919063ffffffff16565b905060008111156132dd576132dc8482614d19565b5b6000851115613374576132fd8583600001546129cf90919063ffffffff16565b826000018190555061331c8584600501546129cf90919063ffffffff16565b836005018190555061337384868560000160009054906101000a900473ffffffffffffffffffffffffffffffffffffffff1673ffffffffffffffffffffffffffffffffffffffff16614f929092919063ffffffff16565b5b6133a664e8d4a5100061339885600301548560000154612a6390919063ffffffff16565b612a1990919063ffffffff16565b8260010181905550858473ffffffffffffffffffffffffffffffffffffffff167ff279e6a1f5e320cca91135676d9cb6e44ca8a08c0b88342bcdb1144f6511b568876040518082815260200191505060405180910390a3505050505050565b60006005838154811061341457fe5b9060005260206000209060060201905060006006600085815260200190815260200160002060008473ffffffffffffffffffffffffffffffffffffffff1673ffffffffffffffffffffffffffffffffffffffff16815260200190815260200160002090506000816000015490506000600d60009054906101000a900473ffffffffffffffffffffffffffffffffffffffff1673ffffffffffffffffffffffffffffffffffffffff166370a08231306040518263ffffffff1660e01b8152600401808273ffffffffffffffffffffffffffffffffffffffff16815260200191505060206040518083038186803b15801561350c57600080fd5b505afa158015613520573d6000803e3d6000fd5b505050506040513d602081101561353657600080fd5b81019080805190602001909291905050509050600c60009054906101000a900473ffffffffffffffffffffffffffffffffffffffff1673ffffffffffffffffffffffffffffffffffffffff1663441a3e706007600089815260200190815260200160002054846040518363ffffffff1660e01b81526004018083815260200182815260200192505050600060405180830381600087803b1580156135d957600080fd5b505af11580156135ed573d6000803e3d6000fd5b505050506000600d60009054906101000a900473ffffffffffffffffffffffffffffffffffffffff1673ffffffffffffffffffffffffffffffffffffffff166370a08231306040518263ffffffff1660e01b8152600401808273ffffffffffffffffffffffffffffffffffffffff16815260200191505060206040518083038186803b15801561367c57600080fd5b505afa158015613690573d6000803e3d6000fd5b505050506040513d60208110156136a657600080fd5b8101908080519060200190929190505050905061370f6136fc86600501546136ee64e8d4a510006136e087876129cf90919063ffffffff16565b612a6390919063ffffffff16565b612a1990919063ffffffff16565b8660040154612ae990919063ffffffff16565b8560040181905550600084600001819055506000846001018190555061377a86848760000160009054906101000a900473ffffffffffffffffffffffffffffffffffffffff1673ffffffffffffffffffffffffffffffffffffffff16614f929092919063ffffffff16565b6137918386600501546129cf90919063ffffffff16565b8560050181905550868673ffffffffffffffffffffffffffffffffffffffff167fbb757047c2b5f3974fe26b7c10f732e7bce710b0952a71082702781e62ae0595856040518082815260200191505060405180910390a350505050505050565b60006005838154811061380057fe5b9060005260206000209060060201905060006006600085815260200190815260200160002060008473ffffffffffffffffffffffffffffffffffffffff1673ffffffffffffffffffffffffffffffffffffffff168152602001908152602001600020905060008160000154905060008260000181905550600082600101819055506138d084828560000160009054906101000a900473ffffffffffffffffffffffffffffffffffffffff1673ffffffffffffffffffffffffffffffffffffffff16614f929092919063ffffffff16565b6138e78184600501546129cf90919063ffffffff16565b8360050181905550848473ffffffffffffffffffffffffffffffffffffffff167fbb757047c2b5f3974fe26b7c10f732e7bce710b0952a71082702781e62ae0595836040518082815260200191505060405180910390a35050505050565b600061396d836000018373ffffffffffffffffffffffffffffffffffffffff1660001b615034565b905092915050565b600061399d836000018373ffffffffffffffffffffffffffffffffffffffff1660001b6150a4565b905092915050565b60006139cd836000018373ffffffffffffffffffffffffffffffffffffffff1660001b6150c7565b905092915050565b6000600584815481106139e457fe5b9060005260206000209060060201905060006006600086815260200190815260200160002060008473ffffffffffffffffffffffffffffffffffffffff1673ffffffffffffffffffffffffffffffffffffffff1681526020019081526020016000209050613a5185611166565b600081600001541115613dfd576000613aa88260010154613a9a64e8d4a51000613a8c87600301548760000154612a6390919063ffffffff16565b612a1990919063ffffffff16565b6129cf90919063ffffffff16565b90506000811115613abe57613abd8482614d19565b5b6000600d60009054906101000a900473ffffffffffffffffffffffffffffffffffffffff1673ffffffffffffffffffffffffffffffffffffffff166370a08231306040518263ffffffff1660e01b8152600401808273ffffffffffffffffffffffffffffffffffffffff16815260200191505060206040518083038186803b158015613b4957600080fd5b505afa158015613b5d573d6000803e3d6000fd5b505050506040513d6020811015613b7357600080fd5b81019080805190602001909291905050509050600c60009054906101000a900473ffffffffffffffffffffffffffffffffffffffff1673ffffffffffffffffffffffffffffffffffffffff1663e2bbb158600760008a81526020019081526020016000205460006040518363ffffffff1660e01b81526004018083815260200182815260200192505050600060405180830381600087803b158015613c1757600080fd5b505af1158015613c2b573d6000803e3d6000fd5b505050506000600d60009054906101000a900473ffffffffffffffffffffffffffffffffffffffff1673ffffffffffffffffffffffffffffffffffffffff166370a08231306040518263ffffffff1660e01b8152600401808273ffffffffffffffffffffffffffffffffffffffff16815260200191505060206040518083038186803b158015613cba57600080fd5b505afa158015613cce573d6000803e3d6000fd5b505050506040513d6020811015613ce457600080fd5b81019080805190602001909291905050509050613d4d613d3a8660050154613d2c64e8d4a51000613d1e87876129cf90919063ffffffff16565b612a6390919063ffffffff16565b612a1990919063ffffffff16565b8660040154612ae990919063ffffffff16565b85600401819055506000613d9f8560020154613d9164e8d4a51000613d838a600401548a60000154612a6390919063ffffffff16565b612a1990919063ffffffff16565b6129cf90919063ffffffff16565b90506000811115613df857613df78782600d60009054906101000a900473ffffffffffffffffffffffffffffffffffffffff1673ffffffffffffffffffffffffffffffffffffffff16614f929092919063ffffffff16565b5b505050505b600084111561422757613e578330868560000160009054906101000a900473ffffffffffffffffffffffffffffffffffffffff1673ffffffffffffffffffffffffffffffffffffffff166151af909392919063ffffffff16565b600082600501541415613f4f57600c60009054906101000a900473ffffffffffffffffffffffffffffffffffffffff1673ffffffffffffffffffffffffffffffffffffffff1663e2bbb1586007600088815260200190815260200160002054866040518363ffffffff1660e01b81526004018083815260200182815260200192505050600060405180830381600087803b158015613ef457600080fd5b505af1158015613f08573d6000803e3d6000fd5b50505050613f23848260000154612ae990919063ffffffff16565b8160000181905550613f42848360050154612ae990919063ffffffff16565b8260050181905550614226565b6000600d60009054906101000a900473ffffffffffffffffffffffffffffffffffffffff1673ffffffffffffffffffffffffffffffffffffffff166370a08231306040518263ffffffff1660e01b8152600401808273ffffffffffffffffffffffffffffffffffffffff16815260200191505060206040518083038186803b158015613fda57600080fd5b505afa158015613fee573d6000803e3d6000fd5b505050506040513d602081101561400457600080fd5b81019080805190602001909291905050509050600c60009054906101000a900473ffffffffffffffffffffffffffffffffffffffff1673ffffffffffffffffffffffffffffffffffffffff1663e2bbb1586007600089815260200190815260200160002054876040518363ffffffff1660e01b81526004018083815260200182815260200192505050600060405180830381600087803b1580156140a757600080fd5b505af11580156140bb573d6000803e3d6000fd5b505050506000600d60009054906101000a900473ffffffffffffffffffffffffffffffffffffffff1673ffffffffffffffffffffffffffffffffffffffff166370a08231306040518263ffffffff1660e01b8152600401808273ffffffffffffffffffffffffffffffffffffffff16815260200191505060206040518083038186803b15801561414a57600080fd5b505afa15801561415e573d6000803e3d6000fd5b505050506040513d602081101561417457600080fd5b810190808051906020019092919050505090506141dd6141ca85600501546141bc64e8d4a510006141ae87876129cf90919063ffffffff16565b612a6390919063ffffffff16565b612a1990919063ffffffff16565b8560040154612ae990919063ffffffff16565b84600401819055506141fc868460000154612ae990919063ffffffff16565b836000018190555061421b868560050154612ae990919063ffffffff16565b846005018190555050505b5b61425964e8d4a5100061424b84600301548460000154612a6390919063ffffffff16565b612a1990919063ffffffff16565b816001018190555061429364e8d4a5100061428584600401548460000154612a6390919063ffffffff16565b612a1990919063ffffffff16565b8160020181905550848373ffffffffffffffffffffffffffffffffffffffff167f90890809c654f11d6e72a28fa60149770a0d11ec6c92319d6ceb2bb0a4ea1a15866040518082815260200191505060405180910390a35050505050565b60006005848154811061430057fe5b9060005260206000209060060201905060006006600086815260200190815260200160002060008473ffffffffffffffffffffffffffffffffffffffff1673ffffffffffffffffffffffffffffffffffffffff168152602001908152602001600020905061436d85611166565b6000816000015411156143dc5760006143c482600101546143b664e8d4a510006143a887600301548760000154612a6390919063ffffffff16565b612a1990919063ffffffff16565b6129cf90919063ffffffff16565b905060008111156143da576143d98482614d19565b5b505b6000841115614475576144368330868560000160009054906101000a900473ffffffffffffffffffffffffffffffffffffffff1673ffffffffffffffffffffffffffffffffffffffff166151af909392919063ffffffff16565b61444d848260000154612ae990919063ffffffff16565b816000018190555061446c848360050154612ae990919063ffffffff16565b82600501819055505b6144a764e8d4a5100061449984600301548460000154612a6390919063ffffffff16565b612a1990919063ffffffff16565b8160010181905550848373ffffffffffffffffffffffffffffffffffffffff167f90890809c654f11d6e72a28fa60149770a0d11ec6c92319d6ceb2bb0a4ea1a15866040518082815260200191505060405180910390a35050505050565b60008060006005858154811061451757fe5b9060005260206000209060060201905060006006600087815260200190815260200160002060008673ffffffffffffffffffffffffffffffffffffffff1673ffffffffffffffffffffffffffffffffffffffff168152602001908152602001600020905060008260030154905060008360040154905060008360000154111561484e576000600c60009054906101000a900473ffffffffffffffffffffffffffffffffffffffff1673ffffffffffffffffffffffffffffffffffffffff1663e4c75c27600760008c815260200190815260200160002054306040518363ffffffff1660e01b8152600401808381526020018273ffffffffffffffffffffffffffffffffffffffff1681526020019250505060206040518083038186803b15801561464057600080fd5b505afa158015614654573d6000803e3d6000fd5b505050506040513d602081101561466a57600080fd5b810190808051906020019092919050505090506146bd6146ae86600501546146a064e8d4a5100085612a6390919063ffffffff16565b612a1990919063ffffffff16565b83612ae990919063ffffffff16565b9150600061470585600201546146f764e8d4a510006146e9878a60000154612a6390919063ffffffff16565b612a1990919063ffffffff16565b6129cf90919063ffffffff16565b905085600201544311156147eb5760006147228760020154610bf0565b90506000614751600a546147438a6001015485612a6390919063ffffffff16565b612a1990919063ffffffff16565b9050614793614784896005015461477664e8d4a5100085612a6390919063ffffffff16565b612a1990919063ffffffff16565b87612ae990919063ffffffff16565b95506147d987600101546147cb64e8d4a510006147bd8a8c60000154612a6390919063ffffffff16565b612a1990919063ffffffff16565b6129cf90919063ffffffff16565b8399509950505050505050505061485a565b856002015443141561484b5761483b856001015461482d64e8d4a5100061481f888a60000154612a6390919063ffffffff16565b612a1990919063ffffffff16565b6129cf90919063ffffffff16565b819750975050505050505061485a565b50505b60008095509550505050505b9250929050565b6000806005848154811061487157fe5b9060005260206000209060060201905060006006600086815260200190815260200160002060008573ffffffffffffffffffffffffffffffffffffffff1673ffffffffffffffffffffffffffffffffffffffff168152602001908152602001600020905060008260030154905060008360000160009054906101000a900473ffffffffffffffffffffffffffffffffffffffff1673ffffffffffffffffffffffffffffffffffffffff166370a08231306040518263ffffffff1660e01b8152600401808273ffffffffffffffffffffffffffffffffffffffff16815260200191505060206040518083038186803b15801561496b57600080fd5b505afa15801561497f573d6000803e3d6000fd5b505050506040513d602081101561499557600080fd5b81019080805190602001909291905050509050600083600001541115614aec578360020154431115614a905760006149d08560020154610bf0565b905060006149ff600a546149f1886001015485612a6390919063ffffffff16565b612a1990919063ffffffff16565b9050614a3d614a2e84614a2064e8d4a5100085612a6390919063ffffffff16565b612a1990919063ffffffff16565b85612ae990919063ffffffff16565b9350614a838560010154614a7564e8d4a51000614a67888a60000154612a6390919063ffffffff16565b612a1990919063ffffffff16565b6129cf90919063ffffffff16565b9650505050505050614af5565b8360020154431415614aeb57614ae08360010154614ad264e8d4a51000614ac4868860000154612a6390919063ffffffff16565b612a1990919063ffffffff16565b6129cf90919063ffffffff16565b945050505050614af5565b5b60009450505050505b92915050565b6000614b0982600001615270565b9050919050565b6000838311158290614bbd576040517f08c379a00000000000000000000000000000000000000000000000000000000081526004018080602001828103825283818151815260200191508051906020019080838360005b83811015614b82578082015181840152602081019050614b67565b50505050905090810190601f168015614baf5780820380516001836020036101000a031916815260200191505b509250505060405180910390fd5b5060008385039050809150509392505050565b60008083118290614c7c576040517f08c379a00000000000000000000000000000000000000000000000000000000081526004018080602001828103825283818151815260200191508051906020019080838360005b83811015614c41578082015181840152602081019050614c26565b50505050905090810190601f168015614c6e5780820380516001836020036101000a031916815260200191505b509250505060405180910390fd5b506000838581614c8857fe5b049050809150509392505050565b600081836000018054905011614cf7576040517f08c379a00000000000000000000000000000000000000000000000000000000081526004018080602001828103825260228152602001806156286022913960400191505060405180910390fd5b826000018281548110614d0657fe5b9060005260206000200154905092915050565b6000600360009054906101000a900473ffffffffffffffffffffffffffffffffffffffff1673ffffffffffffffffffffffffffffffffffffffff166370a08231306040518263ffffffff1660e01b8152600401808273ffffffffffffffffffffffffffffffffffffffff16815260200191505060206040518083038186803b158015614da457600080fd5b505afa158015614db8573d6000803e3d6000fd5b505050506040513d6020811015614dce57600080fd5b8101908080519060200190929190505050905080821115614ebd57600360009054906101000a900473ffffffffffffffffffffffffffffffffffffffff1673ffffffffffffffffffffffffffffffffffffffff1663a9059cbb84836040518363ffffffff1660e01b8152600401808373ffffffffffffffffffffffffffffffffffffffff16815260200182815260200192505050602060405180830381600087803b158015614e7c57600080fd5b505af1158015614e90573d6000803e3d6000fd5b505050506040513d6020811015614ea657600080fd5b810190808051906020019092919050505050614f8d565b600360009054906101000a900473ffffffffffffffffffffffffffffffffffffffff1673ffffffffffffffffffffffffffffffffffffffff1663a9059cbb84846040518363ffffffff1660e01b8152600401808373ffffffffffffffffffffffffffffffffffffffff16815260200182815260200192505050602060405180830381600087803b158015614f5057600080fd5b505af1158015614f64573d6000803e3d6000fd5b505050506040513d6020811015614f7a57600080fd5b8101908080519060200190929190505050505b505050565b61502f8363a9059cbb60e01b8484604051602401808373ffffffffffffffffffffffffffffffffffffffff16815260200182815260200192505050604051602081830303815290604052907bffffffffffffffffffffffffffffffffffffffffffffffffffffffff19166020820180517bffffffffffffffffffffffffffffffffffffffffffffffffffffffff8381831617835250505050615281565b505050565b600061504083836150a4565b61509957826000018290806001815401808255809150506001900390600052602060002001600090919091909150558260000180549050836001016000848152602001908152602001600020819055506001905061509e565b600090505b92915050565b600080836001016000848152602001908152602001600020541415905092915050565b600080836001016000848152602001908152602001600020549050600081146151a3576000600182039050600060018660000180549050039050600086600001828154811061511257fe5b906000526020600020015490508087600001848154811061512f57fe5b906000526020600020018190555060018301876001016000838152602001908152602001600020819055508660000180548061516757fe5b600190038181906000526020600020016000905590558660010160008781526020019081526020016000206000905560019450505050506151a9565b60009150505b92915050565b61526a846323b872dd60e01b858585604051602401808473ffffffffffffffffffffffffffffffffffffffff1681526020018373ffffffffffffffffffffffffffffffffffffffff1681526020018281526020019350505050604051602081830303815290604052907bffffffffffffffffffffffffffffffffffffffffffffffffffffffff19166020820180517bffffffffffffffffffffffffffffffffffffffffffffffffffffffff8381831617835250505050615281565b50505050565b600081600001805490509050919050565b60606152e3826040518060400160405280602081526020017f5361666545524332303a206c6f772d6c6576656c2063616c6c206661696c65648152508573ffffffffffffffffffffffffffffffffffffffff166153709092919063ffffffff16565b905060008151111561536b5780806020019051602081101561530457600080fd5b810190808051906020019092919050505061536a576040517f08c379a000000000000000000000000000000000000000000000000000000000815260040180806020018281038252602a8152602001806156b7602a913960400191505060405180910390fd5b5b505050565b606061537f8484600085615388565b90509392505050565b6060823073ffffffffffffffffffffffffffffffffffffffff163110156153fa576040517f08c379a00000000000000000000000000000000000000000000000000000000081526004018080602001828103825260268152602001806156706026913960400191505060405180910390fd5b61540385615548565b615475576040517f08c379a000000000000000000000000000000000000000000000000000000000815260040180806020018281038252601d8152602001807f416464726573733a2063616c6c20746f206e6f6e2d636f6e747261637400000081525060200191505060405180910390fd5b600060608673ffffffffffffffffffffffffffffffffffffffff1685876040518082805190602001908083835b602083106154c557805182526020820191506020810190506020830392506154a2565b6001836020036101000a03801982511681845116808217855250505050505090500191505060006040518083038185875af1925050503d8060008114615527576040519150601f19603f3d011682016040523d82523d6000602084013e61552c565b606091505b509150915061553c82828661555b565b92505050949350505050565b600080823b905060008111915050919050565b6060831561556b57829050615620565b60008351111561557e5782518084602001fd5b816040517f08c379a00000000000000000000000000000000000000000000000000000000081526004018080602001828103825283818151815260200191508051906020019080838360005b838110156155e55780820151818401526020810190506155ca565b50505050905090810190601f1680156156125780820380516001836020036101000a031916815260200191505b509250505060405180910390fd5b939250505056fe456e756d657261626c655365743a20696e646578206f7574206f6620626f756e64734f776e61626c653a206e6577206f776e657220697320746865207a65726f2061646472657373416464726573733a20696e73756666696369656e742062616c616e636520666f722063616c6c536166654d6174683a206d756c7469706c69636174696f6e206f766572666c6f775361666545524332303a204552433230206f7065726174696f6e20646964206e6f742073756363656564a264697066735822122038d4083fcce5c35c6f8141a210e076ca7c2d9e9d608d491db15ff2dd49f0aa6564736f6c634300060c0033",
  "immutableReferences": {},
  "source": "// SPDX-License-Identifier: MIT\r\npragma solidity >=0.4.22 <0.8.0;\r\n\r\nimport \"@openzeppelin/contracts/access/Ownable.sol\";\r\nimport \"@openzeppelin/contracts/utils/EnumerableSet.sol\";\r\nimport \"@openzeppelin/contracts/token/ERC20/IERC20.sol\";\r\nimport \"@openzeppelin/contracts/token/ERC20/SafeERC20.sol\";\r\nimport \"@openzeppelin/contracts/math/SafeMath.sol\";\r\nimport \"../interface/IMdx.sol\";\r\n\r\ninterface IMasterChefHeco {\r\n    function pending(uint256 pid, address user) external view returns (uint256);\r\n\r\n    function deposit(uint256 pid, uint256 amount) external;\r\n\r\n    function withdraw(uint256 pid, uint256 amount) external;\r\n\r\n    function emergencyWithdraw(uint256 pid) external;\r\n}\r\n\r\ncontract HecoPool is Ownable {\r\n    using SafeMath for uint256;\r\n    using SafeERC20 for IERC20;\r\n\r\n    using EnumerableSet for EnumerableSet.AddressSet;\r\n    EnumerableSet.AddressSet private _multLP;\r\n\r\n    // Info of each user.\r\n    struct UserInfo {\r\n        uint256 amount;     // How many LP tokens the user has provided.\r\n        uint256 rewardDebt; // Reward debt.\r\n        uint256 multLpRewardDebt; //multLp Reward debt.\r\n    }\r\n\r\n    // Info of each pool.\r\n    struct PoolInfo {\r\n        IERC20 lpToken;           // Address of LP token contract.\r\n        uint256 allocPoint;       // How many allocation points assigned to this pool. MDXs to distribute per block.\r\n        uint256 lastRewardBlock;  // Last block number that MDXs distribution occurs.\r\n        uint256 accMdxPerShare; // Accumulated MDXs per share, times 1e12.\r\n        uint256 accMultLpPerShare; //Accumulated multLp per share\r\n        uint256 totalAmount;    // Total amount of current pool deposit.\r\n    }\r\n\r\n    // The MDX Token!\r\n    IMdx public mdx;\r\n    // MDX tokens created per block.\r\n    uint256 public mdxPerBlock;\r\n    // Info of each pool.\r\n    PoolInfo[] public poolInfo;\r\n    // Info of each user that stakes LP tokens.\r\n    mapping(uint256 => mapping(address => UserInfo)) public userInfo;\r\n    // Corresponding to the pid of the multLP pool\r\n    mapping(uint256 => uint256) public poolCorrespond;\r\n    // pid corresponding address\r\n    mapping(address => uint256) public LpOfPid;\r\n    // Control mining\r\n    bool public paused = false;\r\n    // Total allocation points. Must be the sum of all allocation points in all pools.\r\n    uint256 public totalAllocPoint = 0;\r\n    // The block number when MDX mining starts.\r\n    uint256 public startBlock;\r\n    // multLP MasterChef\r\n    address public multLpChef;\r\n    // multLP Token\r\n    address public multLpToken;\r\n    // How many blocks are halved\r\n    uint256 public halvingPeriod = 5256000;\r\n\r\n    event Deposit(address indexed user, uint256 indexed pid, uint256 amount);\r\n    event Withdraw(address indexed user, uint256 indexed pid, uint256 amount);\r\n    event EmergencyWithdraw(address indexed user, uint256 indexed pid, uint256 amount);\r\n\r\n    constructor(\r\n        IMdx _mdx,\r\n        uint256 _mdxPerBlock,\r\n        uint256 _startBlock\r\n    ) public {\r\n        mdx = _mdx;\r\n        mdxPerBlock = _mdxPerBlock;\r\n        startBlock = _startBlock;\r\n    }\r\n\r\n    function setHalvingPeriod(uint256 _block) public onlyOwner {\r\n        halvingPeriod = _block;\r\n    }\r\n\r\n    // Set the number of mdx produced by each block\r\n    function setMdxPerBlock(uint256 _newPerBlock) public onlyOwner {\r\n        massUpdatePools();\r\n        mdxPerBlock = _newPerBlock;\r\n    }\r\n\r\n    function poolLength() public view returns (uint256) {\r\n        return poolInfo.length;\r\n    }\r\n\r\n    function addMultLP(address _addLP) public onlyOwner returns (bool) {\r\n        require(_addLP != address(0), \"LP is the zero address\");\r\n        IERC20(_addLP).approve(multLpChef, uint256(- 1));\r\n        return EnumerableSet.add(_multLP, _addLP);\r\n    }\r\n\r\n    function isMultLP(address _LP) public view returns (bool) {\r\n        return EnumerableSet.contains(_multLP, _LP);\r\n    }\r\n\r\n    function getMultLPLength() public view returns (uint256) {\r\n        return EnumerableSet.length(_multLP);\r\n    }\r\n\r\n    function getMultLPAddress(uint256 _pid) public view returns (address){\r\n        require(_pid <= getMultLPLength() - 1, \"not find this multLP\");\r\n        return EnumerableSet.at(_multLP, _pid);\r\n    }\r\n\r\n    function setPause() public onlyOwner {\r\n        paused = !paused;\r\n    }\r\n\r\n    function setMultLP(address _multLpToken, address _multLpChef) public onlyOwner {\r\n        require(_multLpToken != address(0) && _multLpChef != address(0), \"is the zero address\");\r\n        multLpToken = _multLpToken;\r\n        multLpChef = _multLpChef;\r\n    }\r\n\r\n    function replaceMultLP(address _multLpToken, address _multLpChef) public onlyOwner {\r\n        require(_multLpToken != address(0) && _multLpChef != address(0), \"is the zero address\");\r\n        require(paused == true, \"No mining suspension\");\r\n        multLpToken = _multLpToken;\r\n        multLpChef = _multLpChef;\r\n        uint256 length = getMultLPLength();\r\n        while (length > 0) {\r\n            address dAddress = EnumerableSet.at(_multLP, 0);\r\n            uint256 pid = LpOfPid[dAddress];\r\n            IMasterChefHeco(multLpChef).emergencyWithdraw(poolCorrespond[pid]);\r\n            EnumerableSet.remove(_multLP, dAddress);\r\n            length--;\r\n        }\r\n    }\r\n\r\n    // Add a new lp to the pool. Can only be called by the owner.\r\n    // XXX DO NOT add the same LP token more than once. Rewards will be messed up if you do.\r\n    function add(uint256 _allocPoint, IERC20 _lpToken, bool _withUpdate) public onlyOwner {\r\n        require(address(_lpToken) != address(0), \"_lpToken is the zero address\");\r\n        if (_withUpdate) {\r\n            massUpdatePools();\r\n        }\r\n        uint256 lastRewardBlock = block.number > startBlock ? block.number : startBlock;\r\n        totalAllocPoint = totalAllocPoint.add(_allocPoint);\r\n        poolInfo.push(PoolInfo({\r\n        lpToken : _lpToken,\r\n        allocPoint : _allocPoint,\r\n        lastRewardBlock : lastRewardBlock,\r\n        accMdxPerShare : 0,\r\n        accMultLpPerShare : 0,\r\n        totalAmount : 0\r\n        }));\r\n        LpOfPid[address(_lpToken)] = poolLength() - 1;\r\n    }\r\n\r\n    // Update the given pool's MDX allocation point. Can only be called by the owner.\r\n    function set(uint256 _pid, uint256 _allocPoint, bool _withUpdate) public onlyOwner {\r\n        if (_withUpdate) {\r\n            massUpdatePools();\r\n        }\r\n        totalAllocPoint = totalAllocPoint.sub(poolInfo[_pid].allocPoint).add(_allocPoint);\r\n        poolInfo[_pid].allocPoint = _allocPoint;\r\n    }\r\n\r\n    // The current pool corresponds to the pid of the multLP pool\r\n    function setPoolCorr(uint256 _pid, uint256 _sid) public onlyOwner {\r\n        require(_pid <= poolLength() - 1, \"not find this pool\");\r\n        poolCorrespond[_pid] = _sid;\r\n    }\r\n\r\n    function phase(uint256 blockNumber) public view returns (uint256) {\r\n        if (halvingPeriod == 0) {\r\n            return 0;\r\n        }\r\n        if (blockNumber > startBlock) {\r\n            return (blockNumber.sub(startBlock).sub(1)).div(halvingPeriod);\r\n        }\r\n        return 0;\r\n    }\r\n\r\n    function reward(uint256 blockNumber) public view returns (uint256) {\r\n        uint256 _phase = phase(blockNumber);\r\n        return mdxPerBlock.div(2 ** _phase);\r\n    }\r\n\r\n    function getMdxBlockReward(uint256 _lastRewardBlock) public view returns (uint256) {\r\n        uint256 blockReward = 0;\r\n        uint256 n = phase(_lastRewardBlock);\r\n        uint256 m = phase(block.number);\r\n        while (n < m) {\r\n            n++;\r\n            uint256 r = n.mul(halvingPeriod).add(startBlock);\r\n            blockReward = blockReward.add((r.sub(_lastRewardBlock)).mul(reward(r)));\r\n            _lastRewardBlock = r;\r\n        }\r\n        blockReward = blockReward.add((block.number.sub(_lastRewardBlock)).mul(reward(block.number)));\r\n        return blockReward;\r\n    }\r\n\r\n    // Update reward variables for all pools. Be careful of gas spending!\r\n    function massUpdatePools() public {\r\n        uint256 length = poolInfo.length;\r\n        for (uint256 pid = 0; pid < length; ++pid) {\r\n            updatePool(pid);\r\n        }\r\n    }\r\n\r\n    // Update reward variables of the given pool to be up-to-date.\r\n    function updatePool(uint256 _pid) public {\r\n        PoolInfo storage pool = poolInfo[_pid];\r\n        if (block.number <= pool.lastRewardBlock) {\r\n            return;\r\n        }\r\n        uint256 lpSupply;\r\n        if (isMultLP(address(pool.lpToken))) {\r\n            if (pool.totalAmount == 0) {\r\n                pool.lastRewardBlock = block.number;\r\n                return;\r\n            }\r\n            lpSupply = pool.totalAmount;\r\n        } else {\r\n            lpSupply = pool.lpToken.balanceOf(address(this));\r\n            if (lpSupply == 0) {\r\n                pool.lastRewardBlock = block.number;\r\n                return;\r\n            }\r\n        }\r\n        uint256 blockReward = getMdxBlockReward(pool.lastRewardBlock);\r\n        if (blockReward <= 0) {\r\n            return;\r\n        }\r\n        uint256 mdxReward = blockReward.mul(pool.allocPoint).div(totalAllocPoint);\r\n        bool minRet = mdx.mint(address(this), mdxReward);\r\n        if (minRet) {\r\n            pool.accMdxPerShare = pool.accMdxPerShare.add(mdxReward.mul(1e12).div(lpSupply));\r\n        }\r\n        pool.lastRewardBlock = block.number;\r\n    }\r\n\r\n    // View function to see pending MDXs on frontend.\r\n    function pending(uint256 _pid, address _user) external view returns (uint256, uint256){\r\n        PoolInfo storage pool = poolInfo[_pid];\r\n        if (isMultLP(address(pool.lpToken))) {\r\n            (uint256 mdxAmount, uint256 tokenAmount) = pendingMdxAndToken(_pid, _user);\r\n            return (mdxAmount, tokenAmount);\r\n        } else {\r\n            uint256 mdxAmount = pendingMdx(_pid, _user);\r\n            return (mdxAmount, 0);\r\n        }\r\n    }\r\n\r\n    function pendingMdxAndToken(uint256 _pid, address _user) private view returns (uint256, uint256){\r\n        PoolInfo storage pool = poolInfo[_pid];\r\n        UserInfo storage user = userInfo[_pid][_user];\r\n        uint256 accMdxPerShare = pool.accMdxPerShare;\r\n        uint256 accMultLpPerShare = pool.accMultLpPerShare;\r\n        if (user.amount > 0) {\r\n            uint256 TokenPending = IMasterChefHeco(multLpChef).pending(poolCorrespond[_pid], address(this));\r\n            accMultLpPerShare = accMultLpPerShare.add(TokenPending.mul(1e12).div(pool.totalAmount));\r\n            uint256 userPending = user.amount.mul(accMultLpPerShare).div(1e12).sub(user.multLpRewardDebt);\r\n            if (block.number > pool.lastRewardBlock) {\r\n                uint256 blockReward = getMdxBlockReward(pool.lastRewardBlock);\r\n                uint256 mdxReward = blockReward.mul(pool.allocPoint).div(totalAllocPoint);\r\n                accMdxPerShare = accMdxPerShare.add(mdxReward.mul(1e12).div(pool.totalAmount));\r\n                return (user.amount.mul(accMdxPerShare).div(1e12).sub(user.rewardDebt), userPending);\r\n            }\r\n            if (block.number == pool.lastRewardBlock) {\r\n                return (user.amount.mul(accMdxPerShare).div(1e12).sub(user.rewardDebt), userPending);\r\n            }\r\n        }\r\n        return (0, 0);\r\n    }\r\n\r\n    function pendingMdx(uint256 _pid, address _user) private view returns (uint256){\r\n        PoolInfo storage pool = poolInfo[_pid];\r\n        UserInfo storage user = userInfo[_pid][_user];\r\n        uint256 accMdxPerShare = pool.accMdxPerShare;\r\n        uint256 lpSupply = pool.lpToken.balanceOf(address(this));\r\n        if (user.amount > 0) {\r\n            if (block.number > pool.lastRewardBlock) {\r\n                uint256 blockReward = getMdxBlockReward(pool.lastRewardBlock);\r\n                uint256 mdxReward = blockReward.mul(pool.allocPoint).div(totalAllocPoint);\r\n                accMdxPerShare = accMdxPerShare.add(mdxReward.mul(1e12).div(lpSupply));\r\n                return user.amount.mul(accMdxPerShare).div(1e12).sub(user.rewardDebt);\r\n            }\r\n            if (block.number == pool.lastRewardBlock) {\r\n                return user.amount.mul(accMdxPerShare).div(1e12).sub(user.rewardDebt);\r\n            }\r\n        }\r\n        return 0;\r\n    }\r\n\r\n    // Deposit LP tokens to HecoPool for MDX allocation.\r\n    function deposit(uint256 _pid, uint256 _amount) public notPause {\r\n        PoolInfo storage pool = poolInfo[_pid];\r\n        if (isMultLP(address(pool.lpToken))) {\r\n            depositMdxAndToken(_pid, _amount, msg.sender);\r\n        } else {\r\n            depositMdx(_pid, _amount, msg.sender);\r\n        }\r\n    }\r\n\r\n    function depositMdxAndToken(uint256 _pid, uint256 _amount, address _user) private {\r\n        PoolInfo storage pool = poolInfo[_pid];\r\n        UserInfo storage user = userInfo[_pid][_user];\r\n        updatePool(_pid);\r\n        if (user.amount > 0) {\r\n            uint256 pendingAmount = user.amount.mul(pool.accMdxPerShare).div(1e12).sub(user.rewardDebt);\r\n            if (pendingAmount > 0) {\r\n                safeMdxTransfer(_user, pendingAmount);\r\n            }\r\n            uint256 beforeToken = IERC20(multLpToken).balanceOf(address(this));\r\n            IMasterChefHeco(multLpChef).deposit(poolCorrespond[_pid], 0);\r\n            uint256 afterToken = IERC20(multLpToken).balanceOf(address(this));\r\n            pool.accMultLpPerShare = pool.accMultLpPerShare.add(afterToken.sub(beforeToken).mul(1e12).div(pool.totalAmount));\r\n            uint256 tokenPending = user.amount.mul(pool.accMultLpPerShare).div(1e12).sub(user.multLpRewardDebt);\r\n            if (tokenPending > 0) {\r\n                IERC20(multLpToken).safeTransfer(_user, tokenPending);\r\n            }\r\n        }\r\n        if (_amount > 0) {\r\n            pool.lpToken.safeTransferFrom(_user, address(this), _amount);\r\n            if (pool.totalAmount == 0) {\r\n                IMasterChefHeco(multLpChef).deposit(poolCorrespond[_pid], _amount);\r\n                user.amount = user.amount.add(_amount);\r\n                pool.totalAmount = pool.totalAmount.add(_amount);\r\n            } else {\r\n                uint256 beforeToken = IERC20(multLpToken).balanceOf(address(this));\r\n                IMasterChefHeco(multLpChef).deposit(poolCorrespond[_pid], _amount);\r\n                uint256 afterToken = IERC20(multLpToken).balanceOf(address(this));\r\n                pool.accMultLpPerShare = pool.accMultLpPerShare.add(afterToken.sub(beforeToken).mul(1e12).div(pool.totalAmount));\r\n                user.amount = user.amount.add(_amount);\r\n                pool.totalAmount = pool.totalAmount.add(_amount);\r\n            }\r\n        }\r\n        user.rewardDebt = user.amount.mul(pool.accMdxPerShare).div(1e12);\r\n        user.multLpRewardDebt = user.amount.mul(pool.accMultLpPerShare).div(1e12);\r\n        emit Deposit(_user, _pid, _amount);\r\n    }\r\n\r\n    function depositMdx(uint256 _pid, uint256 _amount, address _user) private {\r\n        PoolInfo storage pool = poolInfo[_pid];\r\n        UserInfo storage user = userInfo[_pid][_user];\r\n        updatePool(_pid);\r\n        if (user.amount > 0) {\r\n            uint256 pendingAmount = user.amount.mul(pool.accMdxPerShare).div(1e12).sub(user.rewardDebt);\r\n            if (pendingAmount > 0) {\r\n                safeMdxTransfer(_user, pendingAmount);\r\n            }\r\n        }\r\n        if (_amount > 0) {\r\n            pool.lpToken.safeTransferFrom(_user, address(this), _amount);\r\n            user.amount = user.amount.add(_amount);\r\n            pool.totalAmount = pool.totalAmount.add(_amount);\r\n        }\r\n        user.rewardDebt = user.amount.mul(pool.accMdxPerShare).div(1e12);\r\n        emit Deposit(_user, _pid, _amount);\r\n    }\r\n\r\n    // Withdraw LP tokens from HecoPool.\r\n    function withdraw(uint256 _pid, uint256 _amount) public notPause {\r\n        PoolInfo storage pool = poolInfo[_pid];\r\n        if (isMultLP(address(pool.lpToken))) {\r\n            withdrawMdxAndToken(_pid, _amount, msg.sender);\r\n        } else {\r\n            withdrawMdx(_pid, _amount, msg.sender);\r\n        }\r\n    }\r\n\r\n    function withdrawMdxAndToken(uint256 _pid, uint256 _amount, address _user) private {\r\n        PoolInfo storage pool = poolInfo[_pid];\r\n        UserInfo storage user = userInfo[_pid][_user];\r\n        require(user.amount >= _amount, \"withdrawMdxAndToken: not good\");\r\n        updatePool(_pid);\r\n        uint256 pendingAmount = user.amount.mul(pool.accMdxPerShare).div(1e12).sub(user.rewardDebt);\r\n        if (pendingAmount > 0) {\r\n            safeMdxTransfer(_user, pendingAmount);\r\n        }\r\n        if (_amount > 0) {\r\n            uint256 beforeToken = IERC20(multLpToken).balanceOf(address(this));\r\n            IMasterChefHeco(multLpChef).withdraw(poolCorrespond[_pid], _amount);\r\n            uint256 afterToken = IERC20(multLpToken).balanceOf(address(this));\r\n            pool.accMultLpPerShare = pool.accMultLpPerShare.add(afterToken.sub(beforeToken).mul(1e12).div(pool.totalAmount));\r\n            uint256 tokenPending = user.amount.mul(pool.accMultLpPerShare).div(1e12).sub(user.multLpRewardDebt);\r\n            if (tokenPending > 0) {\r\n                IERC20(multLpToken).safeTransfer(_user, tokenPending);\r\n            }\r\n            user.amount = user.amount.sub(_amount);\r\n            pool.totalAmount = pool.totalAmount.sub(_amount);\r\n            pool.lpToken.safeTransfer(_user, _amount);\r\n        }\r\n        user.rewardDebt = user.amount.mul(pool.accMdxPerShare).div(1e12);\r\n        user.multLpRewardDebt = user.amount.mul(pool.accMultLpPerShare).div(1e12);\r\n        emit Withdraw(_user, _pid, _amount);\r\n    }\r\n\r\n    function withdrawMdx(uint256 _pid, uint256 _amount, address _user) private {\r\n        PoolInfo storage pool = poolInfo[_pid];\r\n        UserInfo storage user = userInfo[_pid][_user];\r\n        require(user.amount >= _amount, \"withdrawMdx: not good\");\r\n        updatePool(_pid);\r\n        uint256 pendingAmount = user.amount.mul(pool.accMdxPerShare).div(1e12).sub(user.rewardDebt);\r\n        if (pendingAmount > 0) {\r\n            safeMdxTransfer(_user, pendingAmount);\r\n        }\r\n        if (_amount > 0) {\r\n            user.amount = user.amount.sub(_amount);\r\n            pool.totalAmount = pool.totalAmount.sub(_amount);\r\n            pool.lpToken.safeTransfer(_user, _amount);\r\n        }\r\n        user.rewardDebt = user.amount.mul(pool.accMdxPerShare).div(1e12);\r\n        emit Withdraw(_user, _pid, _amount);\r\n    }\r\n\r\n    // Withdraw without caring about rewards. EMERGENCY ONLY.\r\n    function emergencyWithdraw(uint256 _pid) public notPause {\r\n        PoolInfo storage pool = poolInfo[_pid];\r\n        if (isMultLP(address(pool.lpToken))) {\r\n            emergencyWithdrawMdxAndToken(_pid, msg.sender);\r\n        } else {\r\n            emergencyWithdrawMdx(_pid, msg.sender);\r\n        }\r\n    }\r\n\r\n    function emergencyWithdrawMdxAndToken(uint256 _pid, address _user) private {\r\n        PoolInfo storage pool = poolInfo[_pid];\r\n        UserInfo storage user = userInfo[_pid][_user];\r\n        uint256 amount = user.amount;\r\n        uint256 beforeToken = IERC20(multLpToken).balanceOf(address(this));\r\n        IMasterChefHeco(multLpChef).withdraw(poolCorrespond[_pid], amount);\r\n        uint256 afterToken = IERC20(multLpToken).balanceOf(address(this));\r\n        pool.accMultLpPerShare = pool.accMultLpPerShare.add(afterToken.sub(beforeToken).mul(1e12).div(pool.totalAmount));\r\n        user.amount = 0;\r\n        user.rewardDebt = 0;\r\n        pool.lpToken.safeTransfer(_user, amount);\r\n        pool.totalAmount = pool.totalAmount.sub(amount);\r\n        emit EmergencyWithdraw(_user, _pid, amount);\r\n    }\r\n\r\n    function emergencyWithdrawMdx(uint256 _pid, address _user) private {\r\n        PoolInfo storage pool = poolInfo[_pid];\r\n        UserInfo storage user = userInfo[_pid][_user];\r\n        uint256 amount = user.amount;\r\n        user.amount = 0;\r\n        user.rewardDebt = 0;\r\n        pool.lpToken.safeTransfer(_user, amount);\r\n        pool.totalAmount = pool.totalAmount.sub(amount);\r\n        emit EmergencyWithdraw(_user, _pid, amount);\r\n    }\r\n\r\n    // Safe MDX transfer function, just in case if rounding error causes pool to not have enough MDXs.\r\n    function safeMdxTransfer(address _to, uint256 _amount) internal {\r\n        uint256 mdxBal = mdx.balanceOf(address(this));\r\n        if (_amount > mdxBal) {\r\n            mdx.transfer(_to, mdxBal);\r\n        } else {\r\n            mdx.transfer(_to, _amount);\r\n        }\r\n    }\r\n\r\n    modifier notPause() {\r\n        require(paused == false, \"Mining has been suspended\");\r\n        _;\r\n    }\r\n}\r\n",
  "sourcePath": "D:/Posao - Stefan/Stefan - razno/Blockchain/ElavateFinance/elavate-core/contracts/mdexSwap/heco/HecoPool.sol",
  "compiler": {
    "name": "solc",
    "version": "0.6.12+commit.27d51765.Emscripten.clang"
  },
  "schemaVersion": "3.4.1",
  "updatedAt": "2021-07-30T14:39:35.443Z",
  "networkType": "ethereum",
  "devdoc": {
    "kind": "dev",
    "methods": {
      "owner()": {
        "details": "Returns the address of the current owner."
      },
      "renounceOwnership()": {
        "details": "Leaves the contract without owner. It will not be possible to call `onlyOwner` functions anymore. Can only be called by the current owner. NOTE: Renouncing ownership will leave the contract without an owner, thereby removing any functionality that is only available to the owner."
      },
      "transferOwnership(address)": {
        "details": "Transfers ownership of the contract to a new account (`newOwner`). Can only be called by the current owner."
      }
    },
    "version": 1
  },
  "userdoc": {
    "kind": "user",
    "methods": {},
    "version": 1
  }
}