{
  "contractName": "MdexPair",
  "abi": [
    {
      "inputs": [],
      "stateMutability": "nonpayable",
      "type": "constructor"
    },
    {
      "anonymous": false,
      "inputs": [
        {
          "indexed": true,
          "internalType": "address",
          "name": "owner",
          "type": "address"
        },
        {
          "indexed": true,
          "internalType": "address",
          "name": "spender",
          "type": "address"
        },
        {
          "indexed": false,
          "internalType": "uint256",
          "name": "value",
          "type": "uint256"
        }
      ],
      "name": "Approval",
      "type": "event"
    },
    {
      "anonymous": false,
      "inputs": [
        {
          "indexed": true,
          "internalType": "address",
          "name": "sender",
          "type": "address"
        },
        {
          "indexed": false,
          "internalType": "uint256",
          "name": "amount0",
          "type": "uint256"
        },
        {
          "indexed": false,
          "internalType": "uint256",
          "name": "amount1",
          "type": "uint256"
        },
        {
          "indexed": true,
          "internalType": "address",
          "name": "to",
          "type": "address"
        }
      ],
      "name": "Burn",
      "type": "event"
    },
    {
      "anonymous": false,
      "inputs": [
        {
          "indexed": true,
          "internalType": "address",
          "name": "sender",
          "type": "address"
        },
        {
          "indexed": false,
          "internalType": "uint256",
          "name": "amount0",
          "type": "uint256"
        },
        {
          "indexed": false,
          "internalType": "uint256",
          "name": "amount1",
          "type": "uint256"
        }
      ],
      "name": "Mint",
      "type": "event"
    },
    {
      "anonymous": false,
      "inputs": [
        {
          "indexed": true,
          "internalType": "address",
          "name": "sender",
          "type": "address"
        },
        {
          "indexed": false,
          "internalType": "uint256",
          "name": "amount0In",
          "type": "uint256"
        },
        {
          "indexed": false,
          "internalType": "uint256",
          "name": "amount1In",
          "type": "uint256"
        },
        {
          "indexed": false,
          "internalType": "uint256",
          "name": "amount0Out",
          "type": "uint256"
        },
        {
          "indexed": false,
          "internalType": "uint256",
          "name": "amount1Out",
          "type": "uint256"
        },
        {
          "indexed": true,
          "internalType": "address",
          "name": "to",
          "type": "address"
        }
      ],
      "name": "Swap",
      "type": "event"
    },
    {
      "anonymous": false,
      "inputs": [
        {
          "indexed": false,
          "internalType": "uint112",
          "name": "reserve0",
          "type": "uint112"
        },
        {
          "indexed": false,
          "internalType": "uint112",
          "name": "reserve1",
          "type": "uint112"
        }
      ],
      "name": "Sync",
      "type": "event"
    },
    {
      "anonymous": false,
      "inputs": [
        {
          "indexed": true,
          "internalType": "address",
          "name": "from",
          "type": "address"
        },
        {
          "indexed": true,
          "internalType": "address",
          "name": "to",
          "type": "address"
        },
        {
          "indexed": false,
          "internalType": "uint256",
          "name": "value",
          "type": "uint256"
        }
      ],
      "name": "Transfer",
      "type": "event"
    },
    {
      "inputs": [],
      "name": "DOMAIN_SEPARATOR",
      "outputs": [
        {
          "internalType": "bytes32",
          "name": "",
          "type": "bytes32"
        }
      ],
      "stateMutability": "view",
      "type": "function",
      "constant": true
    },
    {
      "inputs": [],
      "name": "MINIMUM_LIQUIDITY",
      "outputs": [
        {
          "internalType": "uint256",
          "name": "",
          "type": "uint256"
        }
      ],
      "stateMutability": "view",
      "type": "function",
      "constant": true
    },
    {
      "inputs": [],
      "name": "PERMIT_TYPEHASH",
      "outputs": [
        {
          "internalType": "bytes32",
          "name": "",
          "type": "bytes32"
        }
      ],
      "stateMutability": "view",
      "type": "function",
      "constant": true
    },
    {
      "inputs": [
        {
          "internalType": "address",
          "name": "",
          "type": "address"
        },
        {
          "internalType": "address",
          "name": "",
          "type": "address"
        }
      ],
      "name": "allowance",
      "outputs": [
        {
          "internalType": "uint256",
          "name": "",
          "type": "uint256"
        }
      ],
      "stateMutability": "view",
      "type": "function",
      "constant": true
    },
    {
      "inputs": [
        {
          "internalType": "address",
          "name": "",
          "type": "address"
        }
      ],
      "name": "balanceOf",
      "outputs": [
        {
          "internalType": "uint256",
          "name": "",
          "type": "uint256"
        }
      ],
      "stateMutability": "view",
      "type": "function",
      "constant": true
    },
    {
      "inputs": [],
      "name": "decimals",
      "outputs": [
        {
          "internalType": "uint8",
          "name": "",
          "type": "uint8"
        }
      ],
      "stateMutability": "view",
      "type": "function",
      "constant": true
    },
    {
      "inputs": [],
      "name": "factory",
      "outputs": [
        {
          "internalType": "address",
          "name": "",
          "type": "address"
        }
      ],
      "stateMutability": "view",
      "type": "function",
      "constant": true
    },
    {
      "inputs": [],
      "name": "kLast",
      "outputs": [
        {
          "internalType": "uint256",
          "name": "",
          "type": "uint256"
        }
      ],
      "stateMutability": "view",
      "type": "function",
      "constant": true
    },
    {
      "inputs": [],
      "name": "name",
      "outputs": [
        {
          "internalType": "string",
          "name": "",
          "type": "string"
        }
      ],
      "stateMutability": "view",
      "type": "function",
      "constant": true
    },
    {
      "inputs": [
        {
          "internalType": "address",
          "name": "",
          "type": "address"
        }
      ],
      "name": "nonces",
      "outputs": [
        {
          "internalType": "uint256",
          "name": "",
          "type": "uint256"
        }
      ],
      "stateMutability": "view",
      "type": "function",
      "constant": true
    },
    {
      "inputs": [],
      "name": "price0CumulativeLast",
      "outputs": [
        {
          "internalType": "uint256",
          "name": "",
          "type": "uint256"
        }
      ],
      "stateMutability": "view",
      "type": "function",
      "constant": true
    },
    {
      "inputs": [],
      "name": "price1CumulativeLast",
      "outputs": [
        {
          "internalType": "uint256",
          "name": "",
          "type": "uint256"
        }
      ],
      "stateMutability": "view",
      "type": "function",
      "constant": true
    },
    {
      "inputs": [],
      "name": "symbol",
      "outputs": [
        {
          "internalType": "string",
          "name": "",
          "type": "string"
        }
      ],
      "stateMutability": "view",
      "type": "function",
      "constant": true
    },
    {
      "inputs": [],
      "name": "token0",
      "outputs": [
        {
          "internalType": "address",
          "name": "",
          "type": "address"
        }
      ],
      "stateMutability": "view",
      "type": "function",
      "constant": true
    },
    {
      "inputs": [],
      "name": "token1",
      "outputs": [
        {
          "internalType": "address",
          "name": "",
          "type": "address"
        }
      ],
      "stateMutability": "view",
      "type": "function",
      "constant": true
    },
    {
      "inputs": [],
      "name": "totalSupply",
      "outputs": [
        {
          "internalType": "uint256",
          "name": "",
          "type": "uint256"
        }
      ],
      "stateMutability": "view",
      "type": "function",
      "constant": true
    },
    {
      "inputs": [
        {
          "internalType": "address",
          "name": "spender",
          "type": "address"
        },
        {
          "internalType": "uint256",
          "name": "value",
          "type": "uint256"
        }
      ],
      "name": "approve",
      "outputs": [
        {
          "internalType": "bool",
          "name": "",
          "type": "bool"
        }
      ],
      "stateMutability": "nonpayable",
      "type": "function"
    },
    {
      "inputs": [
        {
          "internalType": "address",
          "name": "to",
          "type": "address"
        },
        {
          "internalType": "uint256",
          "name": "value",
          "type": "uint256"
        }
      ],
      "name": "transfer",
      "outputs": [
        {
          "internalType": "bool",
          "name": "",
          "type": "bool"
        }
      ],
      "stateMutability": "nonpayable",
      "type": "function"
    },
    {
      "inputs": [
        {
          "internalType": "address",
          "name": "from",
          "type": "address"
        },
        {
          "internalType": "address",
          "name": "to",
          "type": "address"
        },
        {
          "internalType": "uint256",
          "name": "value",
          "type": "uint256"
        }
      ],
      "name": "transferFrom",
      "outputs": [
        {
          "internalType": "bool",
          "name": "",
          "type": "bool"
        }
      ],
      "stateMutability": "nonpayable",
      "type": "function"
    },
    {
      "inputs": [
        {
          "internalType": "address",
          "name": "owner",
          "type": "address"
        },
        {
          "internalType": "address",
          "name": "spender",
          "type": "address"
        },
        {
          "internalType": "uint256",
          "name": "value",
          "type": "uint256"
        },
        {
          "internalType": "uint256",
          "name": "deadline",
          "type": "uint256"
        },
        {
          "internalType": "uint8",
          "name": "v",
          "type": "uint8"
        },
        {
          "internalType": "bytes32",
          "name": "r",
          "type": "bytes32"
        },
        {
          "internalType": "bytes32",
          "name": "s",
          "type": "bytes32"
        }
      ],
      "name": "permit",
      "outputs": [],
      "stateMutability": "nonpayable",
      "type": "function"
    },
    {
      "inputs": [],
      "name": "getReserves",
      "outputs": [
        {
          "internalType": "uint112",
          "name": "_reserve0",
          "type": "uint112"
        },
        {
          "internalType": "uint112",
          "name": "_reserve1",
          "type": "uint112"
        },
        {
          "internalType": "uint32",
          "name": "_blockTimestampLast",
          "type": "uint32"
        }
      ],
      "stateMutability": "view",
      "type": "function",
      "constant": true
    },
    {
      "inputs": [
        {
          "internalType": "address",
          "name": "_token0",
          "type": "address"
        },
        {
          "internalType": "address",
          "name": "_token1",
          "type": "address"
        }
      ],
      "name": "initialize",
      "outputs": [],
      "stateMutability": "nonpayable",
      "type": "function"
    },
    {
      "inputs": [
        {
          "internalType": "address",
          "name": "to",
          "type": "address"
        }
      ],
      "name": "mint",
      "outputs": [
        {
          "internalType": "uint256",
          "name": "liquidity",
          "type": "uint256"
        }
      ],
      "stateMutability": "nonpayable",
      "type": "function"
    },
    {
      "inputs": [
        {
          "internalType": "address",
          "name": "to",
          "type": "address"
        }
      ],
      "name": "burn",
      "outputs": [
        {
          "internalType": "uint256",
          "name": "amount0",
          "type": "uint256"
        },
        {
          "internalType": "uint256",
          "name": "amount1",
          "type": "uint256"
        }
      ],
      "stateMutability": "nonpayable",
      "type": "function"
    },
    {
      "inputs": [
        {
          "internalType": "uint256",
          "name": "amount0Out",
          "type": "uint256"
        },
        {
          "internalType": "uint256",
          "name": "amount1Out",
          "type": "uint256"
        },
        {
          "internalType": "address",
          "name": "to",
          "type": "address"
        },
        {
          "internalType": "bytes",
          "name": "data",
          "type": "bytes"
        }
      ],
      "name": "swap",
      "outputs": [],
      "stateMutability": "nonpayable",
      "type": "function"
    },
    {
      "inputs": [
        {
          "internalType": "address",
          "name": "to",
          "type": "address"
        }
      ],
      "name": "skim",
      "outputs": [],
      "stateMutability": "nonpayable",
      "type": "function"
    },
    {
      "inputs": [],
      "name": "sync",
      "outputs": [],
      "stateMutability": "nonpayable",
      "type": "function"
    },
    {
      "inputs": [
        {
          "internalType": "address",
          "name": "token",
          "type": "address"
        },
        {
          "internalType": "uint256",
          "name": "baseDecimal",
          "type": "uint256"
        }
      ],
      "name": "price",
      "outputs": [
        {
          "internalType": "uint256",
          "name": "",
          "type": "uint256"
        }
      ],
      "stateMutability": "view",
      "type": "function",
      "constant": true
    }
  ],
  "bytecode": "0x60806040526001600c5534801561001557600080fd5b50600580546001600160a01b03191633179055604080518082018252600e81527f4853776170204c5020546f6b656e00000000000000000000000000000000000060209182015281518083018352600181527f31000000000000000000000000000000000000000000000000000000000000009082015281517f8b73c3c69bb8fe3d512ecc4cf759cc79239f7b179b0ffacaa9a75d522b39400f818301527f87dad95daa867d5e0494900019e929bdf17f889d19a25c4156e2329f51c7c345818401527fc89efdaa54c0f20c7adf612882df0950f5a951637e0307cdcb4c672f298b8bc66060820152601460808201523060a0808301919091528351808303909101815260c090910190925281519101206003556124ab806101386000396000f3fe608060405234801561001057600080fd5b50600436106101c45760003560e01c806370a08231116100f9578063ba9a7a5611610097578063d21220a711610071578063d21220a71461057b578063d505accf14610583578063dd62ed3e146105d4578063fff6cae914610602576101c4565b8063ba9a7a5614610545578063bc25cf771461054d578063c45a015514610573576101c4565b806389afcb44116100d357806389afcb44146104a657806395d89b41146104e5578063a9059cbb146104ed578063ad9b802414610519576101c4565b806370a08231146104525780637464fc3d146104785780637ecebe0014610480576101c4565b806330adf81f11610166578063485cc95511610140578063485cc955146103ee5780635909c0d51461041c5780635a3d5493146104245780636a6278421461042c576101c4565b806330adf81f146103c0578063313ce567146103c85780633644e515146103e6576101c4565b8063095ea7b3116101a2578063095ea7b31461030c5780630dfe16811461034c57806318160ddd1461037057806323b872dd1461038a576101c4565b8063022c0d9f146101c957806306fdde03146102575780630902f1ac146102d4575b600080fd5b610255600480360360808110156101df57600080fd5b8135916020810135916001600160a01b03604083013516919081019060808101606082013564010000000081111561021657600080fd5b82018360208201111561022857600080fd5b8035906020019184600183028401116401000000008311171561024a57600080fd5b50909250905061060a565b005b61025f610b25565b6040805160208082528351818301528351919283929083019185019080838360005b83811015610299578181015183820152602001610281565b50505050905090810190601f1680156102c65780820380516001836020036101000a031916815260200191505b509250505060405180910390f35b6102dc610b4f565b604080516001600160701b03948516815292909316602083015263ffffffff168183015290519081900360600190f35b6103386004803603604081101561032257600080fd5b506001600160a01b038135169060200135610b79565b604080519115158252519081900360200190f35b610354610b90565b604080516001600160a01b039092168252519081900360200190f35b610378610b9f565b60408051918252519081900360200190f35b610338600480360360608110156103a057600080fd5b506001600160a01b03813581169160208101359091169060400135610ba5565b610378610c39565b6103d0610c5d565b6040805160ff9092168252519081900360200190f35b610378610c62565b6102556004803603604081101561040457600080fd5b506001600160a01b0381358116916020013516610c68565b610378610ceb565b610378610cf1565b6103786004803603602081101561044257600080fd5b50356001600160a01b0316610cf7565b6103786004803603602081101561046857600080fd5b50356001600160a01b0316610fd2565b610378610fe4565b6103786004803603602081101561049657600080fd5b50356001600160a01b0316610fea565b6104cc600480360360208110156104bc57600080fd5b50356001600160a01b0316610ffc565b6040805192835260208301919091528051918290030190f35b61025f61138f565b6103386004803603604081101561050357600080fd5b506001600160a01b0381351690602001356113af565b6103786004803603604081101561052f57600080fd5b506001600160a01b0381351690602001356113bc565b610378611494565b6102556004803603602081101561056357600080fd5b50356001600160a01b031661149a565b61035461160b565b61035461161a565b610255600480360360e081101561059957600080fd5b506001600160a01b03813581169160208101359091169060408101359060608101359060ff6080820135169060a08101359060c00135611629565b610378600480360360408110156105ea57600080fd5b506001600160a01b038135811691602001351661182a565b610255611847565b600c54600114610654576040805162461bcd60e51b815260206004820152601060248201526f1359195e14ddd85c0e881313d0d2d15160821b604482015290519081900360640190fd5b6000600c55841515806106675750600084115b6106a25760405162461bcd60e51b81526004018080602001828103825260248152602001806123e76024913960400191505060405180910390fd5b6000806106ad610b4f565b5091509150816001600160701b0316871080156106d25750806001600160701b031686105b610723576040805162461bcd60e51b815260206004820181905260248201527f4d646578537761703a20494e53554646494349454e545f4c4951554944495459604482015290519081900360640190fd5b60065460075460009182916001600160a01b039182169190811690891682148015906107615750806001600160a01b0316896001600160a01b031614155b6107a9576040805162461bcd60e51b81526020600482015260146024820152734d646578537761703a20494e56414c49445f544f60601b604482015290519081900360640190fd5b8a156107ba576107ba828a8d6119a8565b89156107cb576107cb818a8c6119a8565b861561087d57886001600160a01b031663226dc882338d8d8c8c6040518663ffffffff1660e01b815260040180866001600160a01b03168152602001858152602001848152602001806020018281038252848482818152602001925080828437600081840152601f19601f8201169050808301925050509650505050505050600060405180830381600087803b15801561086457600080fd5b505af1158015610878573d6000803e3d6000fd5b505050505b604080516370a0823160e01b815230600482015290516001600160a01b038416916370a08231916024808301926020929190829003018186803b1580156108c357600080fd5b505afa1580156108d7573d6000803e3d6000fd5b505050506040513d60208110156108ed57600080fd5b5051604080516370a0823160e01b815230600482015290519195506001600160a01b038316916370a0823191602480820192602092909190829003018186803b15801561093957600080fd5b505afa15801561094d573d6000803e3d6000fd5b505050506040513d602081101561096357600080fd5b5051925060009150506001600160701b0385168a90038311610986576000610995565b89856001600160701b03160383035b9050600089856001600160701b03160383116109b25760006109c1565b89856001600160701b03160383035b905060008211806109d25750600081115b610a0d5760405162461bcd60e51b815260040180806020018281038252602381526020018061242c6023913960400191505060405180910390fd5b6000610a2f610a1d846003611b42565b610a29876103e8611b42565b90611ba2565b90506000610a41610a1d846003611b42565b9050610a66620f4240610a606001600160701b038b8116908b16611b42565b90611b42565b610a708383611b42565b1015610ab1576040805162461bcd60e51b815260206004820152600b60248201526a4d646578537761703a204b60a81b604482015290519081900360640190fd5b5050610abf84848888611be4565b60408051838152602081018390528082018d9052606081018c905290516001600160a01b038b169133917fd78ad95fa46c994b6551d0da85fc275fe613ce37657fb8d5e3d130840159d8229181900360800190a350506001600c55505050505050505050565b6040518060400160405280600e81526020016d2429bbb0b8102628102a37b5b2b760911b81525081565b6008546001600160701b0380821692600160701b830490911691600160e01b900463ffffffff1690565b6000610b86338484611da2565b5060015b92915050565b6006546001600160a01b031681565b60005481565b6001600160a01b038316600090815260026020908152604080832033845290915281205460001914610c24576001600160a01b0384166000908152600260209081526040808320338452909152902054610bff9083611ba2565b6001600160a01b03851660009081526002602090815260408083203384529091529020555b610c2f848484611e04565b5060019392505050565b7f6e71edae12b1b97f4d1f60370fef10105fa2faae0126114a169c64845d6126c981565b601281565b60035481565b6005546001600160a01b03163314610cbd576040805162461bcd60e51b815260206004820152601360248201527226b232bc29bbb0b81d102327a92124a22222a760691b604482015290519081900360640190fd5b600680546001600160a01b039384166001600160a01b03199182161790915560078054929093169116179055565b60095481565b600a5481565b6000600c54600114610d43576040805162461bcd60e51b815260206004820152601060248201526f1359195e14ddd85c0e881313d0d2d15160821b604482015290519081900360640190fd5b6000600c81905580610d53610b4f565b50600654604080516370a0823160e01b815230600482015290519395509193506000926001600160a01b03909116916370a08231916024808301926020929190829003018186803b158015610da757600080fd5b505afa158015610dbb573d6000803e3d6000fd5b505050506040513d6020811015610dd157600080fd5b5051600754604080516370a0823160e01b815230600482015290519293506000926001600160a01b03909216916370a0823191602480820192602092909190829003018186803b158015610e2457600080fd5b505afa158015610e38573d6000803e3d6000fd5b505050506040513d6020811015610e4e57600080fd5b505190506000610e67836001600160701b038716611ba2565b90506000610e7e836001600160701b038716611ba2565b90506000610e8c8787611eb2565b60005490915080610ec357610eaf6103e8610a29610eaa8787611b42565b61206b565b9850610ebe60006103e86120bd565b610f06565b610f036001600160701b038916610eda8684611b42565b81610ee157fe5b046001600160701b038916610ef68685611b42565b81610efd57fe5b04612147565b98505b60008911610f455760405162461bcd60e51b815260040180806020018281038252602781526020018061244f6027913960400191505060405180910390fd5b610f4f8a8a6120bd565b610f5b86868a8a611be4565b8115610f8557600854610f81906001600160701b0380821691600160701b900416611b42565b600b555b6040805185815260208101859052815133927f4c209b5fc8ad50758f13e2e1088ba56a560dff690a1c6fef26394f4c03821c4f928290030190a250506001600c5550949695505050505050565b60016020526000908152604090205481565b600b5481565b60046020526000908152604090205481565b600080600c54600114611049576040805162461bcd60e51b815260206004820152601060248201526f1359195e14ddd85c0e881313d0d2d15160821b604482015290519081900360640190fd5b6000600c81905580611059610b4f565b50600654600754604080516370a0823160e01b815230600482015290519496509294506001600160a01b039182169391169160009184916370a08231916024808301926020929190829003018186803b1580156110b557600080fd5b505afa1580156110c9573d6000803e3d6000fd5b505050506040513d60208110156110df57600080fd5b5051604080516370a0823160e01b815230600482015290519192506000916001600160a01b038516916370a08231916024808301926020929190829003018186803b15801561112d57600080fd5b505afa158015611141573d6000803e3d6000fd5b505050506040513d602081101561115757600080fd5b5051306000908152600160205260408120549192506111768888611eb2565b600054909150806111878487611b42565b8161118e57fe5b049a508061119c8486611b42565b816111a357fe5b04995060008b1180156111b6575060008a115b6111f15760405162461bcd60e51b81526004018080602001828103825260278152602001806123c06027913960400191505060405180910390fd5b6111fb308461215e565b611206878d8d6119a8565b611211868d8c6119a8565b604080516370a0823160e01b815230600482015290516001600160a01b038916916370a08231916024808301926020929190829003018186803b15801561125757600080fd5b505afa15801561126b573d6000803e3d6000fd5b505050506040513d602081101561128157600080fd5b5051604080516370a0823160e01b815230600482015290519196506001600160a01b038816916370a0823191602480820192602092909190829003018186803b1580156112cd57600080fd5b505afa1580156112e1573d6000803e3d6000fd5b505050506040513d60208110156112f757600080fd5b5051935061130785858b8b611be4565b81156113315760085461132d906001600160701b0380821691600160701b900416611b42565b600b555b604080518c8152602081018c905281516001600160a01b038f169233927fdccd412f0b1252819cb1fd330b93224ca42612892bb3f4f789976e6d81936496929081900390910190a35050505050505050506001600c81905550915091565b604051806040016040528060048152602001630909a88b60e31b81525081565b6000610b86338484611e04565b6006546000906001600160a01b038481169116148015906113eb57506007546001600160a01b03848116911614155b806113ff57506008546001600160701b0316155b8061141a5750600854600160701b90046001600160701b0316155b1561142757506000610b8a565b6006546001600160a01b038481169116141561147057600854611469906001600160701b038082169161146391600160701b9091041685611b42565b906121f0565b9050610b8a565b600854611469906001600160701b03600160701b8204811691611463911685611b42565b6103e881565b600c546001146114e4576040805162461bcd60e51b815260206004820152601060248201526f1359195e14ddd85c0e881313d0d2d15160821b604482015290519081900360640190fd5b6000600c55600654600754600854604080516370a0823160e01b815230600482015290516001600160a01b03948516949093169261158d9285928792611588926001600160701b03169185916370a0823191602480820192602092909190829003018186803b15801561155657600080fd5b505afa15801561156a573d6000803e3d6000fd5b505050506040513d602081101561158057600080fd5b505190611ba2565b6119a8565b61160181846115886008600e9054906101000a90046001600160701b03166001600160701b0316856001600160a01b03166370a08231306040518263ffffffff1660e01b815260040180826001600160a01b0316815260200191505060206040518083038186803b15801561155657600080fd5b50506001600c5550565b6005546001600160a01b031681565b6007546001600160a01b031681565b42841015611672576040805162461bcd60e51b81526020600482015260116024820152701359195e14ddd85c0e8811561412549151607a1b604482015290519081900360640190fd5b6003546001600160a01b0380891660008181526004602090815260408083208054600180820190925582517f6e71edae12b1b97f4d1f60370fef10105fa2faae0126114a169c64845d6126c98186015280840196909652958d166060860152608085018c905260a085019590955260c08085018b90528151808603909101815260e08501825280519083012061190160f01b6101008601526101028501969096526101228085019690965280518085039096018652610142840180825286519683019690962095839052610162840180825286905260ff89166101828501526101a284018890526101c28401879052519193926101e280820193601f1981019281900390910190855afa15801561178d573d6000803e3d6000fd5b5050604051601f1901519150506001600160a01b038116158015906117c35750886001600160a01b0316816001600160a01b0316145b611814576040805162461bcd60e51b815260206004820152601b60248201527f4d646578537761703a20494e56414c49445f5349474e41545552450000000000604482015290519081900360640190fd5b61181f898989611da2565b505050505050505050565b600260209081526000928352604080842090915290825290205481565b600c54600114611891576040805162461bcd60e51b815260206004820152601060248201526f1359195e14ddd85c0e881313d0d2d15160821b604482015290519081900360640190fd5b6000600c55600654604080516370a0823160e01b815230600482015290516119a1926001600160a01b0316916370a08231916024808301926020929190829003018186803b1580156118e257600080fd5b505afa1580156118f6573d6000803e3d6000fd5b505050506040513d602081101561190c57600080fd5b5051600754604080516370a0823160e01b815230600482015290516001600160a01b03909216916370a0823191602480820192602092909190829003018186803b15801561195957600080fd5b505afa15801561196d573d6000803e3d6000fd5b505050506040513d602081101561198357600080fd5b50516008546001600160701b0380821691600160701b900416611be4565b6001600c55565b604080518082018252601981527f7472616e7366657228616464726573732c75696e74323536290000000000000060209182015281516001600160a01b0385811660248301526044808301869052845180840390910181526064909201845291810180516001600160e01b031663a9059cbb60e01b1781529251815160009460609489169392918291908083835b60208310611a555780518252601f199092019160209182019101611a36565b6001836020036101000a0380198251168184511680821785525050505050509050019150506000604051808303816000865af19150503d8060008114611ab7576040519150601f19603f3d011682016040523d82523d6000602084013e611abc565b606091505b5091509150818015611aea575080511580611aea5750808060200190516020811015611ae757600080fd5b50515b611b3b576040805162461bcd60e51b815260206004820152601960248201527f4d646578537761703a205452414e534645525f4641494c454400000000000000604482015290519081900360640190fd5b5050505050565b600082611b5157506000610b8a565b82820282848281611b5e57fe5b0414611b9b5760405162461bcd60e51b815260040180806020018281038252602181526020018061240b6021913960400191505060405180910390fd5b9392505050565b6000611b9b83836040518060400160405280601e81526020017f536166654d6174683a207375627472616374696f6e206f766572666c6f770000815250612232565b6001600160701b038411801590611c0257506001600160701b038311155b611c48576040805162461bcd60e51b81526020600482015260126024820152714d646578537761703a204f564552464c4f5760701b604482015290519081900360640190fd5b60085463ffffffff42811691600160e01b90048116820390811615801590611c7857506001600160701b03841615155b8015611c8c57506001600160701b03831615155b15611cf7578063ffffffff16611cb485611ca5866122c9565b6001600160e01b0316906122db565b600980546001600160e01b03929092169290920201905563ffffffff8116611cdf84611ca5876122c9565b600a80546001600160e01b0392909216929092020190555b600880546dffffffffffffffffffffffffffff19166001600160701b03888116919091176dffffffffffffffffffffffffffff60701b1916600160701b8883168102919091176001600160e01b0316600160e01b63ffffffff871602179283905560408051848416815291909304909116602082015281517f1c411e9a96e071241c2f21f7726b17ae89e3cab4c78be50e062b03a9fffbbad1929181900390910190a1505050505050565b6001600160a01b03808416600081815260026020908152604080832094871680845294825291829020859055815185815291517f8c5be1e5ebec7d5bd14f71427d1e84f3dd0314c0f7b2291e5b200ac8c7c3b9259281900390910190a3505050565b6001600160a01b038316600090815260016020526040902054611e279082611ba2565b6001600160a01b038085166000908152600160205260408082209390935590841681522054611e569082612300565b6001600160a01b0380841660008181526001602090815260409182902094909455805185815290519193928716927fddf252ad1be2c89b69c2b068fc378daa952ba7f163c4a11628f55a4df523b3ef92918290030190a3505050565b600080600560009054906101000a90046001600160a01b03166001600160a01b031663017e7e586040518163ffffffff1660e01b815260040160206040518083038186803b158015611f0357600080fd5b505afa158015611f17573d6000803e3d6000fd5b505050506040513d6020811015611f2d57600080fd5b5051600b546001600160a01b038216158015945091925090612057578015612052576000611f6a610eaa6001600160701b03888116908816611b42565b90506000611f778361206b565b90508082111561204f576000611f99611f908484611ba2565b60005490611b42565b9050600061202b83612025600560009054906101000a90046001600160a01b03166001600160a01b031663deba86e36040518163ffffffff1660e01b815260040160206040518083038186803b158015611ff257600080fd5b505afa158015612006573d6000803e3d6000fd5b505050506040513d602081101561201c57600080fd5b50518790611b42565b90612300565b9050600081838161203857fe5b049050801561204b5761204b87826120bd565b5050505b50505b612063565b8015612063576000600b555b505092915050565b600060038211156120ae575080600160028204015b818110156120a85780915060028182858161209757fe5b0401816120a057fe5b049050612080565b506120b8565b81156120b8575060015b919050565b6000546120ca9082612300565b60009081556001600160a01b0383168152600160205260409020546120ef9082612300565b6001600160a01b03831660008181526001602090815260408083209490945583518581529351929391927fddf252ad1be2c89b69c2b068fc378daa952ba7f163c4a11628f55a4df523b3ef9281900390910190a35050565b6000818311156121575781611b9b565b5090919050565b6001600160a01b0382166000908152600160205260409020546121819082611ba2565b6001600160a01b038316600090815260016020526040812091909155546121a89082611ba2565b60009081556040805183815290516001600160a01b038516917fddf252ad1be2c89b69c2b068fc378daa952ba7f163c4a11628f55a4df523b3ef919081900360200190a35050565b6000611b9b83836040518060400160405280601a81526020017f536166654d6174683a206469766973696f6e206279207a65726f00000000000081525061235a565b600081848411156122c15760405162461bcd60e51b81526004018080602001828103825283818151815260200191508051906020019080838360005b8381101561228657818101518382015260200161226e565b50505050905090810190601f1680156122b35780820380516001836020036101000a031916815260200191505b509250505060405180910390fd5b505050900390565b6001600160701b0316600160701b0290565b60006001600160701b0382166001600160e01b038416816122f857fe5b049392505050565b600082820183811015611b9b576040805162461bcd60e51b815260206004820152601b60248201527f536166654d6174683a206164646974696f6e206f766572666c6f770000000000604482015290519081900360640190fd5b600081836123a95760405162461bcd60e51b815260206004820181815283516024840152835190928392604490910191908501908083836000831561228657818101518382015260200161226e565b5060008385816123b557fe5b049594505050505056fe4d646578537761703a20494e53554646494349454e545f4c49515549444954595f4255524e45444d646578537761703a20494e53554646494349454e545f4f55545055545f414d4f554e54536166654d6174683a206d756c7469706c69636174696f6e206f766572666c6f774d646578537761703a20494e53554646494349454e545f494e5055545f414d4f554e544d646578537761703a20494e53554646494349454e545f4c49515549444954595f4d494e544544a2646970667358221220d4baa0b46a3b9cdee2a442d95b3d9817ea198903cb8555a2735c7292755f651364736f6c634300060c0033",
  "immutableReferences": {},
  "source": "// SPDX-License-Identifier: MIT\r\npragma solidity >=0.5.0 <0.8.0;\r\n\r\nimport \"../library/SafeMath.sol\";\r\nimport \"../interface/IERC20.sol\";\r\nimport \"../interface/IMdexFactory.sol\";\r\nimport \"../interface/IMdexPair.sol\";\r\n\r\ninterface IHswapV2Callee {\r\n    function hswapV2Call(address sender, uint amount0, uint amount1, bytes calldata data) external;\r\n}\r\n\r\ninterface IMdexERC20 {\r\n    event Approval(address indexed owner, address indexed spender, uint value);\r\n    event Transfer(address indexed from, address indexed to, uint value);\r\n\r\n    function name() external pure returns (string memory);\r\n\r\n    function symbol() external pure returns (string memory);\r\n\r\n    function decimals() external pure returns (uint8);\r\n\r\n    function totalSupply() external view returns (uint);\r\n\r\n    function balanceOf(address owner) external view returns (uint);\r\n\r\n    function allowance(address owner, address spender) external view returns (uint);\r\n\r\n    function approve(address spender, uint value) external returns (bool);\r\n\r\n    function transfer(address to, uint value) external returns (bool);\r\n\r\n    function transferFrom(address from, address to, uint value) external returns (bool);\r\n\r\n    function DOMAIN_SEPARATOR() external view returns (bytes32);\r\n\r\n    function PERMIT_TYPEHASH() external pure returns (bytes32);\r\n\r\n    function nonces(address owner) external view returns (uint);\r\n\r\n    function permit(address owner, address spender, uint value, uint deadline, uint8 v, bytes32 r, bytes32 s) external;\r\n}\r\n\r\ncontract MdexPair is IMdexPair {\r\n    using SafeMath for uint;\r\n\r\n    string public override constant name = 'HSwap LP Token';\r\n    string public override constant symbol = 'HMDX';\r\n    uint8 public override constant  decimals = 18;\r\n    uint public override totalSupply;\r\n    mapping(address => uint) public override balanceOf;\r\n    mapping(address => mapping(address => uint)) public override allowance;\r\n\r\n    bytes32 public override DOMAIN_SEPARATOR;\r\n    // keccak256(\"Permit(address owner,address spender,uint256 value,uint256 nonce,uint256 deadline)\");\r\n    bytes32 public override constant PERMIT_TYPEHASH = 0x6e71edae12b1b97f4d1f60370fef10105fa2faae0126114a169c64845d6126c9;\r\n    mapping(address => uint) public override nonces;\r\n\r\n    event Approval(address indexed owner, address indexed spender, uint value);\r\n    event Transfer(address indexed from, address indexed to, uint value);\r\n\r\n    function _mint(address to, uint value) internal {\r\n        totalSupply = totalSupply.add(value);\r\n        balanceOf[to] = balanceOf[to].add(value);\r\n        emit Transfer(address(0), to, value);\r\n    }\r\n\r\n    function _burn(address from, uint value) internal {\r\n        balanceOf[from] = balanceOf[from].sub(value);\r\n        totalSupply = totalSupply.sub(value);\r\n        emit Transfer(from, address(0), value);\r\n    }\r\n\r\n    function _approve(address owner, address spender, uint value) private {\r\n        allowance[owner][spender] = value;\r\n        emit Approval(owner, spender, value);\r\n    }\r\n\r\n    function _transfer(address from, address to, uint value) private {\r\n        balanceOf[from] = balanceOf[from].sub(value);\r\n        balanceOf[to] = balanceOf[to].add(value);\r\n        emit Transfer(from, to, value);\r\n    }\r\n\r\n    function approve(address spender, uint value) external override returns (bool) {\r\n        _approve(msg.sender, spender, value);\r\n        return true;\r\n    }\r\n\r\n    function transfer(address to, uint value) external override returns (bool) {\r\n        _transfer(msg.sender, to, value);\r\n        return true;\r\n    }\r\n\r\n    function transferFrom(address from, address to, uint value) external override returns (bool) {\r\n        if (allowance[from][msg.sender] != uint(- 1)) {\r\n            allowance[from][msg.sender] = allowance[from][msg.sender].sub(value);\r\n        }\r\n        _transfer(from, to, value);\r\n        return true;\r\n    }\r\n\r\n    function permit(address owner, address spender, uint value, uint deadline, uint8 v, bytes32 r, bytes32 s) external override {\r\n        require(deadline >= block.timestamp, 'MdexSwap: EXPIRED');\r\n        bytes32 digest = keccak256(\r\n            abi.encodePacked(\r\n                '\\x19\\x01',\r\n                DOMAIN_SEPARATOR,\r\n                keccak256(abi.encode(PERMIT_TYPEHASH, owner, spender, value, nonces[owner]++, deadline))\r\n            )\r\n        );\r\n        address recoveredAddress = ecrecover(digest, v, r, s);\r\n        require(recoveredAddress != address(0) && recoveredAddress == owner, 'MdexSwap: INVALID_SIGNATURE');\r\n        _approve(owner, spender, value);\r\n    }\r\n\r\n    using SafeMath  for uint;\r\n    using UQ112x112 for uint224;\r\n\r\n    uint public override constant MINIMUM_LIQUIDITY = 10 ** 3;\r\n    bytes4 private constant SELECTOR = bytes4(keccak256(bytes('transfer(address,uint256)')));\r\n\r\n    address public override factory;\r\n    address public override token0;\r\n    address public override token1;\r\n\r\n    uint112 private reserve0;           // uses single storage slot, accessible via getReserves\r\n    uint112 private reserve1;           // uses single storage slot, accessible via getReserves\r\n    uint32  private blockTimestampLast; // uses single storage slot, accessible via getReserves\r\n\r\n    uint public override price0CumulativeLast;\r\n    uint public override price1CumulativeLast;\r\n    uint public override kLast; // reserve0 * reserve1, as of immediately after the most recent liquidity event\r\n\r\n    uint private unlocked = 1;\r\n    modifier lock() {\r\n        require(unlocked == 1, 'MdexSwap: LOCKED');\r\n        unlocked = 0;\r\n        _;\r\n        unlocked = 1;\r\n    }\r\n\r\n    function getReserves() public view override returns (uint112 _reserve0, uint112 _reserve1, uint32 _blockTimestampLast) {\r\n        _reserve0 = reserve0;\r\n        _reserve1 = reserve1;\r\n        _blockTimestampLast = blockTimestampLast;\r\n    }\r\n\r\n    function _safeTransfer(address token, address to, uint value) private {\r\n        (bool success, bytes memory data) = token.call(abi.encodeWithSelector(SELECTOR, to, value));\r\n        require(success && (data.length == 0 || abi.decode(data, (bool))), 'MdexSwap: TRANSFER_FAILED');\r\n    }\r\n\r\n    event Mint(address indexed sender, uint amount0, uint amount1);\r\n    event Burn(address indexed sender, uint amount0, uint amount1, address indexed to);\r\n    event Swap(\r\n        address indexed sender,\r\n        uint amount0In,\r\n        uint amount1In,\r\n        uint amount0Out,\r\n        uint amount1Out,\r\n        address indexed to\r\n    );\r\n    event Sync(uint112 reserve0, uint112 reserve1);\r\n\r\n    constructor() public {\r\n        factory = msg.sender;\r\n\r\n        uint chainId;\r\n        assembly {\r\n            chainId := 20 // Fixed to 20\r\n        }\r\n        DOMAIN_SEPARATOR = keccak256(\r\n            abi.encode(\r\n                keccak256('EIP712Domain(string name,string version,uint256 chainId,address verifyingContract)'),\r\n                keccak256(bytes(name)),\r\n                keccak256(bytes('1')),\r\n                chainId,\r\n                address(this)\r\n            )\r\n        );\r\n    }\r\n\r\n\r\n    // called once by the factory at time of deployment\r\n    function initialize(address _token0, address _token1) external override {\r\n        require(msg.sender == factory, 'MdexSwap: FORBIDDEN');\r\n        // sufficient check\r\n        token0 = _token0;\r\n        token1 = _token1;\r\n    }\r\n\r\n    // update reserves and, on the first call per block, price accumulators\r\n    function _update(uint balance0, uint balance1, uint112 _reserve0, uint112 _reserve1) private {\r\n        require(balance0 <= uint112(- 1) && balance1 <= uint112(- 1), 'MdexSwap: OVERFLOW');\r\n        uint32 blockTimestamp = uint32(block.timestamp % 2 ** 32);\r\n        uint32 timeElapsed = blockTimestamp - blockTimestampLast;\r\n        // overflow is desired\r\n        if (timeElapsed > 0 && _reserve0 != 0 && _reserve1 != 0) {\r\n            // * never overflows, and + overflow is desired\r\n            price0CumulativeLast += uint(UQ112x112.encode(_reserve1).uqdiv(_reserve0)) * timeElapsed;\r\n            price1CumulativeLast += uint(UQ112x112.encode(_reserve0).uqdiv(_reserve1)) * timeElapsed;\r\n        }\r\n        reserve0 = uint112(balance0);\r\n        reserve1 = uint112(balance1);\r\n        blockTimestampLast = blockTimestamp;\r\n        emit Sync(reserve0, reserve1);\r\n    }\r\n\r\n    // if fee is on, mint liquidity equivalent to 1/6th of the growth in sqrt(k)\r\n    function _mintFee(uint112 _reserve0, uint112 _reserve1) private returns (bool feeOn) {\r\n        address feeTo = IMdexFactory(factory).feeTo();\r\n        feeOn = feeTo != address(0);\r\n        uint _kLast = kLast;\r\n        // gas savings\r\n        if (feeOn) {\r\n            if (_kLast != 0) {\r\n                uint rootK = SafeMath.sqrt(uint(_reserve0).mul(_reserve1));\r\n                uint rootKLast = SafeMath.sqrt(_kLast);\r\n                if (rootK > rootKLast) {\r\n                    uint numerator = totalSupply.mul(rootK.sub(rootKLast));\r\n                    uint denominator = rootK.mul(IMdexFactory(factory).feeToRate()).add(rootKLast);\r\n                    uint liquidity = numerator / denominator;\r\n                    if (liquidity > 0) _mint(feeTo, liquidity);\r\n                }\r\n            }\r\n        } else if (_kLast != 0) {\r\n            kLast = 0;\r\n        }\r\n    }\r\n\r\n    // this low-level function should be called from a contract which performs important safety checks\r\n    function mint(address to) external override lock returns (uint liquidity) {\r\n        (uint112 _reserve0, uint112 _reserve1,) = getReserves();\r\n        // gas savings\r\n        uint balance0 = IERC20(token0).balanceOf(address(this));\r\n        uint balance1 = IERC20(token1).balanceOf(address(this));\r\n        uint amount0 = balance0.sub(_reserve0);\r\n        uint amount1 = balance1.sub(_reserve1);\r\n\r\n        bool feeOn = _mintFee(_reserve0, _reserve1);\r\n        uint _totalSupply = totalSupply;\r\n        // gas savings, must be defined here since totalSupply can update in _mintFee\r\n        if (_totalSupply == 0) {\r\n            liquidity = SafeMath.sqrt(amount0.mul(amount1)).sub(MINIMUM_LIQUIDITY);\r\n            _mint(address(0), MINIMUM_LIQUIDITY);\r\n            // permanently lock the first MINIMUM_LIQUIDITY tokens\r\n        } else {\r\n            liquidity = SafeMath.min(amount0.mul(_totalSupply) / _reserve0, amount1.mul(_totalSupply) / _reserve1);\r\n        }\r\n        require(liquidity > 0, 'MdexSwap: INSUFFICIENT_LIQUIDITY_MINTED');\r\n        _mint(to, liquidity);\r\n\r\n        _update(balance0, balance1, _reserve0, _reserve1);\r\n        if (feeOn) kLast = uint(reserve0).mul(reserve1);\r\n        // reserve0 and reserve1 are up-to-date\r\n        emit Mint(msg.sender, amount0, amount1);\r\n    }\r\n\r\n    // this low-level function should be called from a contract which performs important safety checks\r\n    function burn(address to) external override lock returns (uint amount0, uint amount1) {\r\n        (uint112 _reserve0, uint112 _reserve1,) = getReserves();\r\n        // gas savings\r\n        address _token0 = token0;\r\n        // gas savings\r\n        address _token1 = token1;\r\n        // gas savings\r\n        uint balance0 = IERC20(_token0).balanceOf(address(this));\r\n        uint balance1 = IERC20(_token1).balanceOf(address(this));\r\n        uint liquidity = balanceOf[address(this)];\r\n\r\n        bool feeOn = _mintFee(_reserve0, _reserve1);\r\n        uint _totalSupply = totalSupply;\r\n        // gas savings, must be defined here since totalSupply can update in _mintFee\r\n        amount0 = liquidity.mul(balance0) / _totalSupply;\r\n        // using balances ensures pro-rata distribution\r\n        amount1 = liquidity.mul(balance1) / _totalSupply;\r\n        // using balances ensures pro-rata distribution\r\n        require(amount0 > 0 && amount1 > 0, 'MdexSwap: INSUFFICIENT_LIQUIDITY_BURNED');\r\n        _burn(address(this), liquidity);\r\n        _safeTransfer(_token0, to, amount0);\r\n        _safeTransfer(_token1, to, amount1);\r\n        balance0 = IERC20(_token0).balanceOf(address(this));\r\n        balance1 = IERC20(_token1).balanceOf(address(this));\r\n\r\n        _update(balance0, balance1, _reserve0, _reserve1);\r\n        if (feeOn) kLast = uint(reserve0).mul(reserve1);\r\n        // reserve0 and reserve1 are up-to-date\r\n        emit Burn(msg.sender, amount0, amount1, to);\r\n    }\r\n\r\n    // this low-level function should be called from a contract which performs important safety checks\r\n    function swap(uint amount0Out, uint amount1Out, address to, bytes calldata data) external override lock {\r\n        require(amount0Out > 0 || amount1Out > 0, 'MdexSwap: INSUFFICIENT_OUTPUT_AMOUNT');\r\n        (uint112 _reserve0, uint112 _reserve1,) = getReserves();\r\n        // gas savings\r\n        require(amount0Out < _reserve0 && amount1Out < _reserve1, 'MdexSwap: INSUFFICIENT_LIQUIDITY');\r\n\r\n        uint balance0;\r\n        uint balance1;\r\n        {// scope for _token{0,1}, avoids stack too deep errors\r\n            address _token0 = token0;\r\n            address _token1 = token1;\r\n            require(to != _token0 && to != _token1, 'MdexSwap: INVALID_TO');\r\n            if (amount0Out > 0) _safeTransfer(_token0, to, amount0Out);\r\n            // optimistically transfer tokens\r\n            if (amount1Out > 0) _safeTransfer(_token1, to, amount1Out);\r\n            // optimistically transfer tokens\r\n            if (data.length > 0) IHswapV2Callee(to).hswapV2Call(msg.sender, amount0Out, amount1Out, data);\r\n            balance0 = IERC20(_token0).balanceOf(address(this));\r\n            balance1 = IERC20(_token1).balanceOf(address(this));\r\n        }\r\n        uint amount0In = balance0 > _reserve0 - amount0Out ? balance0 - (_reserve0 - amount0Out) : 0;\r\n        uint amount1In = balance1 > _reserve1 - amount1Out ? balance1 - (_reserve1 - amount1Out) : 0;\r\n        require(amount0In > 0 || amount1In > 0, 'MdexSwap: INSUFFICIENT_INPUT_AMOUNT');\r\n        {// scope for reserve{0,1}Adjusted, avoids stack too deep errors\r\n            uint balance0Adjusted = balance0.mul(1000).sub(amount0In.mul(3));\r\n            uint balance1Adjusted = balance1.mul(1000).sub(amount1In.mul(3));\r\n            require(balance0Adjusted.mul(balance1Adjusted) >= uint(_reserve0).mul(_reserve1).mul(1000 ** 2), 'MdexSwap: K');\r\n        }\r\n\r\n        _update(balance0, balance1, _reserve0, _reserve1);\r\n        emit Swap(msg.sender, amount0In, amount1In, amount0Out, amount1Out, to);\r\n    }\r\n\r\n    // force balances to match reserves\r\n    function skim(address to) external override lock {\r\n        address _token0 = token0;\r\n        // gas savings\r\n        address _token1 = token1;\r\n        // gas savings\r\n        _safeTransfer(_token0, to, IERC20(_token0).balanceOf(address(this)).sub(reserve0));\r\n        _safeTransfer(_token1, to, IERC20(_token1).balanceOf(address(this)).sub(reserve1));\r\n    }\r\n\r\n    // force reserves to match balances\r\n    function sync() external override lock {\r\n        _update(IERC20(token0).balanceOf(address(this)), IERC20(token1).balanceOf(address(this)), reserve0, reserve1);\r\n    }\r\n\r\n    function price(address token, uint256 baseDecimal) public view override returns (uint256) {\r\n        if ((token0 != token && token1 != token) || 0 == reserve0 || 0 == reserve1) {\r\n            return 0;\r\n        }\r\n        if (token0 == token) {\r\n            return uint256(reserve1).mul(baseDecimal).div(uint256(reserve0));\r\n        } else {\r\n            return uint256(reserve0).mul(baseDecimal).div(uint256(reserve1));\r\n        }\r\n    }\r\n\r\n}\r\n\r\ncontract MdexFactory is IMdexFactory {\r\n    using SafeMath for uint256;\r\n    address public override feeTo;\r\n    address public override feeToSetter;\r\n    uint256 public override feeToRate;\r\n    bytes32 public initCodeHash;\r\n\r\n    mapping(address => mapping(address => address)) public override getPair;\r\n    address[] public override allPairs;\r\n\r\n    event PairCreated(address indexed token0, address indexed token1, address pair, uint);\r\n\r\n    constructor(address _feeToSetter) public {\r\n        feeToSetter = _feeToSetter;\r\n        initCodeHash = keccak256(abi.encodePacked(type(MdexPair).creationCode));\r\n    }\r\n\r\n    function allPairsLength() external view override returns (uint) {\r\n        return allPairs.length;\r\n    }\r\n\r\n    function createPair(address tokenA, address tokenB) external override returns (address pair) {\r\n        require(tokenA != tokenB, 'MdexSwapFactory: IDENTICAL_ADDRESSES');\r\n        (address token0, address token1) = tokenA < tokenB ? (tokenA, tokenB) : (tokenB, tokenA);\r\n        require(token0 != address(0), 'MdexSwapFactory: ZERO_ADDRESS');\r\n        require(getPair[token0][token1] == address(0), 'MdexSwapFactory: PAIR_EXISTS');\r\n        // single check is sufficient\r\n        bytes memory bytecode = type(MdexPair).creationCode;\r\n        bytes32 salt = keccak256(abi.encodePacked(token0, token1));\r\n        assembly {\r\n            pair := create2(0, add(bytecode, 32), mload(bytecode), salt)\r\n        }\r\n        IMdexPair(pair).initialize(token0, token1);\r\n        getPair[token0][token1] = pair;\r\n        getPair[token1][token0] = pair;\r\n        // populate mapping in the reverse direction\r\n        allPairs.push(pair);\r\n        emit PairCreated(token0, token1, pair, allPairs.length);\r\n    }\r\n\r\n    function setFeeTo(address _feeTo) external override {\r\n        require(msg.sender == feeToSetter, 'MdexSwapFactory: FORBIDDEN');\r\n        feeTo = _feeTo;\r\n    }\r\n\r\n    function setFeeToSetter(address _feeToSetter) external override {\r\n        require(msg.sender == feeToSetter, 'MdexSwapFactory: FORBIDDEN');\r\n        require(_feeToSetter != address(0), \"MdexSwapFactory: FeeToSetter is zero address\");\r\n        feeToSetter = _feeToSetter;\r\n    }\r\n\r\n    function setFeeToRate(uint256 _rate) external override {\r\n        require(msg.sender == feeToSetter, 'MdexSwapFactory: FORBIDDEN');\r\n        require(_rate > 0, \"MdexSwapFactory: FEE_TO_RATE_OVERFLOW\");\r\n        feeToRate = _rate.sub(1);\r\n    }\r\n\r\n    // returns sorted token addresses, used to handle return values from pairs sorted in this order\r\n    function sortTokens(address tokenA, address tokenB) public pure override returns (address token0, address token1) {\r\n        require(tokenA != tokenB, 'MdexSwapFactory: IDENTICAL_ADDRESSES');\r\n        (token0, token1) = tokenA < tokenB ? (tokenA, tokenB) : (tokenB, tokenA);\r\n        require(token0 != address(0), 'MdexSwapFactory: ZERO_ADDRESS');\r\n    }\r\n\r\n    // calculates the CREATE2 address for a pair without making any external calls\r\n    function pairFor(address tokenA, address tokenB) public view override returns (address pair) {\r\n        (address token0, address token1) = sortTokens(tokenA, tokenB);\r\n        pair = address(uint(keccak256(abi.encodePacked(\r\n                hex'ff',\r\n                address(this),\r\n                keccak256(abi.encodePacked(token0, token1)),\r\n                initCodeHash\r\n            ))));\r\n    }\r\n    // fetches and sorts the reserves for a pair\r\n    function getReserves(address tokenA, address tokenB) public view override returns (uint reserveA, uint reserveB) {\r\n        (address token0,) = sortTokens(tokenA, tokenB);\r\n        (uint reserve0, uint reserve1,) = IMdexPair(pairFor(tokenA, tokenB)).getReserves();\r\n        (reserveA, reserveB) = tokenA == token0 ? (reserve0, reserve1) : (reserve1, reserve0);\r\n    }\r\n\r\n    // given some amount of an asset and pair reserves, returns an equivalent amount of the other asset\r\n    function quote(uint amountA, uint reserveA, uint reserveB) public pure override returns (uint amountB) {\r\n        require(amountA > 0, 'MdexSwapFactory: INSUFFICIENT_AMOUNT');\r\n        require(reserveA > 0 && reserveB > 0, 'MdexSwapFactory: INSUFFICIENT_LIQUIDITY');\r\n        amountB = amountA.mul(reserveB) / reserveA;\r\n    }\r\n\r\n    // given an input amount of an asset and pair reserves, returns the maximum output amount of the other asset\r\n    function getAmountOut(uint amountIn, uint reserveIn, uint reserveOut) public view override returns (uint amountOut) {\r\n        require(amountIn > 0, 'MdexSwapFactory: INSUFFICIENT_INPUT_AMOUNT');\r\n        require(reserveIn > 0 && reserveOut > 0, 'MdexSwapFactory: INSUFFICIENT_LIQUIDITY');\r\n        uint amountInWithFee = amountIn.mul(997);\r\n        uint numerator = amountInWithFee.mul(reserveOut);\r\n        uint denominator = reserveIn.mul(1000).add(amountInWithFee);\r\n        amountOut = numerator / denominator;\r\n    }\r\n\r\n    // given an output amount of an asset and pair reserves, returns a required input amount of the other asset\r\n    function getAmountIn(uint amountOut, uint reserveIn, uint reserveOut) public view override returns (uint amountIn) {\r\n        require(amountOut > 0, 'MdexSwapFactory: INSUFFICIENT_OUTPUT_AMOUNT');\r\n        require(reserveIn > 0 && reserveOut > 0, 'MdexSwapFactory: INSUFFICIENT_LIQUIDITY');\r\n        uint numerator = reserveIn.mul(amountOut).mul(1000);\r\n        uint denominator = reserveOut.sub(amountOut).mul(997);\r\n        amountIn = (numerator / denominator).add(1);\r\n    }\r\n\r\n    // performs chained getAmountOut calculations on any number of pairs\r\n    function getAmountsOut(uint amountIn, address[] memory path) public view override returns (uint[] memory amounts) {\r\n        require(path.length >= 2, 'MdexSwapFactory: INVALID_PATH');\r\n        amounts = new uint[](path.length);\r\n        amounts[0] = amountIn;\r\n        for (uint i; i < path.length - 1; i++) {\r\n            (uint reserveIn, uint reserveOut) = getReserves(path[i], path[i + 1]);\r\n            amounts[i + 1] = getAmountOut(amounts[i], reserveIn, reserveOut);\r\n        }\r\n    }\r\n\r\n    // performs chained getAmountIn calculations on any number of pairs\r\n    function getAmountsIn(uint amountOut, address[] memory path) public view override returns (uint[] memory amounts) {\r\n        require(path.length >= 2, 'MdexSwapFactory: INVALID_PATH');\r\n        amounts = new uint[](path.length);\r\n        amounts[amounts.length - 1] = amountOut;\r\n        for (uint i = path.length - 1; i > 0; i--) {\r\n            (uint reserveIn, uint reserveOut) = getReserves(path[i - 1], path[i]);\r\n            amounts[i - 1] = getAmountIn(amounts[i], reserveIn, reserveOut);\r\n        }\r\n    }\r\n}\r\n\r\nlibrary UQ112x112 {\r\n    uint224 constant Q112 = 2 ** 112;\r\n\r\n    // encode a uint112 as a UQ112x112\r\n    function encode(uint112 y) internal pure returns (uint224 z) {\r\n        z = uint224(y) * Q112;\r\n        // never overflows\r\n    }\r\n\r\n    // divide a UQ112x112 by a uint112, returning a UQ112x112\r\n    function uqdiv(uint224 x, uint112 y) internal pure returns (uint224 z) {\r\n        z = x / uint224(y);\r\n    }\r\n}\r\n",
  "sourcePath": "D:/Posao - Stefan/Stefan - razno/Blockchain/ElavateFinance/elavate-core/contracts/mdexSwap/heco/Factory.sol",
  "compiler": {
    "name": "solc",
    "version": "0.6.12+commit.27d51765.Emscripten.clang"
  },
  "schemaVersion": "3.4.1",
  "updatedAt": "2021-07-17T12:43:07.468Z",
  "networkType": "ethereum",
  "devdoc": {
    "kind": "dev",
    "methods": {},
    "version": 1
  },
  "userdoc": {
    "kind": "user",
    "methods": {},
    "version": 1
  }
}