{
  "contractName": "Oracle",
  "abi": [
    {
      "inputs": [
        {
          "internalType": "address",
          "name": "factory_",
          "type": "address"
        }
      ],
      "stateMutability": "nonpayable",
      "type": "constructor"
    },
    {
      "inputs": [],
      "name": "CYCLE",
      "outputs": [
        {
          "internalType": "uint256",
          "name": "",
          "type": "uint256"
        }
      ],
      "stateMutability": "view",
      "type": "function"
    },
    {
      "inputs": [],
      "name": "factory",
      "outputs": [
        {
          "internalType": "address",
          "name": "",
          "type": "address"
        }
      ],
      "stateMutability": "view",
      "type": "function"
    },
    {
      "inputs": [
        {
          "internalType": "address",
          "name": "",
          "type": "address"
        }
      ],
      "name": "pairObservations",
      "outputs": [
        {
          "internalType": "uint256",
          "name": "timestamp",
          "type": "uint256"
        },
        {
          "internalType": "uint256",
          "name": "price0Cumulative",
          "type": "uint256"
        },
        {
          "internalType": "uint256",
          "name": "price1Cumulative",
          "type": "uint256"
        }
      ],
      "stateMutability": "view",
      "type": "function"
    },
    {
      "inputs": [
        {
          "internalType": "address",
          "name": "tokenA",
          "type": "address"
        },
        {
          "internalType": "address",
          "name": "tokenB",
          "type": "address"
        }
      ],
      "name": "update",
      "outputs": [],
      "stateMutability": "nonpayable",
      "type": "function"
    },
    {
      "inputs": [
        {
          "internalType": "address",
          "name": "tokenIn",
          "type": "address"
        },
        {
          "internalType": "uint256",
          "name": "amountIn",
          "type": "uint256"
        },
        {
          "internalType": "address",
          "name": "tokenOut",
          "type": "address"
        }
      ],
      "name": "consult",
      "outputs": [
        {
          "internalType": "uint256",
          "name": "amountOut",
          "type": "uint256"
        }
      ],
      "stateMutability": "view",
      "type": "function"
    }
  ],
  "bytecode": "0x60a060405234801561001057600080fd5b5060405161090d38038061090d8339818101604052602081101561003357600080fd5b5051606081901b6001600160601b0319166080526001600160a01b03166108976100766000398061016a5280610246528061033f528061036552506108976000f3fe608060405234801561001057600080fd5b50600436106100575760003560e01c8063402e1abf1461005c5780638c86f1e4146100a05780639e8d48d0146100e8578063c45a0155146100f0578063c640752d14610114575b600080fd5b6100826004803603602081101561007257600080fd5b50356001600160a01b0316610144565b60408051938452602084019290925282820152519081900360600190f35b6100d6600480360360608110156100b657600080fd5b506001600160a01b03813581169160208101359160409091013516610165565b60408051918252519081900360200190f35b6100d6610337565b6100f861033d565b604080516001600160a01b039092168252519081900360200190f35b6101426004803603604081101561012a57600080fd5b506001600160a01b0381358116916020013516610361565b005b60006020819052908152604090208054600182015460029092015490919083565b6000807f00000000000000000000000000000000000000000000000000000000000000006001600160a01b03166396ed28f986856040518363ffffffff1660e01b815260040180836001600160a01b03168152602001826001600160a01b031681526020019250505060206040518083038186803b1580156101e657600080fd5b505afa1580156101fa573d6000803e3d6000fd5b505050506040513d602081101561021057600080fd5b50516001600160a01b03811660009081526020819052604081208054929350914203908061023d856104ad565b509150915060007f00000000000000000000000000000000000000000000000000000000000000006001600160a01b031663544caa568b8a6040518363ffffffff1660e01b815260040180836001600160a01b03168152602001826001600160a01b0316815260200192505050604080518083038186803b1580156102c157600080fd5b505afa1580156102d5573d6000803e3d6000fd5b505050506040513d60408110156102eb57600080fd5b505190506001600160a01b03808216908b16141561032057610313856001015484868c61067c565b9650505050505050610330565b610313856002015483868c61067c565b9392505050565b61070881565b7f000000000000000000000000000000000000000000000000000000000000000081565b60007f00000000000000000000000000000000000000000000000000000000000000006001600160a01b03166396ed28f984846040518363ffffffff1660e01b815260040180836001600160a01b03168152602001826001600160a01b031681526020019250505060206040518083038186803b1580156103e157600080fd5b505afa1580156103f5573d6000803e3d6000fd5b505050506040513d602081101561040b57600080fd5b50516001600160a01b03811660009081526020819052604090208054919250904203610708811015610484576040805162461bcd60e51b815260206004820152601e60248201527f4d4445584f7261636c653a20504552494f445f4e4f545f454c41505345440000604482015290519081900360640190fd5b600080610490856104ad565b504286556001860191909155600290940193909355505050505050565b60008060006104ba6106da565b9050836001600160a01b0316635909c0d56040518163ffffffff1660e01b815260040160206040518083038186803b1580156104f557600080fd5b505afa158015610509573d6000803e3d6000fd5b505050506040513d602081101561051f57600080fd5b505160408051635a3d549360e01b815290519194506001600160a01b03861691635a3d549391600480820192602092909190829003018186803b15801561056557600080fd5b505afa158015610579573d6000803e3d6000fd5b505050506040513d602081101561058f57600080fd5b505160408051630240bc6b60e21b81529051919350600091829182916001600160a01b03891691630902f1ac916004808301926060929190829003018186803b1580156105db57600080fd5b505afa1580156105ef573d6000803e3d6000fd5b505050506040513d606081101561060557600080fd5b5080516020820151604090920151909450909250905063ffffffff808216908516146106725780840363ffffffff811661063f84866106e4565b516001600160e01b031602969096019563ffffffff811661066085856106e4565b516001600160e01b0316029590950194505b5050509193909250565b6000610686610819565b6040518060200160405280858888038161069c57fe5b046001600160e01b0316905290506106bc6106b78285610794565b610812565b71ffffffffffffffffffffffffffffffffffff169695505050505050565b63ffffffff421690565b6106ec610819565b6000826001600160701b03161161074a576040805162461bcd60e51b815260206004820152601760248201527f4669786564506f696e743a204449565f42595f5a45524f000000000000000000604482015290519081900360640190fd5b6040805160208101909152806001600160701b0384166dffffffffffffffffffffffffffff60701b607087901b168161077f57fe5b046001600160e01b0316815250905092915050565b61079c61082b565b60008215806107c257505082516001600160e01b0316828102908382816107bf57fe5b04145b6107fd5760405162461bcd60e51b815260040180806020018281038252602381526020018061083f6023913960400191505060405180910390fd5b60408051602081019091529081529392505050565b5160701c90565b60408051602081019091526000815290565b604051806020016040528060008152509056fe4669786564506f696e743a204d554c5449504c49434154494f4e5f4f564552464c4f57a26469706673582212202f67d0525314562328787a907e11f4b90ce530c5d792c2cafdffe0877d51802864736f6c634300060c0033",
  "immutableReferences": {
    "17551": [
      {
        "length": 32,
        "start": 362
      },
      {
        "length": 32,
        "start": 582
      },
      {
        "length": 32,
        "start": 831
      },
      {
        "length": 32,
        "start": 869
      }
    ]
  },
  "source": "// SPDX-License-Identifier: MIT\npragma solidity >=0.4.22 <0.8.0;\n\nimport \"../interface/IMdexFactory.sol\";\nimport \"../interface/IMdexPair.sol\";\n\nlibrary SafeMath {\n    function add(uint x, uint y) internal pure returns (uint z) {\n        require((z = x + y) >= x, 'ds-math-add-overflow');\n    }\n\n    function sub(uint x, uint y) internal pure returns (uint z) {\n        require((z = x - y) <= x, 'ds-math-sub-underflow');\n    }\n\n    function mul(uint x, uint y) internal pure returns (uint z) {\n        require(y == 0 || (z = x * y) / y == x, 'ds-math-mul-overflow');\n    }\n}\n\nlibrary FixedPoint {\n    // range: [0, 2**112 - 1]\n    // resolution: 1 / 2**112\n    struct uq112x112 {\n        uint224 _x;\n    }\n\n    // range: [0, 2**144 - 1]\n    // resolution: 1 / 2**112\n    struct uq144x112 {\n        uint _x;\n    }\n\n    uint8 private constant RESOLUTION = 112;\n\n    // encode a uint112 as a UQ112x112\n    function encode(uint112 x) internal pure returns (uq112x112 memory) {\n        return uq112x112(uint224(x) << RESOLUTION);\n    }\n\n    // encodes a uint144 as a UQ144x112\n    function encode144(uint144 x) internal pure returns (uq144x112 memory) {\n        return uq144x112(uint256(x) << RESOLUTION);\n    }\n\n    // divide a UQ112x112 by a uint112, returning a UQ112x112\n    function div(uq112x112 memory self, uint112 x) internal pure returns (uq112x112 memory) {\n        require(x != 0, 'FixedPoint: DIV_BY_ZERO');\n        return uq112x112(self._x / uint224(x));\n    }\n\n    // multiply a UQ112x112 by a uint, returning a UQ144x112\n    // reverts on overflow\n    function mul(uq112x112 memory self, uint y) internal pure returns (uq144x112 memory) {\n        uint z;\n        require(y == 0 || (z = uint(self._x) * y) / y == uint(self._x), \"FixedPoint: MULTIPLICATION_OVERFLOW\");\n        return uq144x112(z);\n    }\n\n    // returns a UQ112x112 which represents the ratio of the numerator to the denominator\n    // equivalent to encode(numerator).div(denominator)\n    function fraction(uint112 numerator, uint112 denominator) internal pure returns (uq112x112 memory) {\n        require(denominator > 0, \"FixedPoint: DIV_BY_ZERO\");\n        return uq112x112((uint224(numerator) << RESOLUTION) / denominator);\n    }\n\n    // decode a UQ112x112 into a uint112 by truncating after the radix point\n    function decode(uq112x112 memory self) internal pure returns (uint112) {\n        return uint112(self._x >> RESOLUTION);\n    }\n\n    // decode a UQ144x112 into a uint144 by truncating after the radix point\n    function decode144(uq144x112 memory self) internal pure returns (uint144) {\n        return uint144(self._x >> RESOLUTION);\n    }\n}\n\nlibrary MdexOracleLibrary {\n    using FixedPoint for *;\n\n    // helper function that returns the current block timestamp within the range of uint32, i.e. [0, 2**32 - 1]\n    function currentBlockTimestamp() internal view returns (uint32) {\n        return uint32(block.timestamp % 2 ** 32);\n    }\n\n    // produces the cumulative price using counterfactuals to save gas and avoid a call to sync.\n    function currentCumulativePrices(\n        address pair\n    ) internal view returns (uint price0Cumulative, uint price1Cumulative, uint32 blockTimestamp) {\n        blockTimestamp = currentBlockTimestamp();\n        price0Cumulative = IMdexPair(pair).price0CumulativeLast();\n        price1Cumulative = IMdexPair(pair).price1CumulativeLast();\n\n        // if time has elapsed since the last update on the pair, mock the accumulated price values\n        (uint112 reserve0, uint112 reserve1, uint32 blockTimestampLast) = IMdexPair(pair).getReserves();\n        if (blockTimestampLast != blockTimestamp) {\n            // subtraction overflow is desired\n            uint32 timeElapsed = blockTimestamp - blockTimestampLast;\n            // addition overflow is desired\n            // counterfactual\n            price0Cumulative += uint(FixedPoint.fraction(reserve1, reserve0)._x) * timeElapsed;\n            // counterfactual\n            price1Cumulative += uint(FixedPoint.fraction(reserve0, reserve1)._x) * timeElapsed;\n        }\n    }\n}\n\ncontract Oracle {\n    using FixedPoint for *;\n    using SafeMath for uint;\n\n    struct Observation {\n        uint timestamp;\n        uint price0Cumulative;\n        uint price1Cumulative;\n    }\n\n    address public immutable factory;\n    uint public constant CYCLE = 30 minutes;\n\n    // mapping from pair address to a list of price observations of that pair\n    mapping(address => Observation) public pairObservations;\n\n    constructor(address factory_) public {\n        factory = factory_;\n    }\n\n\n    function update(address tokenA, address tokenB) external {\n        address pair = IMdexFactory(factory).pairFor(tokenA, tokenB);\n\n        Observation storage observation = pairObservations[pair];\n        uint timeElapsed = block.timestamp - observation.timestamp;\n        require(timeElapsed >= CYCLE, 'MDEXOracle: PERIOD_NOT_ELAPSED');\n        (uint price0Cumulative, uint price1Cumulative,) = MdexOracleLibrary.currentCumulativePrices(pair);\n        observation.timestamp = block.timestamp;\n        observation.price0Cumulative = price0Cumulative;\n        observation.price1Cumulative = price1Cumulative;\n    }\n\n\n    function computeAmountOut(\n        uint priceCumulativeStart, uint priceCumulativeEnd,\n        uint timeElapsed, uint amountIn\n    ) private pure returns (uint amountOut) {\n        // overflow is desired.\n        FixedPoint.uq112x112 memory priceAverage = FixedPoint.uq112x112(\n            uint224((priceCumulativeEnd - priceCumulativeStart) / timeElapsed)\n        );\n        amountOut = priceAverage.mul(amountIn).decode144();\n    }\n\n\n    function consult(address tokenIn, uint amountIn, address tokenOut) external view returns (uint amountOut) {\n        address pair = IMdexFactory(factory).pairFor(tokenIn, tokenOut);\n        Observation storage observation = pairObservations[pair];\n        uint timeElapsed = block.timestamp - observation.timestamp;\n        (uint price0Cumulative, uint price1Cumulative,) = MdexOracleLibrary.currentCumulativePrices(pair);\n        (address token0,) = IMdexFactory(factory).sortTokens(tokenIn, tokenOut);\n\n        if (token0 == tokenIn) {\n            return computeAmountOut(observation.price0Cumulative, price0Cumulative, timeElapsed, amountIn);\n        } else {\n            return computeAmountOut(observation.price1Cumulative, price1Cumulative, timeElapsed, amountIn);\n        }\n    }\n}\n",
  "sourcePath": "D:/Posao - Stefan/Stefan - razno/Blockchain/ElavateFinance/elavate-core-v1/contracts/mdexSwap/oracle/Oracle.sol",
  "compiler": {
    "name": "solc",
    "version": "0.6.12+commit.27d51765.Emscripten.clang"
  },
  "schemaVersion": "3.4.1",
  "updatedAt": "2021-07-16T11:08:48.490Z",
  "devdoc": {
    "kind": "dev",
    "methods": {},
    "version": 1
  },
  "userdoc": {
    "kind": "user",
    "methods": {},
    "version": 1
  }
}