{
  "contractName": "Repurchase",
  "abi": [
    {
      "inputs": [
        {
          "internalType": "uint256",
          "name": "_amount",
          "type": "uint256"
        },
        {
          "internalType": "address",
          "name": "_emergencyAddress",
          "type": "address"
        }
      ],
      "stateMutability": "nonpayable",
      "type": "constructor"
    },
    {
      "anonymous": false,
      "inputs": [
        {
          "indexed": true,
          "internalType": "address",
          "name": "previousOwner",
          "type": "address"
        },
        {
          "indexed": true,
          "internalType": "address",
          "name": "newOwner",
          "type": "address"
        }
      ],
      "name": "OwnershipTransferred",
      "type": "event"
    },
    {
      "inputs": [],
      "name": "MDX",
      "outputs": [
        {
          "internalType": "address",
          "name": "",
          "type": "address"
        }
      ],
      "stateMutability": "view",
      "type": "function"
    },
    {
      "inputs": [],
      "name": "MDX_USDT",
      "outputs": [
        {
          "internalType": "address",
          "name": "",
          "type": "address"
        }
      ],
      "stateMutability": "view",
      "type": "function"
    },
    {
      "inputs": [],
      "name": "USDT",
      "outputs": [
        {
          "internalType": "address",
          "name": "",
          "type": "address"
        }
      ],
      "stateMutability": "view",
      "type": "function"
    },
    {
      "inputs": [],
      "name": "amountIn",
      "outputs": [
        {
          "internalType": "uint256",
          "name": "",
          "type": "uint256"
        }
      ],
      "stateMutability": "view",
      "type": "function"
    },
    {
      "inputs": [],
      "name": "destroyAddress",
      "outputs": [
        {
          "internalType": "address",
          "name": "",
          "type": "address"
        }
      ],
      "stateMutability": "view",
      "type": "function"
    },
    {
      "inputs": [],
      "name": "emergencyAddress",
      "outputs": [
        {
          "internalType": "address",
          "name": "",
          "type": "address"
        }
      ],
      "stateMutability": "view",
      "type": "function"
    },
    {
      "inputs": [],
      "name": "owner",
      "outputs": [
        {
          "internalType": "address",
          "name": "",
          "type": "address"
        }
      ],
      "stateMutability": "view",
      "type": "function"
    },
    {
      "inputs": [],
      "name": "renounceOwnership",
      "outputs": [],
      "stateMutability": "nonpayable",
      "type": "function"
    },
    {
      "inputs": [
        {
          "internalType": "address",
          "name": "newOwner",
          "type": "address"
        }
      ],
      "name": "transferOwnership",
      "outputs": [],
      "stateMutability": "nonpayable",
      "type": "function"
    },
    {
      "inputs": [
        {
          "internalType": "uint256",
          "name": "_newIn",
          "type": "uint256"
        }
      ],
      "name": "setAmountIn",
      "outputs": [],
      "stateMutability": "nonpayable",
      "type": "function"
    },
    {
      "inputs": [
        {
          "internalType": "address",
          "name": "_newAddress",
          "type": "address"
        }
      ],
      "name": "setEmergencyAddress",
      "outputs": [],
      "stateMutability": "nonpayable",
      "type": "function"
    },
    {
      "inputs": [
        {
          "internalType": "address",
          "name": "_newCaller",
          "type": "address"
        }
      ],
      "name": "addCaller",
      "outputs": [
        {
          "internalType": "bool",
          "name": "",
          "type": "bool"
        }
      ],
      "stateMutability": "nonpayable",
      "type": "function"
    },
    {
      "inputs": [
        {
          "internalType": "address",
          "name": "_delCaller",
          "type": "address"
        }
      ],
      "name": "delCaller",
      "outputs": [
        {
          "internalType": "bool",
          "name": "",
          "type": "bool"
        }
      ],
      "stateMutability": "nonpayable",
      "type": "function"
    },
    {
      "inputs": [],
      "name": "getCallerLength",
      "outputs": [
        {
          "internalType": "uint256",
          "name": "",
          "type": "uint256"
        }
      ],
      "stateMutability": "view",
      "type": "function"
    },
    {
      "inputs": [
        {
          "internalType": "address",
          "name": "_call",
          "type": "address"
        }
      ],
      "name": "isCaller",
      "outputs": [
        {
          "internalType": "bool",
          "name": "",
          "type": "bool"
        }
      ],
      "stateMutability": "view",
      "type": "function"
    },
    {
      "inputs": [
        {
          "internalType": "uint256",
          "name": "_index",
          "type": "uint256"
        }
      ],
      "name": "getCaller",
      "outputs": [
        {
          "internalType": "address",
          "name": "",
          "type": "address"
        }
      ],
      "stateMutability": "view",
      "type": "function"
    },
    {
      "inputs": [],
      "name": "swap",
      "outputs": [
        {
          "internalType": "uint256",
          "name": "amountOut",
          "type": "uint256"
        }
      ],
      "stateMutability": "nonpayable",
      "type": "function"
    },
    {
      "inputs": [
        {
          "internalType": "address",
          "name": "_token",
          "type": "address"
        }
      ],
      "name": "emergencyWithdraw",
      "outputs": [],
      "stateMutability": "nonpayable",
      "type": "function"
    }
  ],
  "bytecode": "0x608060405234801561001057600080fd5b506040516116233803806116238339818101604052604081101561003357600080fd5b508051602090910151600061004661019e565b600080546001600160a01b0319166001600160a01b0383169081178255604051929350917f8be0079c531659141344cd1fd0a4f28419497f9722a3daafe3b4186f6b6457e0908290a350600082116100ff57604080517f08c379a000000000000000000000000000000000000000000000000000000000815260206004820181905260248201527f416d6f756e74206d7573742062652067726561746572207468616e207a65726f604482015290519081900360640190fd5b6001600160a01b03811661017457604080517f08c379a000000000000000000000000000000000000000000000000000000000815260206004820152600f60248201527f4973207a65726f20616464726573730000000000000000000000000000000000604482015290519081900360640190fd5b600491909155600380546001600160a01b0319166001600160a01b039092169190911790556101a2565b3390565b611472806101b16000396000f3fe608060405234801561001057600080fd5b50600436106101165760003560e01c80637ac07dcc116100a2578063c54e44eb11610071578063c54e44eb14610287578063d12d9f151461028f578063eee8edfd14610297578063f2fde38b1461029f578063fddf3f73146102c557610116565b80637ac07dcc146102345780638119c0651461025a5780638da5cb5b14610262578063a8b0b3ed1461026a57610116565b80636717f5b0116100e95780636717f5b0146101bb5780636bed55a6146101d85780636ff1c9bc146101e0578063715018a614610206578063747293fb1461020e57610116565b806316a7c0d91461011b578063231a418c1461013f5780632aa11ffb1461017957806342177a58146101a1575b600080fd5b6101236102cd565b604080516001600160a01b039092168252519081900360200190f35b6101656004803603602081101561015557600080fd5b50356001600160a01b03166102e5565b604080519115158252519081900360200190f35b61019f6004803603602081101561018f57600080fd5b50356001600160a01b03166103ab565b005b6101a9610472565b60408051918252519081900360200190f35b61019f600480360360208110156101d157600080fd5b5035610483565b6101a96104e0565b61019f600480360360208110156101f657600080fd5b50356001600160a01b03166104e6565b61019f61070a565b6101656004803603602081101561022457600080fd5b50356001600160a01b03166107ac565b6101656004803603602081101561024a57600080fd5b50356001600160a01b031661086c565b6101a9610879565b610123610bde565b6101236004803603602081101561028057600080fd5b5035610bed565b610123610c4f565b610123610c67565b610123610c7f565b61019f600480360360208110156102b557600080fd5b50356001600160a01b0316610c97565b610123610d8f565b73615e6285c5944540fd8bd921c9c8c56739fd1e1381565b60006102ef610d9e565b6000546001600160a01b0390811691161461033f576040805162461bcd60e51b815260206004820181905260248201526000805160206113f3833981519152604482015290519081900360640190fd5b6001600160a01b03821661039a576040805162461bcd60e51b815260206004820152601d60248201527f44656c43616c6c657220697320746865207a65726f2061646472657373000000604482015290519081900360640190fd5b6103a5600183610da2565b92915050565b6103b3610d9e565b6000546001600160a01b03908116911614610403576040805162461bcd60e51b815260206004820181905260248201526000805160206113f3833981519152604482015290519081900360640190fd5b6001600160a01b038116610450576040805162461bcd60e51b815260206004820152600f60248201526e4973207a65726f206164647265737360881b604482015290519081900360640190fd5b600380546001600160a01b0319166001600160a01b0392909216919091179055565b600061047e6001610dbe565b905090565b61048b610d9e565b6000546001600160a01b039081169116146104db576040805162461bcd60e51b815260206004820181905260248201526000805160206113f3833981519152604482015290519081900360640190fd5b600455565b60045481565b6104ee610d9e565b6000546001600160a01b0390811691161461053e576040805162461bcd60e51b815260206004820181905260248201526000805160206113f3833981519152604482015290519081900360640190fd5b6000816001600160a01b03166370a08231306040518263ffffffff1660e01b815260040180826001600160a01b0316815260200191505060206040518083038186803b15801561058d57600080fd5b505afa1580156105a1573d6000803e3d6000fd5b505050506040513d60208110156105b757600080fd5b50511161060b576040805162461bcd60e51b815260206004820152601d60248201527f496e73756666696369656e7420636f6e74726163742062616c616e6365000000604482015290519081900360640190fd5b600354604080516370a0823160e01b815230600482015290516001600160a01b038085169363a9059cbb9391169184916370a08231916024808301926020929190829003018186803b15801561066057600080fd5b505afa158015610674573d6000803e3d6000fd5b505050506040513d602081101561068a57600080fd5b5051604080516001600160e01b031960e086901b1681526001600160a01b03909316600484015260248301919091525160448083019260209291908290030181600087803b1580156106db57600080fd5b505af11580156106ef573d6000803e3d6000fd5b505050506040513d602081101561070557600080fd5b505050565b610712610d9e565b6000546001600160a01b03908116911614610762576040805162461bcd60e51b815260206004820181905260248201526000805160206113f3833981519152604482015290519081900360640190fd5b600080546040516001600160a01b03909116907f8be0079c531659141344cd1fd0a4f28419497f9722a3daafe3b4186f6b6457e0908390a3600080546001600160a01b0319169055565b60006107b6610d9e565b6000546001600160a01b03908116911614610806576040805162461bcd60e51b815260206004820181905260248201526000805160206113f3833981519152604482015290519081900360640190fd5b6001600160a01b038216610861576040805162461bcd60e51b815260206004820152601d60248201527f4e657743616c6c657220697320746865207a65726f2061646472657373000000604482015290519081900360640190fd5b6103a5600183610dc9565b60006103a5600183610dde565b60006108843361086c565b6108c6576040805162461bcd60e51b815260206004820152600e60248201526d2737ba103a34329031b0b63632b960911b604482015290519081900360640190fd5b60045473a71edc38d189767582c38a3145b5873052c3e47a6001600160a01b03166370a08231306040518263ffffffff1660e01b815260040180826001600160a01b0316815260200191505060206040518083038186803b15801561092a57600080fd5b505afa15801561093e573d6000803e3d6000fd5b505050506040513d602081101561095457600080fd5b505110156109a9576040805162461bcd60e51b815260206004820152601d60248201527f496e73756666696369656e7420636f6e74726163742062616c616e6365000000604482015290519081900360640190fd5b60008073615e6285c5944540fd8bd921c9c8c56739fd1e136001600160a01b0316630902f1ac6040518163ffffffff1660e01b815260040160606040518083038186803b1580156109f957600080fd5b505afa158015610a0d573d6000803e3d6000fd5b505050506040513d6060811015610a2357600080fd5b5080516020909101516004546dffffffffffffffffffffffffffff928316945091169150600090610a56906103e5610df3565b9050610a6e81610a68846103e8610df3565b90610e4c565b610a8f84610a896103e5600454610df390919063ffffffff16565b90610df3565b81610a9657fe5b6004549190049450610ad39073a71edc38d189767582c38a3145b5873052c3e47a9073615e6285c5944540fd8bd921c9c8c56739fd1e1390610ea6565b604080516000808252602082019283905263022c0d9f60e01b8352602482018781526044830182905273f9852c6588b70ad3c26dae47120f174527e03a2560648401819052608060848501908152845160a4860181905273615e6285c5944540fd8bd921c9c8c56739fd1e139663022c0d9f968c969590939092909160c48501918083838a5b83811015610b71578181015183820152602001610b59565b50505050905090810190601f168015610b9e5780820380516001836020036101000a031916815260200191505b5095505050505050600060405180830381600087803b158015610bc057600080fd5b505af1158015610bd4573d6000803e3d6000fd5b5050505050505090565b6000546001600160a01b031690565b60006001610bf9610472565b03821115610c44576040805162461bcd60e51b8152602060048201526013602482015272696e646578206f7574206f6620626f756e647360681b604482015290519081900360640190fd5b6103a5600183610ef8565b73a71edc38d189767582c38a3145b5873052c3e47a81565b73f9852c6588b70ad3c26dae47120f174527e03a2581565b7325d2e80cb6b86881fd7e07dd263fb79f4abe033c81565b610c9f610d9e565b6000546001600160a01b03908116911614610cef576040805162461bcd60e51b815260206004820181905260248201526000805160206113f3833981519152604482015290519081900360640190fd5b6001600160a01b038116610d345760405162461bcd60e51b81526004018080602001828103825260268152602001806113866026913960400191505060405180910390fd5b600080546040516001600160a01b03808516939216917f8be0079c531659141344cd1fd0a4f28419497f9722a3daafe3b4186f6b6457e091a3600080546001600160a01b0319166001600160a01b0392909216919091179055565b6003546001600160a01b031681565b3390565b6000610db7836001600160a01b038416610f04565b9392505050565b60006103a582610fca565b6000610db7836001600160a01b038416610fce565b6000610db7836001600160a01b038416611018565b600082610e02575060006103a5565b82820282848281610e0f57fe5b0414610db75760405162461bcd60e51b81526004018080602001828103825260218152602001806113d26021913960400191505060405180910390fd5b600082820183811015610db7576040805162461bcd60e51b815260206004820152601b60248201527f536166654d6174683a206164646974696f6e206f766572666c6f770000000000604482015290519081900360640190fd5b604080516001600160a01b038416602482015260448082018490528251808303909101815260649091019091526020810180516001600160e01b031663a9059cbb60e01b179052610705908490611030565b6000610db783836110e1565b60008181526001830160205260408120548015610fc05783546000198083019190810190600090879083908110610f3757fe5b9060005260206000200154905080876000018481548110610f5457fe5b600091825260208083209091019290925582815260018981019092526040902090840190558654879080610f8457fe5b600190038181906000526020600020016000905590558660010160008781526020019081526020016000206000905560019450505050506103a5565b60009150506103a5565b5490565b6000610fda8383611018565b611010575081546001818101845560008481526020808220909301849055845484825282860190935260409020919091556103a5565b5060006103a5565b60009081526001919091016020526040902054151590565b6060611085826040518060400160405280602081526020017f5361666545524332303a206c6f772d6c6576656c2063616c6c206661696c6564815250856001600160a01b03166111459092919063ffffffff16565b805190915015610705578080602001905160208110156110a457600080fd5b50516107055760405162461bcd60e51b815260040180806020018281038252602a815260200180611413602a913960400191505060405180910390fd5b815460009082106111235760405162461bcd60e51b81526004018080602001828103825260228152602001806113646022913960400191505060405180910390fd5b82600001828154811061113257fe5b9060005260206000200154905092915050565b6060611154848460008561115c565b949350505050565b6060303183111561119e5760405162461bcd60e51b81526004018080602001828103825260268152602001806113ac6026913960400191505060405180910390fd5b6111a7856112b9565b6111f8576040805162461bcd60e51b815260206004820152601d60248201527f416464726573733a2063616c6c20746f206e6f6e2d636f6e7472616374000000604482015290519081900360640190fd5b60006060866001600160a01b031685876040518082805190602001908083835b602083106112375780518252601f199092019160209182019101611218565b6001836020036101000a03801982511681845116808217855250505050505090500191505060006040518083038185875af1925050503d8060008114611299576040519150601f19603f3d011682016040523d82523d6000602084013e61129e565b606091505b50915091506112ae8282866112bf565b979650505050505050565b3b151590565b606083156112ce575081610db7565b8251156112de5782518084602001fd5b8160405162461bcd60e51b81526004018080602001828103825283818151815260200191508051906020019080838360005b83811015611328578181015183820152602001611310565b50505050905090810190601f1680156113555780820380516001836020036101000a031916815260200191505b509250505060405180910390fdfe456e756d657261626c655365743a20696e646578206f7574206f6620626f756e64734f776e61626c653a206e6577206f776e657220697320746865207a65726f2061646472657373416464726573733a20696e73756666696369656e742062616c616e636520666f722063616c6c536166654d6174683a206d756c7469706c69636174696f6e206f766572666c6f774f776e61626c653a2063616c6c6572206973206e6f7420746865206f776e65725361666545524332303a204552433230206f7065726174696f6e20646964206e6f742073756363656564a264697066735822122067571059ed1f5855c42904abbfb0f4684187f2b313948e339facd4ba2f0dac1264736f6c634300060c0033",
  "immutableReferences": {},
  "source": "// SPDX-License-Identifier: MIT\npragma solidity >=0.4.22 <0.8.0;\n\nimport \"@openzeppelin/contracts/access/Ownable.sol\";\nimport \"@openzeppelin/contracts/token/ERC20/IERC20.sol\";\nimport \"@openzeppelin/contracts/token/ERC20/SafeERC20.sol\";\nimport \"@openzeppelin/contracts/math/SafeMath.sol\";\nimport \"@openzeppelin/contracts/utils/EnumerableSet.sol\";\nimport \"../interface/IMdexPair.sol\";\n\ncontract Repurchase is Ownable {\n    using SafeMath for uint256;\n    using SafeERC20 for IERC20;\n\n    using EnumerableSet for EnumerableSet.AddressSet;\n    EnumerableSet.AddressSet private _caller;\n\n    address public constant USDT = 0xa71EdC38d189767582C38A3145b5873052c3e47a;\n    address public constant MDX = 0x25D2e80cB6B86881Fd7e07dd263Fb79f4AbE033c;\n    address public constant MDX_USDT = 0x615E6285c5944540fd8bd921c9c8c56739Fd1E13;\n    address public constant destroyAddress = 0xF9852C6588b70ad3c26daE47120f174527e03a25;\n    address public emergencyAddress;\n    uint256 public amountIn;\n\n    constructor (uint256 _amount, address _emergencyAddress) public {\n        require(_amount > 0, \"Amount must be greater than zero\");\n        require(_emergencyAddress != address(0), \"Is zero address\");\n        amountIn = _amount;\n        emergencyAddress = _emergencyAddress;\n    }\n\n    function setAmountIn(uint256 _newIn) public onlyOwner {\n        amountIn = _newIn;\n    }\n\n    function setEmergencyAddress(address _newAddress) public onlyOwner {\n        require(_newAddress != address(0), \"Is zero address\");\n        emergencyAddress = _newAddress;\n    }\n\n    function addCaller(address _newCaller) public onlyOwner returns (bool) {\n        require(_newCaller != address(0), \"NewCaller is the zero address\");\n        return EnumerableSet.add(_caller, _newCaller);\n    }\n\n    function delCaller(address _delCaller) public onlyOwner returns (bool) {\n        require(_delCaller != address(0), \"DelCaller is the zero address\");\n        return EnumerableSet.remove(_caller, _delCaller);\n    }\n\n    function getCallerLength() public view returns (uint256) {\n        return EnumerableSet.length(_caller);\n    }\n\n    function isCaller(address _call) public view returns (bool) {\n        return EnumerableSet.contains(_caller, _call);\n    }\n\n    function getCaller(uint256 _index) public view returns (address){\n        require(_index <= getCallerLength() - 1, \"index out of bounds\");\n        return EnumerableSet.at(_caller, _index);\n    }\n\n    function swap() external onlyCaller returns (uint256 amountOut){\n        require(IERC20(USDT).balanceOf(address(this)) >= amountIn, \"Insufficient contract balance\");\n        (uint256 reserve0, uint256 reserve1,) = IMdexPair(MDX_USDT).getReserves();\n        uint256 amountInWithFee = amountIn.mul(997);\n        amountOut = amountIn.mul(997).mul(reserve0) / reserve1.mul(1000).add(amountInWithFee);\n        IERC20(USDT).safeTransfer(MDX_USDT, amountIn);\n        IMdexPair(MDX_USDT).swap(amountOut, 0, destroyAddress, new bytes(0));\n    }\n\n    modifier onlyCaller() {\n        require(isCaller(msg.sender), \"Not the caller\");\n        _;\n    }\n\n    function emergencyWithdraw(address _token) public onlyOwner {\n        require(IERC20(_token).balanceOf(address(this)) > 0, \"Insufficient contract balance\");\n        IERC20(_token).transfer(emergencyAddress, IERC20(_token).balanceOf(address(this)));\n    }\n}\n",
  "sourcePath": "D:/Posao - Stefan/Stefan - razno/Blockchain/ElavateFinance/elavate-core-v1/contracts/mdexSwap/assets/Repurchase.sol",
  "compiler": {
    "name": "solc",
    "version": "0.6.12+commit.27d51765.Emscripten.clang"
  },
  "schemaVersion": "3.4.1",
  "updatedAt": "2021-07-16T11:08:47.108Z",
  "devdoc": {
    "kind": "dev",
    "methods": {
      "owner()": {
        "details": "Returns the address of the current owner."
      },
      "renounceOwnership()": {
        "details": "Leaves the contract without owner. It will not be possible to call `onlyOwner` functions anymore. Can only be called by the current owner. NOTE: Renouncing ownership will leave the contract without an owner, thereby removing any functionality that is only available to the owner."
      },
      "transferOwnership(address)": {
        "details": "Transfers ownership of the contract to a new account (`newOwner`). Can only be called by the current owner."
      }
    },
    "version": 1
  },
  "userdoc": {
    "kind": "user",
    "methods": {},
    "version": 1
  }
}