{
  "contractName": "TeamTimeLock",
  "abi": [
    {
      "inputs": [
        {
          "internalType": "address",
          "name": "_beneficiary",
          "type": "address"
        },
        {
          "internalType": "address",
          "name": "_token",
          "type": "address"
        },
        {
          "internalType": "uint256",
          "name": "_fixedQuantity",
          "type": "uint256"
        },
        {
          "internalType": "uint256",
          "name": "_startTime",
          "type": "uint256"
        },
        {
          "internalType": "uint256",
          "name": "_delay",
          "type": "uint256"
        },
        {
          "internalType": "string",
          "name": "_introduce",
          "type": "string"
        }
      ],
      "stateMutability": "nonpayable",
      "type": "constructor"
    },
    {
      "anonymous": false,
      "inputs": [
        {
          "indexed": true,
          "internalType": "address",
          "name": "operator",
          "type": "address"
        },
        {
          "indexed": true,
          "internalType": "address",
          "name": "to",
          "type": "address"
        },
        {
          "indexed": false,
          "internalType": "uint256",
          "name": "amount",
          "type": "uint256"
        }
      ],
      "name": "WithDraw",
      "type": "event"
    },
    {
      "inputs": [],
      "name": "CYCLE_TIMES",
      "outputs": [
        {
          "internalType": "uint256",
          "name": "",
          "type": "uint256"
        }
      ],
      "stateMutability": "view",
      "type": "function"
    },
    {
      "inputs": [],
      "name": "PERIOD",
      "outputs": [
        {
          "internalType": "uint256",
          "name": "",
          "type": "uint256"
        }
      ],
      "stateMutability": "view",
      "type": "function"
    },
    {
      "inputs": [],
      "name": "beneficiary",
      "outputs": [
        {
          "internalType": "address",
          "name": "",
          "type": "address"
        }
      ],
      "stateMutability": "view",
      "type": "function"
    },
    {
      "inputs": [],
      "name": "cycle",
      "outputs": [
        {
          "internalType": "uint256",
          "name": "",
          "type": "uint256"
        }
      ],
      "stateMutability": "view",
      "type": "function"
    },
    {
      "inputs": [],
      "name": "delay",
      "outputs": [
        {
          "internalType": "uint256",
          "name": "",
          "type": "uint256"
        }
      ],
      "stateMutability": "view",
      "type": "function"
    },
    {
      "inputs": [],
      "name": "fixedQuantity",
      "outputs": [
        {
          "internalType": "uint256",
          "name": "",
          "type": "uint256"
        }
      ],
      "stateMutability": "view",
      "type": "function"
    },
    {
      "inputs": [],
      "name": "hasReward",
      "outputs": [
        {
          "internalType": "uint256",
          "name": "",
          "type": "uint256"
        }
      ],
      "stateMutability": "view",
      "type": "function"
    },
    {
      "inputs": [],
      "name": "introduce",
      "outputs": [
        {
          "internalType": "string",
          "name": "",
          "type": "string"
        }
      ],
      "stateMutability": "view",
      "type": "function"
    },
    {
      "inputs": [],
      "name": "startTime",
      "outputs": [
        {
          "internalType": "uint256",
          "name": "",
          "type": "uint256"
        }
      ],
      "stateMutability": "view",
      "type": "function"
    },
    {
      "inputs": [],
      "name": "token",
      "outputs": [
        {
          "internalType": "contract IERC20",
          "name": "",
          "type": "address"
        }
      ],
      "stateMutability": "view",
      "type": "function"
    },
    {
      "inputs": [],
      "name": "getBalance",
      "outputs": [
        {
          "internalType": "uint256",
          "name": "",
          "type": "uint256"
        }
      ],
      "stateMutability": "view",
      "type": "function"
    },
    {
      "inputs": [],
      "name": "getReward",
      "outputs": [
        {
          "internalType": "uint256",
          "name": "",
          "type": "uint256"
        }
      ],
      "stateMutability": "view",
      "type": "function"
    },
    {
      "inputs": [],
      "name": "withDraw",
      "outputs": [],
      "stateMutability": "nonpayable",
      "type": "function"
    },
    {
      "inputs": [
        {
          "internalType": "address",
          "name": "_newBeneficiary",
          "type": "address"
        }
      ],
      "name": "setBeneficiary",
      "outputs": [],
      "stateMutability": "nonpayable",
      "type": "function"
    }
  ],
  "bytecode": "0x60806040523480156200001157600080fd5b50604051620015f1380380620015f1833981810160405260c08110156200003757600080fd5b810190808051906020019092919080519060200190929190805190602001909291908051906020019092919080519060200190929190805160405193929190846401000000008211156200008a57600080fd5b83820191506020820185811115620000a157600080fd5b8251866001820283011164010000000082111715620000bf57600080fd5b8083526020830192505050908051906020019080838360005b83811015620000f5578082015181840152602081019050620000d8565b50505050905090810190601f168015620001235780820380516001836020036101000a031916815260200191505b50604052505050600073ffffffffffffffffffffffffffffffffffffffff168673ffffffffffffffffffffffffffffffffffffffff1614158015620001955750600073ffffffffffffffffffffffffffffffffffffffff168573ffffffffffffffffffffffffffffffffffffffff1614155b62000208576040517f08c379a00000000000000000000000000000000000000000000000000000000081526004018080602001828103825260168152602001807f54696d654c6f636b3a207a65726f20616464726573730000000000000000000081525060200191505060405180910390fd5b600084116200027f576040517f08c379a000000000000000000000000000000000000000000000000000000000815260040180806020018281038252601f8152602001807f54696d654c6f636b3a2066697865645175616e74697479206973207a65726f0081525060200191505060405180910390fd5b85600660006101000a81548173ffffffffffffffffffffffffffffffffffffffff021916908373ffffffffffffffffffffffffffffffffffffffff160217905550846000806101000a81548173ffffffffffffffffffffffffffffffffffffffff021916908373ffffffffffffffffffffffffffffffffffffffff16021790555083600181905550816003819055506200032882846200035360201b620009481790919060201c565b600281905550806007908051906020019062000346929190620003dc565b5050505050505062000482565b600080828401905083811015620003d2576040517f08c379a000000000000000000000000000000000000000000000000000000000815260040180806020018281038252601b8152602001807f536166654d6174683a206164646974696f6e206f766572666c6f77000000000081525060200191505060405180910390fd5b8091505092915050565b828054600181600116156101000203166002900490600052602060002090601f016020900481019282601f106200041f57805160ff191683800117855562000450565b8280016001018555821562000450579182015b828111156200044f57825182559160200191906001019062000432565b5b5090506200045f919062000463565b5090565b5b808211156200047e57600081600090555060010162000464565b5090565b61115f80620004926000396000f3fe608060405234801561001057600080fd5b50600436106100ea5760003560e01c80636190c9d51161008c578063b4d1d79511610066578063b4d1d795146102a8578063dff16241146102c6578063f24c327b146102e4578063fc0c546a14610302576100ea565b80636190c9d51461024e5780636a42b8f81461026c57806378e979251461028a576100ea565b80631c31f710116100c85780631c31f7101461013557806338af3eed146101795780633d18b912146101ad5780635da2ebae146101cb576100ea565b806303e8fcb5146100ef5780630fdb1c101461010d57806312065fe014610117575b600080fd5b6100f7610336565b6040518082815260200191505060405180910390f35b61011561033c565b005b61011f610517565b6040518082815260200191505060405180910390f35b6101776004803603602081101561014b57600080fd5b81019080803573ffffffffffffffffffffffffffffffffffffffff1690602001909291905050506105e1565b005b6101816106e8565b604051808273ffffffffffffffffffffffffffffffffffffffff16815260200191505060405180910390f35b6101b561070e565b6040518082815260200191505060405180910390f35b6101d3610862565b6040518080602001828103825283818151815260200191508051906020019080838360005b838110156102135780820151818401526020810190506101f8565b50505050905090810190601f1680156102405780820380516001836020036101000a031916815260200191505b509250505060405180910390f35b610256610900565b6040518082815260200191505060405180910390f35b610274610906565b6040518082815260200191505060405180910390f35b61029261090c565b6040518082815260200191505060405180910390f35b6102b0610912565b6040518082815260200191505060405180910390f35b6102ce610919565b6040518082815260200191505060405180910390f35b6102ec61091f565b6040518082815260200191505060405180910390f35b61030a610924565b604051808273ffffffffffffffffffffffffffffffffffffffff16815260200191505060405180910390f35b60015481565b600061034661070e565b9050600081116103be576040517f08c379a00000000000000000000000000000000000000000000000000000000081526004018080602001828103825260138152602001807f54696d654c6f636b3a206e6f207265776172640000000000000000000000000081525060200191505060405180910390fd5b60006103ea62278d006103dc600254426109d090919063ffffffff16565b610a1a90919063ffffffff16565b905060188110156103fb57806103fe565b60185b6004819055506104198260055461094890919063ffffffff16565b60058190555061048c600660009054906101000a900473ffffffffffffffffffffffffffffffffffffffff168360008054906101000a900473ffffffffffffffffffffffffffffffffffffffff1673ffffffffffffffffffffffffffffffffffffffff16610a649092919063ffffffff16565b600660009054906101000a900473ffffffffffffffffffffffffffffffffffffffff1673ffffffffffffffffffffffffffffffffffffffff163373ffffffffffffffffffffffffffffffffffffffff167fec37a407e13e9283023de85016cfda169c84b8f0e8dcda13c92311ab8fee7ad5846040518082815260200191505060405180910390a35050565b60008060009054906101000a900473ffffffffffffffffffffffffffffffffffffffff1673ffffffffffffffffffffffffffffffffffffffff166370a08231306040518263ffffffff1660e01b8152600401808273ffffffffffffffffffffffffffffffffffffffff16815260200191505060206040518083038186803b1580156105a157600080fd5b505afa1580156105b5573d6000803e3d6000fd5b505050506040513d60208110156105cb57600080fd5b8101908080519060200190929190505050905090565b600660009054906101000a900473ffffffffffffffffffffffffffffffffffffffff1673ffffffffffffffffffffffffffffffffffffffff163373ffffffffffffffffffffffffffffffffffffffff16146106a4576040517f08c379a000000000000000000000000000000000000000000000000000000000815260040180806020018281038252600f8152602001807f4e6f742062656e6566696369617279000000000000000000000000000000000081525060200191505060405180910390fd5b80600660006101000a81548173ffffffffffffffffffffffffffffffffffffffff021916908373ffffffffffffffffffffffffffffffffffffffff16021790555050565b600660009054906101000a900473ffffffffffffffffffffffffffffffffffffffff1681565b6000601860045410158061072457506002544211155b15610732576000905061085f565b600061075e62278d00610750600254426109d090919063ffffffff16565b610a1a90919063ffffffff16565b9050601881106108325760008054906101000a900473ffffffffffffffffffffffffffffffffffffffff1673ffffffffffffffffffffffffffffffffffffffff166370a08231306040518263ffffffff1660e01b8152600401808273ffffffffffffffffffffffffffffffffffffffff16815260200191505060206040518083038186803b1580156107ef57600080fd5b505afa158015610803573d6000803e3d6000fd5b505050506040513d602081101561081957600080fd5b810190808051906020019092919050505091505061085f565b61085b60015461084d600454846109d090919063ffffffff16565b610b0690919063ffffffff16565b9150505b90565b60078054600181600116156101000203166002900480601f0160208091040260200160405190810160405280929190818152602001828054600181600116156101000203166002900480156108f85780601f106108cd576101008083540402835291602001916108f8565b820191906000526020600020905b8154815290600101906020018083116108db57829003601f168201915b505050505081565b60045481565b60035481565b60025481565b62278d0081565b60055481565b601881565b60008054906101000a900473ffffffffffffffffffffffffffffffffffffffff1681565b6000808284019050838110156109c6576040517f08c379a000000000000000000000000000000000000000000000000000000000815260040180806020018281038252601b8152602001807f536166654d6174683a206164646974696f6e206f766572666c6f77000000000081525060200191505060405180910390fd5b8091505092915050565b6000610a1283836040518060400160405280601e81526020017f536166654d6174683a207375627472616374696f6e206f766572666c6f770000815250610b8c565b905092915050565b6000610a5c83836040518060400160405280601a81526020017f536166654d6174683a206469766973696f6e206279207a65726f000000000000815250610c4c565b905092915050565b610b018363a9059cbb60e01b8484604051602401808373ffffffffffffffffffffffffffffffffffffffff16815260200182815260200192505050604051602081830303815290604052907bffffffffffffffffffffffffffffffffffffffffffffffffffffffff19166020820180517bffffffffffffffffffffffffffffffffffffffffffffffffffffffff8381831617835250505050610d12565b505050565b600080831415610b195760009050610b86565b6000828402905082848281610b2a57fe5b0414610b81576040517f08c379a00000000000000000000000000000000000000000000000000000000081526004018080602001828103825260218152602001806110df6021913960400191505060405180910390fd5b809150505b92915050565b6000838311158290610c39576040517f08c379a00000000000000000000000000000000000000000000000000000000081526004018080602001828103825283818151815260200191508051906020019080838360005b83811015610bfe578082015181840152602081019050610be3565b50505050905090810190601f168015610c2b5780820380516001836020036101000a031916815260200191505b509250505060405180910390fd5b5060008385039050809150509392505050565b60008083118290610cf8576040517f08c379a00000000000000000000000000000000000000000000000000000000081526004018080602001828103825283818151815260200191508051906020019080838360005b83811015610cbd578082015181840152602081019050610ca2565b50505050905090810190601f168015610cea5780820380516001836020036101000a031916815260200191505b509250505060405180910390fd5b506000838581610d0457fe5b049050809150509392505050565b6060610d74826040518060400160405280602081526020017f5361666545524332303a206c6f772d6c6576656c2063616c6c206661696c65648152508573ffffffffffffffffffffffffffffffffffffffff16610e019092919063ffffffff16565b9050600081511115610dfc57808060200190516020811015610d9557600080fd5b8101908080519060200190929190505050610dfb576040517f08c379a000000000000000000000000000000000000000000000000000000000815260040180806020018281038252602a815260200180611100602a913960400191505060405180910390fd5b5b505050565b6060610e108484600085610e19565b90509392505050565b6060823073ffffffffffffffffffffffffffffffffffffffff16311015610e8b576040517f08c379a00000000000000000000000000000000000000000000000000000000081526004018080602001828103825260268152602001806110b96026913960400191505060405180910390fd5b610e9485610fd9565b610f06576040517f08c379a000000000000000000000000000000000000000000000000000000000815260040180806020018281038252601d8152602001807f416464726573733a2063616c6c20746f206e6f6e2d636f6e747261637400000081525060200191505060405180910390fd5b600060608673ffffffffffffffffffffffffffffffffffffffff1685876040518082805190602001908083835b60208310610f565780518252602082019150602081019050602083039250610f33565b6001836020036101000a03801982511681845116808217855250505050505090500191505060006040518083038185875af1925050503d8060008114610fb8576040519150601f19603f3d011682016040523d82523d6000602084013e610fbd565b606091505b5091509150610fcd828286610fec565b92505050949350505050565b600080823b905060008111915050919050565b60608315610ffc578290506110b1565b60008351111561100f5782518084602001fd5b816040517f08c379a00000000000000000000000000000000000000000000000000000000081526004018080602001828103825283818151815260200191508051906020019080838360005b8381101561107657808201518184015260208101905061105b565b50505050905090810190601f1680156110a35780820380516001836020036101000a031916815260200191505b509250505060405180910390fd5b939250505056fe416464726573733a20696e73756666696369656e742062616c616e636520666f722063616c6c536166654d6174683a206d756c7469706c69636174696f6e206f766572666c6f775361666545524332303a204552433230206f7065726174696f6e20646964206e6f742073756363656564a26469706673582212209b1378500e440e91cfe41782c71abb74afd567c7528608ffd6cc5a9355edfa5d64736f6c634300060c0033",
  "immutableReferences": {},
  "source": "// SPDX-License-Identifier: MIT\r\npragma solidity >=0.4.22 <0.8.0;\r\n\r\nimport '@openzeppelin/contracts/math/SafeMath.sol';\r\nimport '@openzeppelin/contracts/token/ERC20/IERC20.sol';\r\nimport '@openzeppelin/contracts/token/ERC20/SafeERC20.sol';\r\n\r\n\r\ncontract TeamTimeLock {\r\n    using SafeMath for uint;\r\n    using SafeERC20 for IERC20;\r\n\r\n    IERC20 public token;\r\n    uint constant  public PERIOD = 30 days;\r\n    uint constant  public CYCLE_TIMES = 24;\r\n    uint public fixedQuantity;  // Monthly rewards are fixed\r\n    uint public startTime;\r\n    uint public delay;\r\n    uint public cycle;      // cycle already received\r\n    uint public hasReward;  // Rewards already withdrawn\r\n    address public beneficiary;\r\n    string public introduce;\r\n\r\n    event WithDraw(address indexed operator, address indexed to, uint amount);\r\n\r\n    constructor(\r\n        address _beneficiary,\r\n        address _token,\r\n        uint _fixedQuantity,\r\n        uint _startTime,\r\n        uint _delay,\r\n        string memory _introduce\r\n    ) public {\r\n        require(_beneficiary != address(0) && _token != address(0), \"TimeLock: zero address\");\r\n        require(_fixedQuantity > 0, \"TimeLock: fixedQuantity is zero\");\r\n        beneficiary = _beneficiary;\r\n        token = IERC20(_token);\r\n        fixedQuantity = _fixedQuantity;\r\n        delay = _delay;\r\n        startTime = _startTime.add(_delay);\r\n        introduce = _introduce;\r\n    }\r\n\r\n\r\n    function getBalance() public view returns (uint) {\r\n        return token.balanceOf(address(this));\r\n    }\r\n\r\n    function getReward() public view returns (uint) {\r\n        // Has ended or not started\r\n        if (cycle >= CYCLE_TIMES || block.timestamp <= startTime) {\r\n            return 0;\r\n        }\r\n        uint pCycle = (block.timestamp.sub(startTime)).div(PERIOD);\r\n        if (pCycle >= CYCLE_TIMES) {\r\n            return token.balanceOf(address(this));\r\n        }\r\n        return pCycle.sub(cycle).mul(fixedQuantity);\r\n    }\r\n\r\n    function withDraw() external {\r\n        uint reward = getReward();\r\n        require(reward > 0, \"TimeLock: no reward\");\r\n        uint pCycle = (block.timestamp.sub(startTime)).div(PERIOD);\r\n        cycle = pCycle >= CYCLE_TIMES ? CYCLE_TIMES : pCycle;\r\n        hasReward = hasReward.add(reward);\r\n        token.safeTransfer(beneficiary, reward);\r\n        emit WithDraw(msg.sender, beneficiary, reward);\r\n    }\r\n\r\n    // Update beneficiary address by the previous beneficiary.\r\n    function setBeneficiary(address _newBeneficiary) public {\r\n        require(msg.sender == beneficiary, \"Not beneficiary\");\r\n        beneficiary = _newBeneficiary;\r\n    }\r\n}\r\n",
  "sourcePath": "D:/Posao - Stefan/Stefan - razno/Blockchain/ElavateFinance/elavate-core/contracts/mdexSwap/timeLock/TeamTimeLock.sol",
  "compiler": {
    "name": "solc",
    "version": "0.6.12+commit.27d51765.Emscripten.clang"
  },
  "schemaVersion": "3.4.1",
  "updatedAt": "2021-07-30T14:38:39.892Z",
  "devdoc": {
    "kind": "dev",
    "methods": {},
    "version": 1
  },
  "userdoc": {
    "kind": "user",
    "methods": {},
    "version": 1
  }
}