{
  "contractName": "TeamTimeLock",
  "abi": [
    {
      "inputs": [
        {
          "internalType": "address",
          "name": "_beneficiary",
          "type": "address"
        },
        {
          "internalType": "address",
          "name": "_token",
          "type": "address"
        },
        {
          "internalType": "uint256",
          "name": "_fixedQuantity",
          "type": "uint256"
        },
        {
          "internalType": "uint256",
          "name": "_startTime",
          "type": "uint256"
        },
        {
          "internalType": "uint256",
          "name": "_delay",
          "type": "uint256"
        },
        {
          "internalType": "string",
          "name": "_introduce",
          "type": "string"
        }
      ],
      "stateMutability": "nonpayable",
      "type": "constructor"
    },
    {
      "anonymous": false,
      "inputs": [
        {
          "indexed": true,
          "internalType": "address",
          "name": "operator",
          "type": "address"
        },
        {
          "indexed": true,
          "internalType": "address",
          "name": "to",
          "type": "address"
        },
        {
          "indexed": false,
          "internalType": "uint256",
          "name": "amount",
          "type": "uint256"
        }
      ],
      "name": "WithDraw",
      "type": "event"
    },
    {
      "inputs": [],
      "name": "CYCLE_TIMES",
      "outputs": [
        {
          "internalType": "uint256",
          "name": "",
          "type": "uint256"
        }
      ],
      "stateMutability": "view",
      "type": "function"
    },
    {
      "inputs": [],
      "name": "PERIOD",
      "outputs": [
        {
          "internalType": "uint256",
          "name": "",
          "type": "uint256"
        }
      ],
      "stateMutability": "view",
      "type": "function"
    },
    {
      "inputs": [],
      "name": "beneficiary",
      "outputs": [
        {
          "internalType": "address",
          "name": "",
          "type": "address"
        }
      ],
      "stateMutability": "view",
      "type": "function"
    },
    {
      "inputs": [],
      "name": "cycle",
      "outputs": [
        {
          "internalType": "uint256",
          "name": "",
          "type": "uint256"
        }
      ],
      "stateMutability": "view",
      "type": "function"
    },
    {
      "inputs": [],
      "name": "delay",
      "outputs": [
        {
          "internalType": "uint256",
          "name": "",
          "type": "uint256"
        }
      ],
      "stateMutability": "view",
      "type": "function"
    },
    {
      "inputs": [],
      "name": "fixedQuantity",
      "outputs": [
        {
          "internalType": "uint256",
          "name": "",
          "type": "uint256"
        }
      ],
      "stateMutability": "view",
      "type": "function"
    },
    {
      "inputs": [],
      "name": "hasReward",
      "outputs": [
        {
          "internalType": "uint256",
          "name": "",
          "type": "uint256"
        }
      ],
      "stateMutability": "view",
      "type": "function"
    },
    {
      "inputs": [],
      "name": "introduce",
      "outputs": [
        {
          "internalType": "string",
          "name": "",
          "type": "string"
        }
      ],
      "stateMutability": "view",
      "type": "function"
    },
    {
      "inputs": [],
      "name": "startTime",
      "outputs": [
        {
          "internalType": "uint256",
          "name": "",
          "type": "uint256"
        }
      ],
      "stateMutability": "view",
      "type": "function"
    },
    {
      "inputs": [],
      "name": "token",
      "outputs": [
        {
          "internalType": "contract IERC20",
          "name": "",
          "type": "address"
        }
      ],
      "stateMutability": "view",
      "type": "function"
    },
    {
      "inputs": [],
      "name": "getBalance",
      "outputs": [
        {
          "internalType": "uint256",
          "name": "",
          "type": "uint256"
        }
      ],
      "stateMutability": "view",
      "type": "function"
    },
    {
      "inputs": [],
      "name": "getReward",
      "outputs": [
        {
          "internalType": "uint256",
          "name": "",
          "type": "uint256"
        }
      ],
      "stateMutability": "view",
      "type": "function"
    },
    {
      "inputs": [],
      "name": "withDraw",
      "outputs": [],
      "stateMutability": "nonpayable",
      "type": "function"
    },
    {
      "inputs": [
        {
          "internalType": "address",
          "name": "_newBeneficiary",
          "type": "address"
        }
      ],
      "name": "setBeneficiary",
      "outputs": [],
      "stateMutability": "nonpayable",
      "type": "function"
    }
  ],
  "bytecode": "0x60806040523480156200001157600080fd5b5060405162000f5f38038062000f5f833981810160405260c08110156200003757600080fd5b815160208301516040808501516060860151608087015160a0880180519451969895979396929591949293820192846401000000008211156200007957600080fd5b9083019060208201858111156200008f57600080fd5b8251640100000000811182820188101715620000aa57600080fd5b82525081516020918201929091019080838360005b83811015620000d9578181015183820152602001620000bf565b50505050905090810190601f168015620001075780820380516001836020036101000a031916815260200191505b506040525050506001600160a01b038616158015906200012f57506001600160a01b03851615155b6200019b57604080517f08c379a000000000000000000000000000000000000000000000000000000000815260206004820152601660248201527f54696d654c6f636b3a207a65726f206164647265737300000000000000000000604482015290519081900360640190fd5b600084116200020b57604080517f08c379a000000000000000000000000000000000000000000000000000000000815260206004820152601f60248201527f54696d654c6f636b3a2066697865645175616e74697479206973207a65726f00604482015290519081900360640190fd5b600680546001600160a01b03199081166001600160a01b038981169190911790925560008054909116918716919091179055600184905560038290556200025f838362000284602090811b620005e317901c565b60025580516200027790600790602084019062000300565b505050505050506200039c565b600082820183811015620002f957604080517f08c379a000000000000000000000000000000000000000000000000000000000815260206004820152601b60248201527f536166654d6174683a206164646974696f6e206f766572666c6f770000000000604482015290519081900360640190fd5b9392505050565b828054600181600116156101000203166002900490600052602060002090601f016020900481019282601f106200034357805160ff191683800117855562000373565b8280016001018555821562000373579182015b828111156200037357825182559160200191906001019062000356565b506200038192915062000385565b5090565b5b8082111562000381576000815560010162000386565b610bb380620003ac6000396000f3fe608060405234801561001057600080fd5b50600436106100ea5760003560e01c80636190c9d51161008c578063b4d1d79511610066578063b4d1d79514610202578063dff162411461020a578063f24c327b14610212578063fc0c546a1461021a576100ea565b80636190c9d5146101ea5780636a42b8f8146101f257806378e97925146101fa576100ea565b80631c31f710116100c85780631c31f7101461011b57806338af3eed146101415780633d18b912146101655780635da2ebae1461016d576100ea565b806303e8fcb5146100ef5780630fdb1c101461010957806312065fe014610113575b600080fd5b6100f7610222565b60408051918252519081900360200190f35b610111610228565b005b6100f7610330565b6101116004803603602081101561013157600080fd5b50356001600160a01b03166103ae565b610149610421565b604080516001600160a01b039092168252519081900360200190f35b6100f7610430565b610175610522565b6040805160208082528351818301528351919283929083019185019080838360005b838110156101af578181015183820152602001610197565b50505050905090810190601f1680156101dc5780820380516001836020036101000a031916815260200191505b509250505060405180910390f35b6100f76105b0565b6100f76105b6565b6100f76105bc565b6100f76105c2565b6100f76105c9565b6100f76105cf565b6101496105d4565b60015481565b6000610232610430565b90506000811161027f576040805162461bcd60e51b8152602060048201526013602482015272151a5b59531bd8dace881b9bc81c995dd85c99606a1b604482015290519081900360640190fd5b60006102a362278d0061029d6002544261064690919063ffffffff16565b90610688565b905060188110156102b457806102b7565b60185b6004556005546102c790836105e3565b6005556006546000546102e7916001600160a01b039182169116846106ca565b6006546040805184815290516001600160a01b039092169133917fec37a407e13e9283023de85016cfda169c84b8f0e8dcda13c92311ab8fee7ad5919081900360200190a35050565b60008054604080516370a0823160e01b815230600482015290516001600160a01b03909216916370a0823191602480820192602092909190829003018186803b15801561037c57600080fd5b505afa158015610390573d6000803e3d6000fd5b505050506040513d60208110156103a657600080fd5b505190505b90565b6006546001600160a01b031633146103ff576040805162461bcd60e51b815260206004820152600f60248201526e4e6f742062656e656669636961727960881b604482015290519081900360640190fd5b600680546001600160a01b0319166001600160a01b0392909216919091179055565b6006546001600160a01b031681565b6000601860045410158061044657506002544211155b15610453575060006103ab565b600061047162278d0061029d6002544261064690919063ffffffff16565b9050601881106104fb57600054604080516370a0823160e01b815230600482015290516001600160a01b03909216916370a0823191602480820192602092909190829003018186803b1580156104c657600080fd5b505afa1580156104da573d6000803e3d6000fd5b505050506040513d60208110156104f057600080fd5b505191506103ab9050565b61051c6001546105166004548461064690919063ffffffff16565b90610721565b91505090565b6007805460408051602060026001851615610100026000190190941693909304601f810184900484028201840190925281815292918301828280156105a85780601f1061057d576101008083540402835291602001916105a8565b820191906000526020600020905b81548152906001019060200180831161058b57829003601f168201915b505050505081565b60045481565b60035481565b60025481565b62278d0081565b60055481565b601881565b6000546001600160a01b031681565b60008282018381101561063d576040805162461bcd60e51b815260206004820152601b60248201527f536166654d6174683a206164646974696f6e206f766572666c6f770000000000604482015290519081900360640190fd5b90505b92915050565b600061063d83836040518060400160405280601e81526020017f536166654d6174683a207375627472616374696f6e206f766572666c6f77000081525061077a565b600061063d83836040518060400160405280601a81526020017f536166654d6174683a206469766973696f6e206279207a65726f000000000000815250610816565b604080516001600160a01b038416602482015260448082018490528251808303909101815260649091019091526020810180516001600160e01b031663a9059cbb60e01b17905261071c90849061087b565b505050565b60008261073057506000610640565b8282028284828161073d57fe5b041461063d5760405162461bcd60e51b8152600401808060200182810382526021815260200180610b336021913960400191505060405180910390fd5b600081848411156108095760405162461bcd60e51b81526004018080602001828103825283818151815260200191508051906020019080838360005b838110156107ce5781810151838201526020016107b6565b50505050905090810190601f1680156107fb5780820380516001836020036101000a031916815260200191505b509250505060405180910390fd5b50508183035b9392505050565b600081836108655760405162461bcd60e51b81526020600482018181528351602484015283519092839260449091019190850190808383600083156107ce5781810151838201526020016107b6565b50600083858161087157fe5b0495945050505050565b60606108d0826040518060400160405280602081526020017f5361666545524332303a206c6f772d6c6576656c2063616c6c206661696c6564815250856001600160a01b031661092c9092919063ffffffff16565b80519091501561071c578080602001905160208110156108ef57600080fd5b505161071c5760405162461bcd60e51b815260040180806020018281038252602a815260200180610b54602a913960400191505060405180910390fd5b606061093b8484600085610943565b949350505050565b606030318311156109855760405162461bcd60e51b8152600401808060200182810382526026815260200180610b0d6026913960400191505060405180910390fd5b61098e85610aa0565b6109df576040805162461bcd60e51b815260206004820152601d60248201527f416464726573733a2063616c6c20746f206e6f6e2d636f6e7472616374000000604482015290519081900360640190fd5b60006060866001600160a01b031685876040518082805190602001908083835b60208310610a1e5780518252601f1990920191602091820191016109ff565b6001836020036101000a03801982511681845116808217855250505050505090500191505060006040518083038185875af1925050503d8060008114610a80576040519150601f19603f3d011682016040523d82523d6000602084013e610a85565b606091505b5091509150610a95828286610aa6565b979650505050505050565b3b151590565b60608315610ab557508161080f565b825115610ac55782518084602001fd5b60405162461bcd60e51b81526020600482018181528451602484015284518593919283926044019190850190808383600083156107ce5781810151838201526020016107b656fe416464726573733a20696e73756666696369656e742062616c616e636520666f722063616c6c536166654d6174683a206d756c7469706c69636174696f6e206f766572666c6f775361666545524332303a204552433230206f7065726174696f6e20646964206e6f742073756363656564a2646970667358221220a3382643051ca1ad5be1cdb4ca1ff7d709a4b913ae86748f458ad92e5d4787fd64736f6c634300060c0033",
  "immutableReferences": {},
  "source": "// SPDX-License-Identifier: MIT\r\npragma solidity >=0.4.22 <0.8.0;\r\n\r\nimport '@openzeppelin/contracts/math/SafeMath.sol';\r\nimport '@openzeppelin/contracts/token/ERC20/IERC20.sol';\r\nimport '@openzeppelin/contracts/token/ERC20/SafeERC20.sol';\r\n\r\n\r\ncontract TeamTimeLock {\r\n    using SafeMath for uint;\r\n    using SafeERC20 for IERC20;\r\n\r\n    IERC20 public token;\r\n    uint constant  public PERIOD = 30 days;\r\n    uint constant  public CYCLE_TIMES = 24;\r\n    uint public fixedQuantity;  // Monthly rewards are fixed\r\n    uint public startTime;\r\n    uint public delay;\r\n    uint public cycle;      // cycle already received\r\n    uint public hasReward;  // Rewards already withdrawn\r\n    address public beneficiary;\r\n    string public introduce;\r\n\r\n    event WithDraw(address indexed operator, address indexed to, uint amount);\r\n\r\n    constructor(\r\n        address _beneficiary,\r\n        address _token,\r\n        uint _fixedQuantity,\r\n        uint _startTime,\r\n        uint _delay,\r\n        string memory _introduce\r\n    ) public {\r\n        require(_beneficiary != address(0) && _token != address(0), \"TimeLock: zero address\");\r\n        require(_fixedQuantity > 0, \"TimeLock: fixedQuantity is zero\");\r\n        beneficiary = _beneficiary;\r\n        token = IERC20(_token);\r\n        fixedQuantity = _fixedQuantity;\r\n        delay = _delay;\r\n        startTime = _startTime.add(_delay);\r\n        introduce = _introduce;\r\n    }\r\n\r\n\r\n    function getBalance() public view returns (uint) {\r\n        return token.balanceOf(address(this));\r\n    }\r\n\r\n    function getReward() public view returns (uint) {\r\n        // Has ended or not started\r\n        if (cycle >= CYCLE_TIMES || block.timestamp <= startTime) {\r\n            return 0;\r\n        }\r\n        uint pCycle = (block.timestamp.sub(startTime)).div(PERIOD);\r\n        if (pCycle >= CYCLE_TIMES) {\r\n            return token.balanceOf(address(this));\r\n        }\r\n        return pCycle.sub(cycle).mul(fixedQuantity);\r\n    }\r\n\r\n    function withDraw() external {\r\n        uint reward = getReward();\r\n        require(reward > 0, \"TimeLock: no reward\");\r\n        uint pCycle = (block.timestamp.sub(startTime)).div(PERIOD);\r\n        cycle = pCycle >= CYCLE_TIMES ? CYCLE_TIMES : pCycle;\r\n        hasReward = hasReward.add(reward);\r\n        token.safeTransfer(beneficiary, reward);\r\n        emit WithDraw(msg.sender, beneficiary, reward);\r\n    }\r\n\r\n    // Update beneficiary address by the previous beneficiary.\r\n    function setBeneficiary(address _newBeneficiary) public {\r\n        require(msg.sender == beneficiary, \"Not beneficiary\");\r\n        beneficiary = _newBeneficiary;\r\n    }\r\n}\r\n",
  "sourcePath": "D:/Posao - Stefan/Stefan - razno/Blockchain/ElavateFinance/elavate-core/contracts/mdexSwap/timeLock/TeamTimeLock.sol",
  "compiler": {
    "name": "solc",
    "version": "0.6.12+commit.27d51765.Emscripten.clang"
  },
  "schemaVersion": "3.4.1",
  "updatedAt": "2021-07-16T22:16:58.290Z",
  "devdoc": {
    "kind": "dev",
    "methods": {},
    "version": 1
  },
  "userdoc": {
    "kind": "user",
    "methods": {},
    "version": 1
  }
}