{
  "contractName": "TestToken",
  "abi": [
    {
      "inputs": [],
      "stateMutability": "nonpayable",
      "type": "constructor"
    },
    {
      "anonymous": false,
      "inputs": [
        {
          "indexed": true,
          "internalType": "address",
          "name": "owner",
          "type": "address"
        },
        {
          "indexed": true,
          "internalType": "address",
          "name": "spender",
          "type": "address"
        },
        {
          "indexed": false,
          "internalType": "uint256",
          "name": "value",
          "type": "uint256"
        }
      ],
      "name": "Approval",
      "type": "event"
    },
    {
      "anonymous": false,
      "inputs": [
        {
          "indexed": true,
          "internalType": "address",
          "name": "delegator",
          "type": "address"
        },
        {
          "indexed": true,
          "internalType": "address",
          "name": "fromDelegate",
          "type": "address"
        },
        {
          "indexed": true,
          "internalType": "address",
          "name": "toDelegate",
          "type": "address"
        }
      ],
      "name": "DelegateChanged",
      "type": "event"
    },
    {
      "anonymous": false,
      "inputs": [
        {
          "indexed": true,
          "internalType": "address",
          "name": "delegate",
          "type": "address"
        },
        {
          "indexed": false,
          "internalType": "uint256",
          "name": "previousBalance",
          "type": "uint256"
        },
        {
          "indexed": false,
          "internalType": "uint256",
          "name": "newBalance",
          "type": "uint256"
        }
      ],
      "name": "DelegateVotesChanged",
      "type": "event"
    },
    {
      "anonymous": false,
      "inputs": [
        {
          "indexed": true,
          "internalType": "address",
          "name": "previousOwner",
          "type": "address"
        },
        {
          "indexed": true,
          "internalType": "address",
          "name": "newOwner",
          "type": "address"
        }
      ],
      "name": "OwnershipTransferred",
      "type": "event"
    },
    {
      "anonymous": false,
      "inputs": [
        {
          "indexed": true,
          "internalType": "address",
          "name": "from",
          "type": "address"
        },
        {
          "indexed": true,
          "internalType": "address",
          "name": "to",
          "type": "address"
        },
        {
          "indexed": false,
          "internalType": "uint256",
          "name": "value",
          "type": "uint256"
        }
      ],
      "name": "Transfer",
      "type": "event"
    },
    {
      "inputs": [],
      "name": "DELEGATION_TYPEHASH",
      "outputs": [
        {
          "internalType": "bytes32",
          "name": "",
          "type": "bytes32"
        }
      ],
      "stateMutability": "view",
      "type": "function",
      "constant": true
    },
    {
      "inputs": [],
      "name": "DOMAIN_TYPEHASH",
      "outputs": [
        {
          "internalType": "bytes32",
          "name": "",
          "type": "bytes32"
        }
      ],
      "stateMutability": "view",
      "type": "function",
      "constant": true
    },
    {
      "inputs": [
        {
          "internalType": "address",
          "name": "owner",
          "type": "address"
        },
        {
          "internalType": "address",
          "name": "spender",
          "type": "address"
        }
      ],
      "name": "allowance",
      "outputs": [
        {
          "internalType": "uint256",
          "name": "",
          "type": "uint256"
        }
      ],
      "stateMutability": "view",
      "type": "function",
      "constant": true
    },
    {
      "inputs": [
        {
          "internalType": "address",
          "name": "spender",
          "type": "address"
        },
        {
          "internalType": "uint256",
          "name": "amount",
          "type": "uint256"
        }
      ],
      "name": "approve",
      "outputs": [
        {
          "internalType": "bool",
          "name": "",
          "type": "bool"
        }
      ],
      "stateMutability": "nonpayable",
      "type": "function"
    },
    {
      "inputs": [
        {
          "internalType": "address",
          "name": "account",
          "type": "address"
        }
      ],
      "name": "balanceOf",
      "outputs": [
        {
          "internalType": "uint256",
          "name": "",
          "type": "uint256"
        }
      ],
      "stateMutability": "view",
      "type": "function",
      "constant": true
    },
    {
      "inputs": [
        {
          "internalType": "address",
          "name": "",
          "type": "address"
        },
        {
          "internalType": "uint32",
          "name": "",
          "type": "uint32"
        }
      ],
      "name": "checkpoints",
      "outputs": [
        {
          "internalType": "uint32",
          "name": "fromBlock",
          "type": "uint32"
        },
        {
          "internalType": "uint256",
          "name": "votes",
          "type": "uint256"
        }
      ],
      "stateMutability": "view",
      "type": "function",
      "constant": true
    },
    {
      "inputs": [],
      "name": "decimals",
      "outputs": [
        {
          "internalType": "uint8",
          "name": "",
          "type": "uint8"
        }
      ],
      "stateMutability": "view",
      "type": "function",
      "constant": true
    },
    {
      "inputs": [
        {
          "internalType": "address",
          "name": "spender",
          "type": "address"
        },
        {
          "internalType": "uint256",
          "name": "subtractedValue",
          "type": "uint256"
        }
      ],
      "name": "decreaseAllowance",
      "outputs": [
        {
          "internalType": "bool",
          "name": "",
          "type": "bool"
        }
      ],
      "stateMutability": "nonpayable",
      "type": "function"
    },
    {
      "inputs": [
        {
          "internalType": "address",
          "name": "delegatee",
          "type": "address"
        }
      ],
      "name": "delegate",
      "outputs": [],
      "stateMutability": "nonpayable",
      "type": "function"
    },
    {
      "inputs": [
        {
          "internalType": "address",
          "name": "delegatee",
          "type": "address"
        },
        {
          "internalType": "uint256",
          "name": "nonce",
          "type": "uint256"
        },
        {
          "internalType": "uint256",
          "name": "expiry",
          "type": "uint256"
        },
        {
          "internalType": "uint8",
          "name": "v",
          "type": "uint8"
        },
        {
          "internalType": "bytes32",
          "name": "r",
          "type": "bytes32"
        },
        {
          "internalType": "bytes32",
          "name": "s",
          "type": "bytes32"
        }
      ],
      "name": "delegateBySig",
      "outputs": [],
      "stateMutability": "nonpayable",
      "type": "function"
    },
    {
      "inputs": [
        {
          "internalType": "address",
          "name": "account",
          "type": "address"
        }
      ],
      "name": "getCurrentVotes",
      "outputs": [
        {
          "internalType": "uint256",
          "name": "",
          "type": "uint256"
        }
      ],
      "stateMutability": "view",
      "type": "function",
      "constant": true
    },
    {
      "inputs": [
        {
          "internalType": "address",
          "name": "account",
          "type": "address"
        },
        {
          "internalType": "uint256",
          "name": "blockNumber",
          "type": "uint256"
        }
      ],
      "name": "getPriorVotes",
      "outputs": [
        {
          "internalType": "uint256",
          "name": "",
          "type": "uint256"
        }
      ],
      "stateMutability": "view",
      "type": "function",
      "constant": true
    },
    {
      "inputs": [
        {
          "internalType": "address",
          "name": "spender",
          "type": "address"
        },
        {
          "internalType": "uint256",
          "name": "addedValue",
          "type": "uint256"
        }
      ],
      "name": "increaseAllowance",
      "outputs": [
        {
          "internalType": "bool",
          "name": "",
          "type": "bool"
        }
      ],
      "stateMutability": "nonpayable",
      "type": "function"
    },
    {
      "inputs": [],
      "name": "name",
      "outputs": [
        {
          "internalType": "string",
          "name": "",
          "type": "string"
        }
      ],
      "stateMutability": "view",
      "type": "function",
      "constant": true
    },
    {
      "inputs": [
        {
          "internalType": "address",
          "name": "",
          "type": "address"
        }
      ],
      "name": "nonces",
      "outputs": [
        {
          "internalType": "uint256",
          "name": "",
          "type": "uint256"
        }
      ],
      "stateMutability": "view",
      "type": "function",
      "constant": true
    },
    {
      "inputs": [
        {
          "internalType": "address",
          "name": "",
          "type": "address"
        }
      ],
      "name": "numCheckpoints",
      "outputs": [
        {
          "internalType": "uint32",
          "name": "",
          "type": "uint32"
        }
      ],
      "stateMutability": "view",
      "type": "function",
      "constant": true
    },
    {
      "inputs": [],
      "name": "owner",
      "outputs": [
        {
          "internalType": "address",
          "name": "",
          "type": "address"
        }
      ],
      "stateMutability": "view",
      "type": "function",
      "constant": true
    },
    {
      "inputs": [],
      "name": "renounceOwnership",
      "outputs": [],
      "stateMutability": "nonpayable",
      "type": "function"
    },
    {
      "inputs": [],
      "name": "symbol",
      "outputs": [
        {
          "internalType": "string",
          "name": "",
          "type": "string"
        }
      ],
      "stateMutability": "view",
      "type": "function",
      "constant": true
    },
    {
      "inputs": [],
      "name": "totalSupply",
      "outputs": [
        {
          "internalType": "uint256",
          "name": "",
          "type": "uint256"
        }
      ],
      "stateMutability": "view",
      "type": "function",
      "constant": true
    },
    {
      "inputs": [
        {
          "internalType": "address",
          "name": "recipient",
          "type": "address"
        },
        {
          "internalType": "uint256",
          "name": "amount",
          "type": "uint256"
        }
      ],
      "name": "transfer",
      "outputs": [
        {
          "internalType": "bool",
          "name": "",
          "type": "bool"
        }
      ],
      "stateMutability": "nonpayable",
      "type": "function"
    },
    {
      "inputs": [
        {
          "internalType": "address",
          "name": "sender",
          "type": "address"
        },
        {
          "internalType": "address",
          "name": "recipient",
          "type": "address"
        },
        {
          "internalType": "uint256",
          "name": "amount",
          "type": "uint256"
        }
      ],
      "name": "transferFrom",
      "outputs": [
        {
          "internalType": "bool",
          "name": "",
          "type": "bool"
        }
      ],
      "stateMutability": "nonpayable",
      "type": "function"
    },
    {
      "inputs": [
        {
          "internalType": "address",
          "name": "newOwner",
          "type": "address"
        }
      ],
      "name": "transferOwnership",
      "outputs": [],
      "stateMutability": "nonpayable",
      "type": "function"
    },
    {
      "inputs": [
        {
          "internalType": "address",
          "name": "_to",
          "type": "address"
        },
        {
          "internalType": "uint256",
          "name": "_amount",
          "type": "uint256"
        }
      ],
      "name": "mint",
      "outputs": [
        {
          "internalType": "bool",
          "name": "",
          "type": "bool"
        }
      ],
      "stateMutability": "nonpayable",
      "type": "function"
    },
    {
      "inputs": [
        {
          "internalType": "address",
          "name": "_addMinter",
          "type": "address"
        }
      ],
      "name": "addMinter",
      "outputs": [
        {
          "internalType": "bool",
          "name": "",
          "type": "bool"
        }
      ],
      "stateMutability": "nonpayable",
      "type": "function"
    },
    {
      "inputs": [
        {
          "internalType": "address",
          "name": "_delMinter",
          "type": "address"
        }
      ],
      "name": "delMinter",
      "outputs": [
        {
          "internalType": "bool",
          "name": "",
          "type": "bool"
        }
      ],
      "stateMutability": "nonpayable",
      "type": "function"
    },
    {
      "inputs": [],
      "name": "getMinterLength",
      "outputs": [
        {
          "internalType": "uint256",
          "name": "",
          "type": "uint256"
        }
      ],
      "stateMutability": "view",
      "type": "function",
      "constant": true
    },
    {
      "inputs": [
        {
          "internalType": "address",
          "name": "account",
          "type": "address"
        }
      ],
      "name": "isMinter",
      "outputs": [
        {
          "internalType": "bool",
          "name": "",
          "type": "bool"
        }
      ],
      "stateMutability": "view",
      "type": "function",
      "constant": true
    },
    {
      "inputs": [
        {
          "internalType": "uint256",
          "name": "_index",
          "type": "uint256"
        }
      ],
      "name": "getMinter",
      "outputs": [
        {
          "internalType": "address",
          "name": "",
          "type": "address"
        }
      ],
      "stateMutability": "view",
      "type": "function",
      "constant": true
    }
  ],
  "bytecode": "0x60806040523480156200001157600080fd5b506040518060400160405280600a81526020017f5465737420546f6b656e000000000000000000000000000000000000000000008152506040518060400160405280600381526020017f545354000000000000000000000000000000000000000000000000000000000081525081600390805190602001906200009692919062000687565b508051620000ac90600490602084019062000687565b50506005805460ff19166012179055506000620000c862000133565b600a80546001600160a01b0319166001600160a01b038316908117909155604051919250906000907f8be0079c531659141344cd1fd0a4f28419497f9722a3daafe3b4186f6b6457e0908290a3506200012d336aa56fa5b99019a5c800000062000137565b620007fe565b3390565b6200014e82826200017960201b62000e8d1760201c565b6001600160a01b03808316600090815260066020526040812054620001759216836200027f565b5050565b6001600160a01b038216620001c5576040517f08c379a0000000000000000000000000000000000000000000000000000000008152600401620001bc90620007b0565b60405180910390fd5b620001d360008383620003ec565b620001ef81600254620003f160201b62000f4d1790919060201c565b6002556001600160a01b038216600090815260208181526040909120546200022291839062000f4d620003f1821b17901c565b6001600160a01b0383166000818152602081905260408082209390935591519091907fddf252ad1be2c89b69c2b068fc378daa952ba7f163c4a11628f55a4df523b3ef9062000273908590620007e7565b60405180910390a35050565b816001600160a01b0316836001600160a01b031614158015620002a25750600081115b15620003ec576001600160a01b038316156200034a576001600160a01b03831660009081526008602052604081205463ffffffff169081620002e657600062000318565b6001600160a01b038516600090815260076020908152604080832063ffffffff60001987011684529091529020600101545b905060006200033684836200043a60201b62000f721790919060201c565b9050620003468684848462000484565b5050505b6001600160a01b03821615620003ec576001600160a01b03821660009081526008602052604081205463ffffffff16908162000388576000620003ba565b6001600160a01b038416600090815260076020908152604080832063ffffffff60001987011684529091529020600101545b90506000620003d88483620003f160201b62000f4d1790919060201c565b9050620003e88584848462000484565b5050505b505050565b60008282018381101562000433576040517f08c379a0000000000000000000000000000000000000000000000000000000008152600401620001bc9062000779565b9392505050565b60006200043383836040518060400160405280601e81526020017f536166654d6174683a207375627472616374696f6e206f766572666c6f770000815250620005f160201b60201c565b6000620004ab43604051806060016040528060388152602001620027b0603891396200063a565b905060008463ffffffff16118015620004f557506001600160a01b038516600090815260076020908152604080832063ffffffff6000198901811685529252909120548282169116145b1562000534576001600160a01b038516600090815260076020908152604080832063ffffffff60001989011684529091529020600101829055620005a5565b60408051808201825263ffffffff808416825260208083018681526001600160a01b038a166000818152600784528681208b8616825284528681209551865490861663ffffffff19918216178755925160019687015590815260089092529390208054928801909116919092161790555b846001600160a01b03167fdec2bacdd2f05b59de34da9b523dff8be42e5e38e818c82fdb0bae774387a7248484604051620005e2929190620007f0565b60405180910390a25050505050565b6000818484111562000632576040517f08c379a0000000000000000000000000000000000000000000000000000000008152600401620001bc919062000723565b505050900390565b60008164010000000084106200067f576040517f08c379a0000000000000000000000000000000000000000000000000000000008152600401620001bc919062000723565b509192915050565b828054600181600116156101000203166002900490600052602060002090601f016020900481019282601f10620006ca57805160ff1916838001178555620006fa565b82800160010185558215620006fa579182015b82811115620006fa578251825591602001919060010190620006dd565b50620007089291506200070c565b5090565b5b808211156200070857600081556001016200070d565b6000602080835283518082850152825b81811015620007515785810183015185820160400152820162000733565b81811115620007635783604083870101525b50601f01601f1916929092016040019392505050565b6020808252601b908201527f536166654d6174683a206164646974696f6e206f766572666c6f770000000000604082015260600190565b6020808252601f908201527f45524332303a206d696e7420746f20746865207a65726f206164647265737300604082015260600190565b90815260200190565b918252602082015260400190565b611fa2806200080e6000396000f3fe608060405234801561001057600080fd5b50600436106101cf5760003560e01c8063715018a611610104578063a9059cbb116100a2578063dd62ed3e11610071578063dd62ed3e146103b0578063e7a324dc146103c3578063f1127ed8146103cb578063f2fde38b146103ec576101cf565b8063a9059cbb14610364578063aa271e1a14610377578063b4b5ea571461038a578063c3cda5201461039d576101cf565b80638da5cb5b116100de5780638da5cb5b1461032e57806395d89b4114610336578063983b2d561461033e578063a457c2d714610351576101cf565b8063715018a614610300578063782d6fe1146103085780637ecebe001461031b576101cf565b8063313ce567116101715780635b7121f81161014b5780635b7121f8146102985780635c19a95c146102b85780636fcfff45146102cd57806370a08231146102ed576101cf565b8063313ce5671461025d578063395093511461027257806340c10f1914610285576101cf565b806318160ddd116101ad57806318160ddd1461022757806320606b701461022f57806323338b881461023757806323b872dd1461024a576101cf565b80630323aac7146101d457806306fdde03146101f2578063095ea7b314610207575b600080fd5b6101dc6103ff565b6040516101e99190611949565b60405180910390f35b6101fa610410565b6040516101e991906119b8565b61021a61021536600461182f565b6104a6565b6040516101e9919061193e565b6101dc6104c4565b6101dc6104ca565b61021a6102453660046117a0565b6104ee565b61021a6102583660046117ef565b61055f565b6102656105e6565b6040516101e99190611e9e565b61021a61028036600461182f565b6105ef565b61021a61029336600461182f565b61063d565b6102ab6102a63660046118f7565b61069b565b6040516101e9919061192a565b6102cb6102c63660046117a0565b610707565b005b6102e06102db3660046117a0565b610714565b6040516101e99190611e77565b6101dc6102fb3660046117a0565b61072c565b6102cb610747565b6101dc61031636600461182f565b6107c6565b6101dc6103293660046117a0565b6109af565b6102ab6109c1565b6101fa6109d0565b61021a61034c3660046117a0565b610a31565b61021a61035f36600461182f565b610a99565b61021a61037236600461182f565b610b01565b61021a6103853660046117a0565b610b15565b6101dc6103983660046117a0565b610b22565b6102cb6103ab366004611859565b610b86565b6101dc6103be3660046117bb565b610d5a565b6101dc610d85565b6103de6103d93660046118b8565b610da9565b6040516101e9929190611e88565b6102cb6103fa3660046117a0565b610dd6565b600061040b600b610fb4565b905090565b60038054604080516020601f600260001961010060018816150201909516949094049384018190048102820181019092528281526060939092909183018282801561049c5780601f106104715761010080835404028352916020019161049c565b820191906000526020600020905b81548152906001019060200180831161047f57829003601f168201915b5050505050905090565b60006104ba6104b3610fbf565b8484610fc3565b5060015b92915050565b60025490565b7f8cad95687ba82c2ce50e74f7b754645e5117c3a5bec8151c0726d5857980a86681565b60006104f8610fbf565b600a546001600160a01b0390811691161461052e5760405162461bcd60e51b815260040161052590611d74565b60405180910390fd5b6001600160a01b0382166105545760405162461bcd60e51b815260040161052590611c2d565b6104be600b83611077565b600061056c84848461108c565b6105dc84610578610fbf565b6105d785604051806060016040528060288152602001611f20602891396001600160a01b038a166000908152600160205260408120906105b6610fbf565b6001600160a01b0316815260208101919091526040016000205491906110ce565b610fc3565b5060019392505050565b60055460ff1690565b60006104ba6105fc610fbf565b846105d7856001600061060d610fbf565b6001600160a01b03908116825260208083019390935260409182016000908120918c168152925290205490610f4d565b600061064833610b15565b6106645760405162461bcd60e51b815260040161052590611d06565b6b033b2e3c9fd0803ce800000061068361067c6104c4565b8490610f4d565b1115610691575060006104be565b6104ba83836110fa565b60006106a5610fbf565b600a546001600160a01b039081169116146106d25760405162461bcd60e51b815260040161052590611d74565b60016106dc6103ff565b038211156106fc5760405162461bcd60e51b815260040161052590611d3d565b6104be600b8361112d565b6107113382611139565b50565b60086020526000908152604090205463ffffffff1681565b6001600160a01b031660009081526020819052604090205490565b61074f610fbf565b600a546001600160a01b0390811691161461077c5760405162461bcd60e51b815260040161052590611d74565b600a546040516000916001600160a01b0316907f8be0079c531659141344cd1fd0a4f28419497f9722a3daafe3b4186f6b6457e0908390a3600a80546001600160a01b0319169055565b60004382106107e75760405162461bcd60e51b815260040161052590611bab565b6001600160a01b03831660009081526008602052604090205463ffffffff16806108155760009150506104be565b6001600160a01b038416600090815260076020908152604080832063ffffffff600019860181168552925290912054168310610884576001600160a01b03841660009081526007602090815260408083206000199490940163ffffffff168352929052206001015490506104be565b6001600160a01b038416600090815260076020908152604080832083805290915290205463ffffffff168310156108bf5760009150506104be565b600060001982015b8163ffffffff168163ffffffff16111561097857600282820363ffffffff160481036108f1611772565b506001600160a01b038716600090815260076020908152604080832063ffffffff808616855290835292819020815180830190925280549093168082526001909301549181019190915290871415610953576020015194506104be9350505050565b805163ffffffff1687111561096a57819350610971565b6001820392505b50506108c7565b506001600160a01b038516600090815260076020908152604080832063ffffffff9094168352929052206001015491505092915050565b60096020526000908152604090205481565b600a546001600160a01b031690565b60048054604080516020601f600260001961010060018816150201909516949094049384018190048102820181019092528281526060939092909183018282801561049c5780601f106104715761010080835404028352916020019161049c565b6000610a3b610fbf565b600a546001600160a01b03908116911614610a685760405162461bcd60e51b815260040161052590611d74565b6001600160a01b038216610a8e5760405162461bcd60e51b815260040161052590611ada565b6104be600b836111eb565b60006104ba610aa6610fbf565b846105d785604051806060016040528060258152602001611f486025913960016000610ad0610fbf565b6001600160a01b03908116825260208083019390935260409182016000908120918d168152925290205491906110ce565b60006104ba610b0e610fbf565b848461108c565b60006104be600b83611200565b6001600160a01b03811660009081526008602052604081205463ffffffff1680610b4d576000610b7f565b6001600160a01b038316600090815260076020908152604080832063ffffffff60001986011684529091529020600101545b9392505050565b60007f8cad95687ba82c2ce50e74f7b754645e5117c3a5bec8151c0726d5857980a866610bb1610410565b80519060200120610bc0611215565b30604051602001610bd49493929190611976565b60405160208183030381529060405280519060200120905060007fe48329057bfd03d55e49b547132e39cffd9c1820ad7b9d4c5307691425d15adf888888604051602001610c259493929190611952565b60405160208183030381529060405280519060200120905060008282604051602001610c5292919061190f565b604051602081830303815290604052805190602001209050600060018288888860405160008152602001604052604051610c8f949392919061199a565b6020604051602081039080840390855afa158015610cb1573d6000803e3d6000fd5b5050604051601f1901519150506001600160a01b038116610ce45760405162461bcd60e51b815260040161052590611c76565b6001600160a01b03811660009081526009602052604090208054600181019091558914610d235760405162461bcd60e51b815260040161052590611cc0565b87421115610d435760405162461bcd60e51b815260040161052590611a90565b610d4d818b611139565b505050505b505050505050565b6001600160a01b03918216600090815260016020908152604080832093909416825291909152205490565b7fe48329057bfd03d55e49b547132e39cffd9c1820ad7b9d4c5307691425d15adf81565b60076020908152600092835260408084209091529082529020805460019091015463ffffffff9091169082565b610dde610fbf565b600a546001600160a01b03908116911614610e0b5760405162461bcd60e51b815260040161052590611d74565b6001600160a01b038116610e315760405162461bcd60e51b815260040161052590611b23565b600a546040516001600160a01b038084169216907f8be0079c531659141344cd1fd0a4f28419497f9722a3daafe3b4186f6b6457e090600090a3600a80546001600160a01b0319166001600160a01b0392909216919091179055565b6001600160a01b038216610eb35760405162461bcd60e51b815260040161052590611e32565b610ebf600083836110c9565b600254610ecc9082610f4d565b6002556001600160a01b038216600090815260208190526040902054610ef29082610f4d565b6001600160a01b0383166000818152602081905260408082209390935591519091907fddf252ad1be2c89b69c2b068fc378daa952ba7f163c4a11628f55a4df523b3ef90610f41908590611949565b60405180910390a35050565b600082820183811015610b7f5760405162461bcd60e51b815260040161052590611bf6565b6000610b7f83836040518060400160405280601e81526020017f536166654d6174683a207375627472616374696f6e206f766572666c6f7700008152506110ce565b60006104be8261121a565b3390565b6001600160a01b038316610fe95760405162461bcd60e51b815260040161052590611dee565b6001600160a01b03821661100f5760405162461bcd60e51b815260040161052590611b69565b6001600160a01b0380841660008181526001602090815260408083209487168084529490915290819020849055517f8c5be1e5ebec7d5bd14f71427d1e84f3dd0314c0f7b2291e5b200ac8c7c3b9259061106a908590611949565b60405180910390a3505050565b6000610b7f836001600160a01b03841661121e565b6110978383836112e4565b6001600160a01b038084166000908152600660205260408082205485841683529120546110c9929182169116836113f9565b505050565b600081848411156110f25760405162461bcd60e51b815260040161052591906119b8565b505050900390565b6111048282610e8d565b6001600160a01b038083166000908152600660205260408120546111299216836113f9565b5050565b6000610b7f8383611536565b6001600160a01b03808316600090815260066020526040812054909116906111608461072c565b6001600160a01b03858116600090815260066020526040902080546001600160a01b031916918616919091179055905061119b8284836113f9565b826001600160a01b0316826001600160a01b0316856001600160a01b03167f3134e8a2e6d97e929a7e54011ea5485d7d196dd5f0ba4d4ef95803e8e3fc257f60405160405180910390a450505050565b6000610b7f836001600160a01b03841661157b565b6000610b7f836001600160a01b0384166115c5565b601490565b5490565b600081815260018301602052604081205480156112da578354600019808301919081019060009087908390811061125157fe5b906000526020600020015490508087600001848154811061126e57fe5b60009182526020808320909101929092558281526001898101909252604090209084019055865487908061129e57fe5b600190038181906000526020600020016000905590558660010160008781526020019081526020016000206000905560019450505050506104be565b60009150506104be565b6001600160a01b03831661130a5760405162461bcd60e51b815260040161052590611da9565b6001600160a01b0382166113305760405162461bcd60e51b815260040161052590611a4d565b61133b8383836110c9565b61137881604051806060016040528060268152602001611efa602691396001600160a01b03861660009081526020819052604090205491906110ce565b6001600160a01b0380851660009081526020819052604080822093909355908416815220546113a79082610f4d565b6001600160a01b0380841660008181526020819052604090819020939093559151908516907fddf252ad1be2c89b69c2b068fc378daa952ba7f163c4a11628f55a4df523b3ef9061106a908590611949565b816001600160a01b0316836001600160a01b03161415801561141b5750600081115b156110c9576001600160a01b038316156114ad576001600160a01b03831660009081526008602052604081205463ffffffff16908161145b57600061148d565b6001600160a01b038516600090815260076020908152604080832063ffffffff60001987011684529091529020600101545b9050600061149b8285610f72565b90506114a9868484846115dd565b5050505b6001600160a01b038216156110c9576001600160a01b03821660009081526008602052604081205463ffffffff1690816114e857600061151a565b6001600160a01b038416600090815260076020908152604080832063ffffffff60001987011684529091529020600101545b905060006115288285610f4d565b9050610d52858484846115dd565b815460009082106115595760405162461bcd60e51b815260040161052590611a0b565b82600001828154811061156857fe5b9060005260206000200154905092915050565b600061158783836115c5565b6115bd575081546001818101845560008481526020808220909301849055845484825282860190935260409020919091556104be565b5060006104be565b60009081526001919091016020526040902054151590565b600061160143604051806060016040528060388152602001611ec260389139611742565b905060008463ffffffff1611801561164a57506001600160a01b038516600090815260076020908152604080832063ffffffff6000198901811685529252909120548282169116145b15611687576001600160a01b038516600090815260076020908152604080832063ffffffff600019890116845290915290206001018290556116f8565b60408051808201825263ffffffff808416825260208083018681526001600160a01b038a166000818152600784528681208b8616825284528681209551865490861663ffffffff19918216178755925160019687015590815260089092529390208054928801909116919092161790555b846001600160a01b03167fdec2bacdd2f05b59de34da9b523dff8be42e5e38e818c82fdb0bae774387a7248484604051611733929190611e69565b60405180910390a25050505050565b600081640100000000841061176a5760405162461bcd60e51b815260040161052591906119b8565b509192915050565b604080518082019091526000808252602082015290565b80356001600160a01b03811681146104be57600080fd5b6000602082840312156117b1578081fd5b610b7f8383611789565b600080604083850312156117cd578081fd5b6117d78484611789565b91506117e68460208501611789565b90509250929050565b600080600060608486031215611803578081fd5b833561180e81611eac565b9250602084013561181e81611eac565b929592945050506040919091013590565b60008060408385031215611841578182fd5b61184b8484611789565b946020939093013593505050565b60008060008060008060c08789031215611871578182fd5b61187b8888611789565b95506020870135945060408701359350606087013560ff8116811461189e578283fd5b9598949750929560808101359460a0909101359350915050565b600080604083850312156118ca578182fd5b6118d48484611789565b9150602083013563ffffffff811681146118ec578182fd5b809150509250929050565b600060208284031215611908578081fd5b5035919050565b61190160f01b81526002810192909252602282015260420190565b6001600160a01b0391909116815260200190565b901515815260200190565b90815260200190565b9384526001600160a01b039290921660208401526040830152606082015260800190565b938452602084019290925260408301526001600160a01b0316606082015260800190565b93845260ff9290921660208401526040830152606082015260800190565b6000602080835283518082850152825b818110156119e4578581018301518582016040015282016119c8565b818111156119f55783604083870101525b50601f01601f1916929092016040019392505050565b60208082526022908201527f456e756d657261626c655365743a20696e646578206f7574206f6620626f756e604082015261647360f01b606082015260800190565b60208082526023908201527f45524332303a207472616e7366657220746f20746865207a65726f206164647260408201526265737360e81b606082015260800190565b6020808252602a908201527f4d6478546f6b656e3a3a64656c656761746542795369673a207369676e6174756040820152691c9948195e1c1a5c995960b21b606082015260800190565b60208082526029908201527f54657374546f6b656e3a205f6164644d696e74657220697320746865207a65726040820152686f206164647265737360b81b606082015260800190565b60208082526026908201527f4f776e61626c653a206e6577206f776e657220697320746865207a65726f206160408201526564647265737360d01b606082015260800190565b60208082526022908201527f45524332303a20617070726f766520746f20746865207a65726f206164647265604082015261737360f01b606082015260800190565b6020808252602b908201527f4d6478546f6b656e3a3a6765745072696f72566f7465733a206e6f742079657460408201526a0819195d195c9b5a5b995960aa1b606082015260800190565b6020808252601b908201527f536166654d6174683a206164646974696f6e206f766572666c6f770000000000604082015260600190565b60208082526029908201527f54657374546f6b656e3a205f64656c4d696e74657220697320746865207a65726040820152686f206164647265737360b81b606082015260800190565b6020808252602a908201527f4d6478546f6b656e3a3a64656c656761746542795369673a20696e76616c6964604082015269207369676e617475726560b01b606082015260800190565b60208082526026908201527f4d6478546f6b656e3a3a64656c656761746542795369673a20696e76616c6964604082015265206e6f6e636560d01b606082015260800190565b60208082526018908201527f63616c6c6572206973206e6f7420746865206d696e7465720000000000000000604082015260600190565b6020808252601d908201527f4d6478546f6b656e3a20696e646578206f7574206f6620626f756e6473000000604082015260600190565b6020808252818101527f4f776e61626c653a2063616c6c6572206973206e6f7420746865206f776e6572604082015260600190565b60208082526025908201527f45524332303a207472616e736665722066726f6d20746865207a65726f206164604082015264647265737360d81b606082015260800190565b60208082526024908201527f45524332303a20617070726f76652066726f6d20746865207a65726f206164646040820152637265737360e01b606082015260800190565b6020808252601f908201527f45524332303a206d696e7420746f20746865207a65726f206164647265737300604082015260600190565b918252602082015260400190565b63ffffffff91909116815260200190565b63ffffffff929092168252602082015260400190565b60ff91909116815260200190565b6001600160a01b038116811461071157600080fdfe4d6478546f6b656e3a3a5f7772697465436865636b706f696e743a20626c6f636b206e756d6265722065786365656473203332206269747345524332303a207472616e7366657220616d6f756e7420657863656564732062616c616e636545524332303a207472616e7366657220616d6f756e74206578636565647320616c6c6f77616e636545524332303a2064656372656173656420616c6c6f77616e63652062656c6f77207a65726fa264697066735822122092f043e01e0484122dbae5cbc1f3a667352b455110c619323a858e05cf8aa8c564736f6c634300060c00334d6478546f6b656e3a3a5f7772697465436865636b706f696e743a20626c6f636b206e756d62657220657863656564732033322062697473",
  "immutableReferences": {},
  "source": "// SPDX-License-Identifier: MIT\r\npragma solidity >=0.4.22 <0.8.0;\r\npragma experimental ABIEncoderV2;\r\n\r\nimport \"@openzeppelin/contracts/token/ERC20/ERC20.sol\";\r\nimport \"@openzeppelin/contracts/access/Ownable.sol\";\r\nimport \"@openzeppelin/contracts/utils/EnumerableSet.sol\";\r\n\r\nabstract contract DelegateERC20 is ERC20 {\r\n    /// @notice A record of each accounts delegate\r\n    mapping (address => address) internal _delegates;\r\n\r\n    /// @notice A checkpoint for marking number of votes from a given block\r\n    struct Checkpoint {\r\n        uint32 fromBlock;\r\n        uint256 votes;\r\n    }\r\n\r\n    /// @notice A record of votes checkpoints for each account, by index\r\n    mapping (address => mapping (uint32 => Checkpoint)) public checkpoints;\r\n\r\n    /// @notice The number of checkpoints for each account\r\n    mapping (address => uint32) public numCheckpoints;\r\n\r\n    /// @notice The EIP-712 typehash for the contract's domain\r\n    bytes32 public constant DOMAIN_TYPEHASH = keccak256(\"EIP712Domain(string name,uint256 chainId,address verifyingContract)\");\r\n\r\n    /// @notice The EIP-712 typehash for the delegation struct used by the contract\r\n    bytes32 public constant DELEGATION_TYPEHASH = keccak256(\"Delegation(address delegatee,uint256 nonce,uint256 expiry)\");\r\n\r\n    /// @notice A record of states for signing / validating signatures\r\n    mapping (address => uint) public nonces;\r\n\r\n\r\n    // support delegates mint\r\n    function _mint(address account, uint256 amount) internal override virtual {\r\n        super._mint(account, amount);\r\n\r\n        // add delegates to the minter\r\n        _moveDelegates(address(0), _delegates[account], amount);\r\n    }\r\n\r\n\r\n    function _transfer(address sender, address recipient, uint256 amount) internal override virtual {\r\n        super._transfer(sender, recipient, amount);\r\n        _moveDelegates(_delegates[sender], _delegates[recipient], amount);\r\n    }\r\n\r\n\r\n    /**\r\n    * @notice Delegate votes from `msg.sender` to `delegatee`\r\n    * @param delegatee The address to delegate votes to\r\n    */\r\n    function delegate(address delegatee) external {\r\n        return _delegate(msg.sender, delegatee);\r\n    }\r\n\r\n    /**\r\n     * @notice Delegates votes from signatory to `delegatee`\r\n     * @param delegatee The address to delegate votes to\r\n     * @param nonce The contract state required to match the signature\r\n     * @param expiry The time at which to expire the signature\r\n     * @param v The recovery byte of the signature\r\n     * @param r Half of the ECDSA signature pair\r\n     * @param s Half of the ECDSA signature pair\r\n     */\r\n    function delegateBySig(\r\n        address delegatee,\r\n        uint nonce,\r\n        uint expiry,\r\n        uint8 v,\r\n        bytes32 r,\r\n        bytes32 s\r\n    )\r\n    external\r\n    {\r\n        bytes32 domainSeparator = keccak256(\r\n            abi.encode(\r\n                DOMAIN_TYPEHASH,\r\n                keccak256(bytes(name())),\r\n                getChainId(),\r\n                address(this)\r\n            )\r\n        );\r\n\r\n        bytes32 structHash = keccak256(\r\n            abi.encode(\r\n                DELEGATION_TYPEHASH,\r\n                delegatee,\r\n                nonce,\r\n                expiry\r\n            )\r\n        );\r\n\r\n        bytes32 digest = keccak256(\r\n            abi.encodePacked(\r\n                \"\\x19\\x01\",\r\n                domainSeparator,\r\n                structHash\r\n            )\r\n        );\r\n\r\n        address signatory = ecrecover(digest, v, r, s);\r\n        require(signatory != address(0), \"MdxToken::delegateBySig: invalid signature\");\r\n        require(nonce == nonces[signatory]++, \"MdxToken::delegateBySig: invalid nonce\");\r\n        require(now <= expiry, \"MdxToken::delegateBySig: signature expired\");\r\n        return _delegate(signatory, delegatee);\r\n    }\r\n\r\n    /**\r\n     * @notice Gets the current votes balance for `account`\r\n     * @param account The address to get votes balance\r\n     * @return The number of current votes for `account`\r\n     */\r\n    function getCurrentVotes(address account)\r\n    external\r\n    view\r\n    returns (uint256)\r\n    {\r\n        uint32 nCheckpoints = numCheckpoints[account];\r\n        return nCheckpoints > 0 ? checkpoints[account][nCheckpoints - 1].votes : 0;\r\n    }\r\n\r\n    /**\r\n     * @notice Determine the prior number of votes for an account as of a block number\r\n     * @dev Block number must be a finalized block or else this function will revert to prevent misinformation.\r\n     * @param account The address of the account to check\r\n     * @param blockNumber The block number to get the vote balance at\r\n     * @return The number of votes the account had as of the given block\r\n     */\r\n    function getPriorVotes(address account, uint blockNumber)\r\n    external\r\n    view\r\n    returns (uint256)\r\n    {\r\n        require(blockNumber < block.number, \"MdxToken::getPriorVotes: not yet determined\");\r\n\r\n        uint32 nCheckpoints = numCheckpoints[account];\r\n        if (nCheckpoints == 0) {\r\n            return 0;\r\n        }\r\n\r\n        // First check most recent balance\r\n        if (checkpoints[account][nCheckpoints - 1].fromBlock <= blockNumber) {\r\n            return checkpoints[account][nCheckpoints - 1].votes;\r\n        }\r\n\r\n        // Next check implicit zero balance\r\n        if (checkpoints[account][0].fromBlock > blockNumber) {\r\n            return 0;\r\n        }\r\n\r\n        uint32 lower = 0;\r\n        uint32 upper = nCheckpoints - 1;\r\n        while (upper > lower) {\r\n            uint32 center = upper - (upper - lower) / 2; // ceil, avoiding overflow\r\n            Checkpoint memory cp = checkpoints[account][center];\r\n            if (cp.fromBlock == blockNumber) {\r\n                return cp.votes;\r\n            } else if (cp.fromBlock < blockNumber) {\r\n                lower = center;\r\n            } else {\r\n                upper = center - 1;\r\n            }\r\n        }\r\n        return checkpoints[account][lower].votes;\r\n    }\r\n\r\n    function _delegate(address delegator, address delegatee)\r\n    internal\r\n    {\r\n        address currentDelegate = _delegates[delegator];\r\n        uint256 delegatorBalance = balanceOf(delegator); // balance of underlying balances (not scaled);\r\n        _delegates[delegator] = delegatee;\r\n\r\n        _moveDelegates(currentDelegate, delegatee, delegatorBalance);\r\n\r\n        emit DelegateChanged(delegator, currentDelegate, delegatee);\r\n    }\r\n\r\n    function _moveDelegates(address srcRep, address dstRep, uint256 amount) internal {\r\n        if (srcRep != dstRep && amount > 0) {\r\n            if (srcRep != address(0)) {\r\n                // decrease old representative\r\n                uint32 srcRepNum = numCheckpoints[srcRep];\r\n                uint256 srcRepOld = srcRepNum > 0 ? checkpoints[srcRep][srcRepNum - 1].votes : 0;\r\n                uint256 srcRepNew = srcRepOld.sub(amount);\r\n                _writeCheckpoint(srcRep, srcRepNum, srcRepOld, srcRepNew);\r\n            }\r\n\r\n            if (dstRep != address(0)) {\r\n                // increase new representative\r\n                uint32 dstRepNum = numCheckpoints[dstRep];\r\n                uint256 dstRepOld = dstRepNum > 0 ? checkpoints[dstRep][dstRepNum - 1].votes : 0;\r\n                uint256 dstRepNew = dstRepOld.add(amount);\r\n                _writeCheckpoint(dstRep, dstRepNum, dstRepOld, dstRepNew);\r\n            }\r\n        }\r\n    }\r\n\r\n    function _writeCheckpoint(\r\n        address delegatee,\r\n        uint32 nCheckpoints,\r\n        uint256 oldVotes,\r\n        uint256 newVotes\r\n    )\r\n    internal\r\n    {\r\n        uint32 blockNumber = safe32(block.number, \"MdxToken::_writeCheckpoint: block number exceeds 32 bits\");\r\n\r\n        if (nCheckpoints > 0 && checkpoints[delegatee][nCheckpoints - 1].fromBlock == blockNumber) {\r\n            checkpoints[delegatee][nCheckpoints - 1].votes = newVotes;\r\n        } else {\r\n            checkpoints[delegatee][nCheckpoints] = Checkpoint(blockNumber, newVotes);\r\n            numCheckpoints[delegatee] = nCheckpoints + 1;\r\n        }\r\n\r\n        emit DelegateVotesChanged(delegatee, oldVotes, newVotes);\r\n    }\r\n\r\n    function safe32(uint n, string memory errorMessage) internal pure returns (uint32) {\r\n        require(n < 2**32, errorMessage);\r\n        return uint32(n);\r\n    }\r\n\r\n    function getChainId() internal pure returns (uint) {\r\n        uint256 chainId;\r\n        assembly { chainId := 20 } // Fixed to 20\r\n\r\n        return chainId;\r\n    }\r\n\r\n    /// @notice An event thats emitted when an account changes its delegate\r\n    event DelegateChanged(address indexed delegator, address indexed fromDelegate, address indexed toDelegate);\r\n\r\n    /// @notice An event thats emitted when a delegate account's vote balance changes\r\n    event DelegateVotesChanged(address indexed delegate, uint previousBalance, uint newBalance);\r\n\r\n}\r\n\r\ncontract MdxToken is DelegateERC20, Ownable {\r\n    uint256 private constant preMineSupply = 200000000 * 1e18;\r\n    uint256 private constant maxSupply = 1000000000 * 1e18;     // the total supply\r\n\r\n    using EnumerableSet for EnumerableSet.AddressSet;\r\n    EnumerableSet.AddressSet private _minters;\r\n\r\n    constructor() public ERC20(\"MDX Token\", \"MDX\"){\r\n        _mint(msg.sender, preMineSupply);\r\n    }\r\n\r\n    // mint with max supply\r\n    function mint(address _to, uint256 _amount) public onlyMinter returns (bool) {\r\n        if (_amount.add(totalSupply()) > maxSupply) {\r\n            return false;\r\n        }\r\n        _mint(_to, _amount);\r\n        return true;\r\n    }\r\n\r\n    function addMinter(address _addMinter) public onlyOwner returns (bool) {\r\n        require(_addMinter != address(0), \"MdxToken: _addMinter is the zero address\");\r\n        return EnumerableSet.add(_minters, _addMinter);\r\n    }\r\n\r\n    function delMinter(address _delMinter) public onlyOwner returns (bool) {\r\n        require(_delMinter != address(0), \"MdxToken: _delMinter is the zero address\");\r\n        return EnumerableSet.remove(_minters, _delMinter);\r\n    }\r\n\r\n    function getMinterLength() public view returns (uint256) {\r\n        return EnumerableSet.length(_minters);\r\n    }\r\n\r\n    function isMinter(address account) public view returns (bool) {\r\n        return EnumerableSet.contains(_minters, account);\r\n    }\r\n\r\n    function getMinter(uint256 _index) public view onlyOwner returns (address){\r\n        require(_index <= getMinterLength() - 1, \"MdxToken: index out of bounds\");\r\n        return EnumerableSet.at(_minters, _index);\r\n    }\r\n\r\n    // modifier for mint function\r\n    modifier onlyMinter() {\r\n        require(isMinter(msg.sender), \"caller is not the minter\");\r\n        _;\r\n    }\r\n\r\n}\r\n\r\n\r\n// USDT test token\r\ncontract TestToken is DelegateERC20, Ownable {\r\n    uint256 private constant preMineSupply = 200000000 * 1e18;\r\n    uint256 private constant maxSupply = 1000000000 * 1e18;     // the total supply\r\n\r\n    using EnumerableSet for EnumerableSet.AddressSet;\r\n    EnumerableSet.AddressSet private _minters;\r\n\r\n    constructor() public ERC20(\"Test Token\", \"TST\"){\r\n        _mint(msg.sender, preMineSupply);\r\n    }\r\n\r\n    // mint with max supply\r\n    function mint(address _to, uint256 _amount) public onlyMinter returns (bool) {\r\n        if (_amount.add(totalSupply()) > maxSupply) {\r\n            return false;\r\n        }\r\n        _mint(_to, _amount);\r\n        return true;\r\n    }\r\n\r\n    function addMinter(address _addMinter) public onlyOwner returns (bool) {\r\n        require(_addMinter != address(0), \"TestToken: _addMinter is the zero address\");\r\n        return EnumerableSet.add(_minters, _addMinter);\r\n    }\r\n\r\n    function delMinter(address _delMinter) public onlyOwner returns (bool) {\r\n        require(_delMinter != address(0), \"TestToken: _delMinter is the zero address\");\r\n        return EnumerableSet.remove(_minters, _delMinter);\r\n    }\r\n\r\n    function getMinterLength() public view returns (uint256) {\r\n        return EnumerableSet.length(_minters);\r\n    }\r\n\r\n    function isMinter(address account) public view returns (bool) {\r\n        return EnumerableSet.contains(_minters, account);\r\n    }\r\n\r\n    function getMinter(uint256 _index) public view onlyOwner returns (address){\r\n        require(_index <= getMinterLength() - 1, \"MdxToken: index out of bounds\");\r\n        return EnumerableSet.at(_minters, _index);\r\n    }\r\n\r\n    // modifier for mint function\r\n    modifier onlyMinter() {\r\n        require(isMinter(msg.sender), \"caller is not the minter\");\r\n        _;\r\n    }\r\n\r\n}\r\n",
  "sourcePath": "D:/Posao - Stefan/Stefan - razno/Blockchain/ElavateFinance/elavate-core/contracts/mdexSwap/heco/MdxTokenHeco.sol",
  "compiler": {
    "name": "solc",
    "version": "0.6.12+commit.27d51765.Emscripten.clang"
  },
  "schemaVersion": "3.4.1",
  "updatedAt": "2021-07-17T12:43:07.434Z",
  "networkType": "ethereum",
  "devdoc": {
    "kind": "dev",
    "methods": {
      "allowance(address,address)": {
        "details": "See {IERC20-allowance}."
      },
      "approve(address,uint256)": {
        "details": "See {IERC20-approve}. Requirements: - `spender` cannot be the zero address."
      },
      "balanceOf(address)": {
        "details": "See {IERC20-balanceOf}."
      },
      "decimals()": {
        "details": "Returns the number of decimals used to get its user representation. For example, if `decimals` equals `2`, a balance of `505` tokens should be displayed to a user as `5,05` (`505 / 10 ** 2`). Tokens usually opt for a value of 18, imitating the relationship between Ether and Wei. This is the value {ERC20} uses, unless {_setupDecimals} is called. NOTE: This information is only used for _display_ purposes: it in no way affects any of the arithmetic of the contract, including {IERC20-balanceOf} and {IERC20-transfer}."
      },
      "decreaseAllowance(address,uint256)": {
        "details": "Atomically decreases the allowance granted to `spender` by the caller. This is an alternative to {approve} that can be used as a mitigation for problems described in {IERC20-approve}. Emits an {Approval} event indicating the updated allowance. Requirements: - `spender` cannot be the zero address. - `spender` must have allowance for the caller of at least `subtractedValue`."
      },
      "delegate(address)": {
        "params": {
          "delegatee": "The address to delegate votes to"
        }
      },
      "delegateBySig(address,uint256,uint256,uint8,bytes32,bytes32)": {
        "params": {
          "delegatee": "The address to delegate votes to",
          "expiry": "The time at which to expire the signature",
          "nonce": "The contract state required to match the signature",
          "r": "Half of the ECDSA signature pair",
          "s": "Half of the ECDSA signature pair",
          "v": "The recovery byte of the signature"
        }
      },
      "getCurrentVotes(address)": {
        "params": {
          "account": "The address to get votes balance"
        },
        "returns": {
          "_0": "The number of current votes for `account`"
        }
      },
      "getPriorVotes(address,uint256)": {
        "details": "Block number must be a finalized block or else this function will revert to prevent misinformation.",
        "params": {
          "account": "The address of the account to check",
          "blockNumber": "The block number to get the vote balance at"
        },
        "returns": {
          "_0": "The number of votes the account had as of the given block"
        }
      },
      "increaseAllowance(address,uint256)": {
        "details": "Atomically increases the allowance granted to `spender` by the caller. This is an alternative to {approve} that can be used as a mitigation for problems described in {IERC20-approve}. Emits an {Approval} event indicating the updated allowance. Requirements: - `spender` cannot be the zero address."
      },
      "name()": {
        "details": "Returns the name of the token."
      },
      "owner()": {
        "details": "Returns the address of the current owner."
      },
      "renounceOwnership()": {
        "details": "Leaves the contract without owner. It will not be possible to call `onlyOwner` functions anymore. Can only be called by the current owner. NOTE: Renouncing ownership will leave the contract without an owner, thereby removing any functionality that is only available to the owner."
      },
      "symbol()": {
        "details": "Returns the symbol of the token, usually a shorter version of the name."
      },
      "totalSupply()": {
        "details": "See {IERC20-totalSupply}."
      },
      "transfer(address,uint256)": {
        "details": "See {IERC20-transfer}. Requirements: - `recipient` cannot be the zero address. - the caller must have a balance of at least `amount`."
      },
      "transferFrom(address,address,uint256)": {
        "details": "See {IERC20-transferFrom}. Emits an {Approval} event indicating the updated allowance. This is not required by the EIP. See the note at the beginning of {ERC20}. Requirements: - `sender` and `recipient` cannot be the zero address. - `sender` must have a balance of at least `amount`. - the caller must have allowance for ``sender``'s tokens of at least `amount`."
      },
      "transferOwnership(address)": {
        "details": "Transfers ownership of the contract to a new account (`newOwner`). Can only be called by the current owner."
      }
    },
    "version": 1
  },
  "userdoc": {
    "events": {
      "DelegateChanged(address,address,address)": {
        "notice": "An event thats emitted when an account changes its delegate"
      },
      "DelegateVotesChanged(address,uint256,uint256)": {
        "notice": "An event thats emitted when a delegate account's vote balance changes"
      }
    },
    "kind": "user",
    "methods": {
      "DELEGATION_TYPEHASH()": {
        "notice": "The EIP-712 typehash for the delegation struct used by the contract"
      },
      "DOMAIN_TYPEHASH()": {
        "notice": "The EIP-712 typehash for the contract's domain"
      },
      "checkpoints(address,uint32)": {
        "notice": "A record of votes checkpoints for each account, by index"
      },
      "delegate(address)": {
        "notice": "Delegate votes from `msg.sender` to `delegatee`"
      },
      "delegateBySig(address,uint256,uint256,uint8,bytes32,bytes32)": {
        "notice": "Delegates votes from signatory to `delegatee`"
      },
      "getCurrentVotes(address)": {
        "notice": "Gets the current votes balance for `account`"
      },
      "getPriorVotes(address,uint256)": {
        "notice": "Determine the prior number of votes for an account as of a block number"
      },
      "nonces(address)": {
        "notice": "A record of states for signing / validating signatures"
      },
      "numCheckpoints(address)": {
        "notice": "The number of checkpoints for each account"
      }
    },
    "version": 1
  }
}