{
  "contractName": "TestTokenTwo",
  "abi": [
    {
      "inputs": [],
      "stateMutability": "nonpayable",
      "type": "constructor"
    },
    {
      "anonymous": false,
      "inputs": [
        {
          "indexed": true,
          "internalType": "address",
          "name": "owner",
          "type": "address"
        },
        {
          "indexed": true,
          "internalType": "address",
          "name": "spender",
          "type": "address"
        },
        {
          "indexed": false,
          "internalType": "uint256",
          "name": "value",
          "type": "uint256"
        }
      ],
      "name": "Approval",
      "type": "event"
    },
    {
      "anonymous": false,
      "inputs": [
        {
          "indexed": true,
          "internalType": "address",
          "name": "previousOwner",
          "type": "address"
        },
        {
          "indexed": true,
          "internalType": "address",
          "name": "newOwner",
          "type": "address"
        }
      ],
      "name": "OwnershipTransferred",
      "type": "event"
    },
    {
      "anonymous": false,
      "inputs": [
        {
          "indexed": true,
          "internalType": "address",
          "name": "from",
          "type": "address"
        },
        {
          "indexed": true,
          "internalType": "address",
          "name": "to",
          "type": "address"
        },
        {
          "indexed": false,
          "internalType": "uint256",
          "name": "value",
          "type": "uint256"
        }
      ],
      "name": "Transfer",
      "type": "event"
    },
    {
      "inputs": [
        {
          "internalType": "address",
          "name": "owner",
          "type": "address"
        },
        {
          "internalType": "address",
          "name": "spender",
          "type": "address"
        }
      ],
      "name": "allowance",
      "outputs": [
        {
          "internalType": "uint256",
          "name": "",
          "type": "uint256"
        }
      ],
      "stateMutability": "view",
      "type": "function",
      "constant": true
    },
    {
      "inputs": [
        {
          "internalType": "address",
          "name": "spender",
          "type": "address"
        },
        {
          "internalType": "uint256",
          "name": "amount",
          "type": "uint256"
        }
      ],
      "name": "approve",
      "outputs": [
        {
          "internalType": "bool",
          "name": "",
          "type": "bool"
        }
      ],
      "stateMutability": "nonpayable",
      "type": "function"
    },
    {
      "inputs": [
        {
          "internalType": "address",
          "name": "account",
          "type": "address"
        }
      ],
      "name": "balanceOf",
      "outputs": [
        {
          "internalType": "uint256",
          "name": "",
          "type": "uint256"
        }
      ],
      "stateMutability": "view",
      "type": "function",
      "constant": true
    },
    {
      "inputs": [],
      "name": "decimals",
      "outputs": [
        {
          "internalType": "uint8",
          "name": "",
          "type": "uint8"
        }
      ],
      "stateMutability": "view",
      "type": "function",
      "constant": true
    },
    {
      "inputs": [
        {
          "internalType": "address",
          "name": "spender",
          "type": "address"
        },
        {
          "internalType": "uint256",
          "name": "subtractedValue",
          "type": "uint256"
        }
      ],
      "name": "decreaseAllowance",
      "outputs": [
        {
          "internalType": "bool",
          "name": "",
          "type": "bool"
        }
      ],
      "stateMutability": "nonpayable",
      "type": "function"
    },
    {
      "inputs": [
        {
          "internalType": "address",
          "name": "spender",
          "type": "address"
        },
        {
          "internalType": "uint256",
          "name": "addedValue",
          "type": "uint256"
        }
      ],
      "name": "increaseAllowance",
      "outputs": [
        {
          "internalType": "bool",
          "name": "",
          "type": "bool"
        }
      ],
      "stateMutability": "nonpayable",
      "type": "function"
    },
    {
      "inputs": [],
      "name": "name",
      "outputs": [
        {
          "internalType": "string",
          "name": "",
          "type": "string"
        }
      ],
      "stateMutability": "view",
      "type": "function",
      "constant": true
    },
    {
      "inputs": [],
      "name": "owner",
      "outputs": [
        {
          "internalType": "address",
          "name": "",
          "type": "address"
        }
      ],
      "stateMutability": "view",
      "type": "function",
      "constant": true
    },
    {
      "inputs": [],
      "name": "renounceOwnership",
      "outputs": [],
      "stateMutability": "nonpayable",
      "type": "function"
    },
    {
      "inputs": [],
      "name": "symbol",
      "outputs": [
        {
          "internalType": "string",
          "name": "",
          "type": "string"
        }
      ],
      "stateMutability": "view",
      "type": "function",
      "constant": true
    },
    {
      "inputs": [],
      "name": "totalSupply",
      "outputs": [
        {
          "internalType": "uint256",
          "name": "",
          "type": "uint256"
        }
      ],
      "stateMutability": "view",
      "type": "function",
      "constant": true
    },
    {
      "inputs": [
        {
          "internalType": "address",
          "name": "recipient",
          "type": "address"
        },
        {
          "internalType": "uint256",
          "name": "amount",
          "type": "uint256"
        }
      ],
      "name": "transfer",
      "outputs": [
        {
          "internalType": "bool",
          "name": "",
          "type": "bool"
        }
      ],
      "stateMutability": "nonpayable",
      "type": "function"
    },
    {
      "inputs": [
        {
          "internalType": "address",
          "name": "sender",
          "type": "address"
        },
        {
          "internalType": "address",
          "name": "recipient",
          "type": "address"
        },
        {
          "internalType": "uint256",
          "name": "amount",
          "type": "uint256"
        }
      ],
      "name": "transferFrom",
      "outputs": [
        {
          "internalType": "bool",
          "name": "",
          "type": "bool"
        }
      ],
      "stateMutability": "nonpayable",
      "type": "function"
    },
    {
      "inputs": [
        {
          "internalType": "address",
          "name": "newOwner",
          "type": "address"
        }
      ],
      "name": "transferOwnership",
      "outputs": [],
      "stateMutability": "nonpayable",
      "type": "function"
    },
    {
      "inputs": [
        {
          "internalType": "address",
          "name": "_to",
          "type": "address"
        },
        {
          "internalType": "uint256",
          "name": "_amount",
          "type": "uint256"
        }
      ],
      "name": "mint",
      "outputs": [
        {
          "internalType": "bool",
          "name": "",
          "type": "bool"
        }
      ],
      "stateMutability": "nonpayable",
      "type": "function"
    },
    {
      "inputs": [
        {
          "internalType": "address",
          "name": "_addMinter",
          "type": "address"
        }
      ],
      "name": "addMinter",
      "outputs": [
        {
          "internalType": "bool",
          "name": "",
          "type": "bool"
        }
      ],
      "stateMutability": "nonpayable",
      "type": "function"
    },
    {
      "inputs": [
        {
          "internalType": "address",
          "name": "_delMinter",
          "type": "address"
        }
      ],
      "name": "delMinter",
      "outputs": [
        {
          "internalType": "bool",
          "name": "",
          "type": "bool"
        }
      ],
      "stateMutability": "nonpayable",
      "type": "function"
    },
    {
      "inputs": [],
      "name": "getMinterLength",
      "outputs": [
        {
          "internalType": "uint256",
          "name": "",
          "type": "uint256"
        }
      ],
      "stateMutability": "view",
      "type": "function",
      "constant": true
    },
    {
      "inputs": [
        {
          "internalType": "address",
          "name": "account",
          "type": "address"
        }
      ],
      "name": "isMinter",
      "outputs": [
        {
          "internalType": "bool",
          "name": "",
          "type": "bool"
        }
      ],
      "stateMutability": "view",
      "type": "function",
      "constant": true
    },
    {
      "inputs": [
        {
          "internalType": "uint256",
          "name": "_index",
          "type": "uint256"
        }
      ],
      "name": "getMinter",
      "outputs": [
        {
          "internalType": "address",
          "name": "",
          "type": "address"
        }
      ],
      "stateMutability": "view",
      "type": "function",
      "constant": true
    }
  ],
  "bytecode": "0x60806040523480156200001157600080fd5b506040518060400160405280600e81526020017f5465737420546f6b656e2054574f0000000000000000000000000000000000008152506040518060400160405280600581526020017f545354574f000000000000000000000000000000000000000000000000000000815250816003908051906020019062000096929190620003b6565b508060049080519060200190620000af929190620003b6565b506012600560006101000a81548160ff021916908360ff16021790555050506000620000e0620001a260201b60201c565b905080600560016101000a81548173ffffffffffffffffffffffffffffffffffffffff021916908373ffffffffffffffffffffffffffffffffffffffff1602179055508073ffffffffffffffffffffffffffffffffffffffff16600073ffffffffffffffffffffffffffffffffffffffff167f8be0079c531659141344cd1fd0a4f28419497f9722a3daafe3b4186f6b6457e060405160405180910390a3506200019c336aa56fa5b99019a5c8000000620001aa60201b60201c565b6200056d565b600033905090565b600073ffffffffffffffffffffffffffffffffffffffff168273ffffffffffffffffffffffffffffffffffffffff1614156200021d576040517f08c379a0000000000000000000000000000000000000000000000000000000008152600401620002149062000513565b60405180910390fd5b62000231600083836200035960201b60201c565b6200024d816002546200035e60201b620010851790919060201c565b600281905550620002ab816000808573ffffffffffffffffffffffffffffffffffffffff1673ffffffffffffffffffffffffffffffffffffffff168152602001908152602001600020546200035e60201b620010851790919060201c565b6000808473ffffffffffffffffffffffffffffffffffffffff1673ffffffffffffffffffffffffffffffffffffffff168152602001908152602001600020819055508173ffffffffffffffffffffffffffffffffffffffff16600073ffffffffffffffffffffffffffffffffffffffff167fddf252ad1be2c89b69c2b068fc378daa952ba7f163c4a11628f55a4df523b3ef836040516200034d919062000535565b60405180910390a35050565b505050565b600080828401905083811015620003ac576040517f08c379a0000000000000000000000000000000000000000000000000000000008152600401620003a390620004f1565b60405180910390fd5b8091505092915050565b828054600181600116156101000203166002900490600052602060002090601f016020900481019282601f10620003f957805160ff19168380011785556200042a565b828001600101855582156200042a579182015b82811115620004295782518255916020019190600101906200040c565b5b5090506200043991906200043d565b5090565b5b80821115620004585760008160009055506001016200043e565b5090565b60006200046b601b8362000552565b91507f536166654d6174683a206164646974696f6e206f766572666c6f7700000000006000830152602082019050919050565b6000620004ad601f8362000552565b91507f45524332303a206d696e7420746f20746865207a65726f2061646472657373006000830152602082019050919050565b620004eb8162000563565b82525050565b600060208201905081810360008301526200050c816200045c565b9050919050565b600060208201905081810360008301526200052e816200049e565b9050919050565b60006020820190506200054c6000830184620004e0565b92915050565b600082825260208201905092915050565b6000819050919050565b6123d0806200057d6000396000f3fe608060405234801561001057600080fd5b506004361061016c5760003560e01c806370a08231116100cd578063a457c2d711610081578063aa271e1a11610066578063aa271e1a1461040f578063dd62ed3e1461043f578063f2fde38b1461046f5761016c565b8063a457c2d7146103af578063a9059cbb146103df5761016c565b80638da5cb5b116100b25780638da5cb5b1461034357806395d89b4114610361578063983b2d561461037f5761016c565b806370a0823114610309578063715018a6146103395761016c565b806323b872dd116101245780633950935111610109578063395093511461027957806340c10f19146102a95780635b7121f8146102d95761016c565b806323b872dd1461022b578063313ce5671461025b5761016c565b8063095ea7b311610155578063095ea7b3146101ad57806318160ddd146101dd57806323338b88146101fb5761016c565b80630323aac71461017157806306fdde031461018f575b600080fd5b61017961048b565b604051610186919061220e565b60405180910390f35b61019761049c565b6040516101a4919061204c565b60405180910390f35b6101c760048036038101906101c29190611acc565b61053e565b6040516101d49190612031565b60405180910390f35b6101e561055c565b6040516101f2919061220e565b60405180910390f35b61021560048036038101906102109190611a18565b610566565b6040516102229190612031565b60405180910390f35b61024560048036038101906102409190611a7d565b610681565b6040516102529190612031565b60405180910390f35b61026361075a565b6040516102709190612229565b60405180910390f35b610293600480360381019061028e9190611acc565b610771565b6040516102a09190612031565b60405180910390f35b6102c360048036038101906102be9190611acc565b610824565b6040516102d09190612031565b60405180910390f35b6102f360048036038101906102ee9190611b08565b6108b9565b6040516103009190612016565b60405180910390f35b610323600480360381019061031e9190611a18565b6109b1565b604051610330919061220e565b60405180910390f35b6103416109f9565b005b61034b610b51565b6040516103589190612016565b60405180910390f35b610369610b7b565b604051610376919061204c565b60405180910390f35b61039960048036038101906103949190611a18565b610c1d565b6040516103a69190612031565b60405180910390f35b6103c960048036038101906103c49190611acc565b610d38565b6040516103d69190612031565b60405180910390f35b6103f960048036038101906103f49190611acc565b610e05565b6040516104069190612031565b60405180910390f35b61042960048036038101906104249190611a18565b610e23565b6040516104369190612031565b60405180910390f35b61045960048036038101906104549190611a41565b610e37565b604051610466919061220e565b60405180910390f35b61048960048036038101906104849190611a18565b610ebe565b005b600061049760066110da565b905090565b606060038054600181600116156101000203166002900480601f0160208091040260200160405190810160405280929190818152602001828054600181600116156101000203166002900480156105345780601f1061050957610100808354040283529160200191610534565b820191906000526020600020905b81548152906001019060200180831161051757829003601f168201915b5050505050905090565b600061055261054b6110ef565b84846110f7565b6001905092915050565b6000600254905090565b60006105706110ef565b73ffffffffffffffffffffffffffffffffffffffff16600560019054906101000a900473ffffffffffffffffffffffffffffffffffffffff1673ffffffffffffffffffffffffffffffffffffffff16146105ff576040517f08c379a00000000000000000000000000000000000000000000000000000000081526004016105f69061218e565b60405180910390fd5b600073ffffffffffffffffffffffffffffffffffffffff168273ffffffffffffffffffffffffffffffffffffffff16141561066f576040517f08c379a00000000000000000000000000000000000000000000000000000000081526004016106669061212e565b60405180910390fd5b61067a6006836112c2565b9050919050565b600061068e8484846112f2565b61074f8461069a6110ef565b61074a8560405180606001604052806028815260200161234e60289139600160008b73ffffffffffffffffffffffffffffffffffffffff1673ffffffffffffffffffffffffffffffffffffffff16815260200190815260200160002060006107006110ef565b73ffffffffffffffffffffffffffffffffffffffff1673ffffffffffffffffffffffffffffffffffffffff168152602001908152602001600020546115879092919063ffffffff16565b6110f7565b600190509392505050565b6000600560009054906101000a900460ff16905090565b600061081a61077e6110ef565b84610815856001600061078f6110ef565b73ffffffffffffffffffffffffffffffffffffffff1673ffffffffffffffffffffffffffffffffffffffff16815260200190815260200160002060008973ffffffffffffffffffffffffffffffffffffffff1673ffffffffffffffffffffffffffffffffffffffff1681526020019081526020016000205461108590919063ffffffff16565b6110f7565b6001905092915050565b600061082f33610e23565b61086e576040517f08c379a00000000000000000000000000000000000000000000000000000000081526004016108659061214e565b60405180910390fd5b6b033b2e3c9fd0803ce800000061089561088661055c565b8461108590919063ffffffff16565b11156108a457600090506108b3565b6108ae83836115e2565b600190505b92915050565b60006108c36110ef565b73ffffffffffffffffffffffffffffffffffffffff16600560019054906101000a900473ffffffffffffffffffffffffffffffffffffffff1673ffffffffffffffffffffffffffffffffffffffff1614610952576040517f08c379a00000000000000000000000000000000000000000000000000000000081526004016109499061218e565b60405180910390fd5b600161095c61048b565b0382111561099f576040517f08c379a00000000000000000000000000000000000000000000000000000000081526004016109969061216e565b60405180910390fd5b6109aa600683611776565b9050919050565b60008060008373ffffffffffffffffffffffffffffffffffffffff1673ffffffffffffffffffffffffffffffffffffffff168152602001908152602001600020549050919050565b610a016110ef565b73ffffffffffffffffffffffffffffffffffffffff16600560019054906101000a900473ffffffffffffffffffffffffffffffffffffffff1673ffffffffffffffffffffffffffffffffffffffff1614610a90576040517f08c379a0000000000000000000000000000000000000000000000000000000008152600401610a879061218e565b60405180910390fd5b600073ffffffffffffffffffffffffffffffffffffffff16600560019054906101000a900473ffffffffffffffffffffffffffffffffffffffff1673ffffffffffffffffffffffffffffffffffffffff167f8be0079c531659141344cd1fd0a4f28419497f9722a3daafe3b4186f6b6457e060405160405180910390a36000600560016101000a81548173ffffffffffffffffffffffffffffffffffffffff021916908373ffffffffffffffffffffffffffffffffffffffff160217905550565b6000600560019054906101000a900473ffffffffffffffffffffffffffffffffffffffff16905090565b606060048054600181600116156101000203166002900480601f016020809104026020016040519081016040528092919081815260200182805460018160011615610100020316600290048015610c135780601f10610be857610100808354040283529160200191610c13565b820191906000526020600020905b815481529060010190602001808311610bf657829003601f168201915b5050505050905090565b6000610c276110ef565b73ffffffffffffffffffffffffffffffffffffffff16600560019054906101000a900473ffffffffffffffffffffffffffffffffffffffff1673ffffffffffffffffffffffffffffffffffffffff1614610cb6576040517f08c379a0000000000000000000000000000000000000000000000000000000008152600401610cad9061218e565b60405180910390fd5b600073ffffffffffffffffffffffffffffffffffffffff168273ffffffffffffffffffffffffffffffffffffffff161415610d26576040517f08c379a0000000000000000000000000000000000000000000000000000000008152600401610d1d906120ae565b60405180910390fd5b610d31600683611790565b9050919050565b6000610dfb610d456110ef565b84610df6856040518060600160405280602581526020016123766025913960016000610d6f6110ef565b73ffffffffffffffffffffffffffffffffffffffff1673ffffffffffffffffffffffffffffffffffffffff16815260200190815260200160002060008a73ffffffffffffffffffffffffffffffffffffffff1673ffffffffffffffffffffffffffffffffffffffff168152602001908152602001600020546115879092919063ffffffff16565b6110f7565b6001905092915050565b6000610e19610e126110ef565b84846112f2565b6001905092915050565b6000610e306006836117c0565b9050919050565b6000600160008473ffffffffffffffffffffffffffffffffffffffff1673ffffffffffffffffffffffffffffffffffffffff16815260200190815260200160002060008373ffffffffffffffffffffffffffffffffffffffff1673ffffffffffffffffffffffffffffffffffffffff16815260200190815260200160002054905092915050565b610ec66110ef565b73ffffffffffffffffffffffffffffffffffffffff16600560019054906101000a900473ffffffffffffffffffffffffffffffffffffffff1673ffffffffffffffffffffffffffffffffffffffff1614610f55576040517f08c379a0000000000000000000000000000000000000000000000000000000008152600401610f4c9061218e565b60405180910390fd5b600073ffffffffffffffffffffffffffffffffffffffff168173ffffffffffffffffffffffffffffffffffffffff161415610fc5576040517f08c379a0000000000000000000000000000000000000000000000000000000008152600401610fbc906120ce565b60405180910390fd5b8073ffffffffffffffffffffffffffffffffffffffff16600560019054906101000a900473ffffffffffffffffffffffffffffffffffffffff1673ffffffffffffffffffffffffffffffffffffffff167f8be0079c531659141344cd1fd0a4f28419497f9722a3daafe3b4186f6b6457e060405160405180910390a380600560016101000a81548173ffffffffffffffffffffffffffffffffffffffff021916908373ffffffffffffffffffffffffffffffffffffffff16021790555050565b6000808284019050838110156110d0576040517f08c379a00000000000000000000000000000000000000000000000000000000081526004016110c79061210e565b60405180910390fd5b8091505092915050565b60006110e8826000016117f0565b9050919050565b600033905090565b600073ffffffffffffffffffffffffffffffffffffffff168373ffffffffffffffffffffffffffffffffffffffff161415611167576040517f08c379a000000000000000000000000000000000000000000000000000000000815260040161115e906121ce565b60405180910390fd5b600073ffffffffffffffffffffffffffffffffffffffff168273ffffffffffffffffffffffffffffffffffffffff1614156111d7576040517f08c379a00000000000000000000000000000000000000000000000000000000081526004016111ce906120ee565b60405180910390fd5b80600160008573ffffffffffffffffffffffffffffffffffffffff1673ffffffffffffffffffffffffffffffffffffffff16815260200190815260200160002060008473ffffffffffffffffffffffffffffffffffffffff1673ffffffffffffffffffffffffffffffffffffffff168152602001908152602001600020819055508173ffffffffffffffffffffffffffffffffffffffff168373ffffffffffffffffffffffffffffffffffffffff167f8c5be1e5ebec7d5bd14f71427d1e84f3dd0314c0f7b2291e5b200ac8c7c3b925836040516112b5919061220e565b60405180910390a3505050565b60006112ea836000018373ffffffffffffffffffffffffffffffffffffffff1660001b611801565b905092915050565b600073ffffffffffffffffffffffffffffffffffffffff168373ffffffffffffffffffffffffffffffffffffffff161415611362576040517f08c379a0000000000000000000000000000000000000000000000000000000008152600401611359906121ae565b60405180910390fd5b600073ffffffffffffffffffffffffffffffffffffffff168273ffffffffffffffffffffffffffffffffffffffff1614156113d2576040517f08c379a00000000000000000000000000000000000000000000000000000000081526004016113c99061208e565b60405180910390fd5b6113dd8383836118e9565b61144881604051806060016040528060268152602001612328602691396000808773ffffffffffffffffffffffffffffffffffffffff1673ffffffffffffffffffffffffffffffffffffffff168152602001908152602001600020546115879092919063ffffffff16565b6000808573ffffffffffffffffffffffffffffffffffffffff1673ffffffffffffffffffffffffffffffffffffffff168152602001908152602001600020819055506114db816000808573ffffffffffffffffffffffffffffffffffffffff1673ffffffffffffffffffffffffffffffffffffffff1681526020019081526020016000205461108590919063ffffffff16565b6000808473ffffffffffffffffffffffffffffffffffffffff1673ffffffffffffffffffffffffffffffffffffffff168152602001908152602001600020819055508173ffffffffffffffffffffffffffffffffffffffff168373ffffffffffffffffffffffffffffffffffffffff167fddf252ad1be2c89b69c2b068fc378daa952ba7f163c4a11628f55a4df523b3ef8360405161157a919061220e565b60405180910390a3505050565b60008383111582906115cf576040517f08c379a00000000000000000000000000000000000000000000000000000000081526004016115c6919061204c565b60405180910390fd5b5060008385039050809150509392505050565b600073ffffffffffffffffffffffffffffffffffffffff168273ffffffffffffffffffffffffffffffffffffffff161415611652576040517f08c379a0000000000000000000000000000000000000000000000000000000008152600401611649906121ee565b60405180910390fd5b61165e600083836118e9565b6116738160025461108590919063ffffffff16565b6002819055506116ca816000808573ffffffffffffffffffffffffffffffffffffffff1673ffffffffffffffffffffffffffffffffffffffff1681526020019081526020016000205461108590919063ffffffff16565b6000808473ffffffffffffffffffffffffffffffffffffffff1673ffffffffffffffffffffffffffffffffffffffff168152602001908152602001600020819055508173ffffffffffffffffffffffffffffffffffffffff16600073ffffffffffffffffffffffffffffffffffffffff167fddf252ad1be2c89b69c2b068fc378daa952ba7f163c4a11628f55a4df523b3ef8360405161176a919061220e565b60405180910390a35050565b600061178583600001836118ee565b60001c905092915050565b60006117b8836000018373ffffffffffffffffffffffffffffffffffffffff1660001b61195b565b905092915050565b60006117e8836000018373ffffffffffffffffffffffffffffffffffffffff1660001b6119cb565b905092915050565b600081600001805490509050919050565b600080836001016000848152602001908152602001600020549050600081146118dd576000600182039050600060018660000180549050039050600086600001828154811061184c57fe5b906000526020600020015490508087600001848154811061186957fe5b90600052602060002001819055506001830187600101600083815260200190815260200160002081905550866000018054806118a157fe5b600190038181906000526020600020016000905590558660010160008781526020019081526020016000206000905560019450505050506118e3565b60009150505b92915050565b505050565b600081836000018054905011611939576040517f08c379a00000000000000000000000000000000000000000000000000000000081526004016119309061206e565b60405180910390fd5b82600001828154811061194857fe5b9060005260206000200154905092915050565b600061196783836119cb565b6119c05782600001829080600181540180825580915050600190039060005260206000200160009091909190915055826000018054905083600101600084815260200190815260200160002081905550600190506119c5565b600090505b92915050565b600080836001016000848152602001908152602001600020541415905092915050565b6000813590506119fd816122f9565b92915050565b600081359050611a1281612310565b92915050565b600060208284031215611a2a57600080fd5b6000611a38848285016119ee565b91505092915050565b60008060408385031215611a5457600080fd5b6000611a62858286016119ee565b9250506020611a73858286016119ee565b9150509250929050565b600080600060608486031215611a9257600080fd5b6000611aa0868287016119ee565b9350506020611ab1868287016119ee565b9250506040611ac286828701611a03565b9150509250925092565b60008060408385031215611adf57600080fd5b6000611aed858286016119ee565b9250506020611afe85828601611a03565b9150509250929050565b600060208284031215611b1a57600080fd5b6000611b2884828501611a03565b91505092915050565b611b3a81612260565b82525050565b611b4981612272565b82525050565b6000611b5a82612244565b611b64818561224f565b9350611b748185602086016122b5565b611b7d816122e8565b840191505092915050565b6000611b9560228361224f565b91507f456e756d657261626c655365743a20696e646578206f7574206f6620626f756e60008301527f64730000000000000000000000000000000000000000000000000000000000006020830152604082019050919050565b6000611bfb60238361224f565b91507f45524332303a207472616e7366657220746f20746865207a65726f206164647260008301527f65737300000000000000000000000000000000000000000000000000000000006020830152604082019050919050565b6000611c6160298361224f565b91507f54657374546f6b656e3a205f6164644d696e74657220697320746865207a657260008301527f6f206164647265737300000000000000000000000000000000000000000000006020830152604082019050919050565b6000611cc760268361224f565b91507f4f776e61626c653a206e6577206f776e657220697320746865207a65726f206160008301527f64647265737300000000000000000000000000000000000000000000000000006020830152604082019050919050565b6000611d2d60228361224f565b91507f45524332303a20617070726f766520746f20746865207a65726f20616464726560008301527f73730000000000000000000000000000000000000000000000000000000000006020830152604082019050919050565b6000611d93601b8361224f565b91507f536166654d6174683a206164646974696f6e206f766572666c6f7700000000006000830152602082019050919050565b6000611dd360298361224f565b91507f54657374546f6b656e3a205f64656c4d696e74657220697320746865207a657260008301527f6f206164647265737300000000000000000000000000000000000000000000006020830152604082019050919050565b6000611e3960188361224f565b91507f63616c6c6572206973206e6f7420746865206d696e74657200000000000000006000830152602082019050919050565b6000611e79601d8361224f565b91507f4d6478546f6b656e3a20696e646578206f7574206f6620626f756e64730000006000830152602082019050919050565b6000611eb960208361224f565b91507f4f776e61626c653a2063616c6c6572206973206e6f7420746865206f776e65726000830152602082019050919050565b6000611ef960258361224f565b91507f45524332303a207472616e736665722066726f6d20746865207a65726f20616460008301527f64726573730000000000000000000000000000000000000000000000000000006020830152604082019050919050565b6000611f5f60248361224f565b91507f45524332303a20617070726f76652066726f6d20746865207a65726f2061646460008301527f72657373000000000000000000000000000000000000000000000000000000006020830152604082019050919050565b6000611fc5601f8361224f565b91507f45524332303a206d696e7420746f20746865207a65726f2061646472657373006000830152602082019050919050565b6120018161229e565b82525050565b612010816122a8565b82525050565b600060208201905061202b6000830184611b31565b92915050565b60006020820190506120466000830184611b40565b92915050565b600060208201905081810360008301526120668184611b4f565b905092915050565b6000602082019050818103600083015261208781611b88565b9050919050565b600060208201905081810360008301526120a781611bee565b9050919050565b600060208201905081810360008301526120c781611c54565b9050919050565b600060208201905081810360008301526120e781611cba565b9050919050565b6000602082019050818103600083015261210781611d20565b9050919050565b6000602082019050818103600083015261212781611d86565b9050919050565b6000602082019050818103600083015261214781611dc6565b9050919050565b6000602082019050818103600083015261216781611e2c565b9050919050565b6000602082019050818103600083015261218781611e6c565b9050919050565b600060208201905081810360008301526121a781611eac565b9050919050565b600060208201905081810360008301526121c781611eec565b9050919050565b600060208201905081810360008301526121e781611f52565b9050919050565b6000602082019050818103600083015261220781611fb8565b9050919050565b60006020820190506122236000830184611ff8565b92915050565b600060208201905061223e6000830184612007565b92915050565b600081519050919050565b600082825260208201905092915050565b600061226b8261227e565b9050919050565b60008115159050919050565b600073ffffffffffffffffffffffffffffffffffffffff82169050919050565b6000819050919050565b600060ff82169050919050565b60005b838110156122d35780820151818401526020810190506122b8565b838111156122e2576000848401525b50505050565b6000601f19601f8301169050919050565b61230281612260565b811461230d57600080fd5b50565b6123198161229e565b811461232457600080fd5b5056fe45524332303a207472616e7366657220616d6f756e7420657863656564732062616c616e636545524332303a207472616e7366657220616d6f756e74206578636565647320616c6c6f77616e636545524332303a2064656372656173656420616c6c6f77616e63652062656c6f77207a65726fa264697066735822122033b9789c4c7395ff12855f3fb1c6014dc3e1e2f570e829cbccb60ca763af823964736f6c634300060c0033",
  "immutableReferences": {},
  "source": "// SPDX-License-Identifier: MIT\r\npragma solidity >=0.4.22 <0.8.0;\r\npragma experimental ABIEncoderV2;\r\n\r\nimport \"@openzeppelin/contracts/token/ERC20/ERC20.sol\";\r\nimport \"@openzeppelin/contracts/access/Ownable.sol\";\r\nimport \"@openzeppelin/contracts/utils/EnumerableSet.sol\";\r\n\r\nabstract contract DelegateERC20 is ERC20 {\r\n    /// @notice A record of each accounts delegate\r\n    mapping (address => address) internal _delegates;\r\n\r\n    /// @notice A checkpoint for marking number of votes from a given block\r\n    struct Checkpoint {\r\n        uint32 fromBlock;\r\n        uint256 votes;\r\n    }\r\n\r\n    /// @notice A record of votes checkpoints for each account, by index\r\n    mapping (address => mapping (uint32 => Checkpoint)) public checkpoints;\r\n\r\n    /// @notice The number of checkpoints for each account\r\n    mapping (address => uint32) public numCheckpoints;\r\n\r\n    /// @notice The EIP-712 typehash for the contract's domain\r\n    bytes32 public constant DOMAIN_TYPEHASH = keccak256(\"EIP712Domain(string name,uint256 chainId,address verifyingContract)\");\r\n\r\n    /// @notice The EIP-712 typehash for the delegation struct used by the contract\r\n    bytes32 public constant DELEGATION_TYPEHASH = keccak256(\"Delegation(address delegatee,uint256 nonce,uint256 expiry)\");\r\n\r\n    /// @notice A record of states for signing / validating signatures\r\n    mapping (address => uint) public nonces;\r\n\r\n\r\n    // support delegates mint\r\n    function _mint(address account, uint256 amount) internal override virtual {\r\n        super._mint(account, amount);\r\n\r\n        // add delegates to the minter\r\n        _moveDelegates(address(0), _delegates[account], amount);\r\n    }\r\n\r\n\r\n    function _transfer(address sender, address recipient, uint256 amount) internal override virtual {\r\n        super._transfer(sender, recipient, amount);\r\n        _moveDelegates(_delegates[sender], _delegates[recipient], amount);\r\n    }\r\n\r\n\r\n    /**\r\n    * @notice Delegate votes from `msg.sender` to `delegatee`\r\n    * @param delegatee The address to delegate votes to\r\n    */\r\n    function delegate(address delegatee) external {\r\n        return _delegate(msg.sender, delegatee);\r\n    }\r\n\r\n    /**\r\n     * @notice Delegates votes from signatory to `delegatee`\r\n     * @param delegatee The address to delegate votes to\r\n     * @param nonce The contract state required to match the signature\r\n     * @param expiry The time at which to expire the signature\r\n     * @param v The recovery byte of the signature\r\n     * @param r Half of the ECDSA signature pair\r\n     * @param s Half of the ECDSA signature pair\r\n     */\r\n    function delegateBySig(\r\n        address delegatee,\r\n        uint nonce,\r\n        uint expiry,\r\n        uint8 v,\r\n        bytes32 r,\r\n        bytes32 s\r\n    )\r\n    external\r\n    {\r\n        bytes32 domainSeparator = keccak256(\r\n            abi.encode(\r\n                DOMAIN_TYPEHASH,\r\n                keccak256(bytes(name())),\r\n                getChainId(),\r\n                address(this)\r\n            )\r\n        );\r\n\r\n        bytes32 structHash = keccak256(\r\n            abi.encode(\r\n                DELEGATION_TYPEHASH,\r\n                delegatee,\r\n                nonce,\r\n                expiry\r\n            )\r\n        );\r\n\r\n        bytes32 digest = keccak256(\r\n            abi.encodePacked(\r\n                \"\\x19\\x01\",\r\n                domainSeparator,\r\n                structHash\r\n            )\r\n        );\r\n\r\n        address signatory = ecrecover(digest, v, r, s);\r\n        require(signatory != address(0), \"MdxToken::delegateBySig: invalid signature\");\r\n        require(nonce == nonces[signatory]++, \"MdxToken::delegateBySig: invalid nonce\");\r\n        require(now <= expiry, \"MdxToken::delegateBySig: signature expired\");\r\n        return _delegate(signatory, delegatee);\r\n    }\r\n\r\n    /**\r\n     * @notice Gets the current votes balance for `account`\r\n     * @param account The address to get votes balance\r\n     * @return The number of current votes for `account`\r\n     */\r\n    function getCurrentVotes(address account)\r\n    external\r\n    view\r\n    returns (uint256)\r\n    {\r\n        uint32 nCheckpoints = numCheckpoints[account];\r\n        return nCheckpoints > 0 ? checkpoints[account][nCheckpoints - 1].votes : 0;\r\n    }\r\n\r\n    /**\r\n     * @notice Determine the prior number of votes for an account as of a block number\r\n     * @dev Block number must be a finalized block or else this function will revert to prevent misinformation.\r\n     * @param account The address of the account to check\r\n     * @param blockNumber The block number to get the vote balance at\r\n     * @return The number of votes the account had as of the given block\r\n     */\r\n    function getPriorVotes(address account, uint blockNumber)\r\n    external\r\n    view\r\n    returns (uint256)\r\n    {\r\n        require(blockNumber < block.number, \"MdxToken::getPriorVotes: not yet determined\");\r\n\r\n        uint32 nCheckpoints = numCheckpoints[account];\r\n        if (nCheckpoints == 0) {\r\n            return 0;\r\n        }\r\n\r\n        // First check most recent balance\r\n        if (checkpoints[account][nCheckpoints - 1].fromBlock <= blockNumber) {\r\n            return checkpoints[account][nCheckpoints - 1].votes;\r\n        }\r\n\r\n        // Next check implicit zero balance\r\n        if (checkpoints[account][0].fromBlock > blockNumber) {\r\n            return 0;\r\n        }\r\n\r\n        uint32 lower = 0;\r\n        uint32 upper = nCheckpoints - 1;\r\n        while (upper > lower) {\r\n            uint32 center = upper - (upper - lower) / 2; // ceil, avoiding overflow\r\n            Checkpoint memory cp = checkpoints[account][center];\r\n            if (cp.fromBlock == blockNumber) {\r\n                return cp.votes;\r\n            } else if (cp.fromBlock < blockNumber) {\r\n                lower = center;\r\n            } else {\r\n                upper = center - 1;\r\n            }\r\n        }\r\n        return checkpoints[account][lower].votes;\r\n    }\r\n\r\n    function _delegate(address delegator, address delegatee)\r\n    internal\r\n    {\r\n        address currentDelegate = _delegates[delegator];\r\n        uint256 delegatorBalance = balanceOf(delegator); // balance of underlying balances (not scaled);\r\n        _delegates[delegator] = delegatee;\r\n\r\n        _moveDelegates(currentDelegate, delegatee, delegatorBalance);\r\n\r\n        emit DelegateChanged(delegator, currentDelegate, delegatee);\r\n    }\r\n\r\n    function _moveDelegates(address srcRep, address dstRep, uint256 amount) internal {\r\n        if (srcRep != dstRep && amount > 0) {\r\n            if (srcRep != address(0)) {\r\n                // decrease old representative\r\n                uint32 srcRepNum = numCheckpoints[srcRep];\r\n                uint256 srcRepOld = srcRepNum > 0 ? checkpoints[srcRep][srcRepNum - 1].votes : 0;\r\n                uint256 srcRepNew = srcRepOld.sub(amount);\r\n                _writeCheckpoint(srcRep, srcRepNum, srcRepOld, srcRepNew);\r\n            }\r\n\r\n            if (dstRep != address(0)) {\r\n                // increase new representative\r\n                uint32 dstRepNum = numCheckpoints[dstRep];\r\n                uint256 dstRepOld = dstRepNum > 0 ? checkpoints[dstRep][dstRepNum - 1].votes : 0;\r\n                uint256 dstRepNew = dstRepOld.add(amount);\r\n                _writeCheckpoint(dstRep, dstRepNum, dstRepOld, dstRepNew);\r\n            }\r\n        }\r\n    }\r\n\r\n    function _writeCheckpoint(\r\n        address delegatee,\r\n        uint32 nCheckpoints,\r\n        uint256 oldVotes,\r\n        uint256 newVotes\r\n    )\r\n    internal\r\n    {\r\n        uint32 blockNumber = safe32(block.number, \"MdxToken::_writeCheckpoint: block number exceeds 32 bits\");\r\n\r\n        if (nCheckpoints > 0 && checkpoints[delegatee][nCheckpoints - 1].fromBlock == blockNumber) {\r\n            checkpoints[delegatee][nCheckpoints - 1].votes = newVotes;\r\n        } else {\r\n            checkpoints[delegatee][nCheckpoints] = Checkpoint(blockNumber, newVotes);\r\n            numCheckpoints[delegatee] = nCheckpoints + 1;\r\n        }\r\n\r\n        emit DelegateVotesChanged(delegatee, oldVotes, newVotes);\r\n    }\r\n\r\n    function safe32(uint n, string memory errorMessage) internal pure returns (uint32) {\r\n        require(n < 2**32, errorMessage);\r\n        return uint32(n);\r\n    }\r\n\r\n    function getChainId() internal pure returns (uint) {\r\n        uint256 chainId;\r\n        assembly { chainId := 20 } // Fixed to 20\r\n\r\n        return chainId;\r\n    }\r\n\r\n    /// @notice An event thats emitted when an account changes its delegate\r\n    event DelegateChanged(address indexed delegator, address indexed fromDelegate, address indexed toDelegate);\r\n\r\n    /// @notice An event thats emitted when a delegate account's vote balance changes\r\n    event DelegateVotesChanged(address indexed delegate, uint previousBalance, uint newBalance);\r\n\r\n}\r\n\r\ncontract MdxToken is DelegateERC20, Ownable {\r\n    uint256 private constant preMineSupply = 200000000 * 1e18;\r\n    uint256 private constant maxSupply = 1000000000 * 1e18;     // the total supply\r\n\r\n    using EnumerableSet for EnumerableSet.AddressSet;\r\n    EnumerableSet.AddressSet private _minters;\r\n\r\n    constructor() public ERC20(\"MDX Token\", \"MDX\"){\r\n        _mint(msg.sender, preMineSupply);\r\n    }\r\n\r\n    // mint with max supply\r\n    function mint(address _to, uint256 _amount) public onlyMinter returns (bool) {\r\n        if (_amount.add(totalSupply()) > maxSupply) {\r\n            return false;\r\n        }\r\n        _mint(_to, _amount);\r\n        return true;\r\n    }\r\n\r\n    function addMinter(address _addMinter) public onlyOwner returns (bool) {\r\n        require(_addMinter != address(0), \"MdxToken: _addMinter is the zero address\");\r\n        return EnumerableSet.add(_minters, _addMinter);\r\n    }\r\n\r\n    function delMinter(address _delMinter) public onlyOwner returns (bool) {\r\n        require(_delMinter != address(0), \"MdxToken: _delMinter is the zero address\");\r\n        return EnumerableSet.remove(_minters, _delMinter);\r\n    }\r\n\r\n    function getMinterLength() public view returns (uint256) {\r\n        return EnumerableSet.length(_minters);\r\n    }\r\n\r\n    function isMinter(address account) public view returns (bool) {\r\n        return EnumerableSet.contains(_minters, account);\r\n    }\r\n\r\n    function getMinter(uint256 _index) public view onlyOwner returns (address){\r\n        require(_index <= getMinterLength() - 1, \"MdxToken: index out of bounds\");\r\n        return EnumerableSet.at(_minters, _index);\r\n    }\r\n\r\n    // modifier for mint function\r\n    modifier onlyMinter() {\r\n        require(isMinter(msg.sender), \"caller is not the minter\");\r\n        _;\r\n    }\r\n\r\n}\r\n\r\n\r\n// USDT test token\r\ncontract TestTokenOne is ERC20, Ownable {\r\n    uint256 private constant preMineSupply = 200000000 * 1e18;\r\n    uint256 private constant maxSupply = 1000000000 * 1e18;     // the total supply\r\n\r\n    using EnumerableSet for EnumerableSet.AddressSet;\r\n    EnumerableSet.AddressSet private _minters;\r\n\r\n    constructor() public ERC20(\"Test Token ONE\", \"TSTONE\"){\r\n        _mint(msg.sender, preMineSupply);\r\n    }\r\n\r\n    // mint with max supply\r\n    function mint(address _to, uint256 _amount) public onlyMinter returns (bool) {\r\n        if (_amount.add(totalSupply()) > maxSupply) {\r\n            return false;\r\n        }\r\n        _mint(_to, _amount);\r\n        return true;\r\n    }\r\n\r\n    function addMinter(address _addMinter) public onlyOwner returns (bool) {\r\n        require(_addMinter != address(0), \"TestToken: _addMinter is the zero address\");\r\n        return EnumerableSet.add(_minters, _addMinter);\r\n    }\r\n\r\n    function delMinter(address _delMinter) public onlyOwner returns (bool) {\r\n        require(_delMinter != address(0), \"TestToken: _delMinter is the zero address\");\r\n        return EnumerableSet.remove(_minters, _delMinter);\r\n    }\r\n\r\n    function getMinterLength() public view returns (uint256) {\r\n        return EnumerableSet.length(_minters);\r\n    }\r\n\r\n    function isMinter(address account) public view returns (bool) {\r\n        return EnumerableSet.contains(_minters, account);\r\n    }\r\n\r\n    function getMinter(uint256 _index) public view onlyOwner returns (address){\r\n        require(_index <= getMinterLength() - 1, \"MdxToken: index out of bounds\");\r\n        return EnumerableSet.at(_minters, _index);\r\n    }\r\n\r\n    // modifier for mint function\r\n    modifier onlyMinter() {\r\n        require(isMinter(msg.sender), \"caller is not the minter\");\r\n        _;\r\n    }\r\n\r\n}\r\n\r\n\r\n// USDT test token\r\ncontract TestTokenTwo is ERC20, Ownable {\r\n    uint256 private constant preMineSupply = 200000000 * 1e18;\r\n    uint256 private constant maxSupply = 1000000000 * 1e18;     // the total supply\r\n\r\n    using EnumerableSet for EnumerableSet.AddressSet;\r\n    EnumerableSet.AddressSet private _minters;\r\n\r\n    constructor() public ERC20(\"Test Token TWO\", \"TSTWO\"){\r\n        _mint(msg.sender, preMineSupply);\r\n    }\r\n\r\n    // mint with max supply\r\n    function mint(address _to, uint256 _amount) public onlyMinter returns (bool) {\r\n        if (_amount.add(totalSupply()) > maxSupply) {\r\n            return false;\r\n        }\r\n        _mint(_to, _amount);\r\n        return true;\r\n    }\r\n\r\n    function addMinter(address _addMinter) public onlyOwner returns (bool) {\r\n        require(_addMinter != address(0), \"TestToken: _addMinter is the zero address\");\r\n        return EnumerableSet.add(_minters, _addMinter);\r\n    }\r\n\r\n    function delMinter(address _delMinter) public onlyOwner returns (bool) {\r\n        require(_delMinter != address(0), \"TestToken: _delMinter is the zero address\");\r\n        return EnumerableSet.remove(_minters, _delMinter);\r\n    }\r\n\r\n    function getMinterLength() public view returns (uint256) {\r\n        return EnumerableSet.length(_minters);\r\n    }\r\n\r\n    function isMinter(address account) public view returns (bool) {\r\n        return EnumerableSet.contains(_minters, account);\r\n    }\r\n\r\n    function getMinter(uint256 _index) public view onlyOwner returns (address){\r\n        require(_index <= getMinterLength() - 1, \"MdxToken: index out of bounds\");\r\n        return EnumerableSet.at(_minters, _index);\r\n    }\r\n\r\n    // modifier for mint function\r\n    modifier onlyMinter() {\r\n        require(isMinter(msg.sender), \"caller is not the minter\");\r\n        _;\r\n    }\r\n\r\n}",
  "sourcePath": "D:/Posao - Stefan/Stefan - razno/Blockchain/ElavateFinance/elavate-core/contracts/mdexSwap/heco/MdxTokenHeco.sol",
  "compiler": {
    "name": "solc",
    "version": "0.6.12+commit.27d51765.Emscripten.clang"
  },
  "schemaVersion": "3.4.1",
  "updatedAt": "2021-07-21T22:52:55.562Z",
  "networkType": "ethereum",
  "devdoc": {
    "kind": "dev",
    "methods": {
      "allowance(address,address)": {
        "details": "See {IERC20-allowance}."
      },
      "approve(address,uint256)": {
        "details": "See {IERC20-approve}. Requirements: - `spender` cannot be the zero address."
      },
      "balanceOf(address)": {
        "details": "See {IERC20-balanceOf}."
      },
      "decimals()": {
        "details": "Returns the number of decimals used to get its user representation. For example, if `decimals` equals `2`, a balance of `505` tokens should be displayed to a user as `5,05` (`505 / 10 ** 2`). Tokens usually opt for a value of 18, imitating the relationship between Ether and Wei. This is the value {ERC20} uses, unless {_setupDecimals} is called. NOTE: This information is only used for _display_ purposes: it in no way affects any of the arithmetic of the contract, including {IERC20-balanceOf} and {IERC20-transfer}."
      },
      "decreaseAllowance(address,uint256)": {
        "details": "Atomically decreases the allowance granted to `spender` by the caller. This is an alternative to {approve} that can be used as a mitigation for problems described in {IERC20-approve}. Emits an {Approval} event indicating the updated allowance. Requirements: - `spender` cannot be the zero address. - `spender` must have allowance for the caller of at least `subtractedValue`."
      },
      "increaseAllowance(address,uint256)": {
        "details": "Atomically increases the allowance granted to `spender` by the caller. This is an alternative to {approve} that can be used as a mitigation for problems described in {IERC20-approve}. Emits an {Approval} event indicating the updated allowance. Requirements: - `spender` cannot be the zero address."
      },
      "name()": {
        "details": "Returns the name of the token."
      },
      "owner()": {
        "details": "Returns the address of the current owner."
      },
      "renounceOwnership()": {
        "details": "Leaves the contract without owner. It will not be possible to call `onlyOwner` functions anymore. Can only be called by the current owner. NOTE: Renouncing ownership will leave the contract without an owner, thereby removing any functionality that is only available to the owner."
      },
      "symbol()": {
        "details": "Returns the symbol of the token, usually a shorter version of the name."
      },
      "totalSupply()": {
        "details": "See {IERC20-totalSupply}."
      },
      "transfer(address,uint256)": {
        "details": "See {IERC20-transfer}. Requirements: - `recipient` cannot be the zero address. - the caller must have a balance of at least `amount`."
      },
      "transferFrom(address,address,uint256)": {
        "details": "See {IERC20-transferFrom}. Emits an {Approval} event indicating the updated allowance. This is not required by the EIP. See the note at the beginning of {ERC20}. Requirements: - `sender` and `recipient` cannot be the zero address. - `sender` must have a balance of at least `amount`. - the caller must have allowance for ``sender``'s tokens of at least `amount`."
      },
      "transferOwnership(address)": {
        "details": "Transfers ownership of the contract to a new account (`newOwner`). Can only be called by the current owner."
      }
    },
    "version": 1
  },
  "userdoc": {
    "kind": "user",
    "methods": {},
    "version": 1
  }
}